:020000040800F2
:1080000040200020998100084B8100084D81000824
:108010004F810008518100085381000800000000D2
:108020000000000000000000000000005581000872
:108030005781000800000000598100085B8100089A
:10804000B3810008B3810008B3810008B381000840
:10805000B3810008B3810008B3810008B381000830
:10806000B3810008B3810008B3810008B381000820
:10807000B3810008B3810008B3810008B381000810
:10808000B3810008B3810008B3810008B381000800
:10809000B3810008B3810008B3810008B3810008F0
:1080A000B3810008B3810008B3810008B3810008E0
:1080B000B3810008C5960008B3810008B3810008A9
:1080C000B3810008B3810008B3810008B3810008C0
:1080D000B3810008B3810008B3810008B3810008B0
:1080E000B3810008B3810008B3810008B3810008A0
:1080F000B3810008B3810008B3810008B381000890
:10810000B3810008B3810008B3810008B38100087F
:10811000B3810008B38100083F970008B3810008CD
:10812000B3810008B3810008B3810008B38100085F
:10813000DFF80CD001F008FF004800477D830008FD
:108140004020002080F3088870477047FEE7FEE774
:10815000FEE7FEE770477047704770470D490860BB
:1081600070470C49486070470A4988607047094960
:108170004AF6AA200860704706494CF6CC400860D1
:10818000704701460020034AD2680A4200D001200D
:10819000704700000030004006488047064800470E
:1081A000FEE7FEE7FEE7FEE7FEE7FEE7FEE7FEE7A7
:1081B000FEE7FEE76D8500083181000830B50B460B
:1081C000014600202022012409E021FA02F59D4207
:1081D00005D303FA02F5491B04FA02F52844151EDB
:1081E000A2F10102F1DC30BD02E008C8121F08C193
:1081F000002AFAD17047704700000000000000001C
:1082000054656D636F4D696E695F61726D000069E1
:108210000000000010B545F25550FFF79FFF042005
:10822000FFF79FFF4FF47A60FFF79EFFFFF7A4FF71
:10823000BDE81040FFF79BBFFFF799BF2DE9F04164
:10824000744C714D714E724F22784FF48078002833
:1082500023D0052A03D10421304600F021FB2078E9
:10826000062803D10421304600F01AFB20780728A5
:1082700003D14146384600F013FB2078082803D18B
:108280004146384600F00CFB2078092829D14146A8
:108290002846BDE8F04100F003BB052A03D10421C4
:1082A000304600F0FFFA2078062803D1042130463A
:1082B00000F0F8FA2078072803D14146384600F04C
:1082C000F1FA2078082803D14146384600F0EAFA4E
:1082D0002078092805D141462846BDE8F04100F044
:1082E000DFBABDE8F0812DE9F0410024494E4FF09E
:1082F00000674FF4006801F0F7F807EBC425284643
:1083000001F01FF901F0F6F83078052806D142484F
:10831000424600EBC421284601F0C6FD307806280D
:1083200006D13E48424600EBC421284601F0BCFD80
:108330003078072806D13A48424600EBC421284647
:1083400001F0B2FD3078082806D13648424600EBED
:10835000C421284601F0A8FD641CE4B2102CCAD345
:10836000BFE7012080F313882F4801682F4A01F4EA
:10837000E06111430160BFF3408FFEE72C49080321
:1083800000F08FF94FF4E13001F0A4FC482001F037
:1083900023FC01F059FAFFF73DFF0E2001F074FBBA
:1083A0001C4C20700F2001F06FFB607021780529B4
:1083B00003D101461FA001F0D9FD2078062803D182
:1083C000617821A001F0D2FD2078072803D16178DF
:1083D00022A001F0CBFD2078082803D1617824A0E9
:1083E00001F0C4FD2078092803D1617825A001F0AF
:1083F000BDFD29A001F0BAFDFFF775FF2CA001F02B
:10840000B5FDFFF7AEFF000000080140001001407D
:10841000001401400000002038A1000838210108A4
:108420003821020838A101080CED00E00400FA052B
:10843000008000084242207570646174653A20250E
:1084400064200D0A000000004C42207570646174C5
:10845000653A202564200D0A000000005442207572
:1084600070646174653A202564200D0A00000000E4
:108470004E42207570646174653A202564200D0AAF
:1084800000000000543130207570646174653A203A
:108490002564200D0A0000000D0A20312E20636F94
:1084A000707920626F6F742121212121200D0A0033
:1084B0000D0A20322E207265626F6F742021200D0C
:1084C0000A0000000CB50022019200925248016897
:1084D00041F4803101604FF4A063016801F4003180
:1084E00000910199491C0191009911B90199994292
:1084F000F3D10168890302D50121009100E00092C7
:108500000099012930D145490A6842F010020A60F9
:108510000A6822F003020A600A6842F002020A6056
:108520004168416041684160416841F48061416057
:10853000416821F47C114160416841F4E8114160D7
:10854000016841F08071016001688901FCD54168D2
:1085500021F003014160416841F00201416041683E
:10856000C1F381010229FAD10CBDABE710B52A484D
:10857000016841F0010101604168294A11404160F0
:108580000168284A11400160016821F480210160DE
:10859000416821F4FE0141604FF41F018160FFF743
:1085A000E4FF21494FF00060086010BD10B51A4A81
:1085B000506800F00C011D4B1D4800290ED0042905
:1085C0000ED008290ED003605168194AC1F3031177
:1085D000121D515C0268CA40026010BD0360F3E7DF
:1085E0000360F1E7516801F47011536803F48033BC
:1085F000022404EB914133B153689B0307D50D4B23
:1086000059430160E0E70B4B59430160DCE7074B3E
:1086100059430160D8E700000010024000200240EA
:108620000000FFF8FFFFF6FE08ED00E000127A0000
:108630000400002000093D002A4908432A49086037
:10864000704770B50F23C27801260178002A1ED02A
:10865000254A126802F4E062C2F5E062120AC2F131
:108660000404D3404578A54082781A402A43120179
:1086700001F1E02181F80024007800F01F018E4014
:108680004009800000F1E020C0F8006170BD01F0F9
:108690001F0086404809800000F1E020C0F880619A
:1086A00070BD124A114001430F48001F016070471E
:1086B0000D4A121D002903D0116801431160704753
:1086C00011688143116070474FF0E021042804D005
:1086D000086920F0040008617047086940F0040050
:1086E000086170470000FA050CED00E080FFFF1FF5
:1086F00010B59C49884209D10121042000F0B3FE45
:108700000021BDE81040042000F0ADBE964988422B
:1087100009D10121082000F0A6FE0021BDE810408B
:10872000082000F0A0BE9149884209D10121102003
:1087300000F099FE0021BDE81040102000F093BE2B
:108740008B49884209D10121202000F08CFE0021B4
:10875000BDE81040202000F086BE8649884209D13D
:108760000121402000F07FFE0021BDE810404020A4
:1087700000F079BE8049884209D10121802000F0B3
:1087800072FE0021BDE81040802000F06CBE7B49E5
:1087900088420AD184150121204600F064FE20465B
:1087A000BDE81040002100F05EBE10BD10B50121F3
:1087B000084600F058FE0021BDE81040012000F0FE
:1087C00052BE2DE9F0410022CC7804F00F03E406FC
:1087D00001D58C7823430C784FF00F0714F0FF0F6E
:1087E0004FF0010C1CD005680CFA02F40E882640EC
:1087F000A64211D1960007FA06F825EA080503FA01
:1088000006F848EA0505CE78282E02D0482E02D078
:1088100002E0446100E00461521C082AE4D30560D0
:108820000A88FF2A1ED94568002202F108060CFAC0
:1088300006F40E882640A64210D1960007FA06F8E4
:1088400025EA080503FA06F848EA0505CE78282E39
:1088500000D14461CE78482E00D10461521C082A10
:10886000E3D34560BDE8F0814FF6FF71018002213E
:1088700081700421C17070470246002092680A424C
:1088800000D001207047806880B270470246002007
:10889000D2680A4200D001207047C06880B2704799
:1088A0000161704741617047002A01D00161704742
:1088B00041617047C160704741F4803282618161DB
:1088C000826181698069704710B52D4B1A684FF637
:1088D0008074224042EA00100843186010BD294904
:1088E000C8617047F0B5264C002801DAE36900E062
:1088F0006368C0F30346420D120185B2C0F301570D
:108900009540032F07D0C2020CD50322B2409343F7
:1089100043F0706209E023F07062636823F07063D3
:10892000636002E0AB4343F0706201B12A43002868
:1089300001DAE261F0BD6260F0BD10B58A07120F86
:108940000F23934021F003040D4921448C689C437C
:108950008C608B68904003438B6010BD0949DC310B
:108960000860704700080140000C01400010014001
:108970000014014000180140001C0140002001408B
:10898000000001400000204230B50288F74CF84D4D
:10899000A0420DD0A8420BD0B0F1804F08D0F54BCB
:1089A000984205D0F44B984202D0F44B984203D140
:1089B00022F070034A881A43F14B984206D0F14BDB
:1089C000984203D022F44073CA881A4302808A88EE
:1089D00082850A880285A0420AD0A84208D0EA4AC5
:1089E000904205D0E94A904202D0E94A904201D132
:1089F000097A01860121818230BD70B5028C22F492
:108A000080720284028C8388848B24F0700424F0AA
:108A100003040D88254322F400720E894FF6FF747B
:108A200004EA062616434A8804EA02223243CF4E5D
:108A3000B04202D0CE4EB04217D122F400664A892D
:108A400004EA0222324322F480668A8804EA02227F
:108A5000324323F4805323F400538E8904EA06162C
:108A60001E43CB8904EA0313334383808583C9887B
:108A70008187028470BD70B5028C22F4805202841A
:108A8000058C8288838B23F4E04323F440760C88A2
:108A90004FF6FF7303EA0424344325F400550E898E
:108AA00003EA06362E434D8803EA05353543AF4EBB
:108AB000B04202D0AE4EB04205D122F480468A893F
:108AC00003EA8212324382808483C988A0F840106E
:108AD000058470BD4FF6FF71818000210180C18047
:108AE000418001727047002904D0018841F00101E2
:108AF00001807047018821F0010101807047002A40
:108B000003D082890A438281704782898A438281A5
:108B10007047018582827047028822F070020A4302
:108B200002807047028922F070020A430281704776
:108B300070B50589048B068C25F007050D434FF6AB
:108B4000FC410C4040F201110C4326F022064FF686
:108B5000FF7101EA0311114331430581048301844C
:108B600070BD028B22F070020A4302837047028BB1
:108B700022F4E0424FF6FF7303EA0121114301831F
:108B80007047828B22F070020A4382837047828B87
:108B900022F4E0424FF6FF7303EA0121114381837F
:108BA0007047002904D0018841F08001018070479E
:108BB000018821F0800101807047002904D081885C
:108BC00041F0040181807047818821F00401818097
:108BD0007047002904D0818841F0080181807047E6
:108BE000818821F0080181807047002904D08188A4
:108BF00041F0010181807047818821F0010181806D
:108C00007047028B22F008020A4302837047028BEE
:108C100022F400624FF6FF7303EA0121114301833E
:108C20007047828B22F008020A4382837047828B4E
:108C300022F400624FF6FF7303EA0121114381839E
:108C40007047028B22F004020A4302837047028BB2
:108C500022F480624FF6FF7303EA0121114301837E
:108C60007047828B22F004020A4382837047828B12
:108C700022F480624FF6FF7303EA012111438183DE
:108C80007047028B22F080020A4302837047028BF6
:108C9000C2F30E024FF6FF7303EA01211143018371
:108CA0007047828B22F080020A4382837047828B56
:108CB000C2F30E024FF6FF7303EA012111438183D1
:108CC0007047028C22F002020A4302847047028C31
:108CD00022F008020A4302847047028C22F020022C
:108CE0004FF6FF7303EA0111114301847047028CB0
:108CF00022F080024FF6FF7303EA01111143018451
:108D00007047028C22F400724FF6FF7303EA0121D0
:108D1000114301847047028C22F400624FF6FF7306
:108D200003EA0121114301847047028C22F40052AE
:108D30004FF6FF7303EA013111430184704710B508
:108D400001238B40048C9C430484038C8A4013438E
:108D5000038410BD10B504238B40048C9C43048411
:108D6000038C8A401343038410BD0000002C014093
:108D7000003401400004004000080040000C0040A6
:108D80000010004000140040004001400044014039
:108D90000048014030B500F1180301248C40058CD7
:108DA000A5430584002911D008290FD0091FC1F35C
:108DB0004E001844016821F4E041016001684FF65B
:108DC000FF7303EA02221143016030BD03EB51003F
:108DD000016821F07001016001681143016030BD3C
:108DE000002904D0018841F0020101807047018808
:108DF00021F0020101807047002904D0018841F070
:108E0000040101807047018821F00401018070474E
:108E1000002904D0818841F08001818070478188D9
:108E200021F0800181807047028822F008020280D0
:108E300002880A4302807047828822F07002828092
:108E400082880A4382807047028922F007020281E9
:108E500002890A4302817047028922F0800202815E
:108E600002890A4302817047818470478185704777
:108E7000818670470187704781877047A0F840104E
:108E80007047028B22F00C020283028B0A4302839A
:108E90007047028B22F440620283028B4FF6FF730D
:108EA00003EA01210A4302837047828B22F00C02FD
:108EB0008283828B0A4382837047828B22F44062D2
:108EC0008283828B4FF6FF7303EA01210A43828378
:108ED0007047028822F44072028002880A430280AE
:108EE0007047808E7047008F7047808F7047B0F852
:108EF00040007047808C7047008D7047024600200C
:108F0000128A0A4200D001207047C943018270478B
:108F100002460020138A0B4092890A40002B02D09F
:108F2000002A00D001207047C94301827047000029
:108F300010B5E14988420AD101218C03204600F096
:108F400092FA2046BDE81040002100F08CBADB49BF
:108F500088420AD101214C04204600F08FFA2046B5
:108F6000BDE81040002100F089BAD54988420AD1F5
:108F700001218C04204600F081FA2046BDE8104013
:108F8000002100F07BBACF4988420AD10121CC04EC
:108F9000204600F073FA2046BDE81040002100F0A2
:108FA0006DBAC94988420AD101210C05204600F05A
:108FB00065FA2046BDE81040002100F05FBA10BD00
:108FC00030B585B004460D46208A4CF6FF71084046
:108FD000E98801432182A0894EF6F3110840A9884F
:108FE0002A8911436A8902431143A181A08A4FF65D
:108FF000FF410840A9890143A182684600F0C5F9F4
:10900000AD48844201D1039800E00298A189090487
:1090100008D500EBC00101EB001029684900B0FB46
:10902000F1F007E000EBC00101EB001029688900B6
:10903000B0FBF1F06422B0FBF2F109010B096FF013
:1090400018056B4300EB8300A3891D044FF0320326
:1090500007D503EBC000B0FBF2F000F007000843B7
:1090600006E003EB0010B0FBF2F000F00F00084345
:10907000208105B030BD4FF4165101600021818080
:10908000C18001810C2242818181704710B5038A21
:109090004FF2FF0213400A884C8822438C88C9880B
:1090A0000C4322431A43028210BD002101804180FB
:1090B0008180C1807047002904D0818941F400512A
:1090C00081817047818921F400518181704710B5F9
:1090D00040F66A13C1F3421301F01F040121A140BD
:1090E000012B07D0022B07D014303AB102680A4393
:1090F000026010BD0C30F8E71030F6E702688A43D2
:10910000026010BD002A03D0828A0A43828270471F
:10911000828A8A4382827047028A22F00F02028288
:10912000028A0A4302827047828922F400628281A5
:1091300082890A4382817047002904D0818941F0E5
:10914000020181817047818921F00201818170478C
:10915000028A22F020020282028A0A4302827047B7
:10916000002904D0018A41F4804101827047018ABC
:1091700021F4804101827047C1F30801818070476A
:109180008088C0F308007047818941F00101818126
:109190007047028BD2B20283028B42EA0121018323
:1091A0007047028B02F47F420283028B0A430283E0
:1091B0007047002904D0818A41F0200181827047E4
:1091C000818A21F0200181827047002904D0818AA0
:1091D00041F0100181827047818A21F01001818263
:1091E0007047002904D0818A41F0080181827047CC
:1091F000818A21F0080181827047002904D0818989
:1092000041F40041818170478189C1F30E01818160
:109210007047002904D0818A41F40061818270473F
:10922000818A21F4006181827047828A22F00402DF
:109230008282828A0A4382827047002904D0818A0E
:1092400041F0020181827047818A21F0020181820E
:1092500070470246002012880A4200D00120704761
:109260008A05C9430180704770B5002440F66A1230
:10927000C1F3421301F01F05012606FA05F2012B86
:109280000CD0022B0DD0838A1340090A8E4000882F
:1092900030400BB100B10124204670BD83891340DA
:1092A000F3E7038A1340F0E740F66A120A0A012145
:1092B0009140C9430180704700380140004400409C
:1092C00000480040004C0040005000407E480168CB
:1092D00041F00101016041687C4A11404160016830
:1092E0007B4A11400160016821F4802101604168DE
:1092F00021F4FE0141604FF41F0181607047724903
:109300000A6822F480320A600A6822F480220A6025
:10931000B0F5803F07D0B0F5802F03D1086840F446
:10932000A02008607047086840F4803008607047EB
:10933000034600205909644A01290AD002290AD0AB
:10934000516A03F01F02012393400B4200D0012019
:1093500070471168F5E7116AF3E718B5002000902F
:109360004FF4A0643120FFF7E3FF0099491C0091FE
:109370000099A14201D00028F4D03120FFF7D8FF96
:1093800008B1012018BD002018BD10B54E4A516823
:1093900001F00C014F4B002927D0042927D00829C0
:1093A00027D00360516801F0F00109094A4B5C5C69
:1093B0000168E1404160546804F4E064240A1C5DE3
:1093C00021FA04F48460546804F46054E40A1B5DD8
:1093D000D940C160526802F44042920B3E4B1B1FC1
:1093E0009A5CB1FBF2F1016110BD0360DAE7036042
:1093F000D8E7516801F47011536803F480330224F4
:1094000004EB914133B153689B0307D5334B594368
:109410000160C7E7314B59430160C3E72D4B594306
:109420000160BFE7284A002903D051690143516117
:1094300070475169814351617047234A002903D025
:1094400091690143916170479169814391617047CE
:109450001D4A002903D0D1690143D1617047D16908
:109460008143D1617047184A002903D0D168014374
:10947000D1607047D1688143D1607047124A00299A
:1094800003D0116901431161704711698143116172
:1094900070471349086070471249C86470470A4909
:1094A000C87170470848416A41F080714162704755
:1094B00001460020044A92680A4200D00120704709
:1094C0000149887270470000001002400000FFF858
:1094D000FFFFF6FE00127A001C00002000093D008C
:1094E000400442420000424273487249416073495D
:1094F000416070477048016941F080010161704727
:109500006D48C068C10701D001207047410701D5EF
:1095100002207047C00601D5032070470020704725
:1095200070B50446FFF7ECFF0546012D05D100F0AC
:1095300066FB641EA4B2002CF4D104B9FF252846B2
:1095400070BD70B5054645F6FF763046FFF7E8FF7B
:10955000002812D1584C206940F00200206165615A
:10956000206940F0400020613046FFF7D9FF012814
:1095700003D0216921F00201216170BD70B506465A
:109580000D46FF20FFF7CCFF00280ED14A4C206982
:1095900040F0010020613580FF20FFF7C1FF012866
:1095A00003D0216921F00101216170BD008870475D
:1095B0002DE9F04105460E461746002407E036F82F
:1095C00014102846FFF7DAFFAD1C641CA4B2BC429D
:1095D000F5D3BDE8F08110B50446002307E020462E
:1095E000FFF7E4FF21F81300A41C5B1C9BB293421D
:1095F000F5D310BD2DE9F05F82460F461546AAF15E
:109600000062B2F5002F52D2FFF76EFF4FEAD22868
:10961000C2F34906C6F58064A54200D82C46DFF89F
:10962000A0B037E032183BF812208A4203D1401C28
:1096300080B2A042F6D3A04214D24846FFF781FF81
:10964000002006E0821937F810102BF81210401C89
:1096500080B2A042F6D348464FF480621849FFF723
:10966000A7FF04E0224639465046FFF7A1FFA54276
:1096700002D1BDE8F05F3DE708F10108002607EBE5
:1096800044070AEB440A281B85B24FF48064A542C4
:1096900000D82C464FF0006000EBC829421408495E
:1096A0004846FFF798FF00204FF6FF71C1E7BDE87D
:1096B000F09F00002301674500200240AB89EFCDF9
:1096C0004000002010B53D4C01212046FFF716FC5C
:1096D000012807D100F0DAFA2046BDE81040012148
:1096E000FFF713BC10BD7FB504460D4601210220D3
:1096F000FFF7AEFEADF80840ADF804500024ADF819
:109700000A40ADF806402D4D01A92846FFF73CF967
:109710001D218DF800108DF801408DF802400121C7
:109720008DF803106846FEF78CFF0122114628468B
:10973000FFF7E5F901212846FFF7D5F97FBD10B500
:109740001F4C01212046FFF7D9FB012803D11D48FA
:109750000168491C01602046BDE810400121FFF767
:10976000D4BB7FB504460D4601211020FFF770FEE3
:10977000ADF80840ADF804500020ADF80A00ADF88F
:1097800006000F4C01A92046FFF7FEF836218DF8A0
:10979000001001218DF8011003228DF802208DF8B0
:1097A00003106846FEF74DFF012211462046FFF7E1
:1097B000A6F901212046FFF796F97FBD000400407D
:1097C000001000402C00002038B5954C208FADF8DB
:1097D000000048208DF803006946606BFEF7F1FF3A
:1097E000218F606BFFF75CF838BD38B58C4C208F4B
:1097F000ADF8000010208DF8030003208DF8020062
:109800006946606BFEF7DDFF218F606BFFF748F85C
:1098100038BD834A002803D0918D906AFFF740B885
:10982000918D906AFFF73EB87D4A002803D0118FD2
:10983000506BFFF735B8118F506BFFF733B878488E
:10984000018F406BFFF718B8F8B5754C0121606ABD
:10985000FFF7F3FDA08DADF8000010258DF8035043
:1098600003268DF802606946A06AFEF7AAFFA18D63
:10987000A06AFFF715F80121206BFFF7DEFD208FAE
:10988000ADF800008DF803508DF802606946606BFA
:10989000FEF797FF218F606BFFF702F8F8BD10B558
:1098A000FFF7A3FF0120FFF7BFFF0120FFF7B1FF84
:1098B000042000F0A4F90020FFF7B6FF042000F018
:1098C0009EF9BDE810400020A3E710B5FFF78DFF1B
:1098D0000020FFF79EFF0020FFF7A6FF042000F006
:1098E0008EF90120FFF795FF0120FFF79DFFBDE8EE
:1098F0001040042000F083B910B500240120FFF7C8
:1099000093FFFFF761FF012000F079F90120FFF7D5
:1099100080FF012000F073F907E0641CE4B2FA2C28
:1099200003D9FFF7D2FF012010BDFFF788FF002801
:10993000F3D1FFF76EFF002010BD10B50020FFF738
:1099400068FFFFF752FF0020FFF76EFF022000F0D4
:1099500056F90120FFF75DFF022000F050F9BDE845
:109960001040002055E710B50020FFF752FFFFF729
:109970003CFF0120FFF758FF022000F040F90120D2
:10998000FFF747FF022000F03AF9BDE81040002041
:109990003FE770B50546FFF728FF0020FFF739FFC6
:1099A0000024E809FFF740FF6806050E022000F0DA
:1099B00026F90120FFF72DFF022000F020F90020FA
:1099C000FFF727FF022000F01AF9641CE4B2082C0C
:1099D000E7D370BD70B506460024FFF7F5FE0025FD
:1099E0000020FFF716FF022000F009F90120FFF721
:1099F00010FF6006040EFFF722FF08B1641CE4B2FA
:109A0000012000F0FCF86D1CEDB2082DE8D31EB16A
:109A1000FFF793FF204670BDFFF7A5FFFAE70000B0
:109A2000F0A0000838B56B4CE06B002815D054F856
:109A30003C0F0121FFF701FD2089ADF80000102047
:109A40008DF8030003208DF8020069466068FEF778
:109A5000B8FE21896068FEF723FF38BD5D4AD16BEF
:109A600000290AD020B1B2F84410106CFEF718BFDC
:109A7000B2F84410106CFEF715BF704710B5FFF731
:109A8000E3FEBDE81040CDE710B50446FFF707FF41
:109A9000200AA02101EB4000C0B2FFF77AFFFFF7D8
:109AA0002BFFE0B2FFF775FFFFF726FFFFF7F7FE8A
:109AB000A120FFF76EFFFFF71FFF0020FFF78AFFCF
:109AC0000446FFF702FF204610BD70B504460D4660
:109AD0000020FFF7C3FFFFF7E2FE200AA02101EB01
:109AE0004000C0B2FFF755FFFFF706FFE0B2FFF7F7
:109AF00050FFFFF701FF2846FFF74BFFFFF7FCFE83
:109B0000FFF7E3FE0120FFF7A9FFBDE87040052045
:109B100000F087B82DE9F04106460D4617460024AF
:109B200009E0E00025FA00F0C1B2301980B2FFF779
:109B3000CCFF641CE4B2BC42F3D3BDE8F0812DE954
:109B4000F04102460E4600200024971908E0050265
:109B5000381B401E80B2FFF797FF2844641CE4B214
:109B6000B442F4D3E9E710B5FF20FFF78DFF552885
:109B70000AD05521FF20FFF7A8FFFF20FFF784FF41
:109B8000552803D0012010BD002010BD002010BDBD
:109B900070B504460E46154608E02046641CA4B283
:109BA000FFF772FF06F8010B6D1EADB2002DF4D168
:109BB00070BD70B506460D46144606E0297830465D
:109BC000FFF783FF761CB6B26D1C641EA4B2F5D2FB
:109BD00070BD0000F0A000084FF0E0210A6922F0FB
:109BE00004020A611849C008087000EB4002C2EB89
:109BF000C0104FF6FF7202EAC00048807047124959
:109C0000097848434FF0E021486100238B6101202F
:109C100008610869C20701D0C003FAD50B618B61E6
:109C200070470949498848434FF0E02148610023C3
:109C30008B61012008610869C20701D0C003FAD511
:109C40000B618B61704700003000002013484FF417
:109C50007A710068B0FBF1F04FF0E021B0F1807F45
:109C600001D301200BE020F07F40401E48610C4AE8
:109C7000F02010700020886107200861002000B1EA
:109C8000FEE7086940F00100086170470548016877
:109C9000491D0160704703480068704704000020B8
:109CA00023ED00E034000020704770B50446012029
:109CB000FEF7C4FA764D40212846FFF7CAFA00287D
:109CC000F9D0A1B22846FFF757FA0020FEF7B6FAFE
:109CD000204670BDF0B587B0074601218803FFF725
:109CE000ACFB6B4E3046FFF723F96A4C012120682C
:109CF000FFF7A3FB2089ADF8180003258DF81A5053
:109D000018208DF81B0006A96068FEF75AFD012196
:109D1000E068FFF792FBA08AADF8180048208DF8A4
:109D20001B0006A92069FEF74CFD25208DF80400D4
:109D300001208DF805008DF806508DF8070001A868
:109D4000FEF77FFC02970020ADF80C00ADF80E0086
:109D5000ADF81000ADF814000C20ADF8120002A907
:109D60003046FFF72DF9012240F225513046FFF72A
:109D7000AEF901213046FFF79EF9474F102638789B
:109D8000052803D0062801D0092812D10121A06995
:109D9000FFF753FB208CADF818008DF81B608DF891
:109DA0001A5006A9E069FEF70CFD218CE069FEF768
:109DB00077FD3878072801D0082814D10121202008
:109DC000FFF73BFB4FF48074ADF818408DF81B6033
:109DD0008DF81A50314D06A92846FEF7F2FC2146AF
:109DE0002846FEF75DFD07B0F0BD70B586B00546AC
:109DF00001211020FFF721FB0121C804FFF728FBF8
:109E0000274E3046FFF794F83015ADF814000320C4
:109E10008DF8160018208DF81700224C05A9204651
:109E2000FEF7CFFCE014ADF8140048208DF81700C1
:109E300005A92046FEF7C5FC34208DF8000000245B
:109E40008DF801408DF8024001208DF8030068462E
:109E5000FEF7F7FB0195ADF808407014ADF80A0065
:109E6000ADF80C40ADF810400C20ADF80E0001A983
:109E70003046FFF7A5F8012240F225513046FFF7A2
:109E800026F901213046FFF716F906B070BD000033
:109E900000380140F0A0000800000020001401403C
:109EA000004C0040001001402DE9F0470D4690465F
:109EB00000240746A0F10060B0F5002F29D2FFF77B
:109EC00013FB00264FF48069DFF870A015E0687876
:109ED000000215F8021B08442146641CA4B22AF8AB
:109EE00011004A46944206D1002414493846FFF72F
:109EF0005FFB07F50067B61CB6B24645E7D324B151
:109F000022460E493846FFF753FBBDE8F047FFF7FE
:109F1000F1BABDE8F08710B50168094A1140B1F106
:109F2000005F09D14168074C21600068FEF70AF91B
:109F30002068BDE81040004710BD00004008002028
:109F40000000FE2F3C000020064C074D06E0E068B4
:109F500040F0010394E8070098471034AC42F6D370
:109F6000FEF7EAF838A1020858A102080FB4054B21
:109F700010B503A9044A029800F010F810BC5DF86F
:109F800014FB0000AB9C000838000020002001E01A
:109F900001C1121F002AFBD1704700002DE9FF4FBD
:109FA00089B09B460446002506E025280BD05A467A
:109FB0000B999047641C6D1C20780028F5D10DB0DA
:109FC0002846BDE8F08F0027B8460122474900E047
:109FD000074314F8013F203B02FA03F00842F7D18F
:109FE00020782E2819D114F8010F47F004072A28E9
:109FF0000ED06FF02F022078A0F1300109290CD883
:10A0000008EB880102EB410100EB0108641CF2E758
:10A010000A98641C50F8048B0A9020780028CED04F
:10A02000642808D0692806D075281ED05A460B9996
:10A0300090476D1C58E00A994FF00A0901C90A912E
:10A04000002802DA40422D2102E0390504D52B21F7
:10A050008DF82010012103E0F90704D02021F7E753
:10A060008A4608AE0DE00021FAE70A994FF00A0986
:10A0700001C90A91F7E74946FEF7A0F8303106F822
:10A08000011D0028F7D1ADEB060000F1200978078B
:10A0900001D44FF00108C84502DDA8EB090000E03B
:10A0A00000208046002706E008A85A46C05D0B99AC
:10A0B00090476D1C7F1C5745F6DB04E030205A4664
:10A0C0000B9990476D1CB8F10001A8F10108F5DC6F
:10A0D00005E016F8010B5A460B9990476D1CB9F133
:10A0E0000001A9F10109F4DC641C65E709280100FD
:10A0F000040000000008014000020000040000000D
:10A1000000080140000400001000000000100140A1
:10A11000040000000400000000080140008000006E
:10A1200004000000000801400001000020000000C1
:10A130000014014000040000806A0020012500088E
:10A14000D9110008DB110008DD110008DF1100083B
:10A15000E111000800000000000000000000000005
:10A1600000000000E3110008E511000800000000F5
:10A17000E7110008E91100081B2500081B2500084D
:10A180001B2500081B2500081B2500081B250008AF
:10A190001B2500081B2500081B2500081B2500089F
:10A1A0001B2500081B2500081B2500081B2500088F
:10A1B0001B2500081B2500081B2500081B2500087F
:10A1C0001B2500081B2500081B2500081B2500086F
:10A1D0001B2500081B2500081B2500081B2500085F
:10A1E0001B2500081B2500081B2500082D3400082E
:10A1F0001B2500081B2500081B2500081B2500083F
:10A200001B2500081B2500081B250008C14300086A
:10A210001B2500081B2500081B2500081B2500081E
:10A220001B2500081B2500081B2500081B2500080E
:10A230001B2500081B2500081B2500081B250008FE
:10A240001B2500081B250008F35200081B250008E9
:10A25000CD3400081B2500081B2500081B2500081D
:10A260001B2500081B25000800F002F800F047F845
:10A270000AA090E8000C82448344AAF10107DA4561
:10A2800001D100F03CF8AFF2090EBAE80F0013F06C
:10A29000010F18BFFB1A43F001031847CC780000E8
:10A2A000EC780000103A24BF78C878C1FAD8520779
:10A2B00024BF30C830C144BF04680C607047000040
:10A2C0000023002400250026103A28BF78C1FBD8BF
:10A2D000520728BF30C148BF0B607047642907F0A0
:10A2E000A180752907F09E80732907F074820020F1
:10A2F00070471FB507F0E7F81FBD10B510BD07F098
:10A30000B7FA1146FFF7F5FF00F0E8FB07F0D5FAC2
:10A3100003B4FFF7F2FF03BC03F02EFF80F30888BD
:10A32000704700000B49D1F800C04A685CF8043B54
:10A330001068184442F8040B8C4528BFA1F1DC0CCE
:10A340008A4228BFA1F1DC02C1F800C04A6020F0B7
:10A3500000407047184A002010B545F2555001F0F2
:10A3600043FA042001F043FA4FF47A6001F042FA14
:10A3700001F048FABDE8104001F03FBA01F03DBAE3
:10A3800070B500244FF40075FF21204602F049FC0F
:10A39000641CA4B2AC42F7D3BDE8704004F098B995
:10A3A0002DE9FE4F0422F949002002F09DFCDFF860
:10A3B000DC83022208F10401042002F095FC06204F
:10A3C00002F00EFCA8F80600FF2802D1FE20A8F833
:10A3D00006004A2088F80800082002F001FC88F8EE
:10A3E000090041210F2002F01CFC98F836100E20C5
:10A3F00002F017FC102002F0F3FBE54C2070272040
:10A4000002F0EEFB0127552803D1207808B9E14876
:10A410000770002401AE04F1280002F0E1FB305582
:10A42000641CE4B2062CF6D39DF804000025FF2836
:10A430003FD19DF80500FF283BD19DF80600FF287D
:10A4400037D19DF80700FF2833D19DF80800FF2879
:10A450002FD19DF80900FF282BD129468DF80450F3
:10A4600002208DF8050035208DF80600AF208DF80C
:10A4700007008DF808108DF80910282002F0D1FB94
:10A480009DF80510292002F0CCFB9DF806102A202B
:10A4900002F0C7FB9DF807102B2002F0C2FB9DF8CD
:10A4A00008102C2002F0BDFB9DF809102D2002F0B1
:10A4B000B8FB002008EB0002315CD172401CC0B236
:10A4C0000628F7D3002404F12F0002F089FB305551
:10A4D000641CE4B2042CF6D39DF8070000909DF8AC
:10A4E00006309DF805209DF80410ABA006F01CFF77
:10A4F0009DF804004FF0C0094FF0A80AFF2827D1AB
:10A500009DF80500FF2823D19DF80600FF281FD1E4
:10A510009DF80700FF281BD149468DF804908DF85F
:10A5200005A08DF8065003208DF807002F2002F0BB
:10A5300078FB9DF80510302002F073FB9DF80610A3
:10A54000312002F06EFB9DF80710322002F069FB0B
:10A55000002008EB0002315C517482F82310401C8B
:10A56000C0B20428F5D32E2002F03AFB8DF8040087
:10A5700028B139468DF804702E2002F052FB9DF868
:10A58000040088F8150088F82700002404F133003F
:10A5900002F026FB3055641CE4B2042CF6D39DF87F
:10A5A0000400FF2820D19DF80500FF281CD19DF84C
:10A5B0000600FF2818D19DF80700FF2814D1FF21BD
:10A5C0008DF80750332002F02CFB9DF80510342045
:10A5D00002F027FB9DF80610352002F022FB9DF8C3
:10A5E0000710362002F01DFB002008EB0002315C52
:10A5F000917582F82810401CC0B20428F5D30024BD
:10A6000004F1370002F0ECFA3055641CE4B2042C7B
:10A61000F6D39DF80400FF2827D19DF80500FF28F8
:10A6200023D19DF80600FF281FD19DF80700FF28C1
:10A630001BD149468DF804908DF805A08DF8065081
:10A6400004208DF80700372002F0EBFA9DF8051082
:10A65000382002F0E6FA9DF80610392002F0E1FAFF
:10A660009DF807103A2002F0DCFA002008EB000207
:10A67000315C917682F82C10401CC0B20428F5D3CE
:10A680003B2002F0ADFA8DF80400FF2805D12946E1
:10A690008DF804503B2002F0C4FA9DF8040088F8BD
:10A6A0001E0088F830003C2002F09AFA8DF8040071
:10A6B0003D2002F095FA8DF805009DF80410FF2961
:10A6C0000AD1FF2808D14FF4FB70A8F820008DF8BC
:10A6D0000470F6208DF805009DF805009DF8041023
:10A6E00040EA0120A8F82000A8F8320088F8345089
:10A6F00088F83550BDE8FE8F10B501210D2001F01E
:10A70000EAFD224890F83600072807D0082805D02F
:10A71000BDE810400121284801F014B8BDE8104000
:10A720000121264801F00EB870B500240121244A09
:10A73000244D254B0C2811D2DFE800F006111C48EF
:10A74000535E69747F8A95A0C2F89C11C5F8801188
:10A75000C3F8B441C3F8B841C2F8984198E0C2F8D0
:10A760009C11C5F88011C3F8B411C3F8B841C2F800
:10A7700098418DE0C2F89C11C5F88011C3F8B4412E
:10A78000C3F8B811C2F8984182E00000F21400202A
:10A790006D00002000000020454550204950204118
:10A7A0004444524553533A25642C25642C25642C8B
:10A7B00025640D0A00000000000430000002300093
:10A7C000008021420000224200002142C2F89C1178
:10A7D000C5F88011C3F8B411C3F8B811C2F8984194
:10A7E00056E0C2F89C11C5F88011C3F8B441C3F813
:10A7F000B841C2F898114BE0C2F89C11C5F880111D
:10A80000C3F8B411C3F8B841C2F8981140E0C2F8D7
:10A810009C11C5F88011C3F8B441C3F8B841C2F81F
:10A82000984135E0C2F89C11C5F88011C3F8B41105
:10A83000C3F8B841C2F898412AE0C2F89C11C5F8A3
:10A840008011C3F8B441C3F8B811C2F898411FE0B1
:10A85000C2F89C11C5F88011C3F8B411C3F8B8113F
:10A86000C2F8984114E0C2F89C11C5F88011C3F8F1
:10A87000B441C3F8B841C2F8981109E0C2F89C117C
:10A88000C5F88011C3F8B411C3F8B841C2F89811E3
:10A89000FD4C0021204601F03DFA2046BDE8704005
:10A8A000002101F039BA2DE9F04188B001210220E0
:10A8B00001F01CFD0121082001F00DFD0324ADF87D
:10A8C0001C404FF018088DF81F808DF81E40EF4E89
:10A8D00007A9304600F0A5FE0121082001F0FBFC8D
:10A8E000C021ADF81C1010258DF81F508DF81E40AA
:10A8F00007A9304600F095FEC021304600F002FF67
:10A900000121102001F0E7FC0126ADF81C608DF854
:10A910001F508DF81E40DE4F07A9384600F081FE1B
:10A920000121384600F0EEFE0121102001F0D3FC99
:10A930006703ADF81C708DF81F508DF81E40D54D83
:10A9400007A9284600F06DFE3946284600F0DAFED9
:10A950004FF47A70ADF814000020ADF81000ADF897
:10A960001600ADF81200C84D04A9284600F05AFFA1
:10A970007021ADF80010ADF802600221ADF80810AA
:10A980006946284600F087FF6946284600F0C1FF67
:10A990000821284601F093F80821284601F095F88F
:10A9A0000121284600F0EDFF8020ADF81C008DF855
:10A9B0001F808DF81E4007A9B74800F032FE08B08E
:10A9C000BDE8F08138B50121082001F084FC332076
:10A9D000ADF8000003248DF8024010208DF803002C
:10A9E000AA4D6946284600F01CFE3321284600F097
:10A9F00089FE8020ADF8000018208DF803008DF846
:10AA000002406946A44800F00CFE38BD2DE9F84329
:10AA100001219C2001F05FFCCC20ADF80000032454
:10AA20008DF8024010258DF803509A4F694638463C
:10AA300000F0F7FDCC21384600F064FEADF8004090
:10AA40008DF802408DF80350DFF840826946404699
:10AA500000F0E7FD0321404600F054FEC820ADF8A9
:10AA600000008DF803508DF80240894E694630464B
:10AA700000F0D7FDC821304600F044FE4FF4A07628
:10AA8000ADF800608DF803508DF8024069464046ED
:10AA900000F0C7FD3146404600F034FEADF80040FE
:10AAA0008DF803508DF802406946384600F0B9FD34
:10AAB0000321384600F026FE8020ADF800008DF816
:10AAC00003508DF80240744C6946204600F0A9FD01
:10AAD0008021204600F016FEBDE8F883ADF5836DB9
:10AAE0006E4C052084F83600000200F0D5FCFFF71C
:10AAF00003FEFFF731FC94F83600052804D0062841
:10AB000005D0072806D007E0FFF7CDFE04E0FFF7E9
:10AB100059FF01E0FFF77AFF03F062FC482003F0E1
:10AB200025FC94F8360000250127052801D00628C9
:10AB300007D102F033FC5A4E3560642003F03BFC31
:10AB4000376001F00DFE02F045F8092002F048F8E8
:10AB5000A072092800D820B90921A172092002F0A9
:10AB600060F803F044FDFFF71BFCFFF7F5FB4D4ECB
:10AB70007570B58006F10808C8F80170474890F86C
:10AB80003600052813D0062816D0072819D0082823
:10AB90001CD0412144A006F0C7FB02F08CFC02F05F
:10ABA00053F94FF47A7003F006FC002418E04121B9
:10ABB00046A006F0B9FBF0E741214AA006F0B4FB3D
:10ABC000EBE741214DA006F0AFFBE6E7412151A0A4
:10ABD00006F0AAFBE1E7FFF7D1FB322003F0EBFB25
:10ABE00005F006FF20B12046641CE4B20A28F2D327
:10ABF00041F61F41322002F0D9FC4E4805604E4814
:10AC00000570DFF83891B9F800046FF30E00A9F869
:10AC1000000499F8010420F0800089F8010421481B
:10AC200085700026002498F80100C00715D04FF465
:10AC3000E13003F03DFB02F065FE02F0DAFE04466F
:10AC4000022C20D03EA006F06FFB002002F0FEFE9A
:10AC5000642003F0B0FBFFF791FB03F0E6FBCDF8B7
:10AC60000C04DFF8EC80FFF789FB03F0DEFBCDF886
:10AC70001004DDF8100401F0E3FDDDF80C14DDF83C
:10AC80001004401A66E06DE000040040000C014032
:10AC90000010014000080140001C0140F214002097
:10ACA0009C81234200000020706C656173652073F5
:10ACB00065742070616E656C2074797065207265B2
:10ACC000763A202025750D0A0000000042422062DD
:10ACD0006F6F746C6F61646572207265763A2025BF
:10ACE000750D0A004C4220626F6F746C6F61646571
:10ACF00072207265763A2025750D0A005442206252
:10AD00006F6F746C6F61646572207265763A20258E
:10AD1000750D0A00543320526F7574657220626F8E
:10AD20006F746C6F61646572207265763A20257568
:10AD30000D0A000064000020CF000020F008002071
:10AD40007769666920696E6578697374210D0A00F8
:10AD50006D00002043F6982B58450AD998F800005A
:10AD600020B106E0F6A006F0DFFA6EE7F84804F03E
:10AD7000D4FBDFF8E0A3BAF80400401CAAF80400F2
:10AD8000DFF8D49399F8010400060AD5022C08D004
:10AD900099F8010420F0800089F80104EFA006F082
:10ADA000C3FA03E103F041FBCDF81004DDF8100411
:10ADB00001F046FDFFF7E2FA012003F0FCFADFF8AC
:10ADC000A893E44899F8001001804188491C41800B
:10ADD000DFF898B39BF8010008B1012822D1DFF811
:10ADE00090A39AF80000012813D103F011FC60B180
:10ADF00003F0F4FB03F022FBDE49002003F075FCB6
:10AE0000DC49002003F04CFF01E003F065FB8AF809
:10AE10000050D949087828B1401EC0B2087008B95E
:10AE200003F05AFBDDF80C14DDF8100443F6982A01
:10AE3000401A504505D998F8000010B9C44804F0EC
:10AE40006CFB99F8000068B9CC490A7852B1CC4A39
:10AE5000DDF810041268821A41F2883082422FD342
:10AE60000D702DE0012810D002281AD0DDF80C1446
:10AE7000DDF81004401A504502D398F8000080B164
:10AE80009BF8000001280CD01AE0BE48DDF8101431
:10AE90000068091A42F21070814211D389F80050FB
:10AEA0000EE003F0C2FACDF80C04294689F80050F0
:10AEB00088F80010102001F0B4FEA54804F02DFB26
:10AEC0009BF8010008B1032870D19BF802003043C1
:10AED0006CD1022C6AD18146AB48CDF814042822EB
:10AEE0000DF58160DDF8141402F078FF28B3DFF867
:10AEF00098A2AAF1380A9AF83B0000909AF83A30E2
:10AF00009AF839209AF83810A0A006F00DFA9AF8AD
:10AF1000380040B99AF8390028B99AF83A0010B9BF
:10AF20009AF83B0010B18BF8027010E041F28830C3
:10AF300003F041FA8BF8025002E0C82003F03BFA1C
:10AF400009F1010909F0FF09B9F1050FC7D39BF811
:10AF5000020000B901264FF4FA7A5346002291A16B
:10AF600091A002F0F4FC012002F0A8FD00F045FCE5
:10AF7000534600228BA190A002F0E9FC42F2107A25
:10AF80000BE000F03AFC0A2003F015FA09F1010980
:10AF900009F0FF09B9F1030F08D2022352465021EC
:10AFA00089A0009702F0D2FD0028EAD06A4890F804
:10AFB000010400067FF5F6AE022C6FD161028648CF
:10AFC00006F034FBDFF8A4A1AAF80650002002F036
:10AFD000DAFFDFF884910146B9F80004C0F30E02ED
:10AFE0007E4806F0D6FAB9F800046FF30E00A9F80F
:10AFF000000499F8010420F0800089F801049AF80F
:10B00000010008B1032849D17448C079303800F0F4
:10B01000FF097149714802F0CBFFAAF80600E8B3B6
:10B02000B9F1010F3AD10DF1080BDFF83C9199F815
:10B03000001011B101297FD16CE00246664902A8D7
:10B0400006F0A7FABAF806002D2875D164A1584673
:10B0500006F042FA78B33E2088F80000012005F09F
:10B0600091FDDFF88CA101231F220020DAF80010E7
:10B0700002F04DFF44489DF82110383890F83820F0
:10B08000914219D19DF8221090F83920914213D1A4
:10B090009DF8231090F83A20914200E04CE00BD14B
:10B0A0009DF8241090F83B00814205D133490220DD
:10B0B0000870504807701CE030480178F1B1057005
:10B0C0009DF81500A8B19DF8160090B19DF81700E5
:10B0D00078B19DF8180060B1012005F053FD0123FF
:10B0E0001F220020DAF8001002F011FF142003F0F4
:10B0F00062F922480078022802D01DE00770DFE7DD
:10B1000003F093F91F49086089F800703AA006F02F
:10B110000BF911E00246304902A806F03AFA02A9FA
:10B12000012005F0BAFF3748007810B1022089F8F5
:10B13000000035A006F0F8F8012003F03CF992E594
:10B1400077696669206578697374210D0A000000CB
:10B15000008000082C170020F00800206572726F34
:10B1600072200D0A00000000CF0000200000002027
:10B170006E0000202E1500206F000020CE00002061
:10B18000D8000020DC0000202A15002077696669BD
:10B190002049502025752E25752E25752E25750DD7
:10B1A0000A0000004F4B000041542B4349504D4FC3
:10B1B00044453D300000000041542B434950434C6E
:10B1C0004F53453D350000003235352E3235352E92
:10B1D0003235352E32353500F0040020F0000020E5
:10B1E00054656D636F636F6E74726F6C73000000F3
:10B1F000D4000020CD00002020786D69742031201B
:10B200000D0A0000E400002020646F6E65203120EC
:10B210000D0A00002DE9F0413848C17800290CD111
:10B220000121C1704FF4FA71103004F08FF93348E6
:10B2300042F21071183004F089F905F02EFC304DFF
:10B24000288018B34FF4006004F0EBF92D4CA1896D
:10B2500088420BD1012004F041FB288800284BD004
:10B2600005F011FBBDE8F04105F01FBC40F60600FB
:10B2700004F0D7F9A18988423ED105F0B8FA2888B0
:10B28000002839D0BDE8F04105F00FBC1B48103054
:10B2900004F06EF900282FD01848103004F05DF942
:10B2A0000024288818B105F0EEFA05F0FEFB641CB6
:10B2B000E4B2282CF5D30024134E144F06EB84106F
:10B2C0003860052004F00AFB288818B105F0DBFA85
:10B2D00005F0EBFB641CE4B20A2CEFD307481830EE
:10B2E00004F046F9002807D00448183004F035F976
:10B2F000BDE8F04105F0FFB9BDE8F0810000002095
:10B3000090000020401F0020D4350020AC00002019
:10B310007047FEE7FEE7FEE7FEE7704770477047BD
:10B32000704700000CB5002201920092524801685B
:10B3300041F4803101604FF4A063016801F40031F1
:10B3400000910199491C0191009911B90199994203
:10B35000F3D10168890302D50121009100E0009238
:10B360000099012930D145490A6842F010020A606B
:10B370000A6822F003020A600A6842F002020A60C8
:10B380004168416041684160416841F480614160C9
:10B39000416821F47C114160416841F4E811416049
:10B3A000016841F08071016001688901FCD5416844
:10B3B00021F003014160416841F0020141604168B0
:10B3C000C1F381010229FAD10CBDABE710B52A48BF
:10B3D000016841F0010101604168294A1140416062
:10B3E0000168284A11400160016821F48021016050
:10B3F000416821F4FE0141604FF41F018160FFF7B5
:10B40000E4FF21494FF00060086010BD10B51A4AF2
:10B41000506800F00C011D4B1D4800290ED0042976
:10B420000ED008290ED003605168194AC1F30311E8
:10B43000121D515C0268CA40026010BD0360F3E750
:10B440000360F1E7516801F47011536803F480332D
:10B45000022404EB914133B153689B0307D50D4B94
:10B4600059430160E0E70B4B59430160DCE7074BB0
:10B4700059430160D8E7000000100240002002405C
:10B480000000FFF8FFFFF6FE08ED00E000127A0072
:10B490002000002000093D002A4908432A4908608D
:10B4A000704770B50F23C27801260178002A1ED09C
:10B4B000254A126802F4E062C2F5E062120AC2F1A3
:10B4C0000404D3404578A54082781A402A431201EB
:10B4D00001F1E02181F80024007800F01F018E4086
:10B4E0004009800000F1E020C0F8006170BD01F06B
:10B4F0001F0086404809800000F1E020C0F880610C
:10B5000070BD124A114001430F48001F016070478F
:10B510000D4A121D002903D01168014311607047C4
:10B5200011688143116070474FF0E021042804D076
:10B53000086920F0040008617047086940F00400C1
:10B54000086170470000FA050CED00E080FFFF1F66
:10B5500010B59C49884209D10121042000F0D1FE98
:10B560000021BDE81040042000F0CBBE964988427F
:10B5700009D10121082000F0C4FE0021BDE81040DF
:10B58000082000F0BEBE9149884209D10121102057
:10B5900000F0B7FE0021BDE81040102000F0B1BE61
:10B5A0008B49884209D10121202000F0AAFE002108
:10B5B000BDE81040202000F0A4BE8649884209D191
:10B5C0000121402000F09DFE0021BDE810404020F8
:10B5D00000F097BE8049884209D10121802000F007
:10B5E00090FE0021BDE81040802000F08ABE7B491B
:10B5F00088420AD184150121204600F082FE2046AF
:10B60000BDE81040002100F07CBE10BD10B5012146
:10B61000084600F076FE0021BDE81040012000F051
:10B6200070BE2DE9F0410022CC7804F00F03E4064F
:10B6300001D58C7823430C784FF00F0714F0FF0FDF
:10B640004FF0010C1CD005680CFA02F40E8826405D
:10B65000A64211D1960007FA06F825EA080503FA72
:10B6600006F848EA0505CE78282E02D0482E02D0EA
:10B6700002E0446100E00461521C082AE4D3056042
:10B680000A88FF2A1ED94568002202F108060CFA32
:10B6900006F40E882640A64210D1960007FA06F856
:10B6A00025EA080503FA06F848EA0505CE78282EAB
:10B6B00000D14461CE78482E00D10461521C082A82
:10B6C000E3D34560BDE8F0814FF6FF7101800221B0
:10B6D00081700421C17070470246002092680A42BE
:10B6E00000D001207047806880B270470246002079
:10B6F000D2680A4200D001207047C06880B270470B
:10B700000161704741617047002A01D001617047B3
:10B7100041617047C160704741F48032826181614C
:10B72000826181698069704710B52D4B1A684FF6A8
:10B730008074224042EA00100843186010BD294975
:10B74000C8617047F0B5264C002801DAE36900E0D3
:10B750006368C0F30346420D120185B2C0F301577E
:10B760009540032F07D0C2020CD50322B240934369
:10B7700043F0706209E023F07062636823F0706345
:10B78000636002E0AB4343F0706201B12A430028DA
:10B7900001DAE261F0BD6260F0BD10B58A07120FF8
:10B7A0000F23934021F003040D4921448C689C43EE
:10B7B0008C608B68904003438B6010BD0949DC317D
:10B7C0000860704700080140000C01400010014073
:10B7D0000014014000180140001C014000200140FD
:10B7E00000000140000020420D49086070470C49EC
:10B7F000486070470A498860704709494AF6AA209C
:10B800000860704706494CF6CC4008607047014616
:10B810000020034AD2680A4200D00120704700008D
:10B820000030004030B50288F74CF84DA0420DD0F2
:10B83000A8420BD0B0F1804F08D0F54B984205D00C
:10B84000F44B984202D0F44B984203D122F070039B
:10B850004A881A43F14B984206D0F14B984203D0E4
:10B8600022F44073CA881A4302808A8882850A8833
:10B870000285A0420AD0A84208D0EA4A904205D0E8
:10B88000E94A904202D0E94A904201D1097A018600
:10B890000121818230BD70B5028C22F48072028455
:10B8A000028C8388848B24F0700424F003040D88B8
:10B8B000254322F400720E894FF6FF7404EA06262F
:10B8C00016434A8804EA02223243CF4EB04202D0E5
:10B8D000CE4EB04217D122F400664A8904EA022211
:10B8E000324322F480668A8804EA0222324323F437
:10B8F000805323F400538E8904EA06161E43CB8935
:10B9000004EA0313334383808583C98881870284D3
:10B9100070BD70B5028C22F480520284058C82883E
:10B92000838B23F4E04323F440760C884FF6FF73B7
:10B9300003EA0424344325F400550E8903EA06364D
:10B940002E434D8803EA05353543AF4EB04202D051
:10B95000AE4EB04205D122F480468A8903EA8212B3
:10B96000324382808483C988A0F84010058470BD6A
:10B970004FF6FF71818000210180C18041800172FA
:10B980007047002904D0018841F00101018070470F
:10B99000018821F0010101807047002A03D08289CB
:10B9A0000A438281704782898A4382817047018578
:10B9B00082827047028822F070020A430280704738
:10B9C000028922F070020A430281704770B505892E
:10B9D000048B068C25F007050D434FF6FC410C4007
:10B9E00040F201110C4326F022064FF6FF7101EAE6
:10B9F00003111143314305810483018470BD028B1F
:10BA000022F070020A4302837047028B22F4E04264
:10BA10004FF6FF7303EA0121114301837047828BC4
:10BA200022F070020A4382837047828B22F4E04244
:10BA30004FF6FF7303EA0121114381837047002908
:10BA400004D0018841F0800101807047018821F015
:10BA5000800101807047002904D0818841F00401F1
:10BA600081807047818821F004018180704700291E
:10BA700004D0818841F0080181807047818821F0DD
:10BA8000080181807047002904D0818841F00101BC
:10BA900081807047818821F0010181807047028B8D
:10BAA00022F008020A4302837047028B22F40062EC
:10BAB0004FF6FF7303EA0121114301837047828B24
:10BAC00022F008020A4382837047828B22F40062CC
:10BAD0004FF6FF7303EA0121114381837047028B04
:10BAE00022F004020A4302837047028B22F4806230
:10BAF0004FF6FF7303EA0121114301837047828BE4
:10BB000022F004020A4382837047828B22F480620F
:10BB10004FF6FF7303EA0121114381837047028BC3
:10BB200022F080020A4302837047028BC2F30E02A6
:10BB30004FF6FF7303EA0121114301837047828BA3
:10BB400022F080020A4382837047828BC2F30E0286
:10BB50004FF6FF7303EA0121114381837047028C82
:10BB600022F002020A4302847047028C22F008028B
:10BB70000A4302847047028C22F020024FF6FF73C2
:10BB800003EA0111114301847047028C22F0800204
:10BB90004FF6FF7303EA0111114301847047028CD1
:10BBA00022F400724FF6FF7303EA0121114301846E
:10BBB0007047028C22F400624FF6FF7303EA012102
:10BBC000114301847047028C22F400524FF6FF7338
:10BBD00003EA013111430184704710B501238B4002
:10BBE000048C9C430484038C8A401343038410BD5B
:10BBF00010B504238B40048C9C430484038C8A403E
:10BC00001343038410BD0000002C014000340140A8
:10BC10000004004000080040000C004000100040FC
:10BC20000014004000400140004401400048014031
:10BC300030B500F1180301248C40058CA543058420
:10BC4000002911D008290FD0091FC1F34E00184454
:10BC5000016821F4E041016001684FF6FF7303EAD7
:10BC600002221143016030BD03EB5100016821F055
:10BC70007001016001681143016030BD002904D0EA
:10BC8000018841F0020101807047018821F0020122
:10BC900001807047002904D0018841F0040101802F
:10BCA0007047018821F0040101807047002904D009
:10BCB000818841F0800181807047818821F0800176
:10BCC00081807047028822F00802028002880A43BD
:10BCD00002807047828822F07002828082880A4344
:10BCE00082807047028922F00702028102890A439A
:10BCF00002817047028922F08002028102890A4390
:10BD000002817047818470478185704781867047C2
:10BD10000187704781877047A0F840107047028BF9
:10BD200022F00C020283028B0A4302837047028BCB
:10BD300022F440620283028B4FF6FF7303EA012173
:10BD40000A4302837047828B22F00C028283828B2B
:10BD50000A4382837047828B22F440628283828B03
:10BD60004FF6FF7303EA01210A438283704702887A
:10BD700022F44072028002880A4302807047808E5B
:10BD80007047008F7047808F7047B0F84000704751
:10BD9000808C7047008D704702460020128A0A424C
:10BDA00000D001207047C94301827047024600203D
:10BDB000138A0B4092890A40002B02D0002A00D03F
:10BDC00001207047C94301827047000010B5E14966
:10BDD00088420AD101218C03204600F092FA2046C5
:10BDE000BDE81040002100F08CBADB4988420AD13E
:10BDF00001214C04204600F08FFA2046BDE8104097
:10BE0000002100F089BAD54988420AD101218C0469
:10BE1000204600F081FA2046BDE81040002100F0E5
:10BE20007BBACF4988420AD10121CC04204600F0D8
:10BE300073FA2046BDE81040002100F06DBAC949F0
:10BE400088420AD101210C05204600F065FA2046FF
:10BE5000BDE81040002100F05FBA10BD30B585B0DC
:10BE600004460D46208A4CF6FF710840E9880143DC
:10BE70002182A0894EF6F3110840A9882A8911432E
:10BE80006A8902431143A181A08A4FF6FF4108400D
:10BE9000A9890143A182684600F0C5F9AD488442F2
:10BEA00001D1039800E00298A189090408D500EBAC
:10BEB000C00101EB001029684900B0FBF1F007E078
:10BEC00000EBC00101EB001029688900B0FBF1F024
:10BED0006422B0FBF2F109010B096FF018056B4306
:10BEE00000EB8300A3891D044FF0320307D503EB59
:10BEF000C000B0FBF2F000F00700084306E003EBDF
:10BF00000010B0FBF2F000F00F000843208105B0F4
:10BF100030BD4FF41651016000218180C180018144
:10BF20000C2242818181704710B5038A4FF2FF02D3
:10BF300013400A884C8822438C88C9880C432243CA
:10BF40001A43028210BD0021018041808180C1809E
:10BF50007047002904D0818941F4005181817047E4
:10BF6000818921F400518181704710B540F66A1330
:10BF7000C1F3421301F01F040121A140012B07D09E
:10BF8000022B07D014303AB102680A43026010BD98
:10BF90000C30F8E71030F6E702688A43026010BD03
:10BFA000002A03D0828A0A4382827047828A8A43A7
:10BFB00082827047028A22F00F020282028A0A43BA
:10BFC00002827047828922F40062828182890A4358
:10BFD00082817047002904D0818941F0020181816A
:10BFE0007047818921F0020181817047028A22F025
:10BFF00020020282028A0A4302827047002904D08A
:10C00000018A41F4804101827047018A21F4804114
:10C0100001827047C1F30801818070478088C0F3B6
:10C0200008007047818941F0010181817047028BCE
:10C03000D2B20283028B42EA012101837047028B54
:10C0400002F47F420283028B0A4302837047002975
:10C0500004D0818A41F0200181827047818A21F0D9
:10C06000200181827047002904D0818A41F01001AB
:10C0700081827047818A21F01001818270470029F6
:10C0800004D0818A41F0080181827047818A21F0C1
:10C09000080181827047002904D0818941F4004160
:10C0A000818170478189C1F30E0181817047002928
:10C0B00004D0818A41F4006181827047818A21F431
:10C0C000006181827047828A22F004028282828A21
:10C0D0000A4382827047002904D0818A41F002011C
:10C0E00081827047818A21F0020181827047024675
:10C0F000002012880A4200D0012070478A05C943F7
:10C100000180704770B5002440F66A12C1F34213F3
:10C1100001F01F05012606FA05F2012B0CD0022BB7
:10C120000DD0838A1340090A8E40008830400BB13D
:10C1300000B10124204670BD83891340F3E7038AD0
:10C140001340F0E740F66A120A0A01219140C94300
:10C150000180704700380140004400400048004022
:10C16000004C0040005000407E48016841F0010151
:10C17000016041687C4A1140416001687B4A11407E
:10C180000160016821F480210160416821F4FE0111
:10C1900041604FF41F018160704772490A6822F4C0
:10C1A00080320A600A6822F480220A60B0F5803F7B
:10C1B00007D0B0F5802F03D1086840F4A0200860B4
:10C1C0007047086840F480300860704703460020DC
:10C1D0005909644A01290AD002290AD0516A03F098
:10C1E0001F02012393400B4200D0012070471168C9
:10C1F000F5E7116AF3E718B5002000904FF4A0644A
:10C200003120FFF7E3FF0099491C00910099A142FA
:10C2100001D00028F4D03120FFF7D8FF08B1012069
:10C2200018BD002018BD10B54E4A516801F00C0130
:10C230004F4B002927D0042927D0082927D0036095
:10C24000516801F0F00109094A4B5C5C0168E1406A
:10C250004160546804F4E064240A1C5D21FA04F48B
:10C260008460546804F46054E40A1B5DD940C160E2
:10C27000526802F44042920B3E4B1B1F9A5CB1FB8A
:10C28000F2F1016110BD0360DAE70360D8E751689D
:10C2900001F47011536803F48033022404EB9141DC
:10C2A00033B153689B0307D5334B59430160C7E74C
:10C2B000314B59430160C3E72D4B59430160BFE740
:10C2C000284A002903D051690143516170475169DF
:10C2D000814351617047234A002903D0916901438A
:10C2E0009161704791698143916170471D4A0029AE
:10C2F00003D0D1690143D1617047D1698143D161D4
:10C300007047184A002903D0D1680143D1607047B3
:10C31000D1688143D1607047124A002903D0116966
:10C3200001431161704711698143116170471349DD
:10C33000086070471249C86470470A49C87170475D
:10C340000848416A41F0807141627047014600200F
:10C35000044A92680A4200D001207047014988725D
:10C3600070470000001002400000FFF8FFFFF6FEDB
:10C3700000127A003800002000093D0040044242CB
:10C380000000424210B5A94988420AD18414012113
:10C390002046FFF7B6FF2046BDE810400021FFF71A
:10C3A000B0BFA34988420AD1041401212046FFF7F7
:10C3B000B3FF2046BDE810400021FFF7ADBF9D4907
:10C3C00088420AD1C41301212046FFF7A5FF204669
:10C3D000BDE810400021FFF79FBF10BD30B50288B7
:10C3E00002F441530A884C88CD8822438C882C4320
:10C3F00022430C8922434C8922438C892243CC89D5
:10C4000022431A430280828B22F400628283098ACB
:10C41000018230BDF0B585B005460C4602200021F2
:10C420000126AA8B4FF240031A40AA8302222A84D3
:10C43000AF8BA268022A21D0A08800B102266846EC
:10C44000FFF7F1FE0098E188B1F5007F2CD0710173
:10C45000B0FBF1F000EB8000A1684000B0FBF1F010
:10C46000401D80B20A21B0FBF1F000F00101401A3A
:10C47000C0F34F004FF6FF7202EA0121821EFE2A2E
:10C4800001D302200021E288084302432A84208845
:10C490006188A2890843A18811430843384340F4C6
:10C4A0000060A88305B0F0BD000A00EB8000A16821
:10C4B0004000B0FBF1F0401D80B2D3E700210180C5
:10C4C00041808180C180018141818181C1810721B9
:10C4D000018270470021018041808180C180022259
:10C4E000826081817047002904D0018841F04001B9
:10C4F00001807047018821F04001018070470029C8
:10C5000004D0818B41F4806181837047818B21F459
:10C51000806181837047090901238B4099B2002A09
:10C5200003D082880A438280704782888A4382804F
:10C530007047002A03D082880A438280704782882D
:10C540008A43828070478181704780897047A1F556
:10C550007E42FF3A04D0018841F480710180704727
:10C56000018821F4807101807047002904D08188FE
:10C5700041F0040181807047818821F004018180AD
:10C580007047028822F40062028002880A43028017
:10C590007047018841F4805101807047002904D020
:10C5A000018841F4005101807047018821F4005155
:10C5B00001807047012901D0008B7047808A704745
:10C5C000008A7047B1F5804F04D0018821F4804182
:10C5D00001807047018841F4804101807047024624
:10C5E000002012890A4200D001207047C94301810E
:10C5F000704730B50246002001F00F03012505FA0F
:10C6000003F4A3B2090905FA01F4A4B29188214008
:10C6100012891A4202D0002900D0012030BD01F059
:10C620000F0201219140C943018170470030014050
:10C6300000380040003C0040094880470948004756
:10C64000FEE7FEE7FEE7FEE7FEE7FEE7FEE7FEE7C2
:10C65000FEE7FEE704480549054A064B704700001F
:10C660009512000831010008804A0020806A0020ED
:10C67000805A0020805A0020F8B501214FF4F6704E
:10C68000FFF729FE4FF40166ADF8006010248DF825
:10C69000034003258DF80250944F69463846FEF753
:10C6A000C0FF31463846FFF72BF86601ADF8006051
:10C6B0008DF803408DF802508D4F69463846FEF7DD
:10C6C000B0FF31463846FFF71BF84FF48966ADF8E6
:10C6D00000608DF803408DF80250864F6946384659
:10C6E000FEF79FFF31463846FFF70AF842F21F0671
:10C6F000ADF800608DF803408DF802507E4F69461A
:10C700003846FEF78EFF31463846FEF7F9FFE60160
:10C71000ADF800608DF803408DF80250774F694600
:10C720003846FEF77EFF31463846FEF7E9FF4FF404
:10C73000E046ADF800608DF803408DF80250704C73
:10C7400069462046FEF76DFF31462046FEF7D8FFCA
:10C750006C49012008606C490020C1F88C01F8BDCB
:10C76000F8B56A484024102590F836100326644F27
:10C770004FF48070052915D0072925D0082910D13C
:10C780000121FFF7A8FDADF800408DF803508DF8AA
:10C79000026069463846FEF744FF40213846FEF7FE
:10C7A000AFFFF8BD0121FFF796FDADF800408DF811
:10C7B00003508DF8026069463846FEF732FF0421C7
:10C7C0004D48FEF79FFFF8BDBDE8F84054E770B54F
:10C7D0004E4C4B4D94F83600052803D14021284695
:10C7E000FEF790FF94F83610072902D1484B00223B
:10C7F0001A60082905D12846BDE870404021FEF79F
:10C8000081BF70BD70B5414C3D4D94F8361005297F
:10C8100002D0072905D007E040212846FEF770FF27
:10C8200002E03B4A0121116094F83600082805D146
:10C830002846BDE870404021FEF762BF70BD7047DA
:10C8400070B50446002C0AD0324D304E6868201A6C
:10C85000052825D330480078012803D00DE0BDE835
:10C860007040ECE72D490888401C80B2088042F2F5
:10C870001071884201D901F02BFF6C602878401CB0
:10C88000287096F8360005280AD168780621B0FB92
:10C89000F1F201FB1200FDF747FF6878401C687059
:10C8A00028783C2815D006DC14280FD028281BD166
:10C8B000BDE87040A6E750280ED0C82814D196F8DD
:10C8C000360005280BD0062809D00BE0BDE87040E3
:10C8D0007DE7BDE870407AE7BDE8704092E75520FB
:10C8E00000F038FD0020287070BD000000080140F5
:10C8F000000C01400014014000180140001C0140E0
:10C90000002001408401234200802242F2140020D2
:10C91000AC01214248000020CD000020D0000020C2
:10C9200038B5954C208FADF8000048208DF80300F5
:10C930006946606BFEF775FE218F606BFEF7E0FEC7
:10C9400038BD38B58C4C208FADF8000010208DF824
:10C95000030003208DF802006946606BFEF761FE5C
:10C96000218F606BFEF7CCFE38BD834A002803D0D0
:10C97000918D906AFEF7C4BE918D906AFEF7C2BE9B
:10C980007D4A002803D0118F506BFEF7B9BE118F7E
:10C99000506BFEF7B7BE7848018F406BFEF79CBE28
:10C9A000F8B5754C0121606AFFF795FCA08DADF8D4
:10C9B000000010258DF8035003268DF802606946AB
:10C9C000A06AFEF72EFEA18DA06AFEF799FE012156
:10C9D000206BFFF780FC208FADF800008DF803502E
:10C9E0008DF802606946606BFEF71BFE218F606B5D
:10C9F000FEF786FEF8BD10B5FFF7A3FF0120FFF795
:10CA0000BFFF0120FFF7B1FF042001F0C2FC0020AE
:10CA1000FFF7B6FF042001F0BCFCBDE81040002089
:10CA2000A3E710B5FFF78DFF0020FFF79EFF002062
:10CA3000FFF7A6FF042001F0ACFC0120FFF795FFF3
:10CA40000120FFF79DFFBDE81040042001F0A1BCCC
:10CA500010B500240120FFF793FFFFF761FF0120CD
:10CA600001F097FC0120FFF780FF012001F091FC0D
:10CA700007E0641CE4B2FA2C03D9FFF7D2FF0120CF
:10CA800010BDFFF788FF0028F3D1FFF76EFF0020ED
:10CA900010BD10B50020FFF768FFFFF752FF002020
:10CAA000FFF76EFF022001F074FC0120FFF75DFF2D
:10CAB000022001F06EFCBDE81040002055E710B5E3
:10CAC0000020FFF752FFFFF73CFF0120FFF758FF60
:10CAD000022001F05EFC0120FFF747FF022001F079
:10CAE00058FCBDE8104000203FE770B50546FFF751
:10CAF00028FF0020FFF739FF0024E809FFF740FF77
:10CB00006806050E022001F044FC0120FFF72DFF0E
:10CB1000022001F03EFC0020FFF727FF022001F079
:10CB200038FC641CE4B2082CE7D370BD70B506462F
:10CB30000024FFF7F5FE00250020FFF716FF022076
:10CB400001F027FC0120FFF710FF6006040EFFF73D
:10CB500022FF08B1641CE4B2012001F01AFC6D1C34
:10CB6000EDB2082DE8D31EB1FFF793FF204670BD4C
:10CB7000FFF7A5FFFAE700009877000838B56B4C7F
:10CB8000E06B002815D054F83C0F0121FFF7A3FB00
:10CB90002089ADF8000010208DF8030003208DF8E7
:10CBA000020069466068FEF73CFD21896068FEF777
:10CBB000A7FD38BD5D4AD16B00290AD020B1B2F87B
:10CBC0004410106CFEF79CBDB2F84410106CFEF7D8
:10CBD00099BD704710B5FFF7E3FEBDE81040CDE703
:10CBE00010B50446FFF707FF200AA02101EB400023
:10CBF000C0B2FFF77AFFFFF72BFFE0B2FFF775FF38
:10CC0000FFF726FFFFF7F7FEA120FFF76EFFFFF704
:10CC10001FFF0020FFF78AFF0446FFF702FF2046B0
:10CC200010BD70B504460D460020FFF7C3FFFFF7A7
:10CC3000E2FE200AA02101EB4000C0B2FFF755FF41
:10CC4000FFF706FFE0B2FFF750FFFFF701FF2846AE
:10CC5000FFF74BFFFFF7FCFEFFF7E3FE0120FFF7B6
:10CC6000A9FFBDE87040052001F0A5BB2DE9F0410A
:10CC700006460D461746002409E0E00025FA00F0BC
:10CC8000C1B2301980B2FFF7CCFF641CE4B2BC42E1
:10CC9000F3D3BDE8F0812DE9F04102460E460020B5
:10CCA0000024971908E00502381B401E80B2FFF7E8
:10CCB00097FF2844641CE4B2B442F4D3E9E710B50A
:10CCC000FF20FFF78DFF55280AD05521FF20FFF7E1
:10CCD000A8FFFF20FFF784FF552803D0012010BDD7
:10CCE000002010BD002010BD70B504460E4615464C
:10CCF00008E02046641CA4B2FFF772FF06F8010B9F
:10CD00006D1EADB2002DF4D170BD70B506460D4656
:10CD1000144606E029783046FFF783FF761CB6B24A
:10CD20006D1C641EA4B2F5D270BD00009877000897
:10CD30004348424941604349416070474048016966
:10CD400041F08001016170473D48C068C10701D0D2
:10CD500001207047410701D502207047C00601D568
:10CD6000032070470020704770B50446FFF7ECFFC2
:10CD70000546012D05D101F00CFB641EA4B2002C68
:10CD8000F4D104B9FF25284670BD70B5054645F6B7
:10CD9000FF763046FFF7E8FF002812D1284C2069C3
:10CDA00040F0020020616561206940F04000206190
:10CDB0003046FFF7D9FF012803D0216921F0020195
:10CDC000216170BD70B506460D46FF20FFF7CCFF10
:10CDD00000280ED11A4C206940F0010020613580F6
:10CDE000FF20FFF7C1FF012803D0216921F00101D5
:10CDF000216170BD008870472DE9F04105460E465F
:10CE00001746002407E036F814102846FFF7DAFF2B
:10CE1000AD1C641CA4B2BC42F5D3BDE8F08110B5D2
:10CE20000446002307E02046FFF7E4FF21F8130043
:10CE3000A41C5B1C9BB29342F5D310BD2301674534
:10CE400000200240AB89EFCDF8B501215820FFF753
:10CE500042FA4020ADF8000010258DF8035003245D
:10CE60008DF80240FE4E69463046FEF7DAFB290295
:10CE7000ADF800108DF803508DF802406946F9486E
:10CE8000FEF7CFFBADF8005048208DF803008DF879
:10CE900002406946F448FEF7C4FB40F2CF2164200B
:10CEA00000F0C2FB40213046FEF72CFC0A2001F0C6
:10CEB00082FA40213046FEF723FC0A2001F07BFA7B
:10CEC00040213046FEF71EFC0A2001F074FA402192
:10CED0003046FEF715FC0A2001F06DFA402130467D
:10CEE000FEF710FC0A2001F066FA40213046FEF7FA
:10CEF00007FC0A2001F05FFA40213046FEF702FCF1
:10CF00000A2001F058FA40213046FEF7F9FB0A20CA
:10CF100001F051FAF8BD2DE9F04104460D46D14F1C
:10CF20004FF4805631463846FEF7ECFB05F01F0003
:10CF3000204300F0A8FAFF2000F0A5FA04462806D6
:10CF400003D5FF2000F09FFA044631463846FEF72D
:10CF5000D7FB2046BDE8F0812DE9F04104460D469F
:10CF60009046C04F4FF4805631463846FEF7CAFB14
:10CF700005F01F00204300F086FA404600F083FAD7
:10CF800031463846BDE8F041FEF7BABB2DE9F04125
:10CF900005460C46B34F4FF4805631463846FEF7EF
:10CFA000B1FB3A2000F06FFA05E06D1E002000F0A2
:10CFB0006AFA04F8010B002DF7D1002020703146E9
:10CFC0003846BDE8F041FEF79BBB2DE9F041044631
:10CFD0000D46A44F4FF4805631463846FEF792FB7B
:10CFE0007A2000F050FA04E0641E287800F04BFA32
:10CFF0006D1C002CF8D131463846BDE8F041FEF7F3
:10D000007FBB70B50546994E05F0600430788442C8
:10D010000BD003221F21A020FFF79EFFC5F3411272
:10D020001F218020FFF798FF347070BD10B50446B3
:10D030002046FFF7E6FF2146BDE8104000206AE7E2
:10D0400070B505460C462846FFF7DBFF2246294609
:10D05000BDE8704040207FE770B50D4600240146D2
:10D06000D420FFF7EDFFE9B2D620FFF7E9FFC5F3C3
:10D070000721D720FFF7E4FF40F6FF7501E0641CAD
:10D08000A4B2EA20FFF7D2FFC00701D0AC42F6D32A
:10D0900070BD70B505460024FFF7D6FE4FF4FA7652
:10D0A0000BE0FDF76BF9FF2200211046FFF754FF5C
:10D0B000641CA4B20A2001F07EF91D20FFF7B6FF20
:10D0C000C00701D1B442ECD3214669A004F02CF989
:10D0D000B44201D3012070BD6449002048600021A2
:10D0E0000820FFF7ADFF00210920FFF7A9FF00216D
:10D0F0000C20FFF7A5FF00210D20FFF7A1FF102155
:10D100000A20FFF79DFF1A210B20FFF799FF11213D
:10D110000420FFF795FF1A210520FFF791FFFF215B
:10D120000620FFF78DFF1F210720FFF789FFA121B0
:10D130003820FFF785FF3F212820FFF781FF3021AE
:10D140002920FFF77DFFF9213020FFF779FFF72134
:10D150003120FFF775FF0D21C020FFF771FF00217F
:10D16000C120FFF76DFF3322C2218020FFF7F4FEBC
:10D170001221C620FFF764FF0C21C720FFF760FFD4
:10D180001521C420FFF75CFFEE21CA20FFF758FFEE
:10D190000521CB20FFF754FF2978E420FFF750FF4B
:10D1A0006978E520FFF74CFFA978E220FFF748FFF8
:10D1B000E978E320FFF744FF2979E020FFF740FFFB
:10D1C0006979E120FFF73CFF4FF48074214600208D
:10D1D000FFF742FF21461020FFF73EFF1F20FFF719
:10D1E00010FFC0221B218020FFF7B6FE04221F2162
:10D1F0008020FFF7B1FEE420FFF718FF297888426E
:10D2000001D1002070BD012070BD72200EE770B505
:10D2100005460E4611210220FFF712FF1A210320B6
:10D22000FFF70EFF41F611202C18E1B20620FFF7A0
:10D2300007FFC4F307210720FFF702FF0022114672
:10D240007A20FFF789FE31462846FFF7BEFE082206
:10D250001F218020FFF780FE1C20FFF7E7FE0FE074
:10D2600000180140000C0140001001405000002057
:10D270000D0A207265747279203D2025750A0D0013
:10D28000800708D508221F21A020FFF765FEBDE812
:10D29000704003F0ADBB70BD2DE9F04106460F466E
:10D2A0003920FFF7C3FEA8B3294C00202179FFF7EE
:10D2B000C7FEA088C0F307210120FFF7C1FE0021AF
:10D2C0003A20FFF728FE606000213A20FFF723FE96
:10D2D000616841EA0020606000213A20FFF71BFEF0
:10D2E000054600213A20FFF716FE45EA00252D1FCE
:10D2F00000213A20FFF70FFE804600213A20FFF779
:10D300000AFE48EA0020761EB54206D903F070FBFB
:10D3100000201FE6FFE700201CE6000603D403F010
:10D3200067FB002016E639462846FFF72FFE2179D5
:10D330000C20FFF785FEA088C0F307210D20FFF722
:10D340007FFE40221E218020FFF706FE284601E6D0
:10D350005000002070B505467B4C02212046FFF7A7
:10D360003EF90028F9D029462046FFF7ECF80121C4
:10D370002046FFF734F90028F9D02046FFF7E5F8FA
:10D38000C0B270BD01467048028822F038020280A7
:10D3900002880A4302800121FFF7A5B870B586B064
:10D3A000012141F21400FEF796FFE020ADF81400D1
:10D3B00018208DF8170003248DF81640634D05A939
:10D3C0002846FEF72EF9E0212846FEF799F90220BB
:10D3D000ADF814008DF8164010258DF817505C4EEE
:10D3E00005A93046FEF71DF902213046FEF78AF9FD
:10D3F000584890F8360006280FD10820ADF81400E0
:10D400008DF816408DF81750534C05A92046FEF7AD
:10D4100008F908212046FEF775F90020ADF8000054
:10D420004FF48271ADF80210ADF80400ADF80600BB
:10D43000ADF808004FF40071ADF80A103821ADF8CE
:10D440000C10ADF80E000720ADF810003E4C6946F8
:10D450002046FEF7C3FF01212046FFF744F81820BD
:10D46000FFF790FFFF20FFF775FF06B070BD014684
:10D470003A48028822F03802028002880A43028079
:10D480000121FFF730B870B50546344C0221204623
:10D49000FFF7A5F80028F9D029462046FFF753F8F2
:10D4A00001212046FFF79BF80028F9D02046FFF71E
:10D4B0004CF8C0B270BD30B587B001210820FEF72E
:10D4C0000AFF01218803FEF711FF4FF46044ADF815
:10D4D000184018208DF81B0003208DF81A00204DED
:10D4E00006A92846FEF79DF821462846FEF708F9CA
:10D4F00001A8FEF7E3FF0020ADF804004FF48271AD
:10D50000ADF80610ADF80800ADF80A00ADF80C0053
:10D510006915ADF80E103821ADF81010ADF81200F5
:10D520000720ADF814000D4C01A92046FEF756FF68
:10D5300001212046FEF7D7FFFF20FFF7A4FF1020B0
:10D54000FFF795FF07B030BD0030014000080140F3
:10D5500000100140F2140020001401400038004087
:10D56000000C014070B5474D01212846FEF714FC20
:10D5700001281AD1444C217809B1022901D1FDF7C3
:10D5800049FE207848B1414A1188481C1080B1F505
:10D590007A7F02D900202070108000F041FF2846D9
:10D5A000BDE870400121FEF7FEBB70BD7FB50446AB
:10D5B0000D4601210220FEF799FEADF80840ADF8B6
:10D5C00004500024ADF80A40ADF806402D4D01A9E5
:10D5D0002846FEF727F91D218DF800108DF801402F
:10D5E0008DF8024001218DF803106846FDF759FFC0
:10D5F000012211462846FEF7D0F901212846FEF700
:10D60000C0F97FBD10B5224C01212046FEF7C4FBB6
:10D61000012803D11F480168491C01602046BDE86C
:10D6200010400121FEF7BFBB7FB504460D46012126
:10D630001020FEF75BFEADF80840ADF80450002066
:10D64000ADF80A00ADF80600114C01A92046FEF71E
:10D65000E9F836218DF8001001218DF80110032220
:10D660008DF802208DF803106846FDF71AFF01229D
:10D6700011462046FEF791F901212046FEF781F977
:10D680007FBD0000000400400100002004000020D5
:10D690000010004058000020F0B503460025084661
:10D6A00000260A2A01D00670F0BD002B1DD005DA35
:10D6B0004FF02D0200F8012BC3F1000342F210726B
:10D6C0004FF00A0793FBF2F454EA050C06D004F17C
:10D6D000300500F8015B04FB1233012592FBF7F2E1
:10D6E000002AEFDC06700846F0BD3022027046705A
:10D6F0000846F0BD0FB430B585B005460AA80090C5
:10D700000EE05C2914D025292CD0521C2846099201
:10D71000FEF780FC80212846FEF7E9FC0028F9D0BE
:10D72000099A11780029ECD105B030BC5DF814FBE2
:10D73000521C099210786E280CD0722802D0521C0C
:10D740000992E7E70D212846FEF764FC0998401C82
:10D750000990DFE70A212846FEF75CFC0998401C87
:10D760000990D7E7521C09921078642819D07328C1
:10D7700002D0521C0992CDE7009810C8009009E031
:10D780002846FEF747FC80212846FEF7B0FC00281B
:10D79000F9D0641C21780029F2D10998401C099025
:10D7A000B8E7009808C800900A2201A91846FFF7B8
:10D7B00073FF01AC09E02846FEF72CFC80212846C7
:10D7C000FEF795FC0028F9D0641C21780029F2D1DD
:10D7D0000998401C09909DE708B54FF4A060FDF73B
:10D7E0005BFE34208DF8000000208DF801008DF8DC
:10D7F000020001208DF803006846FDF752FE08BDC7
:10D8000010B586B00121C804FEF770FD012110207B
:10D81000FEF761FD4FF48060ADF8140018208DF81C
:10D82000170003208DF81600F84C05A92046FDF7D7
:10D83000F8FEE114ADF8141004218DF8171005A9B5
:10D840002046FDF7EEFE4FF4E13001900020ADF8E8
:10D850000800ADF80A00ADF80C00ADF810000C207F
:10D86000ADF80E00EA4C01A92046FEF7F7FA0122B6
:10D8700040F225512046FEF778FB012240F2244178
:10D880002046FEF772FBFFF7A7FF01212046FEF7B7
:10D8900060FB06B010BDF8B5DE481024032690F8F2
:10D8A0003600052818D0062816D0072813D10121E4
:10D8B0001020FEF710FD6501ADF800508DF8034013
:10D8C0008DF80260D14C69462046FDF7AAFE294634
:10D8D0002046FDF715FFF8BD01210802FEF7FBFC0D
:10D8E0004FF48055ADF800508DF803408DF802607C
:10D8F000C94C69462046FDF794FE29462046FDF7AF
:10D90000FFFEF8BD10B5FFF7C6FFFFF779FFC1486E
:10D91000012190F83600052806D0062804D00728F3
:10D9200001D1BE48016010BDBD48016010BDB948BD
:10D93000002190F83600052806D0062804D00728D4
:10D9400001D1B64801607047B548016070472DE9C4
:10D95000F0410E4617460246B2A1AD48FFF7CAFE97
:10D9600056EA07000ED0B14DB5F800046FF30E0073
:10D97000A5F8000495F8010420F0800085F8010462
:10D98000002407E00120BDE8F081322000F013FD03
:10D99000FDF733FF95F80104000604D42046641C0B
:10D9A000A4B20A28F1D3B5F800140020C1F30E0187
:10D9B00068546EB167B131469C4803F08DFD28B9BB
:10D9C00039469A4803F088FD0028DCD00120DAE7C8
:10D9D0003EB13146954803F07FFD0028D3D00120A9
:10D9E000D1E73946914803F077FD0028CBD00120DC
:10D9F000C9E770B500248748012190F83600052852
:10DA000004D0062802D0072803D004E0844801602F
:10DA100001E0824801604FF47A7000F0CCFC4FF4D2
:10DA2000FA750CE02B46002281A182A0FFF78FFF40
:10DA300008B1022070BDFFF77AFF641CE4B20A2C23
:10DA4000F0D301D0012070BD002070BD40F6C4139A
:10DA5000002805D0012807D0022809D000207047EF
:10DA600075A273A177A072E773A271A178A06EE787
:10DA700071A26FA179A06AE700B59FB00B4602467C
:10DA800079A101A803F05CFC41F28833002268A16F
:10DA900001A8FFF75CFF1FB000BD00B59FB00B46AB
:10DAA0000092024675A101A803F04AFC4FF47A7374
:10DAB00000225FA101A8FFF74AFFECE700B585B09F
:10DAC000002801D0012200E0002272A1684603F084
:10DAD00037FC4FF4FA73002255A16846FFF737FF71
