:020000040800F2
:1080000040A00020998100084B8100084D810008A4
:108010004F810008518100085381000800000000D2
:108020000000000000000000000000005581000872
:108030005781000800000000598100085B8100089A
:10804000B3810008B3810008B3810008B381000840
:10805000B3810008B3810008B3810008B381000830
:10806000B3810008B3810008B3810008B381000820
:10807000B3810008B3810008B3810008B381000810
:10808000B3810008B3810008B3810008B381000800
:10809000B3810008B3810008B3810008B3810008F0
:1080A000B3810008B3810008B3810008B3810008E0
:1080B000B3810008B9950008B3810008B3810008B6
:1080C000B3810008B3810008B3810008B3810008C0
:1080D000B3810008B3810008B3810008B3810008B0
:1080E000B3810008B3810008B3810008B3810008A0
:1080F000B3810008B3810008B3810008B381000890
:10810000B3810008B3810008B3810008B38100087F
:10811000B3810008B381000833960008B3810008DA
:10812000B3810008B3810008B3810008B38100085F
:10813000DFF80CD001F07AFE004800474F830008BA
:1081400040A0002080F3088870477047FEE7FEE7F4
:10815000FEE7FEE770477047704770470D490860BB
:1081600070470C49486070470A4988607047094960
:108170004AF6AA200860704706494CF6CC400860D1
:10818000704701460020034AD2680A4200D001200D
:10819000704700000030004006488047064800470E
:1081A000FEE7FEE7FEE7FEE7FEE7FEE7FEE7FEE7A7
:1081B000FEE7FEE7618400083181000840EA010320
:1081C0009B0703D009E008C9121F08C0042AFAD28D
:1081D00003E011F8013B00F8013B521EF9D2704751
:1081E00002E008C8121F08C1002AFAD17047704780
:1081F000002001E001C1121F002AFBD170470000DE
:1082000054656D636F434F32414C4C0000000006D3
:108210000100000010B545F25550FFF79FFF042004
:10822000FFF79FFF4FF47A60FFF79EFFFFF7A4FF71
:10823000BDE81040FFF79BBFFFF799BF2DE9F04164
:10824000564C544D544E2278AF15002823D0052AA1
:1082500003D13946284600F09DFA2078062803D13C
:108260003946284600F096FA2078072803D1394687
:10827000304600F08FFA2078082803D1394630467E
:1082800000F088FA2078092829D139462846BDE827
:10829000F04100F07FBA052A03D13946284600F0A4
:1082A0007BFA2078062803D13946284600F074FA74
:1082B0002078072803D13946304600F06DFA20783F
:1082C000082803D13946304600F066FA207809289C
:1082D00005D139462846BDE8F04100F05BBABDE85B
:1082E000F0812DE9F04147F6FE722D492D48FFF748
:1082F00065FF2D486A2180F8FE1F002180F8FF1FCE
:108300000024284F4FF000664FF4006801F066F833
:1083100006EBC420054601F08EF801F065F807EB86
:10832000C4212846424601F031FD641CE4B2102C01
:10833000ECD3D4E7012080F313881C4801681C4A61
:1083400001F4E06111430160BFF3408FFEE719497A
:10835000080300F020F94FF4E13001F035FC48202B
:1083600001F0B4FB01F0EAF9FFF754FF0E2001F031
:1083700005FB0A4C20700F2001F000FB60700D48D7
:10838000801E01F08DF86A2801D0FFF7AAFFFFF7E1
:10839000D1FF00000008014000140140000000204F
:1083A000989E00083C0000203C7000200CED00E08E
:1083B0000400FA05008000080CB50022019200922A
:1083C0005248016841F4803101604FF4A0630168B4
:1083D00001F4003100910199491C0191009911B9F2
:1083E00001999942F3D10168890302D501210091D5
:1083F00000E000920099012930D145490A6842F015
:1084000010020A600A6822F003020A600A6842F059
:1084100002020A604168416041684160416841F47C
:1084200080614160416821F47C114160416841F400
:10843000E8114160016841F08071016001688901C3
:10844000FCD5416821F003014160416841F002011F
:1084500041604168C1F381010229FAD10CBDABE74B
:1084600010B52A48016841F0010101604168294ABC
:10847000114041600168284A11400160016821F4FF
:1084800080210160416821F4FE0141604FF41F0129
:108490008160FFF7E4FF21494FF00060086010BDE4
:1084A00010B51A4A506800F00C011D4B1D480029F8
:1084B0000ED004290ED008290ED003605168194A45
:1084C000C1F30311121D515C0268CA40026010BD65
:1084D0000360F3E70360F1E7516801F4701153683A
:1084E00003F48033022404EB914133B153689B03BE
:1084F00007D50D4B59430160E0E70B4B5943016031
:10850000DCE7074B59430160D8E700000010024048
:10851000002002400000FFF8FFFFF6FE08ED00E03B
:1085200000127A000400002000093D002A49084397
:108530002A490860704770B50F23C2780126017878
:10854000002A1ED0254A126802F4E062C2F5E062F9
:10855000120AC2F10404D3404578A54082781A403B
:108560002A43120101F1E02181F80024007800F093
:108570001F018E404009800000F1E020C0F800613A
:1085800070BD01F01F0086404809800000F1E02026
:10859000C0F8806170BD124A114001430F48001FAE
:1085A000016070470D4A121D002903D01168014374
:1085B0001160704711688143116070474FF0E021EE
:1085C000042804D0086920F0040008617047086995
:1085D00040F00400086170470000FA050CED00E06F
:1085E00080FFFF1F10B59C49884209D1012104205A
:1085F00000F0B3FE0021BDE81040042000F0ADBE45
:108600009649884209D10121082000F0A6FE0021E8
:10861000BDE81040082000F0A0BE9149884209D171
:108620000121102000F099FE0021BDE8104010202B
:1086300000F093BE8B49884209D10121202000F02F
:108640008CFE0021BDE81040202000F086BE864947
:10865000884209D10121402000F07FFE0021BDE8C1
:108660001040402000F079BE8049884209D10121A4
:10867000802000F072FE0021BDE81040802000F054
:108680006CBE7B4988420AD184150121204600F046
:1086900064FE2046BDE81040002100F05EBE10BD23
:1086A00010B50121084600F058FE0021BDE8104039
:1086B000012000F052BE2DE9F0410022CC7804F0F8
:1086C0000F03E40601D58C7823430C784FF00F0795
:1086D00014F0FF0F4FF0010C1CD005680CFA02F4E7
:1086E0000E882640A64211D1960007FA06F825EA20
:1086F000080503FA06F848EA0505CE78282E02D0C8
:10870000482E02D002E0446100E00461521C082AB5
:10871000E4D305600A88FF2A1ED94568002202F1C9
:1087200008060CFA06F40E882640A64210D19600E0
:1087300007FA06F825EA080503FA06F848EA0505E7
:10874000CE78282E00D14461CE78482E00D1046125
:10875000521C082AE3D34560BDE8F0814FF6FF7153
:108760000180022181700421C170704702460020FF
:1087700092680A4200D001207047806880B270473A
:1087800002460020D2680A4200D001207047C0682B
:1087900080B270470161704741617047002A01D083
:1087A0000161704741617047C160704741F4803298
:1087B00082618161826181698069704710B52D4B4A
:1087C0001A684FF68074224042EA0010084318608D
:1087D00010BD2949C8617047F0B5264C002801DA60
:1087E000E36900E06368C0F30346420D120185B2FD
:1087F000C0F301579540032F07D0C2020CD50322C6
:10880000B240934343F0706209E023F07062636802
:1088100023F07063636002E0AB4343F0706201B128
:108820002A43002801DAE261F0BD6260F0BD10B5B4
:108830008A07120F0F23934021F003040D492144AE
:108840008C689C438C608B68904003438B6010BDA8
:108850000949DC310860704700080140000C014004
:10886000001001400014014000180140001C0140AC
:1088700000200140000001400000204230B5028885
:10888000F74CF84DA0420DD0A8420BD0B0F1804F6C
:1088900008D0F54B984205D0F44B984202D0F44BE7
:1088A000984203D122F070034A881A43F14B984250
:1088B00006D0F14B984203D022F44073CA881A4381
:1088C00002808A8882850A880285A0420AD0A8424E
:1088D00008D0EA4A904205D0E94A904202D0E94ADB
:1088E000904201D1097A01860121818230BD70B5A3
:1088F000028C22F480720284028C8388848B24F0A0
:10890000700424F003040D88254322F400720E89BC
:108910004FF6FF7404EA062616434A8804EA022248
:108920003243CF4EB04202D0CE4EB04217D122F4E5
:1089300000664A8904EA0222324322F480668A8869
:1089400004EA0222324323F4805323F400538E8935
:1089500004EA06161E43CB8904EA031333438380DB
:108960008583C9888187028470BD70B5028C22F42A
:1089700080520284058C8288838B23F4E04323F4A5
:1089800040760C884FF6FF7303EA0424344325F441
:1089900000550E8903EA06362E434D8803EA053555
:1089A0003543AF4EB04202D0AE4EB04205D122F4B4
:1089B00080468A8903EA8212324382808483C9888E
:1089C000A0F84010058470BD4FF6FF718180002132
:1089D0000180C180418001727047002904D0018864
:1089E00041F0010101807047018821F001010180FF
:1089F0007047002A03D082890A43828170478289A6
:108A00008A4382817047018582827047028822F002
:108A100070020A4302807047028922F070020A4302
:108A20000281704770B50589048B068C25F0070517
:108A30000D434FF6FC410C4040F201110C4326F06F
:108A400022064FF6FF7101EA0311114331430581FC
:108A50000483018470BD028B22F070020A430283FA
:108A60007047028B22F4E0424FF6FF7303EA0121C4
:108A7000114301837047828B22F070020A43828384
:108A80007047828B22F4E0424FF6FF7303EA012124
:108A9000114381837047002904D0018841F080018F
:108AA00001807047018821F0800101807047002912
:108AB00004D0818841F0040181807047818821F0D1
:108AC000040181807047002904D0818841F00801A9
:108AD00081807047818821F00801818070470029DA
:108AE00004D0818841F0010181807047818821F0A4
:108AF000010181807047028B22F008020A43028341
:108B00007047028B22F400624FF6FF7303EA0121E3
:108B1000114301837047828B22F008020A4382834B
:108B20007047828B22F400624FF6FF7303EA012143
:108B3000114381837047028B22F004020A430283AF
:108B40007047028B22F480624FF6FF7303EA012123
:108B5000114301837047828B22F004020A4382830F
:108B60007047828B22F480624FF6FF7303EA012183
:108B7000114381837047028B22F080020A430283F3
:108B80007047028BC2F30E024FF6FF7303EA012116
:108B9000114301837047828B22F080020A43828353
:108BA0007047828BC2F30E024FF6FF7303EA012176
:108BB000114381837047028C22F002020A4302842F
:108BC0007047028C22F008020A4302847047028C2C
:108BD00022F020024FF6FF7303EA011111430184D2
:108BE0007047028C22F080024FF6FF7303EA0111F6
:108BF000114301847047028C22F400724FF6FF7318
:108C000003EA0121114301847047028C22F40062BF
:108C10004FF6FF7303EA0121114301847047028C70
:108C200022F400524FF6FF7303EA0131114301842D
:108C3000704710B501238B40048C9C430484038C43
:108C40008A401343038410BD10B504238B40048C69
:108C50009C430484038C8A401343038410BD0000AA
:108C6000002C014000340140000400400008004096
:108C7000000C004000100040001400400040014083
:108C8000004401400048014030B500F118030124C0
:108C90008C40058CA5430584002911D008290FD0EC
:108CA000091FC1F34E001844016821F4E04101603E
:108CB00001684FF6FF7303EA02221143016030BDE1
:108CC00003EB5100016821F070010160016811435C
:108CD000016030BD002904D0018841F0020101800B
:108CE0007047018821F0020101807047002904D0FB
:108CF000018841F0040101807047018821F00401DE
:108D000001807047002904D0818841F08001818072
:108D10007047818821F0800181807047028822F0AD
:108D20000802028002880A4302807047828822F08B
:108D30007002828082880A4382807047028922F012
:108D40000702028102890A4302817047028922F0E8
:108D50008002028102890A43028170478184704740
:108D6000818570478186704701877047818770478A
:108D7000A0F840107047028B22F00C020283028B95
:108D80000A4302837047028B22F440620283028B03
:108D90004FF6FF7303EA01210A4302837047828B77
:108DA00022F00C028283828B0A4382837047828B7B
:108DB00022F440628283828B4FF6FF7303EA012123
:108DC0000A4382837047028822F44072028002883C
:108DD0000A4302807047808E7047008F7047808FF3
:108DE0007047B0F840007047808C7047008D704726
:108DF00002460020128A0A4200D001207047C9436F
:108E00000182704702460020138A0B4092890A4073
:108E1000002B02D0002A00D001207047C9430182F4
:108E20007047000010B5E14988420AD101218C0346
:108E3000204600F092FA2046BDE81040002100F0E4
:108E40008CBADB4988420AD101214C04204600F04B
:108E50008FFA2046BDE81040002100F089BAD549BC
:108E600088420AD101218C04204600F081FA204674
:108E7000BDE81040002100F07BBACF4988420AD1FA
:108E80000121CC04204600F073FA2046BDE81040D2
:108E9000002100F06DBAC94988420AD101210C05B0
:108EA000204600F065FA2046BDE81040002100F0A1
:108EB0005FBA10BD30B585B004460D46208A4CF629
:108EC000FF710840E98801432182A0894EF6F31121
:108ED0000840A9882A8911436A8902431143A18164
:108EE000A08A4FF6FF410840A9890143A182684644
:108EF00000F0C5F9AD48844201D1039800E0029822
:108F0000A189090408D500EBC00101EB0010296814
:108F10004900B0FBF1F007E000EBC00101EB0010ED
:108F200029688900B0FBF1F06422B0FBF2F109017D
:108F30000B096FF018056B4300EB8300A3891D0438
:108F40004FF0320307D503EBC000B0FBF2F000F0A6
:108F50000700084306E003EB0010B0FBF2F000F05E
:108F60000F000843208105B030BD4FF41651016059
:108F700000218180C18001810C2242818181704762
:108F800010B5038A4FF2FF0213400A884C8822432F
:108F90008C88C9880C4322431A43028210BD0021E9
:108FA000018041808180C1807047002904D081897F
:108FB00041F4005181817047818921F40051818100
:108FC000704710B540F66A13C1F3421301F01F0455
:108FD0000121A140012B07D0022B07D014303AB158
:108FE00002680A43026010BD0C30F8E71030F6E763
:108FF00002688A43026010BD002A03D0828A0A43B5
:1090000082827047828A8A4382827047028A22F073
:109010000F020282028A0A4302827047828922F486
:109020000062828182890A4382817047002904D0CC
:10903000818941F0020181817047818921F002011B
:1090400081817047028A22F020020282028A0A434A
:1090500002827047002904D0018A41F480410182D4
:109060007047018A21F4804101827047C1F30801F1
:10907000818070478088C0F308007047818941F083
:10908000010181817047028BD2B20283028B42EAD6
:10909000012101837047028B02F47F420283028B1D
:1090A0000A4302837047002904D0818A41F02001DD
:1090B00081827047818A21F02001818270470029D6
:1090C00004D0818A41F0100181827047818A21F0A9
:1090D000100181827047002904D0818A41F0080183
:1090E00081827047818A21F00801818270470029BE
:1090F00004D0818941F40041818170478189C1F3A5
:109100000E0181817047002904D0818A41F40061F9
:1091100081827047818A21F4006181827047828A4E
:1091200022F004028282828A0A43828270470029E6
:1091300004D0818A41F0020181827047818A21F046
:109140000201818270470246002012880A4200D044
:10915000012070478A05C9430180704770B500241B
:1091600040F66A12C1F3421301F01F05012606FA08
:1091700005F2012B0CD0022B0DD0838A1340090A73
:109180008E40008830400BB100B10124204670BDF4
:1091900083891340F3E7038A1340F0E740F66A122D
:1091A0000A0A01219140C9430180704700380140FB
:1091B0000044004000480040004C00400050004087
:1091C0007E48016841F00101016041687C4A11401C
:1091D000416001687B4A11400160016821F48021EF
:1091E0000160416821F4FE0141604FF41F0181607C
:1091F000704772490A6822F480320A600A6822F4D1
:1092000080220A60B0F5803F07D0B0F5802F03D1EF
:10921000086840F4A02008607047086840F4803077
:1092200008607047034600205909644A01290AD0A2
:1092300002290AD0516A03F01F02012393400B4216
:1092400000D0012070471168F5E7116AF3E718B5FF
:10925000002000904FF4A0643120FFF7E3FF009955
:10926000491C00910099A14201D00028F4D031207E
:10927000FFF7D8FF08B1012018BD002018BD10B5B8
:109280004E4A516801F00C014F4B002927D00429A8
:1092900027D0082927D00360516801F0F00109099F
:1092A0004A4B5C5C0168E1404160546804F4E0644E
:1092B000240A1C5D21FA04F48460546804F46054A8
:1092C000E40A1B5DD940C160526802F44042920B2F
:1092D0003E4B1B1F9A5CB1FBF2F1016110BD0360B4
:1092E000DAE70360D8E7516801F47011536803F4BA
:1092F0008033022404EB914133B153689B0307D5BB
:10930000334B59430160C7E7314B59430160C3E711
:109310002D4B59430160BFE7284A002903D051690A
:109320000143516170475169814351617047234A3C
:10933000002903D09169014391617047916981438C
:10934000916170471D4A002903D0D1690143D16161
:109350007047D1698143D1617047184A002903D011
:10936000D1680143D1607047D1688143D1607047B3
:10937000124A002903D01169014311617047116934
:109380008143116170471349086070471249C864EE
:1093900070470A49C87170470848416A41F08071B6
:1093A0004162704701460020044A92680A4200D098
:1093B0000120704701498872704700000010024088
:1093C0000000FFF8FFFFF6FE00127A001C000020EC
:1093D00000093D0040044242000042427348724985
:1093E00041607349416070477048016941F08001F4
:1093F000016170476D48C068C10701D00120704706
:10940000410701D502207047C00601D503207047EF
:109410000020704770B50446FFF7ECFF0546012DAC
:1094200005D100F066FB641EA4B2002CF4D104B98F
:10943000FF25284670BD70B5054645F6FF763046D7
:10944000FFF7E8FF002812D1584C206940F00200D5
:1094500020616561206940F0400020613046FFF7DF
:10946000D9FF012803D0216921F00201216170BDDB
:1094700070B506460D46FF20FFF7CCFF00280ED141
:109480004A4C206940F0010020613580FF20FFF741
:10949000C1FF012803D0216921F00101216170BDC4
:1094A000008870472DE9F04105460E461746002416
:1094B00007E036F814102846FFF7DAFFAD1C641CED
:1094C000A4B2BC42F5D3BDE8F08110B50446002338
:1094D00007E02046FFF7E4FF21F81300A41C5B1C03
:1094E0009BB29342F5D310BD2DE9F05F82460F4643
:1094F0001546AAF10062B2F5002F52D2FFF76EFFB7
:109500004FEAD228C2F34906C6F58064A54200D8C6
:109510002C46DFF8A0B037E032183BF812208A4220
:1095200003D1401C80B2A042F6D3A04214D24846D8
:10953000FFF781FF002006E0821937F810102BF8A2
:109540001210401C80B2A042F6D348464FF480620D
:109550001849FFF7A7FF04E0224639465046FFF7B7
:10956000A1FFA54202D1BDE8F05F3DE708F1010887
:10957000002607EB44070AEB440A281B85B24FF488
:109580008064A54200D82C464FF0006000EBC8294B
:10959000421408494846FFF798FF00204FF6FF7134
:1095A000C1E7BDE8F09F00002301674500200240AD
:1095B000AB89EFCD3C80002010B53D4C0121204609
:1095C000FFF716FC012807D100F0DAFA2046BDE8C3
:1095D00010400121FFF713BC10BD7FB504460D46B6
:1095E00001210220FFF7AEFEADF80840ADF80450AF
:1095F0000024ADF80A40ADF806402D4D01A92846DB
:10960000FFF73CF91D218DF800108DF801408DF811
:10961000024001218DF803106846FEF78CFF0122FD
:1096200011462846FFF7E5F901212846FFF7D5F94D
:109630007FBD10B51F4C01212046FFF7D9FB012843
:1096400003D11D480168491C01602046BDE8104057
:109650000121FFF7D4BB7FB504460D460121102040
:10966000FFF770FEADF80840ADF804500020ADF8EB
:109670000A00ADF806000F4C01A92046FFF7FEF8DE
:1096800036218DF8001001218DF8011003228DF88C
:1096900002208DF803106846FEF74DFF01221146A7
:1096A0002046FFF7A6F901212046FFF796F97FBD76
:1096B00000040040001000402C00002038B5954CFC
:1096C000208FADF8000048208DF803006946606BDC
:1096D000FEF7F1FF218F606BFFF75CF838BD38B5FE
:1096E0008C4C208FADF8000010208DF80300032073
:1096F0008DF802006946606BFEF7DDFF218F606B1D
:10970000FFF748F838BD834A002803D0918D906A4E
:10971000FFF740B8918D906AFFF73EB87D4A002868
:1097200003D0118F506BFFF735B8118F506BFFF7D7
:1097300033B87848018F406BFFF718B8F8B5754C0F
:109740000121606AFFF7F3FDA08DADF80000102540
:109750008DF8035003268DF802606946A06AFEF773
:10976000AAFFA18DA06AFFF715F80121206BFFF772
:10977000DEFD208FADF800008DF803508DF80260FB
:109780006946606BFEF797FF218F606BFFF702F869
:10979000F8BD10B5FFF7A3FF0120FFF7BFFF0120C1
:1097A000FFF7B1FF042000F0A4F90020FFF7B6FF97
:1097B000042000F09EF9BDE810400020A3E710B59A
:1097C000FFF78DFF0020FFF79EFF0020FFF7A6FFA9
:1097D000042000F08EF90120FFF795FF0120FFF72C
:1097E0009DFFBDE81040042000F083B910B50024AF
:1097F0000120FFF793FFFFF761FF012000F079F9E7
:109800000120FFF780FF012000F073F907E0641CDE
:10981000E4B2FA2C03D9FFF7D2FF012010BDFFF705
:1098200088FF0028F3D1FFF76EFF002010BD10B5B0
:109830000020FFF768FFFFF752FF0020FFF76EFFE1
:10984000022000F056F90120FFF75DFF022000F032
:1098500050F9BDE81040002055E710B50020FFF793
:1098600052FFFFF73CFF0120FFF758FF022000F0F6
:1098700040F90120FFF747FF022000F03AF9BDE868
:10988000104000203FE770B50546FFF728FF002095
:10989000FFF739FF0024E809FFF740FF6806050ECF
:1098A000022000F026F90120FFF72DFF022000F032
:1098B00020F90020FFF727FF022000F01AF9641CAE
:1098C000E4B2082CE7D370BD70B506460024FFF75C
:1098D000F5FE00250020FFF716FF022000F009F931
:1098E0000120FFF710FF6006040EFFF722FF08B10A
:1098F000641CE4B2012000F0FCF86D1CEDB2082DF0
:10990000E8D31EB1FFF793FF204670BDFFF7A5FF18
:10991000FAE70000509E000838B56B4CE06B002859
:1099200015D054F83C0F0121FFF701FD2089ADF857
:10993000000010208DF8030003208DF80200694616
:109940006068FEF7B8FE21896068FEF723FF38BD26
:109950005D4AD16B00290AD020B1B2F84410106CD6
:10996000FEF718BFB2F84410106CFEF715BF704731
:1099700010B5FFF7E3FEBDE81040CDE710B5044693
:10998000FFF707FF200AA02101EB4000C0B2FFF75C
:109990007AFFFFF72BFFE0B2FFF775FFFFF726FF17
:1099A000FFF7F7FEA120FFF76EFFFFF71FFF002074
:1099B000FFF78AFF0446FFF702FF204610BD70B58F
:1099C00004460D460020FFF7C3FFFFF7E2FE200A22
:1099D000A02101EB4000C0B2FFF755FFFFF706FFE3
:1099E000E0B2FFF750FFFFF701FF2846FFF74BFFFC
:1099F000FFF7FCFEFFF7E3FE0120FFF7A9FFBDE83C
:109A00007040052000F087B82DE9F04106460D466C
:109A10001746002409E0E00025FA00F0C1B2301931
:109A200080B2FFF7CCFF641CE4B2BC42F3D3BDE8C4
:109A3000F0812DE9F04102460E46002000249719DE
:109A400008E00502381B401E80B2FFF797FF28444C
:109A5000641CE4B2B442F4D3E9E710B5FF20FFF789
:109A60008DFF55280AD05521FF20FFF7A8FFFF20C2
:109A7000FFF784FF552803D0012010BD002010BD42
:109A8000002010BD70B504460E46154608E020467D
:109A9000641CA4B2FFF772FF06F8010B6D1EADB295
:109AA000002DF4D170BD70B506460D46144606E093
:109AB00029783046FFF783FF761CB6B26D1C641E12
:109AC000A4B2F5D270BD0000509E00084FF0E02116
:109AD0000A6922F004020A611849C008087000EB04
:109AE0004002C2EBC0104FF6FF7202EAC00048808D
:109AF00070471249097848434FF0E021486100233C
:109B00008B61012008610869C20701D0C003FAD542
:109B10000B618B6170470949498848434FF0E02148
:109B2000486100238B61012008610869C20701D0E8
:109B3000C003FAD50B618B61704700003000002034
:109B400013484FF47A710068B0FBF1F04FF0E02158
:109B5000B0F1807F01D301200BE020F07F40401E58
:109B600048610C4AF02010700020886107200861CD
:109B7000002000B1FEE7086940F00100086170476D
:109B800005480168491D0160704703480068704737
:109B90000400002023ED00E034000020704770B581
:109BA00004460120FEF74AFB724D40212846FFF78C
:109BB000CAFA0028F9D0A1B22846FFF757FA0020C8
:109BC000FEF73CFB204670BDF0B587B0074601218B
:109BD0008803FFF7ACFB674E3046FFF723F9664C6E
:109BE00001212068FFF7A3FB2089ADF818000325A9
:109BF0008DF81A5018208DF81B0006A96068FEF732
:109C00005AFD0121E068FFF792FBA08AADF8180029
:109C100048208DF81B0006A92069FEF74CFD252081
:109C20008DF8040001208DF805008DF806508DF8A0
:109C3000070001A8FEF77FFC02970020ADF80C009A
:109C4000ADF80E00ADF81000ADF814000C20ADF822
:109C5000120002A93046FFF72DF9012240F22551EA
:109C60003046FFF7AEF901213046FFF79EF901219A
:109C7000A069FFF75CFB208CADF8180010268DF86A
:109C80001B608DF81A5006A9E069FEF714FD218CBF
:109C9000E069FEF77FFD39480078072801D00828E1
:109CA00014D101212020FFF742FB4FF48074ADF85E
:109CB00018408DF81B608DF81A50314D06A92846C2
:109CC000FEF7F9FC21462846FEF764FD07B0F0BD1B
:109CD00070B586B0054601211020FFF728FB012151
:109CE000C804FFF72FFB274E3046FFF79BF83015CF
:109CF000ADF8140003208DF8160018208DF8170019
:109D0000214C05A92046FEF7D6FCE014ADF814005E
:109D100048208DF8170005A92046FEF7CCFC34201A
:109D20008DF8000000248DF801408DF802400120DC
:109D30008DF803006846FEF7FEFB0195ADF808407C
:109D40007014ADF80A00ADF80C40ADF810400C20CE
:109D5000ADF80E0001A93046FFF7ACF8012240F241
:109D600025513046FFF72DF901213046FFF71DF947
:109D700006B070BD00380140509E00080000002071
:109D800000140140004C0040001001402DE9F04754
:109D90000D46904600240746A0F10060B0F5002F64
:109DA00029D2FFF71BFB00264FF48069DFF870A073
:109DB00015E06878000215F8021B08442146641C6F
:109DC000A4B22AF811004A46944206D1002414494C
:109DD0003846FFF767FB07F50067B61CB6B2464585
:109DE000E7D324B122460E493846FFF75BFBBDE8B6
:109DF000F047FFF7F9BABDE8F08710B50168094AE6
:109E00001140B1F1005F09D14168074C2160006841
:109E1000FEF798F92068BDE81040004710BD00002B
:109E20003C8800200000FE2F38000020064C074D23
:109E300006E0E06840F0010394E80700984710341A
:109E4000AC42F6D3FEF778F9981E0108B81E010857
:109E500004000000000801400002000004000000AF
:109E60000008014000040000040000000008014058
:109E7000000100000400000000080140080000008C
:109E80000400000000080140040000000000000081
:109E9000000000000000000090660020B5230008CC
:109EA000310900083309000835090008370900089E
:109EB0003909000800000000000000000000000058
:109EC000000000003B0900083D09000800000000F8
:109ED0003F09000841090008CF230008CF230008EC
:109EE000CF230008CF230008CF230008CF2300088A
:109EF000CF230008CF230008CF230008CF2300087A
:109F0000CF230008CF230008CF230008CF23000869
:109F1000CF230008CF230008CF230008CF23000859
:109F2000CF230008CF230008CF230008CF23000849
:109F3000CF230008CF230008CF230008CF23000839
:109F4000CF230008CF230008CF23000835310008B5
:109F5000CF230008CF230008CF230008CF23000819
:109F6000CF230008CF230008CF230008A93400081E
:109F7000CF230008CF230008CF230008CF230008F9
:109F8000CF230008CF230008CF230008CF230008E9
:109F9000CF230008CF230008CF230008CF230008D9
:109FA000CF230008CF230008CF230008CF230008C9
:109FB000BB310008CF230008CF230008CF230008BF
:109FC000CF230008CF23000800F002F800F041F88A
:109FD0000AA090E8000C82448344AAF10107DA4504
:109FE00001D100F036F8AFF2090EBAE80F0013F015
:109FF000010F18BFFB1A43F001031847186B00004C
:10A00000386B0000103A24BF78C878C1FAD85207DC
:10A0100024BF30C830C144BF04680C6070470000E2
:10A020000023002400250026103A28BF78C1FBD861
:10A03000520728BF30C148BF0B607047752906F032
:10A04000D382002070471FB506F01FFB1FBD10B55F
:10A0500010BD06F0EFFC1146FFF7F5FF00F025FA02
:10A0600006F00DFD03B4FFF7F2FF03BC03F038F870
:10A0700080F30888704700000B49D1F800C04A6897
:10A080005CF8043B1068184442F8040B8C4528BF68
:10A09000A1F1DC0C8A4228BFA1F1DC02C1F800C0AA
:10A0A0004A6020F0004070472446002010B545F279
:10A0B000555000F0F5FD042000F0F5FD4FF47A60F6
:10A0C00000F0F4FD00F0FAFDBDE8104000F0F1BD35
:10A0D00000F0EFBD70B500244FF40075FF2120465D
:10A0E00002F0C5FA641CA4B2AC42F7D3BDE87040DC
:10A0F00003F012BA2DE9FC5F02F092FA0422F8494B
:10A10000002002F017FBF64F0222391D042002F056
:10A1100011FB062002F08AFAF880FF2801D1FE2008
:10A12000F880072002F082FA3872082002F07EFAE6
:10A130007872102002F07AFAEA4C2070272002F0A0
:10A1400075FA4FF00108552804D1207810B9E64877
:10A1500080F80080152002F069FAB8724FF0040907
:10A16000052805D9494687F80A90152002F07FFA9C
:10A1700000246D4604F1280002F058FA2855641CAA
:10A18000E4B2062CF6D39DF800000026FF283FD14C
:10A190009DF80100FF283BD19DF80200FF2837D130
:10A1A0009DF80300FF2833D19DF80400FF282FD12C
:10A1B0009DF80500FF282BD149468DF8009002201C
:10A1C0008DF8010035208DF80200AF208DF80300D6
:10A1D0008DF804608DF80580282002F048FA9DF87B
:10A1E0000110292002F043FA9DF802102A2002F003
:10A1F0003EFA9DF803102B2002F039FA9DF8041066
:10A200002C2002F034FA9DF805102D2002F02FFAD0
:10A2100000203A18295CD172401CC0B20628F8D33D
:10A22000002404F12F0002F001FA2855641CE4B266
:10A23000042CF6D39DF800004FF0C00A4FF0A80B95
:10A24000FF285DD19DF80100FF2859D19DF802003B
:10A25000FF2855D19DF80300FF2851D151468DF8B4
:10A2600000A08DF801B08DF8026003208DF8030086
:10A270002F2002F0FCF99DF80110302002F0F7F9D0
:10A280009DF80210312002F0F2F99DF803103220FF
:10A2900002F0EDF9002404F12F0002F0C7F928556F
:10A2A000641CE4B2042CF6D39DF80000FF280BD008
:10A2B0009DF80100FF2807D09DF80200FF2803D079
:10A2C0009DF80300FF281BD151468DF800A08DF8A2
:10A2D00001B08DF8026003208DF803002F2002F0FA
:10A2E000C6F99DF80110302002F0C1F99DF8021066
:10A2F000312002F0BCF99DF80310322002F0B7F9CA
:10A3000000203A18295C517482F82310401CC0B216
:10A310000428F6D32E2002F089F98DF8000028B128
:10A3200041468DF800802E2002F0A1F99DF8000032
:10A33000787587F82700002404F1330002F076F9DD
:10A340002855641CE4B2042CF6D39DF80000FF28C5
:10A3500020D19DF80100FF281CD19DF80200FF28A4
:10A3600018D19DF80300FF2814D1FF218DF8036058
:10A37000332002F07CF99DF80110342002F077F9C7
:10A380009DF80210352002F072F99DF80310362076
:10A3900002F06DF900203A18295C917582F82810B6
:10A3A000401CC0B20428F6D3002404F1370002F0A8
:10A3B0003DF92855641CE4B2042CF6D39DF8000046
:10A3C000FF2826D19DF80100FF2822D19DF8020028
:10A3D000FF281ED19DF80300FF281AD151468DF8A1
:10A3E00000A08DF801B08DF802608DF80390372041
:10A3F00002F03DF99DF80110382002F038F99DF87F
:10A400000210392002F033F99DF803103A2002F0CF
:10A410002EF900203A18295C917682F82C10401C05
:10A42000C0B20428F6D33B2002F000F98DF80000FA
:10A43000FF2805D131468DF800603B2002F017F966
:10A440009DF80000B87787F830003C2002F0EEF865
:10A450008DF800003D2002F0E9F88DF801009DF82C
:10A460000010FF2909D1FF2807D14FF4FB70388471
:10A470008DF80080F6208DF801009DF801009DF810
:10A48000001040EA012027F8200F78823E757E7583
:10A49000BDE8FC9F10B501210D2001F026FDBDE8AF
:10A4A00010400121114800F0A9BB0EB5FFF7F2FFE3
:10A4B0004FF4A06000F04CFA02F0D0FE482002F009
:10A4C00093FE094D00246C7002F0C2FC02F030FDD6
:10A4D00001F0DCFEFFF70EFE02F0ADFF382107E0D1
:10A4E000E410002061000020000000200002300085
:10A4F00089A006F039F8FFF7D9FD02E0322002F01A
:10A5000098FE05F061F920B1A878411CA9700A28CD
:10A51000F4D3A8780A2804D36C7089A006F024F834
:10A520000DE0012068708CA006F01EF89048017DB7
:10A530000091C37C827C417C8EA006F015F841F628
:10A540001F41322002F059FD90480460DFF840823C
:10A5500088F8004002F0A7FE0190DFF838A2DFF88B
:10A560003892DFF838B242F210778D4EFFF7B0FD27
:10A5700002F099FE0290029801F0B3FE9AF80000F2
:10A58000012813D102F068FF60B102F04BFF02F026
:10A5900093FE8449002002F0CCFF8249002003F0A2
:10A5A000D0FA01E002F0BCFE8AF8004099F8000001
:10A5B00030B1401EC0B289F8000008B902F0B0FE08
:10A5C00098F8000068B99BF8001051B176490298DC
:10A5D0000968401A41F28831884224D38BF8004040
:10A5E00021E001280CD0022813D0DDE90110401A27
:10A5F000B84201D3307860B12878012809D012E040
:10A600006A4902980968401AB8420CD302F084FFE4
:10A6100009E0214688F800403170102002F027F848
:10A62000634803F066FE012002F003FE9EE72DE979
:10A63000F0416048C17800290CD10121C1704FF46C
:10A64000FA71001D03F06EFE5A4842F210710C3090
:10A6500003F068FE05F00DF9574D288018B34FF44C
:10A66000006003F0CAFE554CA18988420BD101203D
:10A6700004F020F8288800284BD004F0F0FFBDE853
:10A68000F04105F0FEB840F6060003F0B6FEA189E1
:10A6900088423ED104F097FF2888002839D0BDE8D1
:10A6A000F04105F0EEB84348001D03F04DFE0028D0
:10A6B0002FD04048001D03F03CFE0024288818B12C
:10A6C00004F0CDFF05F0DDF8641CE4B2282CF5D3CE
:10A6D00000243B4E3B4F06EB84103860052003F00E
:10A6E000E9FF288818B104F0BAFF05F0CAF8641C25
:10A6F000E4B20A2CEFD32F480C3003F025FE0028DB
:10A7000007D02C480C3003F014FEBDE8F04104F0F3
:10A71000DEBEBDE8F0810000434F322F48554D2F7B
:10A7200050524553555252204E45542652533438B8
:10A73000352049535020726576202575200A0D007A
:10A74000454E4332384A363020496E69742045728E
:10A75000726F72210D0A0000454E4332384A36307E
:10A7600020496E697420446F6E6521200D0A000037
:10A77000E41000204950616464723A2025752E254A
:10A78000752E25752E2575200D0A00005800002015
:10A79000C30000206200002063000020C2000020EF
:10A7A000610000201A110020CC000020D000002001
:10A7B000008000080000002084000020181B0020FA
:10A7C000AC310020A00000207047FEE7FEE7FEE766
:10A7D000FEE7704770477047704700000CB50022D5
:10A7E000019200925248016841F4803101604FF4B7
:10A7F000A063016801F4003100910199491C0191A5
:10A80000009911B901999942F3D10168890302D5E0
:10A810000121009100E000920099012930D14549C1
:10A820000A6842F010020A600A6822F003020A6015
:10A830000A6842F002020A60416841604168416072
:10A84000416841F480614160416821F47C114160BC
:10A85000416841F4E8114160016841F08071016094
:10A8600001688901FCD5416821F00301416041681C
:10A8700041F0020141604168C1F381010229FAD12E
:10A880000CBDABE710B52A48016841F00101016039
:10A890004168294A114041600168284A114001601D
:10A8A000016821F480210160416821F4FE014160CA
:10A8B0004FF41F018160FFF7E4FF21494FF0006072
:10A8C000086010BD10B51A4A506800F00C011D4B0D
:10A8D0001D4800290ED004290ED008290ED003608F
:10A8E0005168194AC1F30311121D515C0268CA4034
:10A8F000026010BD0360F3E70360F1E7516801F403
:10A900007011536803F48033022404EB914133B196
:10A9100053689B0307D50D4B59430160E0E70B4B90
:10A9200059430160DCE7074B59430160D8E7000059
:10A9300000100240002002400000FFF8FFFFF6FE7A
:10A9400008ED00E000127A001400002000093D002C
:10A950002A4908432A490860704770B50F23C27816
:10A9600001260178002A1ED0254A126802F4E0620E
:10A97000C2F5E062120AC2F10404D3404578A54052
:10A9800082781A402A43120101F1E02181F8002463
:10A99000007800F01F018E404009800000F1E020A7
:10A9A000C0F8006170BD01F01F00864048098000BA
:10A9B00000F1E020C0F8806170BD124A11400143EF
:10A9C0000F48001F016070470D4A121D002903D077
:10A9D000116801431160704711688143116070472D
:10A9E0004FF0E021042804D0086920F00400086139
:10A9F0007047086940F00400086170470000FA05DC
:10AA00000CED00E080FFFF1F10B59C49884209D182
:10AA10000121042001F07FFA0021BDE8104004204C
:10AA200001F079BA9649884209D10121082001F044
:10AA300072FA0021BDE81040082001F06CBA91497B
:10AA4000884209D10121102001F065FA0021BDE8FA
:10AA50001040102001F05FBA8B49884209D10121D2
:10AA6000202001F058FA0021BDE81040202001F01C
:10AA700052BA8649884209D10121402001F04BFA9F
:10AA80000021BDE81040402001F045BA80498842CD
:10AA900009D10121802001F03EFA0021BDE81040DB
:10AAA000802001F038BA7B4988420AD184150121FF
:10AAB000204601F030FA2046BDE81040002101F0A8
:10AAC0002ABA10BD10B50121084601F024FA002170
:10AAD000BDE81040012001F01EBA2DE9F04100222E
:10AAE000CC7804F00F03E40601D58C7823430C786E
:10AAF0004FF00F0714F0FF0F4FF0010C1CD005684A
:10AB00000CFA02F40E882640A64211D1960007FAEC
:10AB100006F825EA080503FA06F848EA0505CE789E
:10AB2000282E02D0482E02D002E0446100E00461E9
:10AB3000521C082AE4D305600A88FF2A1ED94568FA
:10AB4000002202F108060CFA06F40E882640A642FE
:10AB500010D1960007FA06F825EA080503FA06F868
:10AB600048EA0505CE78282E00D14461CE78482EDB
:10AB700000D10461521C082AE3D34560BDE8F0818E
:10AB80004FF6FF710180022181700421C17070476E
:10AB90000246002092680A4200D001207047806877
:10ABA00080B2704702460020D2680A4200D00120DD
:10ABB0007047C06880B2704701617047416170475B
:10ABC000002A01D00161704741617047C160704740
:10ABD00041F480328261816182618169806970475C
:10ABE00010B52D4B1A684FF68074224042EA0010CF
:10ABF0000843186010BD2949C8617047F0B5264C5C
:10AC0000002801DAE36900E06368C0F30346420DFF
:10AC1000120185B2C0F301579540032F07D0C2023D
:10AC20000CD50322B240934343F0706209E023F055
:10AC30007062636823F07063636002E0AB4343F0CB
:10AC4000706201B12A43002801DAE261F0BD62605E
:10AC5000F0BD10B58A07120F0F23934021F00304B3
:10AC60000D4921448C689C438C608B689040034361
:10AC70008B6010BD0949DC31086070470008014055
:10AC8000000C014000100140001401400018014078
:10AC9000001C014000200140000001400000204253
:10ACA0000D49086070470C49486070470A49886040
:10ACB000704709494AF6AA200860704706494CF6D1
:10ACC000CC400860704701460020034AD2680A421F
:10ACD00000D00120704700000030004010B5FE4950
:10ACE00088420AD1C4140121204601F014F92046FB
:10ACF000BDE81040002101F00EB9B0F1804F0CD03A
:10AD0000F649884213D10121022001F00FF90021F8
:10AD1000BDE81040022001F009B90121084601F008
:10AD200005F90021BDE81040012001F0FFB8EC4911
:10AD3000884209D10121042001F0F8F80021BDE882
:10AD40001040042001F0F2B8E649884209D10121FF
:10AD5000082001F0EBF80021BDE81040082001F0C8
:10AD6000E5B8E149884209D10121102001F0DEF85F
:10AD70000021BDE81040102001F0D8B8DB4988421E
:10AD800009D10121202001F0D1F80021BDE81040B7
:10AD9000202001F0CBB8D64988420AD144140121C1
:10ADA000204601F0B8F82046BDE81040002101F02F
:10ADB000B2B8D04988420AD10121CC04204601F022
:10ADC000AAF82046BDE81040002101F0A4B8CA4905
:10ADD00088420AD101210C05204601F09CF820464A
:10ADE000BDE81040002101F096B8C44988420AD15C
:10ADF00001214C05204601F08EF82046BDE81040A8
:10AE0000002101F088B8BE49884209D101214020C3
:10AE100001F08CF80021BDE81040402001F086B818
:10AE2000B849884209D10121802001F07FF8002132
:10AE3000BDE81040802001F079B8B34988420AD1BA
:10AE400084150121204601F071F82046BDE810402C
:10AE5000002101F06BB8AD4988420AD101210C04F0
:10AE6000204601F058F82046BDE81040002101F0CE
:10AE700052B8A74988420AD101214C04204601F06A
:10AE80004AF82046BDE81040002101F044B8A1492D
:10AE900088420AD101218C04204601F03CF820466A
:10AEA000BDE81040002101F036B810BD30B5028871
:10AEB000894C8F4DA0420DD0A8420BD0B0F1804FED
:10AEC00008D0864B984205D0854B984202D0854BDE
:10AED000984203D122F070034A881A43824B984269
:10AEE00006D0824B984203D022F44073CA881A439A
:10AEF00002808A8882850A880285A0420AD0A842F8
:10AF000008D0824A904205D0814A904202D0814ABC
:10AF1000904201D1097A01860121818230BD30B58C
:10AF2000028C22F001020284028C8388048B24F0BC
:10AF3000700424F003050C882C4322F002020D89D2
:10AF400015434A882A43644DA8420BD0684DA84255
:10AF500008D06E4DA84205D06D4DA84202D06D4D6F
:10AF6000A8420FD122F008054A892A4322F004059D
:10AF70008A882A4323F4807323F400738D891D4348
:10AF8000CB892B4383800483C9888186028430BDAA
:10AF900070B5028C22F010020284028C8388048B2C
:10AFA00024F4E04424F440760D884FF6FF7404EA5C
:10AFB0000525354322F020020E8904EA06161643C1
:10AFC0004A8804EA02123243434EB04202D0484E4D
:10AFD000B04217D122F080024E8904EA06161643C9
:10AFE00026F040068A8804EA0212324323F4806382
:10AFF00023F400638E8904EA86061E43CB8904EAA3
:10B000008303334383800583C9880187028470BD2D
:10B0100070B5028C22F480720284028C8388848B47
:10B0200024F0700424F003040D88254322F40072F8
:10B030000E894FF6FF7404EA062616434A8804EA8E
:10B0400002223243244EB04202D0294EB04217D1E0
:10B0500022F400664A8904EA0222324322F480661E
:10B060008A8804EA0222324323F4805323F40053F3
:10B070008E8904EA06161E43CB8904EA0313334380
:10B0800083808583C9888187028470BD70B5028CF6
:10B0900022F480520284058C8288838B23F4E0435F
:10B0A00023F440760C884FF6FF7303EA04243443FC
:10B0B00025F400550E8903EA06362E434D8803EA2F
:10B0C00005353543044EB04202D0094EB04226D178
:10B0D00022F480468A891FE0002C014000040040D1
:10B0E00000080040000C0040001000400014004028
:10B0F00000340140004C0140005001400054014028
:10B1000000180040001C00400020004000400140AA
:10B11000004401400048014003EA82123243828029
:10B120008483C988A0F84010058470BD828B22F406
:10B1300040628283828B4FF6FF7303EA01210A4348
:10B1400082837047F0B5048C24F480540484868B89
:10B15000048C4FF6FF7505EA013726F4734605EABD
:10B160000222324305EA03331343F74A90420ED0DA
:10B17000F64A90420BD0B0F1804F08D0F44A90428A
:10B1800005D0F44A904202D0F34A904205D124F40B
:10B190000051394341F4805104E024F402420A434F
:10B1A00042F4805183830184F0BD828B22F00C0233
:10B1B0008283828B0A4382837047F0B5048C24F427
:10B1C00080740484858B048C4FF6FF7707EA012690
:10B1D00025F0F30507EA031313432B43DA4A9042A1
:10B1E0000ED0DA4A90420BD0B0F1804F08D0D84A46
:10B1F000904205D0D74A904202D0D74A904205D11A
:10B2000024F40071314341F4807104E024F420629D
:10B210000A4342F4807183830184F0BD028B22F4DF
:10B2200040620283028B4FF6FF7303EA01210A4357
:10B2300002837047F0B5048C24F010040484068B5C
:10B24000048C4FF6FF7505EA011726F4734605EAEC
:10B250000333334305EA02221A43BB4B98420ED014
:10B26000BA4B98420BD0B0F1804F08D0B84B9842FF
:10B2700005D0B84B984202D0B74B984205D124F084
:10B280002001394341F0100104E024F0A0030B43F6
:10B2900043F0100102830184F0BD028B22F00C0206
:10B2A0000283028B0A430283704770B5048C24F03A
:10B2B00001040484058B048C25F0F3054FF6FF761A
:10B2C00006EA031313432B439F4A90420ED09F4A32
:10B2D00090420BD0B0F1804F08D09D4A904205D0EB
:10B2E0009C4A904202D09C4A904205D124F002022E
:10B2F0000A4342F0010104E024F00A020A4342F04A
:10B3000001010383018470BD70B505460C468E486B
:10B31000854209D08D48854206D0B5F1804F03D0D3
:10B320008B48854200D08B4820886188A288238979
:10B3300058B1042811D0082817D02846FFF702FF7B
:10B34000E1882846BDE87040F0E62846FFF7ADFFEB
:10B35000E1882846BDE870409FE72846FFF76AFF6E
:10B36000E1882846BDE8704058E72846FFF725FFEA
:10B37000E1882846BDE8704017E72DE9F04107460F
:10B380000C46002501266188002900D10225A288EB
:10B39000012A00D102262088238988B13846FFF788
:10B3A00049FFE1883846FFF739FF238932462946AD
:10B3B0003846FFF77AFFE1883846BDE8F0416CE790
:10B3C0003846FFF772FFE1883846FFF766FF2389AA
:10B3D000324629463846FFF72DFFE1883846BDE85A
:10B3E000F0411BE710B50A884B88CC881A438B883C
:10B3F00023431A430B891A434B8989891A430A4309
:10B40000A0F8442010BD4FF6FF718180002101801B
:10B41000C18041800172704700210180418081809C
:10B42000C180018141818181C181704700210180FA
:10B43000418001228280C18001817047002101800A
:10B4400041808180C18001814181818170470029D3
:10B4500004D0018841F0010101807047018821F08A
:10B46000010101807047002905D030F8441F41F4E4
:10B4700000410180704730F8441FC1F30E01018084
:10B480007047002A03D082890A43828170478289EB
:10B490008A4382817047818270471143A0F8481027
:10B4A0007047002A03D082890A43828170478289CB
:10B4B0008A4382817047018921F007010181704729
:10B4C000028922F070020A430281704700B50346E8
:10B4D0001846FFF7F5FF188940F00700188100BDF6
:10B4E00070B50D4604461146602D0CD00122204651
:10B4F000FFF7DBFE29462046FFF7E2FF208940F0F8
:10B500000700208170BD01222046FFF793FEF1E77E
:10B5100030B50489E4B24FF6FF7505EA03231343FF
:10B520000B432343038130BD10B504462046FFF78B
:10B53000EFFF208920F0070040F0070020F07000A6
:10B5400040F07000208110BD002C0140003401400B
:10B550000004004000080040000C004010B5044604
:10B560002046FFF7D5FF208940F480402081EAE79C
:10B57000018582827047028822F070020A430280AD
:10B58000704770B50589048B068C25F007050D43BF
:10B590004FF6FC410C4040F201110C4326F022060C
:10B5A0004FF6FF7101EA0311114331430581048312
:10B5B000018470BD028B22F070020A43028370473F
:10B5C000028B22F4E0424FF6FF7303EA012111439C
:10B5D00001837047828B22F070020A438283704796
:10B5E000828B22F4E0424FF6FF7303EA01211143FC
:10B5F00081837047002904D0018841F080010180D7
:10B600007047018821F0800101807047002904D033
:10B61000818841F0040181807047818821F0040114
:10B6200081807047002904D0818841F00801818021
:10B630007047818821F0080181807047002904D07B
:10B64000818841F0010181807047818821F00101EA
:10B6500081807047028B22F008020A430283704700
:10B66000028B22F400624FF6FF7303EA01211143BB
:10B6700001837047828B22F008020A43828370475D
:10B68000828B22F400624FF6FF7303EA012111431B
:10B6900081837047028B22F004020A4302837047C1
:10B6A000028B22F480624FF6FF7303EA01211143FB
:10B6B00001837047828B22F004020A438283704721
:10B6C000828B22F480624FF6FF7303EA012111435B
:10B6D00081837047028B22F080020A430283704705
:10B6E000028BC2F30E024FF6FF7303EA01211143EE
:10B6F00001837047828B22F080020A438283704765
:10B70000828BC2F30E024FF6FF7303EA012111434D
:10B7100081837047028C22F002020A430284704740
:10B72000028C22F008020A4302847047028C22F045
:10B7300020024FF6FF7303EA0111114301847047A1
:10B74000028C22F080024FF6FF7303EA01111143CD
:10B7500001847047028C22F400724FF6FF7303EAF3
:10B760000121114301847047028C22F400624FF6DC
:10B77000FF7303EA0121114301847047028C22F414
:10B7800000524FF6FF7303EA013111430184704701
:10B7900010B501238B40048C9C430484038C8A40A5
:10B7A00013430384CFE610B504238B40048C9C43E1
:10B7B0000484038C8A4013430384C4E630B500F14B
:10B7C000180301248C40058CA5430584002911D061
:10B7D00008290FD0091FC1F34E001844016821F455
:10B7E000E041016001684FF6FF7303EA0222114352
:10B7F000016030BD03EB5100016821F07001016070
:10B8000001681143016030BD002904D0018841F076
:10B81000020101807047018821F002010180704718
:10B82000002904D0018841F004010180704701889B
:10B8300021F0040101807047002904D0818841F083
:10B84000800181807047818821F08001818070476C
:10B85000028822F00802028002880A4302807047B0
:10B86000828822F07002828082880A438280704738
:10B87000028922F00702028102890A43028170478D
:10B88000028922F08002028102890A430281704704
:10B890008184704781857047818670470187704732
:10B8A00081877047A0F840107047028822F44072E8
:10B8B000028002880A4302807047808E7047008FA2
:10B8C0007047808F7047B0F840007047808C704799
:10B8D000008D704702460020128A0A4200D00120E3
:10B8E0007047C9430182704702460020138A0B400B
:10B8F00092890A40002B02D0002A00D00120704714
:10B90000C94301827047000010B5E14988420AD15D
:10B9100001218C03204600F0FEFA2046BDE81040CD
:10B92000002100F0F8BADB4988420AD101214C0419
:10B93000204600F0FBFA2046BDE81040002100F050
:10B94000F5BAD54988420AD101218C04204600F07D
:10B95000EDFA2046BDE81040002100F0E7BACF49DB
:10B9600088420AD10121CC04204600F0DFFA2046AB
:10B97000BDE81040002100F0D9BAC94988420AD177
:10B9800001210C05204600F0D1FA2046BDE8104008
:10B99000002100F0CBBA10BD30B585B004460D468D
:10B9A000208A4CF6FF710840E98801432182A08972
:10B9B0004EF6F3110840A9882A8911436A89024387
:10B9C0001143A181A08A4FF6FF410840A989014394
:10B9D000A182684600F031FAAD48844201D1039853
:10B9E00000E00298A189090408D500EBC00101EB31
:10B9F000001029684900B0FBF1F007E000EBC0013E
:10BA000001EB001029688900B0FBF1F06422B0FB63
:10BA1000F2F109010B096FF018056B4300EB83008D
:10BA2000A3891D044FF0320307D503EBC000B0FB20
:10BA3000F2F000F00700084306E003EB0010B0FB53
:10BA4000F2F000F00F000843208105B030BD4FF444
:10BA50001651016000218180C18001810C22428148
:10BA60008181704710B5038A4FF2FF0213400A88A4
:10BA70004C8822438C88C9880C4322431A43028293
:10BA800010BD0021018041808180C1807047002964
:10BA900004D0818941F4005181817047818921F46A
:10BAA00000518181704710B540F66A13C1F342130B
:10BAB00001F01F040121A140012B07D0022B07D068
:10BAC00014303AB102680A43026010BD0C30F8E746
:10BAD0001030F6E702688A43026010BD002A03D0E6
:10BAE000828A0A4382827047828A8A4382827047AE
:10BAF000028A22F00F020282028A0A4302827047FF
:10BB0000828922F40062828182890A43828170479D
:10BB1000002904D0818941F0020181817047818927
:10BB200021F0020181817047028A22F02002028204
:10BB3000028A0A4302827047002904D0018A41F434
:10BB4000804101827047018A21F48041018270475F
:10BB5000C1F30801818070478088C0F308007047F6
:10BB6000818941F0010181817047028BD2B2028349
:10BB7000028B42EA012101837047028B02F47F426B
:10BB80000283028B0A4302837047002904D0818A12
:10BB900041F0200181827047818A21F02001818259
:10BBA0007047002904D0818A41F0100181827047DA
:10BBB000818A21F0100181827047002904D0818A96
:10BBC00041F0080181827047818A21F00801818259
:10BBD0007047002904D0818941F400418181704778
:10BBE0008189C1F30E0181817047002904D0818AC7
:10BBF00041F4006181827047818A21F40061818271
:10BC00007047828A22F004028282828A0A438282F8
:10BC10007047002904D0818A41F002018182704777
:10BC2000818A21F002018182704702460020128839
:10BC30000A4200D0012070478A05C943018070473D
:10BC400070B5002440F66A12C1F3421301F01F05DB
:10BC5000012606FA05F2012B0CD0022B0DD0838AA7
:10BC60001340090A8E40008830400BB100B1012416
:10BC7000204670BD83891340F3E7038A1340F0E741
:10BC800040F66A120A0A01219140C94301807047B7
:10BC9000003801400044004000480040004C004093
:10BCA00000500040B448016841F001010160416862
:10BCB000B24A114041600168B14A11400160016817
:10BCC00021F480210160416821F4FE0141604FF4BC
:10BCD0001F0181607047A8490A6822F480320A6017
:10BCE0000A6822F480220A60B0F5803F07D0B0F5E0
:10BCF000802F03D1086840F4A020086070470868CE
:10BD000040F48030086070470346002059099A4A81
:10BD100001290AD002290AD0516A03F01F02012327
:10BD200093400B4200D0012070471168F5E7116A7B
:10BD3000F3E718B5002000904FF4A0643120FFF71E
:10BD4000E3FF0099491C00910099A14201D000280D
:10BD5000F4D03120FFF7D8FF08B1012018BD002032
:10BD600018BD854A116821F0F80141EAC000106051
:10BD700070478449086070477F4B5A6822F47C12F0
:10BD800008431043586070477E49086670477A4AF6
:10BD9000516821F0030101435160704776484068C3
:10BDA00000F00C007047744A516821F0F001014323
:10BDB00051607047704A516821F4E061014351605D
:10BDC00070476D4A516821F4605141EAC0005060EB
:10BDD0007047694A002903D0517A01435172704774
:10BDE000517A8143517270476649D8310860704773
:10BDF000614A516821F440410143516070475E49F6
:10BE0000002220310A7001F82029012805D00428D9
:10BE100002D1052081F820007047012081F8200020
:10BE2000704759490860704753490A6A02430A62D9
:10BE30007047554944390860704710B54E4A5168FB
:10BE400001F00C01514B002927D0042927D00829E3
:10BE500027D00360516801F0F00109094C4B5C5C8C
:10BE60000168E1404160546804F4E064240A1C5D08
:10BE700021FA04F48460546804F46054E40A1B5DFD
:10BE8000D940C160526802F44042920B404B1B1FE4
:10BE90009A5CB1FBF2F1016110BD0360DAE7036067
:10BEA000D8E7516801F47011536803F48033022419
:10BEB00004EB914133B153689B0307D5354B59438C
:10BEC0000160C7E7334B59430160C3E72F4B594328
:10BED0000160BFE7284A002903D05169014351613D
:10BEE00070475169814351617047234A002903D04B
:10BEF00091690143916170479169814391617047F4
:10BF00001D4A002903D0D1690143D1617047D1692D
:10BF10008143D1617047184A002903D0D168014399
:10BF2000D1607047D1688143D1607047124A0029BF
:10BF300003D0116901431161704711698143116197
:10BF4000704711494039086070470E49C86470470E
:10BF50000949C87170470848416A41F080714162DF
:10BF6000704701460020044A92680A4200D001202E
:10BF70007047014988727047001002400000FFF8C6
:10BF8000FFFFF6FE000042428004424200127A00A7
:10BF90002C00002000093D0010B5A94988420AD1B3
:10BFA000841401212046FFF7B6FF2046BDE810406B
:10BFB0000021FFF7B0BFA34988420AD10414012130
:10BFC0002046FFF7B3FF2046BDE810400021FFF7F1
:10BFD000ADBF9D4988420AD1C41301212046FFF715
:10BFE000A5FF2046BDE810400021FFF79FBF10BD10
:10BFF00030B5028802F441530A884C88CD88224328
:10C000008C882C4322430C8922434C8922438C89FF
:10C010002243CC8922431A430280828B22F400629D
:10C020008283098A018230BDF0B585B005460C4691
:10C03000022000210126AA8B4FF240031A40AA8356
:10C0400002222A84AF8BA268022A21D0A08800B1E4
:10C0500002266846FFF7F1FE0098E188B1F5007FFF
:10C060002CD07101B0FBF1F000EB8000A168400022
:10C07000B0FBF1F0401D80B20A21B0FBF1F000F0FE
:10C080000101401AC0F34F004FF6FF7202EA01218E
:10C09000821EFE2A01D302200021E28808430243C7
:10C0A0002A8420886188A2890843A1881143084313
:10C0B000384340F40060A88305B0F0BD000A00EBEF
:10C0C0008000A1684000B0FBF1F0401D80B2D3E7D2
:10C0D0000021018041808180C18001814181818175
:10C0E000C181072101827047002101804180818048
:10C0F000C1800222826081817047002904D00188BA
:10C1000041F0400101807047018821F04001018029
:10C110007047002904D0818B41F48061818370478E
:10C12000818B21F4806181837047090901238B4051
:10C1300099B2002A03D082880A438280704782889D
:10C140008A4382807047002A03D082880A43828013
:10C15000704782888A4382807047818170478089D6
:10C160007047A1F57E42FF3A04D0018841F4807106
:10C1700001807047018821F4807101807047002997
:10C1800004D0818841F0040181807047818821F0CA
:10C19000040181807047028822F4006202800288D4
:10C1A0000A4302807047018841F480510180704742
:10C1B000002904D0018841F40051018070470188B2
:10C1C00021F4005101807047012901D0008B704794
:10C1D000808A7047008A7047B1F5804F04D001888B
:10C1E00021F4804101807047018841F48041018041
:10C1F00070470246002012890A4200D00120704791
:10C20000C9430181704730B50246002001F00F0399
:10C21000012505FA03F4A3B2090905FA01F4A4B251
:10C220009188214012891A4202D0002900D00120B1
:10C2300030BD01F00F0201219140C94301817047D7
:10C240000030014000380040003C00400948804771
:10C2500009480047FEE7FEE7FEE7FEE7FEE7FEE7E8
:10C26000FEE7FEE7FEE7FEE704480549054A064B00
:10C2700070470000ED0900083101000890460020D9
:10C2800090660020905600209056002038B501217D
:10C290004020FFF72AFE4FF47C44ADF80040102008
:10C2A0008DF8030003208DF802002B4D69462846C7
:10C2B000FEF713FCBDF800102846FEF77DFC214672
:10C2C0002846FEF779FC38BD2449002008607047F5
:10C2D000224901200860704720480168C943016075
:10C2E000704770B50446002C09D01D4D6868201AAF
:10C2F000052816D31B480078012803D00DE0BDE8BF
:10C300007040E9E718490888401C80B2088042F272
:10C310001071884201D901F0FFF86C602878401C48
:10C32000287028783C2811D006DC14280BD0282847
:10C3300008D1BDE87040CBE750280AD0C82801D109
:10C340000020287070BDBDE87040BDE7BDE87040BA
:10C35000BAE7BDE87040BBE700180140A8012342DE
:10C360003C000020C1000020C400002038B5954CDE
:10C37000208FADF8000048208DF803006946606BFF
:10C38000FEF7ABFB218F606BFEF716FC38BD38B5AE
:10C390008C4C208FADF8000010208DF80300032096
:10C3A0008DF802006946606BFEF797FB218F606B8A
:10C3B000FEF702FC38BD834A002803D0918D906AB5
:10C3C000FEF7FABB918D906AFEF7F8BB7D4A002814
:10C3D00003D0118F506BFEF7EFBB118F506BFEF740
:10C3E000EDBB7848018F406BFEF7D2BBF8B5754CBA
:10C3F0000121606AFFF779FDA08DADF800001025DE
:10C400008DF8035003268DF802606946A06AFEF796
:10C4100064FBA18DA06AFEF7CFFB0121206BFFF723
:10C4200064FD208FADF800008DF803508DF8026098
:10C430006946606BFEF751FB218F606BFEF7BCFB1A
:10C44000F8BD10B5FFF7A3FF0120FFF7BFFF0120E4
:10C45000FFF7B1FF042000F0DAFE0020FFF7B6FF7F
:10C46000042000F0D4FEBDE810400020A3E710B582
:10C47000FFF78DFF0020FFF79EFF0020FFF7A6FFCC
:10C48000042000F0C4FE0120FFF795FF0120FFF714
:10C490009DFFBDE81040042000F0B9BE10B5002497
:10C4A0000120FFF793FFFFF761FF012000F0AFFECF
:10C4B0000120FFF780FF012000F0A9FE07E0641CC7
:10C4C000E4B2FA2C03D9FFF7D2FF012010BDFFF729
:10C4D00088FF0028F3D1FFF76EFF002010BD10B5D4
:10C4E0000020FFF768FFFFF752FF0020FFF76EFF05
:10C4F000022000F08CFE0120FFF75DFF022000F01B
:10C5000086FEBDE81040002055E710B50020FFF77B
:10C5100052FFFFF73CFF0120FFF758FF022000F019
:10C5200076FE0120FFF747FF022000F070FEBDE815
:10C53000104000203FE770B50546FFF728FF0020B8
:10C54000FFF739FF0024E809FFF740FF6806050EF2
:10C55000022000F05CFE0120FFF72DFF022000F01A
:10C5600056FE0020FFF727FF022000F050FE641C5B
:10C57000E4B2082CE7D370BD70B506460024FFF77F
:10C58000F5FE00250020FFF716FF022000F03FFE19
:10C590000120FFF710FF6006040EFFF722FF08B12D
:10C5A000641CE4B2012000F032FE6D1CEDB2082DD7
:10C5B000E8D31EB1FFF793FF204670BDFFF7A5FF3C
:10C5C000FAE70000FC6B000838B56B4CE06B002804
:10C5D00015D054F83C0F0121FFF787FC2089ADF8F6
:10C5E000000010208DF8030003208DF8020069463A
:10C5F0006068FEF772FA21896068FEF7DDFA38BDDF
:10C600005D4AD16B00290AD020B1B2F84410106CF9
:10C61000FEF7D2BAB2F84410106CFEF7CFBA7047EA
:10C6200010B5FFF7E3FEBDE81040CDE710B50446B6
:10C63000FFF707FF200AA02101EB4000C0B2FFF77F
:10C640007AFFFFF72BFFE0B2FFF775FFFFF726FF3A
:10C65000FFF7F7FEA120FFF76EFFFFF71FFF002097
:10C66000FFF78AFF0446FFF702FF204610BD70B5B2
:10C6700004460D460020FFF7C3FFFFF7E2FE200A45
:10C68000A02101EB4000C0B2FFF755FFFFF706FF06
:10C69000E0B2FFF750FFFFF701FF2846FFF74BFF1F
:10C6A000FFF7FCFEFFF7E3FE0120FFF7A9FFBDE85F
:10C6B0007040052000F0BDBD2DE9F04106460D4655
:10C6C0001746002409E0E00025FA00F0C1B2301955
:10C6D00080B2FFF7CCFF641CE4B2BC42F3D3BDE8E8
:10C6E000F0812DE9F04102460E4600200024971902
:10C6F00008E00502381B401E80B2FFF797FF284470
:10C70000641CE4B2B442F4D3E9E710B5FF20FFF7AC
:10C710008DFF55280AD05521FF20FFF7A8FFFF20E5
:10C72000FFF784FF552803D0012010BD002010BD65
:10C73000002010BD70B504460E46154608E02046A0
:10C74000641CA4B2FFF772FF06F8010B6D1EADB2B8
:10C75000002DF4D170BD70B506460D46144606E0B6
:10C7600029783046FFF783FF761CB6B26D1C641E35
:10C77000A4B2F5D270BD0000FC6B00087648754984
:10C7800041607649416070477348016941F080011A
:10C79000016170477048C068C10701D0012070472F
:10C7A000410701D502207047C00601D5032070471C
:10C7B0000020704770B50446FFF7ECFF0546012DD9
:10C7C00005D100F024FD641EA4B2002CF4D104B9FC
:10C7D000FF25284670BD70B5054645F6FF76304604
:10C7E000FFF7E8FF002812D15B4C206940F00200FF
:10C7F00020616561206940F0400020613046FFF70C
:10C80000D9FF012803D0216921F00201216170BD07
:10C8100070B506460D46FF20FFF7CCFF00280ED16D
:10C820004D4C206940F0010020613580FF20FFF76A
:10C83000C1FF012803D0216921F00101216170BDF0
:10C84000008870472DE9F04105460E461746002442
:10C8500007E036F814102846FFF7DAFFAD1C641C19
:10C86000A4B2BC42F5D3BDE8F08110B50446002364
:10C8700007E02046FFF7E4FF21F81300A41C5B1C2F
:10C880009BB29342F5D310BD2DE9F05F82460F466F
:10C890001546AAF10062B2F5002F52D2FFF76EFFE3
:10C8A0004FEAD228C2F34906C6F58064A54200D8F3
:10C8B0002C46DFF8ACB037E032183BF812208A4241
:10C8C00003D1401C80B2A042F6D3A04214D2484605
:10C8D000FFF781FF002006E0821937F810102BF8CF
:10C8E0001210401C80B2A042F6D348464FF480623A
:10C8F0001B49FFF7A7FF04E0224639465046FFF7E1
:10C90000A1FFA54202D1BDE8F05F3DE708F10108B3
:10C91000002607EB44070AEB440A281B85B24FF4B4
:10C920008064A54200D82C464FF0006000EBC82977
:10C9300042140B494846FFF798FF00204FF6FF715D
:10C94000C1E7BDE8F09F13B5012201A9FFF79CFFE5
:10C950001CBD00002301674500200240AB89EFCDDC
:10C96000E400002000F068BA00F04EBAF8B50121EA
:10C970000820FFF7BAFAC020ADF8000010208DF8AB
:10C98000030003248DF80240FE4D69462846FEF759
:10C99000A4F8A915ADF8001048218DF803108DF802
:10C9A000024069462846FEF798F840F2CF216420FD
:10C9B00000F061FBF44C002525600A2000F039FCF2
:10C9C000012626600A2000F034FC25600A2000F0D1
:10C9D00030FC26600A2000F02CFC25600A2000F0C4
:10C9E00028FC26600A2000F024FC25600A2000F0C4
:10C9F00020FC26600A2000F01CFC25600A2000F0C4
:10CA000018FC26600A2000F014FCF8BD70B50C4636
:10CA1000DE4D0021C5F8981104F01F010843FFF70F
:10CA2000A3FFFF20FFF7A0FF210602D5FF20FFF79D
:10CA30009BFF0121C5F8981170BD70B503461546DE
:10CA4000D14C0020241F206001F01F001843FFF785
:10CA50008BFF2846FFF788FF0120206070BD2DE97D
:10CA6000F04105460C46C94F0026C7F898613A20A8
:10CA7000FFF77AFF05E06D1E0020FFF775FF04F851
:10CA8000010B002DF7D126700120C7F89801BDE8F1
:10CA9000F08170B504460D46BC4E0020C6F89801E2
:10CAA0007A20FFF761FF04E0641E2878FFF75CFF3F
:10CAB0006D1C002CF8D10120C6F8980170BD70B52E
:10CAC0000546B34E05F06004307884420BD0032253
:10CAD0001F21A020FFF7B1FFC5F341121F218020C5
:10CAE000FFF7ABFF347070BD10B504462046FFF76A
:10CAF000E6FF2146BDE81040002087E770B50546F7
:10CB00000C462846FFF7DBFF22462946BDE8704069
:10CB1000402092E770B50D4600240146D420FFF76F
:10CB2000EDFFE9B2D620FFF7E9FFC5F30721D720D3
:10CB3000FFF7E4FF40F6FF7501E0641CA4B2EA20B1
:10CB4000FFF7D2FFC00701D0AC42F6D370BD70B57D
:10CB500005460024FFF70AFF4FF4FA7609E0FF22AA
:10CB600000211046FFF769FF641CA4B20A2000F000
:10CB700060FB1D20FFF7B8FFC00701D1B442EED320
:10CB8000B44204D383A003F0EFFC012070BD8049C0
:10CB90000020486000210820FFF7B0FF0021092095
:10CBA000FFF7ACFF00210C20FFF7A8FF00210D20AC
:10CBB000FFF7A4FF10210A20FFF7A0FF1A210B2086
:10CBC000FFF79CFF11210420FFF798FF1A21052091
:10CBD000FFF794FFFF210620FFF790FF1F2107209A
:10CBE000FFF78CFFA1213820FFF788FF3F21282085
:10CBF000FFF784FF30212920FFF780FFF921302043
:10CC0000FFF77CFFF7213120FFF778FF0D21C020CF
:10CC1000FFF774FF0021C120FFF770FF3322C2210C
:10CC20008020FFF70AFF1221C620FFF767FF0C21C3
:10CC3000C720FFF763FF1521C420FFF75FFFEE2138
:10CC4000CA20FFF75BFF0521CB20FFF757FF2978AC
:10CC5000E420FFF753FF6978E520FFF74FFFA9783D
:10CC6000E220FFF74BFFE978E320FFF747FF297940
:10CC7000E020FFF743FF6979E120FFF73FFF4FF422
:10CC8000807421460020FFF745FF21461020FFF762
:10CC900041FF1F20FFF713FFC0221B218020FFF759
:10CCA000CCFE04221F218020FFF7C7FEE420FFF7FF
:10CCB0001BFF2978884201D1002070BD012070BD82
:10CCC000722011E770B505460E4611210220FFF7CC
:10CCD00015FF1A210320FFF711FF41F611202C1830
:10CCE000E1B20620FFF70AFFC4F307210720FFF790
:10CCF00005FF002211467A20FFF79FFE31462846A5
:10CD0000FFF7C7FE08221F218020FFF796FE1C2098
:10CD1000FFF7EAFE800705D5BDE8704008221F2115
:10CD2000A0208AE670BD2DE9F04106460F46392065
:10CD3000FFF7DAFEF0B3164D00202979FFF7DEFE8B
:10CD4000A888C0F307210120FFF7D8FE00213A2070
:10CD5000FFF75CFE686000213A20FFF757FE696824
:10CD600041EA0020686000213A20FFF74FFE0446A8
:10CD700000213A20FFF74AFE44EA0024241F002144
:10CD80003A2018E0000C01409C81214200802142A1
:10CD900044000020454E4332384A363020696E69DF
:10CDA00074696C697365206661696C65642E2E2EEA
:10CDB0000A00000010E0FFF729FE804600213A201B
:10CDC000FFF724FE48EA0020711E8C4200D9741E31
:10CDD000000603D4002405E0002058E6394620462A
:10CDE000FFF73DFE29790C20FFF788FEA888C0F3E5
:10CDF00007210D20FFF782FE40221E218020FFF731
:10CE00001CFE204643E6000070B505466C4C02212E
:10CE10002046FFF7EEF90028F9D029462046FFF713
:10CE20009CF901212046FFF7E4F90028F9D02046BB
:10CE3000FFF795F9C0B270BD01466148028822F043
:10CE40003802028002880A4302800121FFF755B9A7
:10CE500030B587B0012141F20900FFF746F8012102
:10CE60000846FDF7CBFE3824ADF8184018208DF8A1
:10CE70001B0003208DF81A00524D06A92846FDF725
:10CE80002CFEBDF818102846FDF796FE01A8FFF706
:10CE90001FF90020ADF804004FF48271ADF80610C0
:10CEA000ADF80800ADF80A00ADF80C006915ADF852
:10CEB0000E10ADF81040ADF812000720ADF81400C8
:10CEC0003F4C01A92046FFF793F801212046FFF7C8
:10CED00014F9322000F0ADF90820FFF7ADFFFF2074
:10CEE000FFF792FF07B030BD01463748028822F0B5
:10CEF0003802028002880A4302800121FFF7FDB850
:10CF000070B50546304C02212046FFF772F9002823
:10CF1000F9D029462046FFF720F901212046FFF7E6
:10CF200068F90028F9D02046FFF719F9C0B270BDA2
:10CF300030B587B001210820FEF7D7FF0121880313
:10CF4000FEF7DEFF4FF46044ADF8184018208DF86E
:10CF50001B0003208DF81A001A4D06A92846FDF77C
:10CF6000BCFD21462846FDF727FE0020ADF8040051
:10CF70004FF48271ADF80610ADF80800ADF80A0064
:10CF8000ADF80C006915ADF80E103821ADF8101091
:10CF9000ADF812000720ADF814000B4C01A9204693
:10CFA000FFF726F801212046FFF7A7F8322000F00E
:10CFB00040F9FF20FFF7A4FF0820FFF795FF91E756
:10CFC00000300140000C01400038004010B5404CDA
:10CFD00001212046FEF788FC01280DD13D4800784C
:10CFE000012801D1FDF723FB00F058F92046BDE8E8
:10CFF00010400121FEF784BC10BD7FB504460D46EC
:10D0000001210220FEF77CFFADF80840ADF8045086
:10D010000024ADF80A40ADF806402D4D01A9284680
:10D02000FDF744FF1D218DF800108DF801408DF8AB
:10D03000024001218DF803106846FDF78EFC0122A5
:10D0400011462846FEF71DFA01212846FEF7FFF992
:10D050007FBD10B5204C01212046FEF73BFC012886
:10D0600003D11E480168491C01602046BDE81040FC
:10D070000121FEF736BC7FB504460D460121102084
:10D08000FEF73EFFADF80840ADF804500020ADF8C3
:10D090000A00ADF80600104C01A92046FDF706FF76
:10D0A00036218DF8001001218DF8011003228DF832
:10D0B00002208DF803106846FDF74FFC012211464F
:10D0C0002046FEF7DEF901212046FEF7C0F97FBDBC
:10D0D0000004004001000020001000404C0000202F
:10D0E000704770B50446012000F00FF93C4D402117
:10D0F0002846FEF79AFD0028F9D0A1B22846FEF78F
:10D1000027FD002000F001F9204670BDF0B587B082
:10D11000074601218803FEF7E8FE314E3046FEF750
:10D12000F3FB304C01212068FEF7DFFE2089ADF8CB
:10D13000180003258DF81A5018208DF81B0006A939
:10D140006068FDF7CAFC0121E068FEF7CEFEA08A08
:10D15000ADF8180048208DF81B0006A92069FDF7DE
:10D16000BCFC25208DF8040001208DF805008DF809
:10D1700006508DF8070001A8FDF7EFFB029700208D
:10D18000ADF80C00ADF80E00ADF81000ADF81400CD
:10D190000C20ADF8120002A93046FEF7FDFB01227B
:10D1A00040F225513046FEF77EFC01213046FEF765
:10D1B0006EFC0121A069FEF798FE208CADF81800E6
:10D1C00010208DF81B008DF81A5006A9E069FDF7B4
:10D1D00084FC218CE069FDF7EFFC07B0F0BD000096
:10D1E00000380140FC6B00084FF0E0210A6922F092
:10D1F00004020A611849C008087000EB4002C2EB43
:10D20000C0104FF6FF7202EAC00048807047124912
:10D21000097848434FF0E021486100238B610120E9
:10D2200008610869C20701D0C003FAD50B618B61A0
:10D2300070470949498848434FF0E021486100237D
:10D240008B61012008610869C20701D0C003FAD5CB
:10D250000B618B61704700005400002013484FF4AD
:10D260007A710068B0FBF1F04FF0E021B0F1807FFF
:10D2700001D301200BE020F07F40401E48610C4AA2
:10D28000F02010700020886107200861002000B1A4
:10D29000FEE7086940F00100086170470548016831
:10D2A000491D016070470348006870471400002062
:10D2B00023ED00E058000020F748FF214170817005
:10D2C0007047F54A91784140F4485378405C5840A3
:10D2D0009070F348405C50707047F0B5FF22FF2318
:10D2E0000021F04DED4EEE4F08E00C46491C2C5D40
:10D2F000C9B25440E4B2325D5A403B5D401EC0B2F8
:10D30000F3D243EA022080B2F0BDE74A002803D0FE
:10D31000118CD069FDF750BC118CD069FDF74EBC63
:10D3200010B5DD480021417281710020FFF7EDFF4B
:10D33000BDE81040012240F22551DC48FEF7B3BBA6
:10D340002DE9F041D94E40F2255739463046FEF7D7
:10D3500077FCD14C0025B0B3FCF7BAFE3046FEF79F
:10D36000FBFBC0B2627ACF49FF2A03D2531C63721F
:10D37000885400E06572627A072A18D0207A8242C7
:10D3800006D14B78102B08D0032B06D0062B04D0E7
:10D39000062A0AD14878192807D100223946304692
:10D3A000FEF781FBE5710120A071BDE8F0814878AE
:10D3B000FA22032808D0062806D0102808D0962084
:10D3C0002072E271F1E708E008202072E271ECE7D8
:10D3D000887909302072E271E7E740F22777394611
:10D3E0003046FEF72DFC0128DFD1E278A089824289
:10D3F00009D2501CE070AB48FF30815C3046BDE87C
:10D40000F041FEF7A5BB40213046FEF70EFC012897
:10D41000F9D1002239463046FEF745FBE570BDE8FC
:10D42000F0417DE710B50120FFF76FFFBDE8104028
:10D430006420FFF7ECBE10B59A489D493638807AD3
:10D4400051F82000FFF762FE934CFF202070FFF799
:10D4500067FFFA20E07110BD70B5924DA5F136045A
:10D460002878FF2805D0E188884202D008B1002042
:10D4700070BD6878192807D003283AD0062838D01C
:10D48000102836D0002070BD0420FFF726FF6979F0
:10D490002A7901EB0221814201D0002070BDA878D9
:10D4A000E978884201D30A4600E0024600D20846E5
:10D4B000E188914201D3814201D9002070BDFFF77C
:10D4C000F2FE03F0CDF8FCF7D7FD282190FBF1F236
:10D4D00001FB1200001DC5B200244FF4FA7604E0EF
:10D4E0003046FFF794FE641CE4B2AC42F8D301204E
:10D4F00070BD694C207A801EC0B2FFF7EEFE217A23
:10D500002944891E4A78097842EA0121814201D1E1
:10D51000012070BD002070BD012080F31388654894
:10D520000168654A01F4E06111430160BFF3408F77
:10D53000FEE72DE9F05F002812D00627CC19E0782D
:10D54000A27800EB022085B2564E6078363EDFF8B6
:10D5500048814FF00009062804D010287DD013E23E
:10D560000027EBE7062D1ED0102D23D04A48002DB2
:10D5700000787ED0022D72D0042D71D0072DEED010
:10D58000082D6ED00F2D6DD00C2D6CD0A5F128007C
:10D59000052869D8C0B232186179D1726179283012
:10D5A000FFF765F8F0E16079F08061790620FFF718
:10D5B0005EF8E9E1607988F805008E2806D08F28AA
:10D5C00004D061791020FFF752F8DDE188F800906F
:10D5D0008E28C4D100212E20FFF749F8C0212F202A
:10D5E000FFF745F8A8213020FFF741F8002131204E
:10D5F000FFF73DF803213220FFF739F8FF213320F0
:10D60000FFF735F8FF213420FFF731F8FF213520EF
:10D61000FFF72DF800213620FFF729F8C021372029
:10D62000FFF725F8A8213820FFF721F8002139203D
:10D63000FFF71DF804213A20FFF719F800213B20DD
:10D64000FFF715F801213C20FFF711F8F6213D20E6
:10D65000FFF70DF80421152007E052E109E02DE065
:10D660003FE051E05DE06EE073E0FFF700F8FFF7A8
:10D6700053FF810796D440F0020088F8000020791B
:10D6800070706079307061790020FEF7F0FF2179C9
:10D690000120FEF7ECFF77E15C0000200078000835
:10D6A000007900081A110020FC6B000800380140C6
:10D6B000446C00080CED00E00400FA05410784D436
:10D6C00040F0040088F800002079F0706079B070B4
:10D6D00061790220FEF7CBFF21790320FEF7C7FF17
:10D6E00052E10107D7D440F0080088F80000207903
:10D6F00070716079307161790420FEF7B8FF21798B
:10D700000520FEF7B4FF3FE18106C4D440F02000BD
:10D7100088F800006079707261790820FEF7A7FF31
:10D7200032E16079052802D90420B07200E0B072BD
:10D73000B17A1520FEF79BFFB07AF74951F8200027
:10D74000FFF7E4FC20E160791028A4D288F80400F7
:10D750001AE1A5F12F00032808D8C0B23218617968
:10D76000517461792F30FEF782FF0DE1A5F133008E
:10D77000032808D8C0B232186179917561793330C5
:10D78000FEF775FF00E1A5F13700032808D8C0B205
:10D7900032186179917661793730FEF768FFF3E0EE
:10D7A0003B2D0DD03C2D12D03D2D1ED0A5F13E00BD
:10D7B000032821D8C0B23044617980F82310E3E017
:10D7C0006079B07761793B20FEF751FFDCE060794A
:10D7D000217900EB0120308421793C20FEF747FFBE
:10D7E00061793D20FEF743FFCEE0617986F827108E
:10D7F0002E20FEF73CFFC7E0A5F14200032805D824
:10D80000C0B23044617980F82810BDE0A5F146002F
:10D81000032805D8C0B23044617980F82C10B3E0F9
:10D820004A2D0BD04B2D0DD04C2D11D0B5F5487F86
:10D830004ED05D2D5ED05C2D60D0A5E0607986F87D
:10D840003000A1E06079217900EB012070869BE037
:10D85000607986F8340001284FD196F82710717549
:10D8600096F83000B077708E30842E20FEF7FFFEE1
:10D87000B17F3B20FEF7FBFE308C010A3C20FEF717
:10D88000F6FE96F820103D20FEF7F1FE00257419F3
:10D890001134A17C2170E07D6071E07E607205F141
:10D8A0002F0080B2FEF7E3FE05F13300617980B20C
:10D8B000FEF7DDFE05F13700617A80B2FEF7D7FE94
:10D8C0006D1CADB2042DE2D386F83490FFF724FE30
:10D8D000607986F8350001280AD1002440F6FF75EA
:10D8E000FF212046FEF7C3FE641CA4B2AC42F7D36E
:10D8F000FFF712FE607986F8220045E0FCF7EAFBAC
:10D9000042E094F805C0A079844538D1C5F30A00F7
:10D91000A8F80A0058B998F8040010B9B5F5004FF6
:10D920004BD305EB004000F10060C8F81000D8E9C7
:10D930000402824241D10022DFF8E0A10CE0BB18D2
:10D940000B4493F807B0B8F80A300AF803B05B1C30
:10D95000A8F80A30521C92B26245F0D3B8F80A20F7
:10D96000B2F5006F0BD16D4900F08CFCB8F80A10CD
:10D97000D8F814000844C8F81400A8F80A903D2DFF
:10D9800002D1A0791E281AD098F805007F2873D0FC
:10D990003F2878D0332874D01F2873D001280CD1A9
:10D9A000B8F80A2032B15D49D8F8100000F06AFCDE
:10D9B000A8F80A905A4901200870BDE8F09F163671
:10D9C000217A7174A07A7073207BB073A07BF0739E
:10D9D000207C3074A07CB074207DF074A07D307504
:10D9E000207E7075A07EB075207FF075A07F3076A8
:10D9F00094F82000707621346078227800EB0220C1
:10DA0000B076E278A37802EB0322B28306F8011C19
:10DA1000307272812E20FEF72AFE317A3B20FEF70B
:10DA200026FE7089010A3C20FEF721FEB07A163EE0
:10DA3000C1B23D20FEF71BFE002574191134A17CF4
:10DA40002170E07D6071E07E607205F12F0080B290
:10DA5000FEF70DFE05F13300617980B2FEF707FE97
:10DA600005F13700617A80B2FEF701FE6D1CADB2A0
:10DA7000042DE2D3FFF750FD7E2088F805009CE7D7
:10DA800001E019E01CE0FEF779FE1024E50505EB46
:10DA9000C420FEF7A0FE641CA4B2FF2CF7D9FEF749
:10DAA00073FEA8F80A9088F804901E48C8F814007D
:10DAB0003E2088F8050080E7342088F805007CE7E0
:10DAC0001E2088F8050078E710B4184B164C9A8988
:10DAD000A054FF2A01D2521C9A81012902D110BC04
