:020000040800F2
:1080000040A00020998100084B8100084D810008A4
:108010004F810008518100085381000800000000D2
:108020000000000000000000000000005581000872
:108030005781000800000000598100085B8100089A
:10804000B3810008B3810008B3810008B381000840
:10805000B3810008B3810008B3810008B381000830
:10806000B3810008B3810008B3810008B381000820
:10807000B3810008B3810008B3810008B381000810
:10808000B3810008B3810008B3810008B381000800
:10809000B3810008B3810008B3810008B3810008F0
:1080A000B3810008B3810008B3810008B3810008E0
:1080B000B381000825960008B3810008B381000849
:1080C000B3810008B3810008B3810008B3810008C0
:1080D000B3810008B3810008B3810008B3810008B0
:1080E000B3810008B3810008B3810008B3810008A0
:1080F000B3810008B3810008B3810008B381000890
:10810000B3810008B3810008B3810008B38100087F
:10811000B3810008B38100089F960008B38100086E
:10812000B3810008B3810008B3810008B38100085F
:10813000DFF80CD001F0B0FE004800475D83000876
:1081400040A0002080F3088870477047FEE7FEE7F4
:10815000FEE7FEE770477047704770470D490860BB
:1081600070470C49486070470A4988607047094960
:108170004AF6AA200860704706494CF6CC400860D1
:10818000704701460020034AD2680A4200D001200D
:10819000704700000030004006488047064800470E
:1081A000FEE7FEE7FEE7FEE7FEE7FEE7FEE7FEE7A7
:1081B000FEE7FEE76D8400083181000840EA010314
:1081C0009B0703D009E008C9121F08C0042AFAD28D
:1081D00003E011F8013B00F8013B521EF9D2704751
:1081E000014A024901F071BE0B9C000838000020D2
:1081F00002E008C8121F08C1002AFAD17047704770
:1082000054656D636F434F32414C4C0000000008D1
:108210000100000010B545F25550FFF79FFF042004
:10822000FFF79FFF4FF47A60FFF79EFFFFF7A4FF71
:10823000BDE81040FFF79BBFFFF799BF2DE9F04164
:10824000594C574D574E2278AF15002823D0052A98
:1082500003D13946284600F0A3FA2078062803D136
:108260003946284600F09CFA2078072803D1394681
:10827000304600F095FA2078082803D13946304678
:1082800000F08EFA2078092829D139462846BDE821
:10829000F04100F085BA052A03D13946284600F09E
:1082A00081FA2078062803D13946284600F07AFA68
:1082B0002078072803D13946304600F073FA207839
:1082C000082803D13946304600F06CFA2078092896
:1082D00005D139462846BDE8F04100F061BABDE855
:1082E000F0812DE9F04747F6FE7230493048FFF73C
:1082F00065FF30486C2180F8FE1F002180F8FF1FC9
:108300002948817000242A4F4FF000664FF400681E
:1083100001F06AF806EBC420054601F096F88146A4
:1083200001F068F8B9F1000F05D107EBC421284628
:10833000424601F061FD641CE4B2102CE8D3BDE8B4
:10834000F087012080F313881B4801681B4A01F461
:10835000E06111430160BFF34F8FFEE71849080346
:1083600000F01FF94FF4E13001F064FC482001F007
:10837000E3FB01F019FAFFF74DFF0E2001F034FB8B
:10838000094C20700F2001F02FFB60700C48801EFC
:1083900001F0A3F86C2801D0FFF7A3FFFFF7D1FF8E
:1083A000000801400014014000000020349F000834
:1083B00040000020407000200CED00E00400FA05B1
:1083C000008000080CB5002201920092524801681A
:1083D00041F4803101604FF4A063016801F4003181
:1083E00000910199491C0191009911B90199994293
:1083F000F3D10168890302D50121009100E00092C8
:108400000099012930D145490A6842F010020A60FA
:108410000A6822F003020A600A6842F002020A6057
:108420004168416041684160416841F48061416058
:10843000416821F47C114160416841F4E8114160D8
:10844000016841F08071016001688901FCD54168D3
:1084500021F003014160416841F00201416041683F
:10846000C1F381010229FAD10CBDABE710B52A484E
:10847000016841F0010101604168294A11404160F1
:108480000168284A11400160016821F480210160DF
:10849000416821F4FE0141604FF41F018160FFF744
:1084A000E4FF21494FF00060086010BD10B51A4A82
:1084B000506800F00C011D4B1D4800290ED0042906
:1084C0000ED008290ED003605168194AC1F3031178
:1084D000121D515C0268CA40026010BD0360F3E7E0
:1084E0000360F1E7516801F47011536803F48033BD
:1084F000022404EB914133B153689B0307D50D4B24
:1085000059430160E0E70B4B59430160DCE7074B3F
:1085100059430160D8E700000010024000200240EB
:108520000000FFF8FFFFF6FE08ED00E000127A0001
:108530000400002000093D002A4908432A49086038
:10854000704770B50F23C27801260178002A1ED02B
:10855000254A126802F4E062C2F5E062120AC2F132
:108560000404D3404578A54082781A402A4312017A
:1085700001F1E02181F80024007800F01F018E4015
:108580004009800000F1E020C0F8006170BD01F0FA
:108590001F0086404809800000F1E020C0F880619B
:1085A00070BD124A114001430F48001F016070471F
:1085B0000D4A121D002903D0116801431160704754
:1085C00011688143116070474FF0E021042804D006
:1085D000086920F0040008617047086940F0040051
:1085E000086170470000FA050CED00E080FFFF1FF6
:1085F00010B59C49884209D10121042000F0B3FE46
:108600000021BDE81040042000F0ADBE964988422C
:1086100009D10121082000F0A6FE0021BDE810408C
:10862000082000F0A0BE9149884209D10121102004
:1086300000F099FE0021BDE81040102000F093BE2C
:108640008B49884209D10121202000F08CFE0021B5
:10865000BDE81040202000F086BE8649884209D13E
:108660000121402000F07FFE0021BDE810404020A5
:1086700000F079BE8049884209D10121802000F0B4
:1086800072FE0021BDE81040802000F06CBE7B49E6
:1086900088420AD184150121204600F064FE20465C
:1086A000BDE81040002100F05EBE10BD10B50121F4
:1086B000084600F058FE0021BDE81040012000F0FF
:1086C00052BE2DE9F0410022CC7804F00F03E406FD
:1086D00001D58C7823430C784FF00F0714F0FF0F6F
:1086E0004FF0010C1CD005680CFA02F40E882640ED
:1086F000A64211D1960007FA06F825EA080503FA02
:1087000006F848EA0505CE78282E02D0482E02D079
:1087100002E0446100E00461521C082AE4D30560D1
:108720000A88FF2A1ED94568002202F108060CFAC1
:1087300006F40E882640A64210D1960007FA06F8E5
:1087400025EA080503FA06F848EA0505CE78282E3A
:1087500000D14461CE78482E00D10461521C082A11
:10876000E3D34560BDE8F0814FF6FF71018002213F
:1087700081700421C17070470246002092680A424D
:1087800000D001207047806880B270470246002008
:10879000D2680A4200D001207047C06880B270479A
:1087A0000161704741617047002A01D00161704743
:1087B00041617047C160704741F4803282618161DC
:1087C000826181698069704710B52D4B1A684FF638
:1087D0008074224042EA00100843186010BD294905
:1087E000C8617047F0B5264C002801DAE36900E063
:1087F0006368C0F30346420D120185B2C0F301570E
:108800009540032F07D0C2020CD50322B2409343F8
:1088100043F0706209E023F07062636823F07063D4
:10882000636002E0AB4343F0706201B12A43002869
:1088300001DAE261F0BD6260F0BD10B58A07120F87
:108840000F23934021F003040D4921448C689C437D
:108850008C608B68904003438B6010BD0949DC310C
:108860000860704700080140000C01400010014002
:108870000014014000180140001C0140002001408C
:10888000000001400000204230B50288F74CF84D4E
:10889000A0420DD0A8420BD0B0F1804F08D0F54BCC
:1088A000984205D0F44B984202D0F44B984203D141
:1088B00022F070034A881A43F14B984206D0F14BDC
:1088C000984203D022F44073CA881A4302808A88EF
:1088D00082850A880285A0420AD0A84208D0EA4AC6
:1088E000904205D0E94A904202D0E94A904201D133
:1088F000097A01860121818230BD70B5028C22F493
:1089000080720284028C8388848B24F0700424F0AB
:1089100003040D88254322F400720E894FF6FF747C
:1089200004EA062616434A8804EA02223243CF4E5E
:10893000B04202D0CE4EB04217D122F400664A892E
:1089400004EA0222324322F480668A8804EA022280
:10895000324323F4805323F400538E8904EA06162D
:108960001E43CB8904EA0313334383808583C9887C
:108970008187028470BD70B5028C22F4805202841B
:10898000058C8288838B23F4E04323F440760C88A3
:108990004FF6FF7303EA0424344325F400550E898F
:1089A00003EA06362E434D8803EA05353543AF4EBC
:1089B000B04202D0AE4EB04205D122F480468A8940
:1089C00003EA8212324382808483C988A0F840106F
:1089D000058470BD4FF6FF71818000210180C18048
:1089E000418001727047002904D0018841F00101E3
:1089F00001807047018821F0010101807047002A41
:108A000003D082890A438281704782898A438281A6
:108A10007047018582827047028822F070020A4303
:108A200002807047028922F070020A430281704777
:108A300070B50589048B068C25F007050D434FF6AC
:108A4000FC410C4040F201110C4326F022064FF687
:108A5000FF7101EA0311114331430581048301844D
:108A600070BD028B22F070020A4302837047028BB2
:108A700022F4E0424FF6FF7303EA01211143018320
:108A80007047828B22F070020A4382837047828B88
:108A900022F4E0424FF6FF7303EA01211143818380
:108AA0007047002904D0018841F08001018070479F
:108AB000018821F0800101807047002904D081885D
:108AC00041F0040181807047818821F00401818098
:108AD0007047002904D0818841F0080181807047E7
:108AE000818821F0080181807047002904D08188A5
:108AF00041F0010181807047818821F0010181806E
:108B00007047028B22F008020A4302837047028BEF
:108B100022F400624FF6FF7303EA0121114301833F
:108B20007047828B22F008020A4382837047828B4F
:108B300022F400624FF6FF7303EA0121114381839F
:108B40007047028B22F004020A4302837047028BB3
:108B500022F480624FF6FF7303EA0121114301837F
:108B60007047828B22F004020A4382837047828B13
:108B700022F480624FF6FF7303EA012111438183DF
:108B80007047028B22F080020A4302837047028BF7
:108B9000C2F30E024FF6FF7303EA01211143018372
:108BA0007047828B22F080020A4382837047828B57
:108BB000C2F30E024FF6FF7303EA012111438183D2
:108BC0007047028C22F002020A4302847047028C32
:108BD00022F008020A4302847047028C22F020022D
:108BE0004FF6FF7303EA0111114301847047028CB1
:108BF00022F080024FF6FF7303EA01111143018452
:108C00007047028C22F400724FF6FF7303EA0121D1
:108C1000114301847047028C22F400624FF6FF7307
:108C200003EA0121114301847047028C22F40052AF
:108C30004FF6FF7303EA013111430184704710B509
:108C400001238B40048C9C430484038C8A4013438F
:108C5000038410BD10B504238B40048C9C43048412
:108C6000038C8A401343038410BD0000002C014094
:108C7000003401400004004000080040000C0040A7
:108C8000001000400014004000400140004401403A
:108C90000048014030B500F1180301248C40058CD8
:108CA000A5430584002911D008290FD0091FC1F35D
:108CB0004E001844016821F4E041016001684FF65C
:108CC000FF7303EA02221143016030BD03EB510040
:108CD000016821F07001016001681143016030BD3D
:108CE000002904D0018841F0020101807047018809
:108CF00021F0020101807047002904D0018841F071
:108D0000040101807047018821F00401018070474F
:108D1000002904D0818841F08001818070478188DA
:108D200021F0800181807047028822F008020280D1
:108D300002880A4302807047828822F07002828093
:108D400082880A4382807047028922F007020281EA
:108D500002890A4302817047028922F0800202815F
:108D600002890A4302817047818470478185704778
:108D7000818670470187704781877047A0F840104F
:108D80007047028B22F00C020283028B0A4302839B
:108D90007047028B22F440620283028B4FF6FF730E
:108DA00003EA01210A4302837047828B22F00C02FE
:108DB0008283828B0A4382837047828B22F44062D3
:108DC0008283828B4FF6FF7303EA01210A43828379
:108DD0007047028822F44072028002880A430280AF
:108DE0007047808E7047008F7047808F7047B0F853
:108DF00040007047808C7047008D7047024600200D
:108E0000128A0A4200D001207047C943018270478C
:108E100002460020138A0B4092890A40002B02D0A0
:108E2000002A00D001207047C9430182704700002A
:108E300010B5E14988420AD101218C03204600F097
:108E400092FA2046BDE81040002100F08CBADB49C0
:108E500088420AD101214C04204600F08FFA2046B6
:108E6000BDE81040002100F089BAD54988420AD1F6
:108E700001218C04204600F081FA2046BDE8104014
:108E8000002100F07BBACF4988420AD10121CC04ED
:108E9000204600F073FA2046BDE81040002100F0A3
:108EA0006DBAC94988420AD101210C05204600F05B
:108EB00065FA2046BDE81040002100F05FBA10BD01
:108EC00030B585B004460D46208A4CF6FF71084047
:108ED000E98801432182A0894EF6F3110840A98850
:108EE0002A8911436A8902431143A181A08A4FF65E
:108EF000FF410840A9890143A182684600F0C5F9F5
:108F0000AD48844201D1039800E00298A189090488
:108F100008D500EBC00101EB001029684900B0FB47
:108F2000F1F007E000EBC00101EB001029688900B7
:108F3000B0FBF1F06422B0FBF2F109010B096FF014
:108F400018056B4300EB8300A3891D044FF0320327
:108F500007D503EBC000B0FBF2F000F007000843B8
:108F600006E003EB0010B0FBF2F000F00F00084346
:108F7000208105B030BD4FF4165101600021818081
:108F8000C18001810C2242818181704710B5038A22
:108F90004FF2FF0213400A884C8822438C88C9880C
:108FA0000C4322431A43028210BD002101804180FC
:108FB0008180C1807047002904D0818941F400512B
:108FC00081817047818921F400518181704710B5FA
:108FD00040F66A13C1F3421301F01F040121A140BE
:108FE000012B07D0022B07D014303AB102680A4394
:108FF000026010BD0C30F8E71030F6E702688A43D3
:10900000026010BD002A03D0828A0A438282704720
:10901000828A8A4382827047028A22F00F02028289
:10902000028A0A4302827047828922F400628281A6
:1090300082890A4382817047002904D0818941F0E6
:10904000020181817047818921F00201818170478D
:10905000028A22F020020282028A0A4302827047B8
:10906000002904D0018A41F4804101827047018ABD
:1090700021F4804101827047C1F30801818070476B
:109080008088C0F308007047818941F00101818127
:109090007047028BD2B20283028B42EA0121018324
:1090A0007047028B02F47F420283028B0A430283E1
:1090B0007047002904D0818A41F0200181827047E5
:1090C000818A21F0200181827047002904D0818AA1
:1090D00041F0100181827047818A21F01001818264
:1090E0007047002904D0818A41F0080181827047CD
:1090F000818A21F0080181827047002904D081898A
:1091000041F40041818170478189C1F30E01818161
:109110007047002904D0818A41F400618182704740
:10912000818A21F4006181827047828A22F00402E0
:109130008282828A0A4382827047002904D0818A0F
:1091400041F0020181827047818A21F0020181820F
:1091500070470246002012880A4200D00120704762
:109160008A05C9430180704770B5002440F66A1231
:10917000C1F3421301F01F05012606FA05F2012B87
:109180000CD0022B0DD0838A1340090A8E40008830
:1091900030400BB100B10124204670BD83891340DB
:1091A000F3E7038A1340F0E740F66A120A0A012146
:1091B0009140C9430180704700380140004400409D
:1091C00000480040004C0040005000407E480168CC
:1091D00041F00101016041687C4A11404160016831
:1091E0007B4A11400160016821F4802101604168DF
:1091F00021F4FE0141604FF41F0181607047724904
:109200000A6822F480320A600A6822F480220A6026
:10921000B0F5803F07D0B0F5802F03D1086840F447
:10922000A02008607047086840F4803008607047EC
:10923000034600205909644A01290AD002290AD0AC
:10924000516A03F01F02012393400B4200D001201A
:1092500070471168F5E7116AF3E718B50020009030
:109260004FF4A0643120FFF7E3FF0099491C0091FF
:109270000099A14201D00028F4D03120FFF7D8FF97
:1092800008B1012018BD002018BD10B54E4A516824
:1092900001F00C014F4B002927D0042927D00829C1
:1092A00027D00360516801F0F00109094A4B5C5C6A
:1092B0000168E1404160546804F4E064240A1C5DE4
:1092C00021FA04F48460546804F46054E40A1B5DD9
:1092D000D940C160526802F44042920B3E4B1B1FC2
:1092E0009A5CB1FBF2F1016110BD0360DAE7036043
:1092F000D8E7516801F47011536803F480330224F5
:1093000004EB914133B153689B0307D5334B594369
:109310000160C7E7314B59430160C3E72D4B594307
:109320000160BFE7284A002903D051690143516118
:1093300070475169814351617047234A002903D026
:1093400091690143916170479169814391617047CF
:109350001D4A002903D0D1690143D1617047D16909
:109360008143D1617047184A002903D0D168014375
:10937000D1607047D1688143D1607047124A00299B
:1093800003D0116901431161704711698143116173
:1093900070471349086070471249C86470470A490A
:1093A000C87170470848416A41F080714162704756
:1093B00001460020044A92680A4200D0012070470A
:1093C0000149887270470000001002400000FFF859
:1093D000FFFFF6FE00127A001C00002000093D008D
:1093E00040044242000042427E487D4941607E493D
:1093F000416070477B48016941F08001016170471D
:109400007848C068C10701D001207047410701D5E5
:1094100002207047C00601D5032070470020704726
:1094200070B50446FFF7ECFF0546012D05D100F0AD
:1094300096FB641EA4B2002CF4D104B9FF2515B12B
:109440006A4901200870284670BD2DE9F0410746A1
:1094500045F6FF763046FFF7E3FF04462CB164A0E3
:10946000FEF7BEFE2046BDE8F0815E4D286940F063
:10947000020028616F61286940F040002861304691
:10948000FFF7CEFF0446012CECD0286920F0020043
:109490002861E7E72DE9F04107460E46FF20FFF778
:1094A000BFFF044644B158A0FEF79AFE14B14F49DD
:1094B000012008702046D6E74A4D286940F0010097
:1094C00028613E80FF20FFF7ABFF0446012CEDD062
:1094D000286920F001002861E8E7008870472DE93D
:1094E000F04105460E461746002407E036F81410F2
:1094F0002846FFF7CFFFAD1C641CA4B2BC42F5D3D5
:10950000B1E710B50446002307E02046FFF7E5FF6A
:1095100021F81300A41C5B1C9BB29342F5D310BD31
:109520002DE9F05F82460F461546AAF10062B2F5BA
:10953000002F52D2FFF758FF4FEAD228C2F3490654
:10954000C6F58064A54200D82C46DFF8D4B037E0D9
:1095500032183BF812208A4203D1401C80B2A0424C
:10956000F6D3A04214D24846FFF76FFF002006E072
:10957000821937F810102BF81210401C80B2A0424C
:10958000F6D348464FF480622549FFF7A8FF04E070
:10959000224639465046FFF7A2FFA54202D1BDE858
:1095A000F05F27E708F10108002607EB44070AEB04
:1095B000440A281B85B24FF48064A54200D82C468B
:1095C0004FF0006000EBC829421415494846FFF7E8
:1095D00098FF00204FF6FF71C1E7BDE8F09F000043
:1095E0002301674500200240AB89EFCD0200002037
:1095F000657261736520666C617368206572726F55
:1096000072200D0A00000000777269746520666C94
:10961000617368206572726F72200D0A000000008D
:109620004080002010B53D4C01212046FFF7E6FBAD
:10963000012807D100F0DAFA2046BDE810400121E8
:10964000FFF7E3BB10BD7FB504460D4601210220A4
:10965000FFF77EFEADF80840ADF804500024ADF8E9
:109660000A40ADF806402D4D01A92846FFF70CF938
:109670001D218DF800108DF801408DF80240012168
:109680008DF803106846FEF75CFF0122114628465C
:10969000FFF7B5F901212846FFF7A5F97FBD10B501
:1096A0001F4C01212046FFF7A9FB012803D11D48CB
:1096B0000168491C01602046BDE810400121FFF708
:1096C000A4BB7FB504460D4601211020FFF740FEE4
:1096D000ADF80840ADF804500020ADF80A00ADF830
:1096E00006000F4C01A92046FFF7CEF836218DF871
:1096F000001001218DF8011003228DF802208DF851
:1097000003106846FEF71DFF012211462046FFF7B1
:1097100076F901212046FFF766F97FBD000400407D
:10972000001000402C00002038B5954C208FADF87B
:10973000000048208DF803006946606BFEF7C1FF0A
:10974000218F606BFFF72CF838BD38B58C4C208F1B
:10975000ADF8000010208DF8030003208DF8020002
:109760006946606BFEF7ADFF218F606BFFF718F85D
:1097700038BD834A002803D0918D906AFFF710B856
:10978000918D906AFFF70EB87D4A002803D0118FA3
:10979000506BFFF705B8118F506BFFF703B878488F
:1097A000018F406BFEF7E8BFF8B5754C0121606A88
:1097B000FFF7C3FDA08DADF8000010258DF8035014
:1097C00003268DF802606946A06AFEF77AFFA18D34
:1097D000A06AFEF7E5FF0121206BFFF7AEFD208FA9
:1097E000ADF800008DF803508DF802606946606B9B
:1097F000FEF767FF218F606BFEF7D2FFF8BD10B553
:10980000FFF7A3FF0120FFF7BFFF0120FFF7B1FF24
:10981000042000F0A4F90020FFF7B6FF042000F0B8
:109820009EF9BDE810400020A3E710B5FFF78DFFBB
:109830000020FFF79EFF0020FFF7A6FF042000F0A6
:109840008EF90120FFF795FF0120FFF79DFFBDE88E
:109850001040042000F083B910B500240120FFF768
:1098600093FFFFF761FF012000F079F90120FFF776
:1098700080FF012000F073F907E0641CE4B2FA2CC9
:1098800003D9FFF7D2FF012010BDFFF788FF0028A2
:10989000F3D1FFF76EFF002010BD10B50020FFF7D9
:1098A00068FFFFF752FF0020FFF76EFF022000F075
:1098B00056F90120FFF75DFF022000F050F9BDE8E6
:1098C0001040002055E710B50020FFF752FFFFF7CA
:1098D0003CFF0120FFF758FF022000F040F9012073
:1098E000FFF747FF022000F03AF9BDE810400020E2
:1098F0003FE770B50546FFF728FF0020FFF739FF67
:109900000024E809FFF740FF6806050E022000F07A
:1099100026F90120FFF72DFF022000F020F900209A
:10992000FFF727FF022000F01AF9641CE4B2082CAC
:10993000E7D370BD70B506460024FFF7F5FE00259D
:109940000020FFF716FF022000F009F90120FFF7C1
:1099500010FF6006040EFFF722FF08B1641CE4B29A
:10996000012000F0FCF86D1CEDB2082DE8D31EB10B
:10997000FFF793FF204670BDFFF7A5FFFAE7000051
:10998000EC9E000838B56B4CE06B002815D054F8FD
:109990003C0F0121FFF7D1FC2089ADF80000102019
:1099A0008DF8030003208DF8020069466068FEF719
:1099B00088FE21896068FEF7F3FE38BD5D4AD16BF1
:1099C00000290AD020B1B2F84410106CFEF7E8BEAE
:1099D000B2F84410106CFEF7E5BE704710B5FFF703
:1099E000E3FEBDE81040CDE710B50446FFF707FFE2
:1099F000200AA02101EB4000C0B2FFF77AFFFFF779
:109A00002BFFE0B2FFF775FFFFF726FFFFF7F7FE2A
:109A1000A120FFF76EFFFFF71FFF0020FFF78AFF6F
:109A20000446FFF702FF204610BD70B504460D4600
:109A30000020FFF7C3FFFFF7E2FE200AA02101EBA1
:109A40004000C0B2FFF755FFFFF706FFE0B2FFF797
:109A500050FFFFF701FF2846FFF74BFFFFF7FCFE23
:109A6000FFF7E3FE0120FFF7A9FFBDE870400520E6
:109A700000F087B82DE9F04106460D461746002450
:109A800009E0E00025FA00F0C1B2301980B2FFF71A
:109A9000CCFF641CE4B2BC42F3D3BDE8F0812DE9F5
:109AA000F04102460E4600200024971908E0050206
:109AB000381B401E80B2FFF797FF2844641CE4B2B5
:109AC000B442F4D3E9E710B5FF20FFF78DFF552826
:109AD0000AD05521FF20FFF7A8FFFF20FFF784FFE2
:109AE000552803D0012010BD002010BD002010BD5E
:109AF00070B504460E46154608E02046641CA4B224
:109B0000FFF772FF06F8010B6D1EADB2002DF4D108
:109B100070BD70B506460D46144606E029783046FD
:109B2000FFF783FF761CB6B26D1C641EA4B2F5D29B
:109B300070BD0000EC9E00084FF0E0210A6922F0A1
:109B400004020A611849C008087000EB4002C2EB29
:109B5000C0104FF6FF7202EAC000488070471249F9
:109B6000097848434FF0E021486100238B610120D0
:109B700008610869C20701D0C003FAD50B618B6187
:109B800070470949498848434FF0E0214861002364
:109B90008B61012008610869C20701D0C003FAD5B2
:109BA0000B618B61704700003000002013484FF4B8
:109BB0007A710068B0FBF1F04FF0E021B0F1807FE6
:109BC00001D301200BE020F07F40401E48610C4A89
:109BD000F02010700020886107200861002000B18B
:109BE000FEE7086940F00100086170470548016818
:109BF000491D016070470348006870470400002059
:109C000023ED00E034000020704770B504460120C9
:109C1000FEF714FB724D40212846FFF79AFA002800
:109C2000F9D0A1B22846FFF727FA0020FEF706FB7D
:109C3000204670BDF0B587B0074601218803FFF7C5
:109C40007CFB674E3046FFF7F3F8664C0121206835
:109C5000FFF773FB2089ADF8180003258DF81A5023
:109C600018208DF81B0006A96068FEF72AFD012167
:109C7000E068FFF762FBA08AADF8180048208DF875
:109C80001B0006A92069FEF71CFD25208DF80400A5
:109C900001208DF805008DF806508DF8070001A809
:109CA000FEF74FFC02970020ADF80C00ADF80E0057
:109CB000ADF81000ADF814000C20ADF8120002A9A8
:109CC0003046FFF7FDF8012240F225513046FFF7FC
:109CD0007EF901213046FFF76EF90121A069FFF7F7
:109CE0002CFB208CADF8180010268DF81B608DF829
:109CF0001A5006A9E069FEF7E4FC218CE069FEF742
:109D00004FFD39480078072801D0082814D10121D7
:109D10002020FFF712FB4FF48074ADF818408DF847
:109D20001B608DF81A50314D06A92846FEF7C9FC74
:109D300021462846FEF734FD07B0F0BD70B586B069
:109D4000054601211020FFF7F8FA0121C804FFF7AA
:109D5000FFFA274E3046FFF76BF83015ADF81400C8
:109D600003208DF8160018208DF81700214C05A946
:109D70002046FEF7A6FCE014ADF8140048208DF84C
:109D8000170005A92046FEF79CFC34208DF8000042
:109D900000248DF801408DF8024001208DF8030069
:109DA0006846FEF7CEFB0195ADF808407014ADF89B
:109DB0000A00ADF80C40ADF810400C20ADF80E00D4
:109DC00001A93046FFF77CF8012240F225513046C8
:109DD000FFF7FDF801213046FFF7EDF806B070BD42
:109DE00000380140EC9E00080000002000140140F3
:109DF000004C0040001001402DE9F0470D46904610
:109E000000240746A0F10060B0F5002F29D2FFF72B
:109E1000EBFA00264FF48069DFF870A015E068784F
:109E2000000215F8021B08442146641CA4B22AF85B
:109E300011004A46944206D1002414493846FFF7DF
:109E40004EFB07F50067B61CB6B24645E7D324B112
:109E500022460E493846FFF742FBBDE8F047FFF7C0
:109E6000C9BABDE8F08710B50168094A1140B1F1DF
:109E7000005F09D14168074C21600068FEF762F974
:109E80002068BDE81040004710BD00004088002059
:109E90000000FE2F3C000020064C074D06E0E06865
:109EA00040F0010394E8070098471034AC42F6D321
:109EB000FEF742F9341F0108541F0108002001E099
:109EC00001C1121F002AFBD170472DE9F04116464F
:109ED0000F460446002503E03946B047641C6D1C5C
:109EE00020780028F8D12846BDE8F0810400000061
:109EF00000080140000200000400000000080140CA
:109F000000040000040000000008014000010000FF
:109F100004000000000801400800000004000000E8
:109F200000080140040000000000000000000000E4
:109F300000000000186A0020F9200008A50C0008A5
:109F4000A70C0008B30C0008B50C0008B70C0008FB
:109F50000000000000000000000000000000000001
:109F6000B90C0008BB0C000800000000BD0C000884
:109F7000BF0C00081321000813210008132100085A
:109F800013210008132100081321000813210008E1
:109F900013210008132100081321000813210008D1
:109FA00013210008132100081321000813210008C1
:109FB00013210008132100081321000813210008B1
:109FC00013210008132100081321000813210008A1
:109FD0001321000813210008132100081321000891
:109FE0001321000813210008CD2D000813210008BB
:109FF0001321000813210008132100081321000871
:10A000001321000813210008093D0008132100084E
:10A01000CF4C000813210008132100081321000869
:10A020001321000813210008132100081321000840
:10A030001321000813210008132100081321000830
:10A040001321000813210008132100087D2E0008A9
:10A050001321000813210008132100081321000810
:10A060001321000800F002F800F047F80AA090E879
:10A07000000C82448344AAF10107DA4501D100F0C3
:10A080003CF8AFF2090EBAE80F0013F0010F18BF49
:10A09000FB1A43F001031847DC700000FC7000005D
:10A0A000103A24BF78C878C1FAD8520724BF30C804
:10A0B00030C144BF04680C607047000000230024D6
:10A0C00000250026103A28BF78C1FBD8520728BFC8
:10A0D00030C148BF0B607047642906F0B785752909
:10A0E00006F0B485732906F08A87002070471FB5F3
:10A0F00006F0FDFD1FBD10B510BD06F0CDFF1146E9
:10A10000FFF7F5FF00F02DFA06F0EBFF03B4FFF7C1
:10A11000F2FF03BC03F018FC80F3088870470000CE
:10A120000B49D1F800C04A685CF8043B1068184439
:10A1300042F8040B8C4528BFA1F1DC0C8A4228BFF1
:10A14000A1F1DC02C1F800C04A6020F00040704775
:10A15000AC49002010B545F2555000F0B9FF04207D
:10A1600000F0B9FF4FF47A6000F0B8FF00F0BEFFD6
:10A17000BDE8104000F0B5BF00F0B3BF70B50024DB
:10A180004FF40075FF21204602F061F9641CA4B26F
:10A19000AC42F7D3BDE8704003F037BE2DE9FC4771
:10A1A0000422FE49002002F0B5F9FC4F0222391DBD
:10A1B000042002F0AFF9062002F028F9F880FF2809
:10A1C00001D1FE20F880D2203872082002F01EF95A
:10A1D000787249210F2002F03AF9102002F016F9A6
:10A1E000EF49087002210C2002F031F900246E467C
:10A1F00004F1280002F00AF93055641CE4B2062C80
:10A20000F6D39DF800000025FF283FD19DF80100FE
:10A21000FF283BD19DF80200FF2837D19DF80300AD
:10A22000FF2833D19DF80400FF282FD19DF80500A9
:10A23000FF282BD129468DF8005002208DF801000F
:10A2400035208DF80200AF208DF803008DF8041042
:10A250008DF80510282002F0FAF89DF80110292049
:10A2600002F0F5F89DF802102A2002F0F0F89DF8AF
:10A2700003102B2002F0EBF89DF804102C2002F0C4
:10A28000E6F89DF805102D2002F0E1F800203A18BC
:10A29000315CD172401CC0B20628F8D3002404F10E
:10A2A0002F0002F0B3F83055641CE4B2042CF6D34E
:10A2B0009DF800004FF0C0084FF0A80AFF2827D1F2
:10A2C0009DF80100FF2823D19DF80200FF281FD12F
:10A2D0009DF80300FF281BD141468DF800808DF8C2
:10A2E00001A08DF8025003208DF803002F2002F00A
:10A2F000AEF89DF80110302002F0A9F89DF8021088
:10A30000312002F0A4F89DF80310322002F09FF8EB
:10A3100000203A18315C517482F82310401CC0B2FE
:10A320000428F6D32E2002F071F88DF800004FF0CB
:10A33000010928B149468DF800902E2002F087F8D7
:10A340009DF80000787587F82700002404F1330099
:10A3500002F05CF83055641CE4B2042CF6D39DF88E
:10A360000000FF2826D19DF80100FF2822D19DF88A
:10A370000200FF281ED19DF80300FF281AD1FF21FB
:10A380008DF800108DF801108DF802108DF8035033
:10A39000332002F05CF89DF80110342002F057F8E9
:10A3A0009DF80210352002F052F89DF80310362077
:10A3B00002F04DF800203A18315C917582F82810AF
:10A3C000401CC0B20428F6D3002404F1370002F088
:10A3D0001DF83055641CE4B2042CF6D39DF800003F
:10A3E000FF2827D19DF80100FF2823D19DF8020006
:10A3F000FF281FD19DF80300FF281BD141468DF88F
:10A4000000808DF801A08DF8025004208DF8030023
:10A41000372002F01CF89DF80110382002F017F8E0
:10A420009DF80210392002F012F89DF803103A202E
:10A4300002F00DF800203A18315C917682F82C1069
:10A44000401CC0B20428F6D33B2001F0DFFF8DF89A
:10A450000000FF2805D129468DF800503B2001F06F
:10A46000F6FF9DF80000B87787F830003C2001F037
:10A47000CDFF8DF800003D2001F0C8FF8DF80100F0
:10A480009DF80010FF2909D1FF2807D14FF4FB7078
:10A4900038848DF80090F6208DF801009DF80100B9
:10A4A0009DF8001040EA012027F8200F78823D75C2
:10A4B0007D75BDE8FC8710B501210D2001F005FC7C
:10A4C000364890F83600072809D0082807D00C280D
:10A4D00005D0BDE810400121324800F0A7BDBDE81D
:10A4E00010400121304800F0A1BD70B52F4C2B4821
:10A4F0000025218990F83620E088491C401C80B254
:10A5000089B2072A1CD0082A1AD00C2A18D0284A47
:10A510001368284A012B1DD09089401C908121810D
:10A52000E580E088C82802D9E58003F077FB208920
:10A53000B0F5FA7F14D92581BDE8704003F06EBBF9
:10A540001D4A1268012A02D02181E580E9E7E080F6
:10A550002581E6E75189491C5181E0802581E0E7AA
:10A5600070BDADF5836D0D4C002684F8366003F0A8
:10A57000D5FA482003F098FA01F042FF272001F0B5
:10A5800045FF552806D10021272001F060FF0B4828
:10A5900004F0CFFB4FF4A06012E00000EE140020A6
:10A5A0006A0000200004300000023000000000209B
:10A5B00020012142C0160020208122420080000894
:10A5C00000F0DEFBFFF777FFFFF7C4FD01F04EFD63
:10A5D000152001F01BFFF9498872062805D9F748B4
:10A5E00004218172152001F032FF1421F44806F095
:10A5F00031FC03F099FBFFF7D1FDFFF7ABFDF14D07
:10A600006E70AE8002F0BEFA02F04AF8EC4F1520F0
:10A610003880FFF7B1FD4FF47A7003F06AFA002436
:10A6200004E0FFF7A9FD322003F063FA05F0ECFD2A
:10A6300020B12046641CE4B20528F2D316203880ED
:10A6400041F61F41322002F087FBDF480660DF48F9
:10A650000670DF4C20886FF30E002080607820F0B9
:10A6600080006070D74886704FF000084FF00109F5
:10A67000A7F80090D748FA21017002F033FD02F0EC
:10A68000B2FD0546022D05D1002002F0C4FD642074
:10A6900003F02FFAFFF770FD03F065FACDF80C0414
:10A6A00002203880DFF830A3FFF766FD03F05BFA85
:10A6B000CDF81004C24C03202080DDF80C14DDF826
:10A6C000100443F69827401AB84205D99AF80000BA
:10A6D00010B9C24804F02DFBC14890F801140906D6
:10A6E00007D5022D05D090F8011421F0800180F8E3
:10A6F0000114EDE0BB480178B148418003F033FA22
:10A70000CDF81004FFF738FDAE4F787808B1012876
:10A7100024D1322003F0EDF9B34C2078012814D174
:10A7200003F013FB70B103F0FDFA03F025FAAF4913
:10A73000002003F077FBAD49002003F086FE04F013
:10A7400094FA01E003F06AFA2670A249087828B169
:10A75000401EC0B2087008B903F060FADDF80C14AE
:10A76000DDF8100443F69824401AA04205D99AF85F
:10A77000000010B9994804F0DCFA03F0F4F9CDF8C0
:10A780001004DFF848B29BF8000078B998490A78BD
:10A7900062B1984ADDF810041268821A41F28830DA
:10A7A000824233D30E7005F047FE2FE001280FD010
:10A7B00002281CD0DDF80C14DDF81004401AA04269
:10A7C00002D39AF8000090B1387801280FD01DE02C
:10A7D0008948DDF810140268891AA14216D3DDF801
:10A7E00010140068814211D98BF800600EE003F06C
:10A7F000BAF9CDF80C0431468BF800608AF80010E5
:10A80000102001F024FE754804F093FA787808B11E
:10A8100003285DD1B87850EA080059D1022D57D1EC
:10A820000024DFF898B10BF13800CDF81404282289
:10A830000DF58160DDF8141402F0B8FEA0B19BF8AC
:10A84000380040B99BF8390028B99BF83A0010B994
:10A850009BF83B0010B187F802900CE041F2883081
:10A8600003F047F9BE7002E0C82003F042F9641C0F
:10A87000E4B2052CDBD3B87808B94FF001084FF4E7
:10A88000FA773B4600225DA15DA002F05AFC012050
:10A8900002F0F9FC00F025FC3B46002257A15CA029
:10A8A00002F04FFC42F2107708E000F01AFC0A2098
:10A8B00003F01FF9641CE4B2032C09D202233A46C8
:10A8C000502157A0CDF8009002F025FD0028ECD0D3
:10A8D000434890F8010400067FF50CAF022D65D1C6
:10A8E0006902534806F0B6FA364F7E81002002F026
:10A8F00032FF374C01462088C0F30E024D4806F067
:10A900005CFA20886FF30E002080607820F08000D1
:10A910006070787808B1032848D14648C07930384B
:10A92000C4B24349434802F02BFF7881F0B3012CB5
:10A930003CD10DF1080B254C217811B1012935D1FD
:10A94000B1E002463A4902A806F037FA78892D2884
:10A950002CD139A1584606F0D3F940B33E208AF8ED
:10A960000000012005F01AFD374F01231F220020AF
:10A97000396802F0B4FE11489DF8211090F8382093
:10A98000914265D19DF8221090F8392091425FD113
:10A990009DF8231090F83A20914259D19DF8241047
:10A9A00090F83B00814253D1022001E089E06BE046
:10A9B0000F490870254880F8009065E0EE140020EB
:10A9C000C01600200000002060000020CB00002006
:10A9D000EC0C00206C0000206A00002000800008C1
:10A9E000EC0800206E0000206B0000202A150020DB
:10A9F000CA000020D4000020D80000204F4B0000E7
:10AA000041542B4349504D4F44453D300000000018
:10AA100041542B434950434C4F53453D35000000B2
:10AA20003235352E3235352E3235352E323535002C
:10AA3000EC040020EC00002054656D636F636F6EC2
:10AA400074726F6C73000000D0000020C9000020F9
:10AA500058480178E9B106709DF81500A0B19DF83D
:10AA6000160088B19DF8170070B19DF8180058B114
:10AA7000012005F093FC01231F220020396802F019
:10AA80002EFE142003F035F84A480078022803D03F
:10AA900017E080F80090DFE703F065F846490860AA
:10AAA00084F800900DE00246444902A806F085F9BA
:10AAB00002A9012005F001FF4148007808B10220F9
:10AAC0002070012003F015F8EEE52DE9F0413D4836
:10AAD000C17800290CD10121C1704FF4FA710C30FA
:10AAE00004F040F9374842F21071143004F03AF99A
:10AAF00005F0DFFB344D288018B34FF4006004F0FC
:10AB00009CF9324CA18988420BD1012004F0F2FA61
:10AB1000288800284BD005F0C2FABDE8F04105F0C6
:10AB2000D0BB40F6060004F088F9A18988423ED1E6
:10AB300005F069FA2888002839D0BDE8F04105F011
:10AB4000C0BB20480C3004F01FF900282FD01D484E
:10AB50000C3004F00EF90024288818B105F09FFA93
:10AB600005F0AFFB641CE4B2282CF5D30024184E8A
:10AB7000184F06EB84103860052004F0BBFA2888D3
:10AB800018B105F08CFA05F09CFB641CE4B20A2CA9
:10AB9000EFD30C48143004F0F7F8002807D0094828
:10ABA000143004F0E6F8BDE8F04105F0B0B9BDE8B6
:10ABB000F0810000CA000020D8000020EC04002032
:10ABC000E0000020000000208C000020D41E0020A7
:10ABD00068350020A80000207047064C06A0218898
:10ABE00005F0B6FFFAE7FEE7FEE7FEE770477047BD
:10ABF00070477047C0160020686172642066616CFF
:10AC000075743A2025750D0A000000000CB500226D
:10AC1000019200925248016841F4803101604FF482
:10AC2000A063016801F4003100910199491C019170
:10AC3000009911B901999942F3D10168890302D5AC
:10AC40000121009100E000920099012930D145498D
:10AC50000A6842F010020A600A6822F003020A60E1
:10AC60000A6842F002020A6041684160416841603E
:10AC7000416841F480614160416821F47C11416088
:10AC8000416841F4E8114160016841F08071016060
:10AC900001688901FCD5416821F0030141604168E8
:10ACA00041F0020141604168C1F381010229FAD1FA
:10ACB0000CBDABE710B52A48016841F00101016005
:10ACC0004168294A114041600168284A11400160E9
:10ACD000016821F480210160416821F4FE01416096
:10ACE0004FF41F018160FFF7E4FF21494FF000603E
:10ACF000086010BD10B51A4A506800F00C011D4BD9
:10AD00001D4800290ED004290ED008290ED003605A
:10AD10005168194AC1F30311121D515C0268CA40FF
:10AD2000026010BD0360F3E70360F1E7516801F4CE
:10AD30007011536803F48033022404EB914133B162
:10AD400053689B0307D50D4B59430160E0E70B4B5C
:10AD500059430160DCE7074B59430160D8E7000025
:10AD600000100240002002400000FFF8FFFFF6FE46
:10AD700008ED00E000127A001C00002000093D00F0
:10AD80002A4908432A490860704770B50F23C278E2
:10AD900001260178002A1ED0254A126802F4E062DA
:10ADA000C2F5E062120AC2F10404D3404578A5401E
:10ADB00082781A402A43120101F1E02181F800242F
:10ADC000007800F01F018E404009800000F1E02073
:10ADD000C0F8006170BD01F01F0086404809800086
:10ADE00000F1E020C0F8806170BD124A11400143BB
:10ADF0000F48001F016070470D4A121D002903D043
:10AE000011680143116070471168814311607047F8
:10AE10004FF0E021042804D0086920F00400086104
:10AE20007047086940F00400086170470000FA05A7
:10AE30000CED00E080FFFF1F10B59C49884209D14E
:10AE40000121042000F057FF0021BDE8104004203C
:10AE500000F051BF9649884209D10121082000F035
:10AE60004AFF0021BDE81040082000F044BF91498E
:10AE7000884209D10121102000F03DFF0021BDE8EA
:10AE80001040102000F037BF8B49884209D10121C2
:10AE9000202000F030FF0021BDE81040202000F00D
:10AEA0002ABF8649884209D10121402000F023FFB2
:10AEB0000021BDE81040402000F01DBF80498842BD
:10AEC00009D10121802000F016FF0021BDE81040CB
:10AED000802000F010BF7B4988420AD184150121EF
:10AEE000204600F008FF2046BDE81040002100F099
:10AEF00002BF10BD10B50121084600F0FCFE002184
:10AF0000BDE81040012000F0F6BE2DE9F04100221E
:10AF1000CC7804F00F03E40601D58C7823430C7839
:10AF20004FF00F0714F0FF0F4FF0010C1CD0056815
:10AF30000CFA02F40E882640A64211D1960007FAB8
:10AF400006F825EA080503FA06F848EA0505CE786A
:10AF5000282E02D0482E02D002E0446100E00461B5
:10AF6000521C082AE4D305600A88FF2A1ED94568C6
:10AF7000002202F108060CFA06F40E882640A642CA
:10AF800010D1960007FA06F825EA080503FA06F834
:10AF900048EA0505CE78282E00D14461CE78482EA7
:10AFA00000D10461521C082AE3D34560BDE8F0815A
:10AFB0004FF6FF710180022181700421C17070473A
:10AFC0000246002092680A4200D001207047806843
:10AFD00080B2704702460020D2680A4200D00120A9
:10AFE0007047C06880B27047016170474161704727
:10AFF000002A01D00161704741617047C16070470C
:10B0000041F4803282618161826181698069704727
:10B0100010B52D4B1A684FF68074224042EA00109A
:10B020000843186010BD2949C8617047F0B5264C27
:10B03000002801DAE36900E06368C0F30346420DCB
:10B04000120185B2C0F301579540032F07D0C20209
:10B050000CD50322B240934343F0706209E023F021
:10B060007062636823F07063636002E0AB4343F097
:10B07000706201B12A43002801DAE261F0BD62602A
:10B08000F0BD10B58A07120F0F23934021F003047F
:10B090000D4921448C689C438C608B68904003432D
:10B0A0008B6010BD0949DC31086070470008014021
:10B0B000000C014000100140001401400018014044
:10B0C000001C01400020014000000140000020421F
:10B0D0000D49086070470C49486070470A4988600C
:10B0E000704709494AF6AA200860704706494CF69D
:10B0F000CC400860704701460020034AD2680A42EB
:10B1000000D00120704700000030004030B50288B8
:10B11000F84CF94DA0420DD0A8420BD0B0F1804FB1
:10B1200008D0F64B984205D0F54B984202D0F54B2B
:10B13000984203D122F070034A881A43F24B984296
:10B1400006D0F24B984203D022F44073CA881A43C7
:10B1500002808A8882850A880285A0420AD0A84295
:10B1600008D0EB4A904205D0EA4A904202D0EA4A1F
:10B17000904201D1097A01860121818230BD30B52A
:10B18000028C22F001020284028C8388048B24F05A
:10B19000700424F003050C882C4322F002020D8970
:10B1A00015434A882A43D34DA8420BD0D24DA8421A
:10B1B00008D0D74DA84205D0D64DA84202D0D64DD2
:10B1C000A8420FD122F008054A892A4322F004053B
:10B1D0008A882A4323F4807323F400738D891D43E6
:10B1E000CB892B4383800483C9888186028430BD48
:10B1F00070B5028C22F010020284028C8388048BCA
:10B2000024F4E04424F440760D884FF6FF7404EAF9
:10B210000525354322F020020E8904EA061616435E
:10B220004A8804EA02123243B24EB04202D0B24E11
:10B23000B04217D122F080024E8904EA0616164366
:10B2400026F040068A8804EA0212324323F480631F
:10B2500023F400638E8904EA86061E43CB8904EA40
:10B260008303334383800583C9880187028470BDCB
:10B2700070B5028C22F480720284028C8388848BE5
:10B2800024F0700424F003040D88254322F4007296
:10B290000E894FF6FF7404EA062616434A8804EA2C
:10B2A00002223243934EB04202D0934EB04217D1A5
:10B2B00022F400664A8904EA0222324322F48066BC
:10B2C0008A8804EA0222324323F4805323F4005391
:10B2D0008E8904EA06161E43CB8904EA031333431E
:10B2E00083808583C9888187028470BD70B5028C94
:10B2F00022F480520284058C8288838B23F4E043FD
:10B3000023F440760C884FF6FF7303EA0424344399
:10B3100025F400550E8903EA06362E434D8803EACC
:10B3200005353543734EB04202D0734EB04205D15D
:10B3300022F480468A8903EA82123243828084831F
:10B34000C988A0F84010058470BD4FF6FF71818058
:10B3500000210180C180418001727047002904D022
:10B36000018841F0010101807047018821F001014D
:10B3700001807047002905D030F8441F41F4004196
:10B380000180704730F8441FC1F30E0101807047FF
:10B39000002A03D082890A438281704782898A43C6
:10B3A00082817047018582827047028822F0700294
:10B3B0000A4302807047028922F070020A43028128
:10B3C000704770B50589048B068C25F007050D4381
:10B3D0004FF6FC410C4040F201110C4326F02206CE
:10B3E0004FF6FF7101EA03111143314305810483D4
:10B3F000018470BD028B22F070020A430283704701
:10B40000028B22F4E0424FF6FF7303EA012111435D
:10B4100001837047828B22F070020A438283704757
:10B42000828B22F4E0424FF6FF7303EA01211143BD
:10B4300081837047002904D0018841F08001018098
:10B440007047018821F0800101807047002904D0F5
:10B45000818841F0040181807047818821F00401D6
:10B4600081807047002904D0818841F008018180E3
:10B470007047818821F0080181807047002904D03D
:10B48000818841F0010181807047818821F00101AC
:10B4900081807047028B22F008020A4302837047C2
:10B4A000028B22F400624FF6FF7303EA012111437D
:10B4B00001837047828B22F008020A43828370471F
:10B4C000828B22F400624FF6FF7303EA01211143DD
:10B4D00081837047028B22F004020A430283704783
:10B4E000028B22F480624FF6FF7303EA01211143BD
:10B4F00001837047002C01400034014000040040EB
:10B5000000080040000C0040001000400014004003
:10B51000004001400044014000480140828B22F07D
:10B5200004020A438283E4E7828B22F480624FF6AE
:10B53000FF7303EA012111438183DAE7028B22F0D2
:10B5400080020A430283D4E7028BC2F30E024FF655
:10B55000FF7303EA012111430183CAE7828B22F0C2
:10B5600080020A438283C4E7828BC2F30E024FF645
:10B57000FF7303EA012111438183BAE7028C22F0B1
:10B5800002020A430284B4E7028C22F008020A4352
:10B590000284AEE7028C22F020024FF6FF7303EA2A
:10B5A000011111430184A4E7028C22F080024FF6BE
:10B5B000FF7303EA0111114301849AE7028C22F41C
:10B5C00000724FF6FF7303EA01211143018490E7F3
:10B5D000028C22F400624FF6FF7303EA012111434B
:10B5E000018486E7028C22F400524FF6FF7303EACF
:10B5F0000131114301847CE710B501238B40048C99
:10B600009C430484038C8A401343038410BD10B50B
:10B6100004238B40048C9C430484038C8A40134392
:10B62000038410BD30B500F1180301248C40058C53
:10B63000A5430584002911D008290FD0091FC1F3A3
:10B640004E001844016821F4E041016001684FF6A2
:10B65000FF7303EA02221143016030BD03EB510086
:10B66000016821F07001016001681143016030BD83
:10B67000002904D0018841F00201018039E70188E6
:10B6800021F00201018034E7002904D0018841F053
:10B69000040101802DE7018821F00401018028E7E1
:10B6A000002904D0818841F08001818021E78188D0
:10B6B00021F0800181801CE7028822F008020280CC
:10B6C00002880A43028014E7828822F07002828096
:10B6D00082880A4382800CE7028922F007020281F5
:10B6E00002890A43028104E7028922F08002028172
:10B6F00002890A430281FCE68184FAE68185F8E644
:10B700008186F6E60187F4E68187F2E6A0F840102C
:10B71000EFE6028B22F00C020283028B0A430283C3
:10B72000E7E6028B22F440620283028B4FF6FF733E
:10B7300003EA01210A430283DBE6828B22F00C023A
:10B740008283828B0A438283D3E6828B22F4406217
:10B750008283828B4FF6FF7303EA01210A438283BF
:10B76000C7E6028822F44072028002880A430280FF
:10B77000BFE6808EBDE6008FBBE6808FB9E6B0F8ED
:10B780004000B6E6808CB4E6008DB2E602460020AA
:10B79000128A0A4200D00120ABE6C9430182A8E622
:10B7A00002460020138A0B4092890A40002B02D0E7
:10B7B000002A00D001209CE6C943018299E60000DE
:10B7C00010B5E14988420AD101218C03204600F0DE
:10B7D00092FA2046BDE81040002100F08CBADB4907
:10B7E00088420AD101214C04204600F08FFA2046FD
:10B7F000BDE81040002100F089BAD54988420AD13D
:10B8000001218C04204600F081FA2046BDE810405A
:10B81000002100F07BBACF4988420AD10121CC0433
:10B82000204600F073FA2046BDE81040002100F0E9
:10B830006DBAC94988420AD101210C05204600F0A1
:10B8400065FA2046BDE81040002100F05FBA10BD47
:10B8500030B585B004460D46208A4CF6FF7108408D
:10B86000E98801432182A0894EF6F3110840A98896
:10B870002A8911436A8902431143A181A08A4FF6A4
:10B88000FF410840A9890143A182684600F0C5F93B
:10B89000AD48844201D1039800E00298A1890904CF
:10B8A00008D500EBC00101EB001029684900B0FB8E
:10B8B000F1F007E000EBC00101EB001029688900FE
:10B8C000B0FBF1F06422B0FBF2F109010B096FF05B
:10B8D00018056B4300EB8300A3891D044FF032036E
:10B8E00007D503EBC000B0FBF2F000F007000843FF
:10B8F00006E003EB0010B0FBF2F000F00F0008438D
:10B90000208105B030BD4FF41651016000218180C7
:10B91000C18001810C2242818181704710B5038A68
:10B920004FF2FF0213400A884C8822438C88C98852
:10B930000C4322431A43028210BD00210180418042
:10B940008180C1807047002904D0818941F4005171
:10B9500081817047818921F400518181704710B540
:10B9600040F66A13C1F3421301F01F040121A14004
:10B97000012B07D0022B07D014303AB102680A43DA
:10B98000026010BD0C30F8E71030F6E702688A4319
:10B99000026010BD002A03D0828A0A438282704767
:10B9A000828A8A4382827047028A22F00F020282D0
:10B9B000028A0A4302827047828922F400628281ED
:10B9C00082890A4382817047002904D0818941F02D
:10B9D000020181817047818921F0020181817047D4
:10B9E000028A22F020020282028A0A4302827047FF
:10B9F000002904D0018A41F4804101827047018A04
:10BA000021F4804101827047C1F3080181807047B1
:10BA10008088C0F308007047818941F0010181816D
:10BA20007047028BD2B20283028B42EA012101836A
:10BA30007047028B02F47F420283028B0A43028327
:10BA40007047002904D0818A41F02001818270472B
:10BA5000818A21F0200181827047002904D0818AE7
:10BA600041F0100181827047818A21F010018182AA
:10BA70007047002904D0818A41F008018182704713
:10BA8000818A21F0080181827047002904D08189D0
:10BA900041F40041818170478189C1F30E018181A8
:10BAA0007047002904D0818A41F400618182704787
:10BAB000818A21F4006181827047828A22F0040227
:10BAC0008282828A0A4382827047002904D0818A56
:10BAD00041F0020181827047818A21F00201818256
:10BAE00070470246002012880A4200D001207047A9
:10BAF0008A05C9430180704770B5002440F66A1278
:10BB0000C1F3421301F01F05012606FA05F2012BCD
:10BB10000CD0022B0DD0838A1340090A8E40008876
:10BB200030400BB100B10124204670BD8389134021
:10BB3000F3E7038A1340F0E740F66A120A0A01218C
:10BB40009140C943018070470038014000440040E3
:10BB500000480040004C0040005000407E48016812
:10BB600041F00101016041687C4A11404160016877
:10BB70007B4A11400160016821F480210160416825
:10BB800021F4FE0141604FF41F018160704772494A
:10BB90000A6822F480320A600A6822F480220A606D
:10BBA000B0F5803F07D0B0F5802F03D1086840F48E
:10BBB000A02008607047086840F480300860704733
:10BBC000034600205909644A01290AD002290AD0F3
:10BBD000516A03F01F02012393400B4200D0012061
:10BBE00070471168F5E7116AF3E718B50020009077
:10BBF0004FF4A0643120FFF7E3FF0099491C009146
:10BC00000099A14201D00028F4D03120FFF7D8FFDD
:10BC100008B1012018BD002018BD10B54E4A51686A
:10BC200001F00C014F4B002927D0042927D0082907
:10BC300027D00360516801F0F00109094A4B5C5CB0
:10BC40000168E1404160546804F4E064240A1C5D2A
:10BC500021FA04F48460546804F46054E40A1B5D1F
:10BC6000D940C160526802F44042920B3E4B1B1F08
:10BC70009A5CB1FBF2F1016110BD0360DAE7036089
:10BC8000D8E7516801F47011536803F4803302243B
:10BC900004EB914133B153689B0307D5334B5943B0
:10BCA0000160C7E7314B59430160C3E72D4B59434E
:10BCB0000160BFE7284A002903D05169014351615F
:10BCC00070475169814351617047234A002903D06D
:10BCD0009169014391617047916981439161704716
:10BCE0001D4A002903D0D1690143D1617047D16950
:10BCF0008143D1617047184A002903D0D1680143BC
:10BD0000D1607047D1688143D1607047124A0029E1
:10BD100003D01169014311617047116981431161B9
:10BD200070471349086070471249C86470470A4950
:10BD3000C87170470848416A41F08071416270479C
:10BD400001460020044A92680A4200D00120704750
:10BD50000149887270470000001002400000FFF89F
:10BD6000FFFFF6FE00127A003400002000093D00BB
:10BD7000400442420000424210B5A94988420AD11B
:10BD8000841401212046FFF7B6FF2046BDE810408D
:10BD90000021FFF7B0BFA34988420AD10414012152
:10BDA0002046FFF7B3FF2046BDE810400021FFF713
:10BDB000ADBF9D4988420AD1C41301212046FFF737
:10BDC000A5FF2046BDE810400021FFF79FBF10BD32
:10BDD00030B5028802F441530A884C88CD8822434A
:10BDE0008C882C4322430C8922434C8922438C8922
:10BDF0002243CC8922431A430280828B22F40062C0
:10BE00008283098A018230BDF0B585B005460C46B3
:10BE1000022000210126AA8B4FF240031A40AA8378
:10BE200002222A84AF8BA268022A21D0A08800B106
:10BE300002266846FFF7F1FE0098E188B1F5007F21
:10BE40002CD07101B0FBF1F000EB8000A168400044
:10BE5000B0FBF1F0401D80B20A21B0FBF1F000F020
:10BE60000101401AC0F34F004FF6FF7202EA0121B0
:10BE7000821EFE2A01D302200021E28808430243E9
:10BE80002A8420886188A2890843A1881143084335
:10BE9000384340F40060A88305B0F0BD000A00EB11
:10BEA0008000A1684000B0FBF1F0401D80B2D3E7F4
:10BEB0000021018041808180C18001814181818197
:10BEC000C18107210182704700210180418081806A
:10BED000C1800222826081817047002904D00188DC
:10BEE00041F0400101807047018821F0400101804C
:10BEF0007047002904D0818B41F4806181837047B1
:10BF0000818B21F4806181837047090901238B4073
:10BF100099B2002A03D082880A43828070478288BF
:10BF20008A4382807047002A03D082880A43828035
:10BF3000704782888A4382807047818170478089F8
:10BF40007047A1F57E42FF3A04D0018841F4807128
:10BF500001807047018821F48071018070470029B9
:10BF600004D0818841F0040181807047818821F0EC
:10BF7000040181807047028822F4006202800288F6
:10BF80000A4302807047018841F480510180704764
:10BF9000002904D0018841F40051018070470188D4
:10BFA00021F4005101807047012901D0008B7047B6
:10BFB000808A7047008A7047B1F5804F04D00188AD
:10BFC00021F4804101807047018841F48041018063
:10BFD00070470246002012890A4200D001207047B3
:10BFE000C9430181704730B50246002001F00F03BC
:10BFF000012505FA03F4A3B2090905FA01F4A4B274
:10C000009188214012891A4202D0002900D00120D3
:10C0100030BD01F00F0201219140C94301817047F9
:10C020000030014000380040003C00400948804793
:10C0300009480047FEE7FEE7FEE7FEE7FEE7FEE70A
:10C04000FEE7FEE7FEE7FEE704480549054A064B22
:10C0500070470000810D000831010008184A0020D7
:10C06000186A0020185A0020185A002038B50121FB
:10C070004020FFF72AFE4FF47C44ADF8004010202A
:10C080008DF8030003208DF802002B4D69462846E9
:10C09000FEF73BFFBDF800102846FEF7A5FF21463E
:10C0A0002846FEF7A1FF38BD2449002008607047EC
:10C0B000224901200860704720480168C943016097
:10C0C000704770B50446002C09D01D4D6868201AD1
:10C0D000052816D31B480078012803D00DE0BDE8E1
:10C0E0007040E9E718490888401C80B208804CF28B
:10C0F0005031884201D901F088FE6C602878401CDC
:10C10000287028783C2811D006DC14280BD0282869
:10C1100008D1BDE87040CBE750280AD0C82801D12B
:10C120000020287070BDBDE87040BDE7BDE87040DC
:10C13000BAE7BDE87040BBE700180140A801234200
:10C1400044000020C9000020CC00002038B5954CE8
:10C15000208FADF8000048208DF803006946606B21
:10C16000FEF7D3FE218F606BFEF73EFF38BD38B57A
:10C170008C4C208FADF8000010208DF803000320B8
:10C180008DF802006946606BFEF7BFFE218F606B81
:10C19000FEF72AFF38BD834A002803D0918D906AAC
:10C1A000FEF722BF918D906AFEF720BF7D4A0028DE
:10C1B00003D0118F506BFEF717BF118F506BFEF736
:10C1C00015BF7848018F406BFEF7FABEF8B5754C85
:10C1D0000121606AFFF779FDA08DADF80000102500
:10C1E0008DF8035003268DF802606946A06AFEF7B9
:10C1F0008CFEA18DA06AFEF7F7FE0121206BFFF7F0
:10C2000064FD208FADF800008DF803508DF80260BA
:10C210006946606BFEF779FE218F606BFEF7E4FEE6
:10C22000F8BD10B5FFF7A3FF0120FFF7BFFF012006
:10C23000FFF7B1FF042001F04AFC0020FFF7B6FF32
:10C24000042001F044FCBDE810400020A3E710B535
:10C25000FFF78DFF0020FFF79EFF0020FFF7A6FFEE
:10C26000042001F034FC0120FFF795FF0120FFF7C7
:10C270009DFFBDE81040042001F029BC10B500244A
:10C280000120FFF793FFFFF761FF012001F01FFC82
:10C290000120FFF780FF012001F019FC07E0641C7A
:10C2A000E4B2FA2C03D9FFF7D2FF012010BDFFF74B
:10C2B00088FF0028F3D1FFF76EFF002010BD10B5F6
:10C2C0000020FFF768FFFFF752FF0020FFF76EFF27
:10C2D000022001F0FCFB0120FFF75DFF022001F0CE
:10C2E000F6FBBDE81040002055E710B50020FFF731
:10C2F00052FFFFF73CFF0120FFF758FF022001F03B
:10C30000E6FB0120FFF747FF022001F0E0FBBDE85C
:10C31000104000203FE770B50546FFF728FF0020DA
:10C32000FFF739FF0024E809FFF740FF6806050E14
:10C33000022001F0CCFB0120FFF72DFF022001F0CD
:10C34000C6FB0020FFF727FF022001F0C0FB641CA2
:10C35000E4B2082CE7D370BD70B506460024FFF7A1
:10C36000F5FE00250020FFF716FF022001F0AFFBCD
:10C370000120FFF710FF6006040EFFF722FF08B14F
:10C38000641CE4B2012001F0A2FB6D1CEDB2082D8B
:10C39000E8D31EB1FFF793FF204670BDFFF7A5FF5E
:10C3A000FAE70000C871000838B56B4CE06B002854
:10C3B00015D054F83C0F0121FFF787FC2089ADF818
:10C3C000000010208DF8030003208DF8020069465C
:10C3D0006068FEF79AFD21896068FEF705FE38BDAA
:10C3E0005D4AD16B00290AD020B1B2F84410106C1C
:10C3F000FEF7FABDB2F84410106CFEF7F7BD7047B7
:10C4000010B5FFF7E3FEBDE81040CDE710B50446D8
:10C41000FFF707FF200AA02101EB4000C0B2FFF7A1
:10C420007AFFFFF72BFFE0B2FFF775FFFFF726FF5C
:10C43000FFF7F7FEA120FFF76EFFFFF71FFF0020B9
:10C44000FFF78AFF0446FFF702FF204610BD70B5D4
:10C4500004460D460020FFF7C3FFFFF7E2FE200A67
:10C46000A02101EB4000C0B2FFF755FFFFF706FF28
:10C47000E0B2FFF750FFFFF701FF2846FFF74BFF41
:10C48000FFF7FCFEFFF7E3FE0120FFF7A9FFBDE881
:10C490007040052001F02DBB2DE9F04106460D4608
:10C4A0001746002409E0E00025FA00F0C1B2301977
:10C4B00080B2FFF7CCFF641CE4B2BC42F3D3BDE80A
:10C4C000F0812DE9F04102460E4600200024971924
:10C4D00008E00502381B401E80B2FFF797FF284492
:10C4E000641CE4B2B442F4D3E9E710B5FF20FFF7CF
:10C4F0008DFF55280AD05521FF20FFF7A8FFFF2008
:10C50000FFF784FF552803D0012010BD002010BD87
:10C51000002010BD70B504460E46154608E02046C2
:10C52000641CA4B2FFF772FF06F8010B6D1EADB2DA
:10C53000002DF4D170BD70B506460D46144606E0D8
:10C5400029783046FFF783FF761CB6B26D1C641E57
:10C55000A4B2F5D270BD0000C87100084B484A492A
:10C5600041604B49416070474848016941F0800192
:10C57000016170474548C068C10701D0012070477C
:10C58000410701D502207047C00601D5032070473E
:10C590000020704770B504463E4EFFF7EBFF05469E
:10C5A000012D09D1F089401CF081012001F08FFAA2
:10C5B000641EA4B2002CF0D104B9FF25284670BD3A
:10C5C00070B5064645F6FF752846FFF7E3FF0028DD
:10C5D00012D12E4C206940F0020020616661206972
:10C5E00040F0400020612846FFF7D4FF012804D026
:10C5F000216921F00201216170BD2649CA89521CBE
:10C60000CA8170BD70B506460D46FF20FFF7C2FF18
:10C6100000280ED11D4C206940F0010020613580BA
:10C62000FF20FFF7B7FF012804D0216921F00101A5
:10C63000216170BD1749CA89521CCA8170BD00882A
:10C6400070472DE9F04105460E461746002407E0E5
:10C6500036F814102846FFF7D5FFAD1C641CA4B2B1
:10C66000BC42F5D3BDE8F08110B50446002307E0D5
:10C670002046FFF7E4FF21F81300A41C5B1C9BB2CB
:10C680009342F5D310BD000023016745002002400E
:10C69000AB89EFCDC016002000F068BA00F04EBAAA
:10C6A000F8B501210820FFF710FBC020ADF800000D
:10C6B00010208DF8030003248DF80240FE4D6946DA
:10C6C0002846FEF722FCA915ADF8001048218DF888
:10C6D00003108DF8024069462846FEF716FC40F22A
:10C6E000CF21642000F076FBF44C002525600A2061
:10C6F00001F0FFF9012626600A2001F0FAF9256011
:10C700000A2001F0F6F926600A2001F0F2F925600E
:10C710000A2001F0EEF926600A2001F0EAF925600E
:10C720000A2001F0E6F926600A2001F0E2F925600E
:10C730000A2001F0DEF926600A2001F0DAF9F8BDDE
:10C7400070B50C46DE4D0021C5F8981104F01F01AC
:10C750000843FFF7A3FFFF20FFF7A0FF210602D544
:10C76000FF20FFF79BFF0121C5F8981170BD70B540
:10C7700003461546D14C0020241F206001F01F0005
:10C780001843FFF78BFF2846FFF788FF0120206042
:10C7900070BD2DE9F04105460C46C94F0026C7F88B
:10C7A00098613A20FFF77AFF05E06D1E0020FFF741
:10C7B00075FF04F8010B002DF7D126700120C7F892
:10C7C0009801BDE8F08170B504460D46BC4E0020CE
:10C7D000C6F898017A20FFF761FF04E0641E28780C
:10C7E000FFF75CFF6D1C002CF8D10120C6F8980102
:10C7F00070BD70B50546B34E05F0600430788442D4
:10C800000BD003221F21A020FFF7B1FFC5F3411277
:10C810001F218020FFF7ABFF347070BD10B50446B8
:10C820002046FFF7E6FF2146BDE81040002087E7DD
:10C8300070B505460C462846FFF7DBFF2246294621
:10C84000BDE87040402092E770B50D4600240146D7
:10C85000D420FFF7EDFFE9B2D620FFF7E9FFC5F3DB
:10C860000721D720FFF7E4FF40F6FF7501E0641CC5
:10C87000A4B2EA20FFF7D2FFC00701D0AC42F6D342
:10C8800070BD70B505460024FFF70AFF4FF4FA7635
:10C8900009E0FF2200211046FFF769FF641CA4B2E3
:10C8A0000A2001F026F91D20FFF7B8FFC00701D1CB
:10C8B000B442EED3B44204D383A004F049F901207A
:10C8C00070BD80490020486000210820FFF7B0FFBC
:10C8D00000210920FFF7ACFF00210C20FFF7A8FF83
:10C8E00000210D20FFF7A4FF10210A20FFF7A0FF71
:10C8F0001A210B20FFF79CFF11210420FFF798FF5E
:10C900001A210520FFF794FFFF210620FFF790FF73
:10C910001F210720FFF78CFFA1213820FFF788FF98
:10C920003F212820FFF784FF30212920FFF780FFD7
:10C93000F9213020FFF77CFFF7213120FFF778FF46
:10C940000D21C020FFF774FF0021C120FFF770FF09
:10C950003322C2218020FFF70AFF1221C620FFF7F1
:10C9600067FF0C21C720FFF763FF1521C420FFF7E5
:10C970005FFFEE21CA20FFF75BFF0521CB20FFF709
:10C9800057FF2978E420FFF753FF6978E520FFF788
:10C990004FFFA978E220FFF74BFFE978E320FFF78C
:10C9A00047FF2979E020FFF743FF6979E120FFF78E
:10C9B0003FFF4FF4807421460020FFF745FF2146DA
:10C9C0001020FFF741FF1F20FFF713FFC0221B219C
:10C9D0008020FFF7CCFE04221F218020FFF7C7FE36
:10C9E000E420FFF71BFF2978884201D1002070BDA9
:10C9F000012070BD722011E770B505460E46112169
:10CA00000220FFF715FF1A210320FFF711FF41F65F
:10CA100011202C18E1B20620FFF70AFFC4F307210A
:10CA20000720FFF705FF002211467A20FFF79FFE3F
:10CA300031462846FFF7C7FE08221F218020FFF756
:10CA400096FE1C20FFF7EAFE800705D5BDE8704082
:10CA500008221F21A0208AE670BD2DE9F04106467C
:10CA60000F463920FFF7DAFEF0B3164D0020297982
:10CA7000FFF7DEFEA888C0F307210120FFF7D8FEEC
:10CA800000213A20FFF75CFE686000213A20FFF7A2
:10CA900057FE696841EA0020686000213A20FFF7EC
:10CAA0004FFE044600213A20FFF74AFE44EA0024E4
:10CAB000241F00213A2018E0000C01409C812142F3
:10CAC000008021424C000020454E4332384A363027
:10CAD00020696E6974696C697365206661696C654B
:10CAE000642E2E2E0A00000010E0FFF729FE80467B
:10CAF00000213A20FFF724FE48EA0020711E8C42F4
:10CB000000D9741E000603D4002405E0002058E676
:10CB100039462046FFF73DFE29790C20FFF788FEB5
:10CB2000A888C0F307210D20FFF782FE40221E21B6
:10CB30008020FFF71CFE204643E6000070B5054646
:10CB40006C4C02212046FFF744FA0028F9D0294610
:10CB50002046FFF7F2F901212046FFF73AFA0028B4
:10CB6000F9D02046FFF7EBF9C0B270BD014661482D
:10CB7000028822F03802028002880A4302800121E2
:10CB8000FFF7ABB930B587B0012141F20900FFF7DB
:10CB90009CF801210846FEF749FA3824ADF8184000
:10CBA00018208DF81B0003208DF81A00524D06A99D
:10CBB0002846FEF7AAF9BDF818102846FEF714FA21
:10CBC00001A8FFF775F90020ADF804004FF4827159
:10CBD000ADF80610ADF80800ADF80A00ADF80C008D
:10CBE0006915ADF80E10ADF81040ADF81200072031
:10CBF000ADF814003F4C01A92046FFF7E9F80121E8
:10CC00002046FFF76AF9322000F073FF0820FFF793
:10CC1000ADFFFF20FFF792FF07B030BD0146374858
:10CC2000028822F03802028002880A430280012131
:10CC3000FFF753B970B50546304C02212046FFF787
:10CC4000C8F90028F9D029462046FFF776F90121D6
:10CC50002046FFF7BEF90028F9D02046FFF76FF90C
:10CC6000C0B270BD30B587B001210820FFF72DF8A4
:10CC700001218803FFF734F84FF46044ADF8184001
:10CC800018208DF81B0003208DF81A001A4D06A9F4
:10CC90002846FEF73AF921462846FEF7A5F901A8ED
:10CCA000FFF706F90020ADF804004FF48271ADF8EB
:10CCB0000610ADF80800ADF80A00ADF80C006915D3
:10CCC000ADF80E103821ADF81010ADF812000720A5
:10CCD000ADF81400094C01A92046FFF779F80121AD
:10CCE0002046FFF7FAF8FF20FFF7A4FF1020FFF718
:10CCF00095FF91E700300140000C014000380040F2
:10CD000038B500F030FF00900098FFF7DAF9FDF732
:10CD1000ECFB474D01212846FEF738FD01281AD1CA
:10CD2000444C217809B1022901D1FDF7CEFE2078CB
:10CD300048B1414A1188481C1080B1F57A7F02D968
:10CD400000212170118000F009FF2846BDE838401D
:10CD50000121FEF722BD38BD7FB504460D460121F5
:10CD60000220FEF7BDFFADF80840ADF804500024E6
:10CD7000ADF80A40ADF806402D4D01A92846FEF752
:10CD8000C5F91D218DF8001001218DF801108DF8D5
:10CD900002408DF803106846FDF7F7FF01221146A7
:10CDA0002846FEF7F5FA01212846FEF7D7FA7FBD9F
:10CDB00010B5224C01212046FEF7E8FC012803D1E2
:10CDC0001F480168491C01602046BDE81040012150
:10CDD000FEF7E3BC7FB504460D4601211020FEF7A7
:10CDE0007FFFADF80840ADF804500020ADF80A0010
:10CDF000ADF80600114C01A92046FEF787F936214F
:10CE00008DF8001001218DF8011003228DF8022009
:10CE10008DF803106846FDF7B8FF01221146204641
:10CE2000FEF7B6FA01212046FEF798FA7FBD000012
:10CE30000004004001000020040000200010004019
:10CE400054000020F0B503460025084600260A2AB3
:10CE500001D00670F0BD002B1DD005DA4FF02D0279
:10CE600000F8012BC3F1000342F210724FF00A07E1
:10CE700093FBF2F454EA050C06D004F1300500F8F7
:10CE8000015B04FB1233012592FBF7F2002AEFDC71
:10CE900006700846F0BD3022027046700846F0BDAC
:10CEA0000FB430B585B005460AA800900EE05C29A5
:10CEB00014D025292CD0521C28460992FEF7A4FD37
:10CEC00080212846FEF70DFE0028F9D0099A117836
:10CED0000029ECD105B030BC5DF814FB521C09925E
:10CEE00010786E280CD0722802D0521C0992E7E705
:10CEF0000D212846FEF788FD0998401C0990DFE7C0
:10CF00000A212846FEF780FD0998401C0990D7E7C2
:10CF1000521C09921078642819D0732802D0521C30
:10CF20000992CDE7009810C8009009E02846FEF766
:10CF30006BFD80212846FEF7D4FD0028F9D0641C43
:10CF400021780029F2D10998401C0990B8E700988F
:10CF500008C800900A2201A91846FFF773FF01AC28
:10CF600009E02846FEF750FD80212846FEF7B9FD6E
:10CF70000028F9D0641C21780029F2D10998401CBE
:10CF800009909DE708B54FF4A060FDF7F9FE272052
:10CF90008DF8000000208DF8010002208DF80200BD
:10CFA00001208DF803006846FDF7EFFE08BD10B5BF
:10CFB00086B001218804FEF793FE01212020FEF7B0
:10CFC00084FE4FF48070ADF8140018208DF817001F
:10CFD00003208DF81600FF4C05A92046FDF795FFAC
:10CFE0006115ADF8141004218DF8171005A920461D
:10CFF000FDF78BFF4FF4E13001900020ADF8080001
:10D00000ADF80A00ADF80C00ADF810000C20ADF83A
:10D010000E00F14C01A92046FEF71AFC012240F255
:10D0200025512046FEF79BFC012240F22441204678
:10D03000FEF795FCFFF7A6FF01212046FEF783FCD3
:10D0400006B010BDF8B5E5481024032590F8360069
:10D05000052806D0062804D0072818D00C2816D09A
:10D060002AE001210802FEF730FE4FF48056ADF8A9
:10D0700000608DF803408DF80250D94F694638465C
:10D08000FDF743FF31463846FDF7AEFF14E00121BE
:10D090001020FEF71AFE4FF40076ADF800608DF810
:10D0A00003408DF80250CF4F69463846FDF72DFFFB
:10D0B00031463846FDF798FF01212020FEF705FE96
:10D0C0004FF48066ADF800608DF803408DF8025093
:10D0D000C04C69462046FDF718FF31462046FDF753
:10D0E00083FFF8BD10B5FFF7ADFFFFF760FFBB484A
:10D0F000012190F83600052806D0062804D007281C
:10D1000005D00C2803D004E0B748016001E0B7481F
:10D110000160B748016010BDB048002190F83600AA
:10D12000052806D0062804D0072805D00C2803D0EF
:10D1300004E0AD48016001E0AC480160AC4801602A
:10D1400070472DE9F0410E4617460246A9A1A248B4
:10D15000FFF7A6FE56EA07000ED0A84DB5F800046A
:10D160006FF30E00A5F8000495F8010420F080008C
:10D1700085F80104002407E00120BDE8F081322099
:10D1800000F0B7FCFDF7ADFF95F80104000604D4EC
:10D190002046641CA4B20A28F1D3B5F8001400207C
:10D1A000C1F30E0168546EB167B13146934803F084
:10D1B000A7FD28B93946914803F0A2FD0028DCD02C
:10D1C0000120DAE73EB131468C4803F099FD002892
:10D1D000D3D00120D1E73946884803F091FD0028DB
:10D1E000CBD00120C9E770B500244FF4FA752B4667
:10D1F000002283A183A0FFF7A4FF08B1022070BD25
:10D20000FFF78AFF641CE4B2022CF0D301D00120A6
:10D2100070BD002070BD40F6C413002805D0012861
:10D2200007D0022809D00020704777A274A179A006
:10D2300087E775A272A17AA083E773A270A17BA091
:10D240007FE700B59FB00B4602467BA101A803F023
:10D250008BFC41F28833002269A101A8FFF771FF1E
:10D260001FB000BD00B59FB00B460092024677A1EB
:10D2700001A803F079FC4FF47A73002260A101A8A1
:10D28000FFF75FFFECE700B585B0002801D0012271
:10D2900000E0002273A1684603F066FC4FF4FA73C5
:10D2A000002257A16846FFF74CFF05B000BDF0B55E
:10D2B000B9B004460F4615461E46642120A803F067
:10D2C000EBFD14B1012C0FD107E03B4669A26AA126
:10D2D00020A8009503F048FC06E03B466AA266A140
:10D2E00020A8009503F040FC052E06D220AB324664
:10D2F00066A102A803F038FC04E020AA68A102A8F5
:10D3000003F032FC4FF47A6369A23DA102A8FFF753
:10D3100018FF39B0F0BD2DE9F041BAB08046409F0A
:10D320000E4615461C46642121A803F0B5FDCDE943
:10D330000065434654A262A121A8029403F014FCA4
:10D34000052F06D221AB3A4650A103A803F00CFCEE
:10D3500004E021AA52A103A803F006FC4FF47A636B
:10D3600053A227A103A8FFF7ECFE3AB005E710B5DA
:10D370009EB04FF4FA7400280DD00B46012255A13F
:10D38000684603F0F1FB23461FA21DA16846FFF784
:10D39000D8FE1EB010BD0B4600224EA1684603F019
:10D3A000E3FB2346002216A16846FFF7CAFEF0E71A
:10D3B00010B54FF4FA73002211A14BA0FFF7C1FE84
:10D3C00030B14DA10D4803F09BFC10B1022010BDFF
:10D3D000ADE097E00014014000480040EE1400204A
:10D3E0000020014000100140B0012442A40122426B
:10D3F000A881224225730D0A00000000EC080020DD
:10D400004F4B0000415400006E6F206368616E67EF
:10D410006500000041542B43574D4F44453D3100BA
:10D4200041542B43574D4F44453D320041542B430B
:10D43000574D4F44453D330041542B43574A4150CB
:10D440003D222573222C22257322000041542B43B8
:10D45000575341503D222573222C222573222C3113
:10D460002C25640041542B4349504D55583D2564AB
:10D470000000000054435000222573222C22257303
:10D48000222C2573000000005544500041542B43CA
:10D49000495053544152543D25642C2573000000DB
:10D4A00041542B43495053544152543D257300007D
:10D4B000414C5245415920434F4E4E454354000084
:10D4C000222573222C222573222C25642C25642CE2
:10D4D0002564000041542B43495053455256455250
:10D4E0003D25642C2573000041542B43495053546F
:10D4F00041545553000000005354415455533A329F
:10D500000D0A0000D8A1DB4803F0FAFB08B10320A4
:10D510005DE7D9A1D74803F0F3FB08B1042056E733
:10D52000D8A1D44803F0ECFB08B105204FE7002058
:10D530004DE710B500244FF4FA730022AFF240110A
:10D54000AFF25C00FFF7FDFD00282DD0D0A1C94847
:10D5500003F0D6FB00B10124D1A1C64803F0D0FBF3
:10D5600010B144F0020401E024F00204D0A1C1484B
:10D5700003F0C6FB10B144F0040401E024F00404FD
:10D58000CFA1BC4803F0BCFB10B144F0080401E09B
:10D5900024F00804CEA1B74803F0B2FB10B144F068
:10D5A000100401E024F01004204610E7F8B50E4600
:10D5B00017464FF47A730022AFF2BC11C8A0FFF7F0
:10D5C000C0FD00250024C9A1AA4803F099FB10B1B1
:10D5D000C01D002138E00020F8BD435C2E2B02D096
:10D5E000032D27D028E0012C04D0022C06D0032CD8
:10D5F0000ED01BE09DF80020725517E09DF800301A
:10D600009DF8012003EB830302EB430272550DE00A
:10D610009DF80030642253439DF8012002EB820202
:10D6200003EB42029DF802301A4472556D1CEDB2B4
:10D63000002407E0222B09D0303B2246641CE4B2D0
:10D640000DF80230491CC9B2B942C6D3012C04D02E
:10D65000022C06D0032C0ED01BE09DF80000705564
:10D6600017E09DF800009DF8011000EB800001EB31
:10D67000400070550DE09DF80010642041439DF876
:10D68000010000EB800001EB40009DF8021008440F
:10D6900070550120F8BD10B54FF4FA7423460022EE
:10D6A000AFF2A42193A0FFF74CFD38B1234695A219
:10D6B000AFF2B421BDE8104093A042E5002086E619
:10D6C00010B54FF47A7000F014FA92A19248FFF767
:10D6D000E7FBBDE810404FF4FA7000F00ABA2DE9FC
:10D6E000F0411646B2B00D461A4600240027DFF876
:10D6F0002882002807D02A46AFF250214046FFF783
:10D70000CFFB012724E0052A05D2334683A16846D2
:10D7100003F02AFA04E0324685A1684603F024FAB1
:10D720006A46AFF230314046FFF7BAFB022000F004
:10D73000E0F90BE0295D4046FEF766F9802140469E
:10D74000FEF7CFF90028F9D0641CA4B2B442F1D39B
:10D75000384632B011E510B5002446490022B1F830
:10D760000034C3F30E03CA54002801D00C4605E070
:10D7700073A1404803F0C4FA00B13E4C204626E6AF
:10D7800070B50C466EA103F0BBFA81792C2901D04B
:10D79000002070BD017A3A2910D1C279303A092AA5
:10D7A0000CD892B2002105E043185B7A04F8013BE3
:10D7B000491C89B29142F7D3104670BD427A6FF08E
:10D7C0002F053A2A03D0837A3A2B1AD03EE0C27949
:10D7D000303A092A3AD8302938D3392936D802EBD9
:10D7E000820205EB420211448AB2002105E043188F
:10D7F0009B7A04F8013B491C89B29142F7D3104649
:10D8000070BDC379303B092B20D830291ED339296C
:10D810001CD8302A1AD3392A18D803EBC30630395A
:10D8200006EB031301EB810102EB830205EB4101DF
:10D8300011448AB2002105E04318DB7A04F8013B69
:10D84000491C89B29142F7D3104670BD002070BDCB
:10D8500070470B0A0370417000218170C170110A7A
:10D8600001714271704700005354415455533A338B
:10D870000D0A0000EC0800205354415455533A342B
:10D880000D0A00005354415455533A350D0A000017
:10D890002B4349505354415455533A302C00000007
:10D8A0002B4349505354415455533A312C000000F6
:10D8B0002B4349505354415455533A322C000000E5
:10D8C0002B4349505354415455533A332C000000D4
:10D8D0002B4349505354415455533A342C000000C3
:10D8E00041542B43494653520000000053544149D0
:10D8F000502C220041542B4349504D4F44453D315B
:10D90000000000003E00000041542B4349505345A5
:10D910004E4400002B2B2B000048004041542B4369
:10D92000495053454E443D25642C256400000000B9
:10D9300041542B43495053454E443D25640000005B
:10D940002B49504400000000704770B50446012088
:10D9500000F03BF94F4D40212846FEF7C2F8002861
:10D96000F9D0A1B22846FEF74FF8002000F02DF9BB
:10D97000204670BD2DE9F04186B080460121880324
:10D98000FEF7A3F9434F3846FDF71AFF424C012139
:10D990002068FEF79AF92089ADF8140003268DF867
:10D9A000166018208DF8170005A96068FDF7ADFA1C
:10D9B0000121E068FEF789F9A08AADF8140048203B
:10D9C0008DF8170005A92069FDF79FFA25208DF82D
:10D9D000000000258DF801508DF8025001208DF8CF
:10D9E00003006846FDF7D1F9CDF80480ADF8085082
:10D9F000ADF80A50ADF80C50ADF810500C20ADF851
:10DA00000E0001A93846FDF723FF012240F22551FF
:10DA10003846FDF7A4FF01213846FDF794FF1F4863
:10DA2000102590F83600072819D0082817D00C28A0
:10DA300015D00121A069FEF748F9208CADF814003B
:10DA40008DF817508DF8166005A9E069FDF75DFAAD
:10DA5000218CE069FDF7C8FA06B0BDE8F08101212C
:10DA60002020FEF732F94FF48074ADF814408DF8A1
:10DA700017508DF816600A4D05A92846FDF745FA9E
:10DA800021462846FDF7B0FAE6E700210548FDF7F4
:10DA90005ABF000000380140C8710008EE14002091
:10DAA00000140140004800404FF0E0210A6922F0D4
:10DAB00004020A611849C008087000EB4002C2EB7A
:10DAC000C0104FF6FF7202EAC0004880704712494A
:10DAD000097848434FF0E021486100238B61012021
