:020000040800F2
:1080000040A00020998100084B8100084D810008A4
:108010004F810008518100085381000800000000D2
:108020000000000000000000000000005581000872
:108030005781000800000000598100085B8100089A
:10804000B3810008B3810008B3810008B381000840
:10805000B3810008B3810008B3810008B381000830
:10806000B3810008B3810008B3810008B381000820
:10807000B3810008B3810008B3810008B381000810
:10808000B3810008B3810008B3810008B381000800
:10809000B3810008B3810008B3810008B3810008F0
:1080A000B3810008B3810008B3810008B3810008E0
:1080B000B381000819950008B3810008B381000856
:1080C000B3810008B3810008B3810008B3810008C0
:1080D000B3810008B3810008B3810008B3810008B0
:1080E000B3810008B3810008B3810008B3810008A0
:1080F000B3810008B3810008B3810008B381000890
:10810000B3810008B3810008B3810008B38100087F
:10811000B3810008B381000893950008B38100087B
:10812000B3810008B3810008B3810008B38100085F
:10813000DFF80CD001F0B6FD00480047C18200080E
:1081400040A0002080F3088870477047FEE7FEE7F4
:10815000FEE7FEE770477047704770470D490860BB
:1081600070470C49486070470A4988607047094960
:108170004AF6AA200860704706494CF6CC400860D1
:10818000704701460020034AD2680A4200D001200D
:10819000704700000030004006488047064800470E
:1081A000FEE7FEE7FEE7FEE7FEE7FEE7FEE7FEE7A7
:1081B000FEE7FEE7C18300083181000840EA0103C1
:1081C0009B0703D009E008C9121F08C0042AFAD28D
:1081D00003E011F8013B00F8013B521EF9D2704751
:1081E00002E008C8121F08C1002AFAD17047704780
:1081F000002001E001C1121F002AFBD170470000DE
:1082000054656D636F504944363200000000003FF2
:108210000000006710B545F25550FFF79FFF04209E
:10822000FFF79FFF4FF47A60FFF79EFFFFF7A4FF71
:10823000BDE81040FFF79BBFFFF799BF2E4A4FF4F0
:108240008071002802D0104600F054BA104600F0A9
:1082500051BA2DE9F04147F6FE7228492848FFF748
:10826000ADFF28483F2180F8FE1F002180F8FF1F46
:108270000024234F4FF000664FF4006801F05EF8D1
:1082800006EBC420054601F086F801F05DF807EB27
:10829000C4212846424601F0B5FC641CE4B2102C0F
:1082A000ECD3BDE8F081012080F313881648016803
:1082B000164A01F4E06111430160BFF3408FFEE70D
:1082C0001349080300F017F94FF4E13001F02CFCDA
:1082D000482001F0ABFBFFF79DFF0F2001F0FEFAF5
:1082E0000C4908700A48801E01F08AF83F2801D026
:1082F000FFF7AFFFFFF7D7FF00080140109D000810
:108300003C0000203C7000200CED00E00400FA0569
:1083100000800008000000200CB5002201920092AD
:108320005248016841F4803101604FF4A063016854
:1083300001F4003100910199491C0191009911B992
:1083400001999942F3D10168890302D50121009175
:1083500000E000920099012930D145490A6842F0B5
:1083600010020A600A6822F003020A600A6842F0FA
:1083700002020A604168416041684160416841F41D
:1083800080614160416821F47C114160416841F4A1
:10839000E8114160016841F0807101600168890164
:1083A000FCD5416821F003014160416841F00201C0
:1083B00041604168C1F381010229FAD10CBDABE7EC
:1083C00010B52A48016841F0010101604168294A5D
:1083D000114041600168284A11400160016821F4A0
:1083E00080210160416821F4FE0141604FF41F01CA
:1083F0008160FFF7E4FF21494FF00060086010BD85
:1084000010B51A4A506800F00C011D4B1D48002998
:108410000ED004290ED008290ED003605168194AE5
:10842000C1F30311121D515C0268CA40026010BD05
:108430000360F3E70360F1E7516801F470115368DA
:1084400003F48033022404EB914133B153689B035E
:1084500007D50D4B59430160E0E70B4B59430160D1
:10846000DCE7074B59430160D8E7000000100240E9
:10847000002002400000FFF8FFFFF6FE08ED00E0DC
:1084800000127A000400002000093D002A49084338
:108490002A490860704770B50F23C2780126017819
:1084A000002A1ED0254A126802F4E062C2F5E0629A
:1084B000120AC2F10404D3404578A54082781A40DC
:1084C0002A43120101F1E02181F80024007800F034
:1084D0001F018E404009800000F1E020C0F80061DB
:1084E00070BD01F01F0086404809800000F1E020C7
:1084F000C0F8806170BD124A114001430F48001F4F
:10850000016070470D4A121D002903D01168014314
:108510001160704711688143116070474FF0E0218E
:10852000042804D0086920F0040008617047086935
:1085300040F00400086170470000FA050CED00E00F
:1085400080FFFF1F10B59C49884209D101210420FA
:1085500000F0B3FE0021BDE81040042000F0ADBEE5
:108560009649884209D10121082000F0A6FE002189
:10857000BDE81040082000F0A0BE9149884209D112
:108580000121102000F099FE0021BDE810401020CC
:1085900000F093BE8B49884209D10121202000F0D0
:1085A0008CFE0021BDE81040202000F086BE8649E8
:1085B000884209D10121402000F07FFE0021BDE862
:1085C0001040402000F079BE8049884209D1012145
:1085D000802000F072FE0021BDE81040802000F0F5
:1085E0006CBE7B4988420AD184150121204600F0E7
:1085F00064FE2046BDE81040002100F05EBE10BDC4
:1086000010B50121084600F058FE0021BDE81040D9
:10861000012000F052BE2DE9F0410022CC7804F098
:108620000F03E40601D58C7823430C784FF00F0735
:1086300014F0FF0F4FF0010C1CD005680CFA02F487
:108640000E882640A64211D1960007FA06F825EAC0
:10865000080503FA06F848EA0505CE78282E02D068
:10866000482E02D002E0446100E00461521C082A56
:10867000E4D305600A88FF2A1ED94568002202F16A
:1086800008060CFA06F40E882640A64210D1960081
:1086900007FA06F825EA080503FA06F848EA050588
:1086A000CE78282E00D14461CE78482E00D10461C6
:1086B000521C082AE3D34560BDE8F0814FF6FF71F4
:1086C0000180022181700421C170704702460020A0
:1086D00092680A4200D001207047806880B27047DB
:1086E00002460020D2680A4200D001207047C068CC
:1086F00080B270470161704741617047002A01D024
:108700000161704741617047C160704741F4803238
:1087100082618161826181698069704710B52D4BEA
:108720001A684FF68074224042EA0010084318602D
:1087300010BD2949C8617047F0B5264C002801DA00
:10874000E36900E06368C0F30346420D120185B29D
:10875000C0F301579540032F07D0C2020CD5032266
:10876000B240934343F0706209E023F070626368A3
:1087700023F07063636002E0AB4343F0706201B1C9
:108780002A43002801DAE261F0BD6260F0BD10B555
:108790008A07120F0F23934021F003040D4921444F
:1087A0008C689C438C608B68904003438B6010BD49
:1087B0000949DC310860704700080140000C0140A5
:1087C000001001400014014000180140001C01404D
:1087D00000200140000001400000204230B5028826
:1087E000F74CF84DA0420DD0A8420BD0B0F1804F0D
:1087F00008D0F54B984205D0F44B984202D0F44B88
:10880000984203D122F070034A881A43F14B9842F0
:1088100006D0F14B984203D022F44073CA881A4321
:1088200002808A8882850A880285A0420AD0A842EE
:1088300008D0EA4A904205D0E94A904202D0E94A7B
:10884000904201D1097A01860121818230BD70B543
:10885000028C22F480720284028C8388848B24F040
:10886000700424F003040D88254322F400720E895D
:108870004FF6FF7404EA062616434A8804EA0222E9
:108880003243CF4EB04202D0CE4EB04217D122F486
:1088900000664A8904EA0222324322F480668A880A
:1088A00004EA0222324323F4805323F400538E89D6
:1088B00004EA06161E43CB8904EA0313334383807C
:1088C0008583C9888187028470BD70B5028C22F4CB
:1088D00080520284058C8288838B23F4E04323F446
:1088E00040760C884FF6FF7303EA0424344325F4E2
:1088F00000550E8903EA06362E434D8803EA0535F6
:108900003543AF4EB04202D0AE4EB04205D122F454
:1089100080468A8903EA8212324382808483C9882E
:10892000A0F84010058470BD4FF6FF7181800021D2
:108930000180C180418001727047002904D0018804
:1089400041F0010101807047018821F0010101809F
:108950007047002A03D082890A4382817047828946
:108960008A4382817047018582827047028822F0A3
:1089700070020A4302807047028922F070020A43A3
:108980000281704770B50589048B068C25F00705B8
:108990000D434FF6FC410C4040F201110C4326F010
:1089A00022064FF6FF7101EA03111143314305819D
:1089B0000483018470BD028B22F070020A4302839B
:1089C0007047028B22F4E0424FF6FF7303EA012165
:1089D000114301837047828B22F070020A43828325
:1089E0007047828B22F4E0424FF6FF7303EA0121C5
:1089F000114381837047002904D0018841F0800130
:108A000001807047018821F08001018070470029B2
:108A100004D0818841F0040181807047818821F071
:108A2000040181807047002904D0818841F0080149
:108A300081807047818821F008018180704700297A
:108A400004D0818841F0010181807047818821F044
:108A5000010181807047028B22F008020A430283E1
:108A60007047028B22F400624FF6FF7303EA012184
:108A7000114301837047828B22F008020A438283EC
:108A80007047828B22F400624FF6FF7303EA0121E4
:108A9000114381837047028B22F004020A43028350
:108AA0007047028B22F480624FF6FF7303EA0121C4
:108AB000114301837047828B22F004020A438283B0
:108AC0007047828B22F480624FF6FF7303EA012124
:108AD000114381837047028B22F080020A43028394
:108AE0007047028BC2F30E024FF6FF7303EA0121B7
:108AF000114301837047828B22F080020A438283F4
:108B00007047828BC2F30E024FF6FF7303EA012116
:108B1000114381837047028C22F002020A430284CF
:108B20007047028C22F008020A4302847047028CCC
:108B300022F020024FF6FF7303EA01111143018472
:108B40007047028C22F080024FF6FF7303EA011196
:108B5000114301847047028C22F400724FF6FF73B8
:108B600003EA0121114301847047028C22F4006260
:108B70004FF6FF7303EA0121114301847047028C11
:108B800022F400524FF6FF7303EA013111430184CE
:108B9000704710B501238B40048C9C430484038CE4
:108BA0008A401343038410BD10B504238B40048C0A
:108BB0009C430484038C8A401343038410BD00004B
:108BC000002C014000340140000400400008004037
:108BD000000C004000100040001400400040014024
:108BE000004401400048014030B500F11803012461
:108BF0008C40058CA5430584002911D008290FD08D
:108C0000091FC1F34E001844016821F4E0410160DE
:108C100001684FF6FF7303EA02221143016030BD81
:108C200003EB5100016821F07001016001681143FC
:108C3000016030BD002904D0018841F002010180AB
:108C40007047018821F0020101807047002904D09B
:108C5000018841F0040101807047018821F004017E
:108C600001807047002904D0818841F08001818013
:108C70007047818821F0800181807047028822F04E
:108C80000802028002880A4302807047828822F02C
:108C90007002828082880A4382807047028922F0B3
:108CA0000702028102890A4302817047028922F089
:108CB0008002028102890A430281704781847047E1
:108CC000818570478186704701877047818770472B
:108CD000A0F840107047028B22F00C020283028B36
:108CE0000A4302837047028B22F440620283028BA4
:108CF0004FF6FF7303EA01210A4302837047828B18
:108D000022F00C028283828B0A4382837047828B1B
:108D100022F440628283828B4FF6FF7303EA0121C3
:108D20000A4382837047028822F4407202800288DC
:108D30000A4302807047808E7047008F7047808F93
:108D40007047B0F840007047808C7047008D7047C6
:108D500002460020128A0A4200D001207047C9430F
:108D60000182704702460020138A0B4092890A4014
:108D7000002B02D0002A00D001207047C943018295
:108D80007047000010B5E14988420AD101218C03E7
:108D9000204600F092FA2046BDE81040002100F085
:108DA0008CBADB4988420AD101214C04204600F0EC
:108DB0008FFA2046BDE81040002100F089BAD5495D
:108DC00088420AD101218C04204600F081FA204615
:108DD000BDE81040002100F07BBACF4988420AD19B
:108DE0000121CC04204600F073FA2046BDE8104073
:108DF000002100F06DBAC94988420AD101210C0551
:108E0000204600F065FA2046BDE81040002100F041
:108E10005FBA10BD30B585B004460D46208A4CF6C9
:108E2000FF710840E98801432182A0894EF6F311C1
:108E30000840A9882A8911436A8902431143A18104
:108E4000A08A4FF6FF410840A9890143A1826846E4
:108E500000F0C5F9AD48844201D1039800E00298C2
:108E6000A189090408D500EBC00101EB00102968B5
:108E70004900B0FBF1F007E000EBC00101EB00108E
:108E800029688900B0FBF1F06422B0FBF2F109011E
:108E90000B096FF018056B4300EB8300A3891D04D9
:108EA0004FF0320307D503EBC000B0FBF2F000F047
:108EB0000700084306E003EB0010B0FBF2F000F0FF
:108EC0000F000843208105B030BD4FF416510160FA
:108ED00000218180C18001810C2242818181704703
:108EE00010B5038A4FF2FF0213400A884C882243D0
:108EF0008C88C9880C4322431A43028210BD00218A
:108F0000018041808180C1807047002904D081891F
:108F100041F4005181817047818921F400518181A0
:108F2000704710B540F66A13C1F3421301F01F04F5
:108F30000121A140012B07D0022B07D014303AB1F8
:108F400002680A43026010BD0C30F8E71030F6E703
:108F500002688A43026010BD002A03D0828A0A4355
:108F600082827047828A8A4382827047028A22F014
:108F70000F020282028A0A4302827047828922F427
:108F80000062828182890A4382817047002904D06D
:108F9000818941F0020181817047818921F00201BC
:108FA00081817047028A22F020020282028A0A43EB
:108FB00002827047002904D0018A41F48041018275
:108FC0007047018A21F4804101827047C1F3080192
:108FD000818070478088C0F308007047818941F024
:108FE000010181817047028BD2B20283028B42EA77
:108FF000012101837047028B02F47F420283028BBE
:109000000A4302837047002904D0818A41F020017D
:1090100081827047818A21F0200181827047002976
:1090200004D0818A41F0100181827047818A21F049
:10903000100181827047002904D0818A41F0080123
:1090400081827047818A21F008018182704700295E
:1090500004D0818941F40041818170478189C1F345
:109060000E0181817047002904D0818A41F400619A
:1090700081827047818A21F4006181827047828AEF
:1090800022F004028282828A0A4382827047002987
:1090900004D0818A41F0020181827047818A21F0E7
:1090A0000201818270470246002012880A4200D0E5
:1090B000012070478A05C9430180704770B50024BC
:1090C00040F66A12C1F3421301F01F05012606FAA9
:1090D00005F2012B0CD0022B0DD0838A1340090A14
:1090E0008E40008830400BB100B10124204670BD95
:1090F00083891340F3E7038A1340F0E740F66A12CE
:109100000A0A01219140C94301807047003801409B
:109110000044004000480040004C00400050004027
:109120007E48016841F00101016041687C4A1140BC
:10913000416001687B4A11400160016821F480218F
:109140000160416821F4FE0141604FF41F0181601C
:10915000704772490A6822F480320A600A6822F471
:1091600080220A60B0F5803F07D0B0F5802F03D190
:10917000086840F4A02008607047086840F4803018
:1091800008607047034600205909644A01290AD043
:1091900002290AD0516A03F01F02012393400B42B7
:1091A00000D0012070471168F5E7116AF3E718B5A0
:1091B000002000904FF4A0643120FFF7E3FF0099F6
:1091C000491C00910099A14201D00028F4D031201F
:1091D000FFF7D8FF08B1012018BD002018BD10B559
:1091E0004E4A516801F00C014F4B002927D0042949
:1091F00027D0082927D00360516801F0F001090940
:109200004A4B5C5C0168E1404160546804F4E064EE
:10921000240A1C5D21FA04F48460546804F4605448
:10922000E40A1B5DD940C160526802F44042920BCF
:109230003E4B1B1F9A5CB1FBF2F1016110BD036054
:10924000DAE70360D8E7516801F47011536803F45A
:109250008033022404EB914133B153689B0307D55B
:10926000334B59430160C7E7314B59430160C3E7B2
:109270002D4B59430160BFE7284A002903D05169AB
:109280000143516170475169814351617047234ADD
:10929000002903D09169014391617047916981432D
:1092A000916170471D4A002903D0D1690143D16102
:1092B0007047D1698143D1617047184A002903D0B2
:1092C000D1680143D1607047D1688143D160704754
:1092D000124A002903D011690143116170471169D5
:1092E0008143116170471349086070471249C8648F
:1092F00070470A49C87170470848416A41F0807157
:109300004162704701460020044A92680A4200D038
:109310000120704701498872704700000010024028
:109320000000FFF8FFFFF6FE00127A001C0000208C
:1093300000093D0040044242000042427348724925
:1093400041607349416070477048016941F0800194
:10935000016170476D48C068C10701D001207047A6
:10936000410701D502207047C00601D50320704790
:109370000020704770B50446FFF7ECFF0546012D4D
:1093800005D100F066FB641EA4B2002CF4D104B930
:10939000FF25284670BD70B5054645F6FF76304678
:1093A000FFF7E8FF002812D1584C206940F0020076
:1093B00020616561206940F0400020613046FFF780
:1093C000D9FF012803D0216921F00201216170BD7C
:1093D00070B506460D46FF20FFF7CCFF00280ED1E2
:1093E0004A4C206940F0010020613580FF20FFF7E2
:1093F000C1FF012803D0216921F00101216170BD65
:10940000008870472DE9F04105460E4617460024B6
:1094100007E036F814102846FFF7DAFFAD1C641C8D
:10942000A4B2BC42F5D3BDE8F08110B504460023D8
:1094300007E02046FFF7E4FF21F81300A41C5B1CA3
:109440009BB29342F5D310BD2DE9F05F82460F46E3
:109450001546AAF10062B2F5002F52D2FFF76EFF57
:109460004FEAD228C2F34906C6F58064A54200D867
:109470002C46DFF8A0B037E032183BF812208A42C1
:1094800003D1401C80B2A042F6D3A04214D2484679
:10949000FFF781FF002006E0821937F810102BF843
:1094A0001210401C80B2A042F6D348464FF48062AE
:1094B0001849FFF7A7FF04E0224639465046FFF758
:1094C000A1FFA54202D1BDE8F05F3DE708F1010828
:1094D000002607EB44070AEB440A281B85B24FF429
:1094E0008064A54200D82C464FF0006000EBC829EC
:1094F000421408494846FFF798FF00204FF6FF71D5
:10950000C1E7BDE8F09F000023016745002002404D
:10951000AB89EFCD3C80002010B53D4C01212046A9
:10952000FFF716FC012807D100F0DAFA2046BDE863
:1095300010400121FFF713BC10BD7FB504460D4656
:1095400001210220FFF7AEFEADF80840ADF804504F
:109550000024ADF80A40ADF806402D4D01A928467B
:10956000FFF73CF91D218DF800108DF801408DF8B2
:10957000024001218DF803106846FEF78CFF01229E
:1095800011462846FFF7E5F901212846FFF7D5F9EE
:109590007FBD10B51F4C01212046FFF7D9FB0128E4
:1095A00003D11D480168491C01602046BDE81040F8
:1095B0000121FFF7D4BB7FB504460D4601211020E1
:1095C000FFF770FEADF80840ADF804500020ADF88C
:1095D0000A00ADF806000F4C01A92046FFF7FEF87F
:1095E00036218DF8001001218DF8011003228DF82D
:1095F00002208DF803106846FEF74DFF0122114648
:109600002046FFF7A6F901212046FFF796F97FBD16
:1096100000040040001000402C00002038B5954C9C
:10962000208FADF8000048208DF803006946606B7C
:10963000FEF7F1FF218F606BFFF75CF838BD38B59E
:109640008C4C208FADF8000010208DF80300032013
:109650008DF802006946606BFEF7DDFF218F606BBD
:10966000FFF748F838BD834A002803D0918D906AEF
:10967000FFF740B8918D906AFFF73EB87D4A002809
:1096800003D0118F506BFFF735B8118F506BFFF778
:1096900033B87848018F406BFFF718B8F8B5754CB0
:1096A0000121606AFFF7F3FDA08DADF800001025E1
:1096B0008DF8035003268DF802606946A06AFEF714
:1096C000AAFFA18DA06AFFF715F80121206BFFF713
:1096D000DEFD208FADF800008DF803508DF802609C
:1096E0006946606BFEF797FF218F606BFFF702F80A
:1096F000F8BD10B5FFF7A3FF0120FFF7BFFF012062
:10970000FFF7B1FF042000F0A4F90020FFF7B6FF37
:10971000042000F09EF9BDE810400020A3E710B53A
:10972000FFF78DFF0020FFF79EFF0020FFF7A6FF49
:10973000042000F08EF90120FFF795FF0120FFF7CC
:109740009DFFBDE81040042000F083B910B500244F
:109750000120FFF793FFFFF761FF012000F079F987
:109760000120FFF780FF012000F073F907E0641C7F
:10977000E4B2FA2C03D9FFF7D2FF012010BDFFF7A6
:1097800088FF0028F3D1FFF76EFF002010BD10B551
:109790000020FFF768FFFFF752FF0020FFF76EFF82
:1097A000022000F056F90120FFF75DFF022000F0D3
:1097B00050F9BDE81040002055E710B50020FFF734
:1097C00052FFFFF73CFF0120FFF758FF022000F097
:1097D00040F90120FFF747FF022000F03AF9BDE809
:1097E000104000203FE770B50546FFF728FF002036
:1097F000FFF739FF0024E809FFF740FF6806050E70
:10980000022000F026F90120FFF72DFF022000F0D2
:1098100020F90020FFF727FF022000F01AF9641C4E
:10982000E4B2082CE7D370BD70B506460024FFF7FC
:10983000F5FE00250020FFF716FF022000F009F9D1
:109840000120FFF710FF6006040EFFF722FF08B1AA
:10985000641CE4B2012000F0FCF86D1CEDB2082D90
:10986000E8D31EB1FFF793FF204670BDFFF7A5FFB9
:10987000FAE70000C89C000838B56B4CE06B002884
:1098800015D054F83C0F0121FFF701FD2089ADF8F8
:10989000000010208DF8030003208DF802006946B7
:1098A0006068FEF7B8FE21896068FEF723FF38BDC7
:1098B0005D4AD16B00290AD020B1B2F84410106C77
:1098C000FEF718BFB2F84410106CFEF715BF7047D2
:1098D00010B5FFF7E3FEBDE81040CDE710B5044634
:1098E000FFF707FF200AA02101EB4000C0B2FFF7FD
:1098F0007AFFFFF72BFFE0B2FFF775FFFFF726FFB8
:10990000FFF7F7FEA120FFF76EFFFFF71FFF002014
:10991000FFF78AFF0446FFF702FF204610BD70B52F
:1099200004460D460020FFF7C3FFFFF7E2FE200AC2
:10993000A02101EB4000C0B2FFF755FFFFF706FF83
:10994000E0B2FFF750FFFFF701FF2846FFF74BFF9C
:10995000FFF7FCFEFFF7E3FE0120FFF7A9FFBDE8DC
:109960007040052000F087B82DE9F04106460D460D
:109970001746002409E0E00025FA00F0C1B23019D2
:1099800080B2FFF7CCFF641CE4B2BC42F3D3BDE865
:10999000F0812DE9F04102460E460020002497197F
:1099A00008E00502381B401E80B2FFF797FF2844ED
:1099B000641CE4B2B442F4D3E9E710B5FF20FFF72A
:1099C0008DFF55280AD05521FF20FFF7A8FFFF2063
:1099D000FFF784FF552803D0012010BD002010BDE3
:1099E000002010BD70B504460E46154608E020461E
:1099F000641CA4B2FFF772FF06F8010B6D1EADB236
:109A0000002DF4D170BD70B506460D46144606E033
:109A100029783046FFF783FF761CB6B26D1C641EB2
:109A2000A4B2F5D270BD0000C89C00084FF0E02140
:109A30000A6922F004020A611849C008087000EBA4
:109A40004002C2EBC0104FF6FF7202EAC00048802D
:109A500070471249097848434FF0E02148610023DC
:109A60008B61012008610869C20701D0C003FAD5E3
:109A70000B618B6170470949498848434FF0E021E9
:109A8000486100238B61012008610869C20701D089
:109A9000C003FAD50B618B617047000030000020D5
:109AA00013484FF47A710068B0FBF1F04FF0E021F9
:109AB000B0F1807F01D301200BE020F07F40401EF9
:109AC00048610C4AF020107000208861072008616E
:109AD000002000B1FEE7086940F00100086170470E
:109AE00005480168491D01607047034800687047D8
:109AF0000400002023ED00E034000020704770B522
:109B000004460120FEF79AFB3C4D40212846FFF712
:109B1000CAFA0028F9D0A1B22846FFF757FA002068
:109B2000FEF78CFB204670BDF0B587B007460121DB
:109B30008803FFF7ACFB314E3046FFF723F9304C7A
:109B400001212068FFF7A3FB2089ADF81800032549
:109B50008DF81A5018208DF81B0006A96068FEF7D2
:109B60005AFD0121E068FFF792FBA08AADF81800CA
:109B700048208DF81B0006A92069FEF74CFD252022
:109B80008DF8040001208DF805008DF806508DF841
:109B9000070001A8FEF77FFC02970020ADF80C003B
:109BA000ADF80E00ADF81000ADF814000C20ADF8C3
:109BB000120002A93046FFF72DF9012240F225518B
:109BC0003046FFF7AEF901213046FFF79EF901213B
:109BD000A069FFF75CFB208CADF8180010208DF811
:109BE0001B008DF81A5006A9E069FEF714FD218CC0
:109BF000E069FEF77FFD07B0F0BD000000380140CE
:109C0000C89C00082DE9F0470D4690460024074601
:109C1000A0F10060B0F5002F29D2FFF78FFB0026DE
:109C20004FF48069DFF870A015E06878000215F83D
:109C3000021B08442146641CA4B22AF811004A46BB
:109C4000944206D1002414493846FFF7DBFB07F5A0
:109C50000067B61CB6B24645E7D324B122460E498A
:109C60003846FFF7CFFBBDE8F047FFF76DBBBDE817
:109C7000F08710B50168094A1140B1F1005F09D1C0
:109C80004168074C21600068FEF75CFA2068BDE877
:109C90001040004710BD00003C8800200000FE2F4F
:109CA00038000020064C074D06E0E06840F0010354
:109CB00094E8070098471034AC42F6D3FEF73CFA1C
:109CC000101D0108301D01080400000000080140BB
:109CD0000002000004000000000801400004000031
:109CE0000400000000080140000100000400000022
:109CF00000080140080000000400000000080140C6
:109D0000040000000000000000000000000000004F
:109D1000804B0020B9270008790B00087B0B000856
:109D20007F0B0008830B0008870B00080000000071
:109D30000000000000000000000000008B0B000885
:109D40008D0B0008000000008F0B0008910B00082D
:109D5000D3270008D3270008D3270008D3270008FB
:109D6000D3270008D3270008D3270008D3270008EB
:109D7000D3270008D3270008D3270008D3270008DB
:109D8000D3270008D3270008D3270008D3270008CB
:109D9000D3270008D3270008D3270008D3270008BB
:109DA000D3270008D3270008D3270008D3270008AB
:109DB000D3270008D3270008D3270008D32700089B
:109DC000D32700081D2F0008D3270008D327000839
:109DD000D3270008D3270008D3270008D32700087B
:109DE000D32700080B410008D3270008D327000819
:109DF000D3270008D3270008D3270008D32700085B
:109E0000D3270008D3270008D3270008D32700084A
:109E1000D3270008D3270008D3270008D32700083A
:109E200069420008D3270008812F0008D3270008C3
:109E3000D3270008D3270008D3270008D32700081A
:109E400000F002F800F044F80AA090E8000C824408
:109E50008344AAF10107DA4501D100F039F8AFF2E5
:109E6000090EBAE80F0013F0010F18BFFB1A43F0F8
:109E7000010318473C5A00005C5A0000103A24BF06
:109E800078C878C1FAD8520724BF30C830C144BF5F
:109E900004680C60704700000023002400250026A1
:109EA000103A28BF78C1FBD8520728BF30C148BF3D
:109EB0000B607047642905F0DF82732905F0638425
:109EC000002070471FB505F028FB1FBD10B510BD61
:109ED00005F08FFC1146FFF7F5FF00F0BAF905F029
:109EE000ADFC03B4FFF7F2FF03BC03F0ADFD0000CF
:109EF00080F30888704700000B49D1F800C04A6819
:109F00005CF8043B1068184442F8040B8C4528BFE9
:109F1000A1F1DC0C8A4228BFA1F1DC02C1F800C02B
:109F20004A6020F0004070471845002010B5042218
:109F3000FC49002002F030FD0222FA49091D0420EC
:109F400002F02AFD062002F08BFCF649C880084684
:109F5000C088FF2801D1FE20C880072002F080FCC5
:109F6000F0490872082002F07BFCEE494872EE4886
:109F70000078EE49087038210F2002F09DFC0B207C
:109F800002F06EFCEA490870652002F069FCE549C0
:109F900088720846807A052801DD0420887210BD89
:109FA00010B545F2555000F08BFF052000F08BFFF7
:109FB0004FF47A6000F08AFF00F090FF00F089FF14
:109FC00010BD10B500F085FF10BD2DE9F04106462B
:109FD0000C4615462F46012C06D0022C09D0032C26
:109FE0000CD0042C14D10EE03946304601F050FE5E
:109FF0000EE03946304601F04DFE09E03946304664
:10A0000001F04AFE04E03946304601F047FE00BF49
:10A0100000BFBDE8F08170B504460D46062C22D283
:10A02000DFE804F0210F1503091B2A460121C1486E
:10A03000FFF7CBFF18E02A460221BE48FFF7C5FF15
:10A0400012E02A460121BC48FFF7BFFF0CE02A4678
:10A050000221B948FFF7B9FF06E02A460121B748B7
:10A06000FFF7B3FF00E000BF00BF70BD00B599B0BF
:10A070000121102002F0C4F90121202002F0C0F9D2
:10A080000121082002F0BCF90121480302F0B8F9CF
:10A090000121112002F0B4F90121022002F0BDF9E2
:10A0A000C020ADF840003020ADF8200018208DF819
:10A0B000430003208DF8420010A9A14800F0B2FD32
:10A0C00018208DF8230003208DF8220008A99D4850
:10A0D00000F0A8FD0121092002F092F901219A481F
:10A0E00000F071FE0121994800F06DFE4FF47A7086
:10A0F000ADF838000220ADF834000020ADF83A0089
:10A10000ADF836000DA98C4800F0CEFF7020ADF8F8
:10A1100024000120ADF826000220ADF82C004FF4F9
:10A120007A70ADF818000220ADF814000020ADF8E8
:10A130001A00ADF8160005A97E4800F0B5FF7020A2
:10A14000ADF804000120ADF806000220ADF80C00C7
:10A1500009A9794800F0E5FF09A9774801F023F83B
:10A1600001A9744800F0DDFF01A9724801F01BF855
:10A170000821714801F024FC08216F4801F029FCF6
:10A1800008216C4801F01CFC08216A4801F021FC00
:10A190000121694801F0E4FA0121674801F0ECFA75
:10A1A0000121042002F039F90121022002F035F9E1
:10A1B0000121604801F0D4FA0121212002F020F9A8
:10A1C0000121080300F0FFFD4FF4E040ADF860000E
:10A1D00018208DF8630003208DF8620018A95C48F0
:10A1E00000F020FD4FF47A70ADF858000220ADF871
:10A1F00054000020ADF85A00ADF8560015A94F489C
:10A2000000F052FF7020ADF844000120ADF8460088
:10A210000220ADF84C0011A9484800F082FF11A9B6
:10A22000464800F0C0FF11A9444801F009F8082190
:10A23000424801F0C5FB0821404801F0CAFB082153
:10A240003E4801F0D3FB01213C4801F089FA19B0E6
:10A2500000BDADF5816D00BF00BF0026B04600BF58
:10A260000121394800F0AFFD01213A4800F0ABFD73
:10A270000121084602F0C4F84FF4A06000F004FC8D
:10A28000FFF7F4FE00210120FFF7C5FE00210220A8
:10A29000FFF7C1FE00210320FFF7BDFE00210420CF
:10A2A000FFF7B9FE00210520FFF7B5FE482003F0B7
:10A2B000AFFC02F0CFFA02F027F9FFF737FE03F008
:10A2C000A0FEFF202449087003F08DFD642023497F
:10A2D000087000202249088000BF2248B0F800041E
:10A2E0006FF30E001F49A1F80004084690F801041E
:10A2F00020F080011B4880F801144FF4E13003F096
:10A300002AFC02F02FFE02F01FFF0746002002F099
:10A310003AFF642003F0B4FC00201349087004F0F5
:10A32000ABFEA6E2221C002061000020620000209B
:10A330006900002000040040003401400008004093
:10A3400000100140000C01400004300000081A0019
:10A3500000140140000230009C0000206E0000202C
:10A360006A0000200018002048000020FA4890F8F9
:10A370000104C00948B1022F07D0F74890F8010442
:10A3800020F08001F44880F8011430E1F3480078AF
:10A3900002280CD10020F1490870F14908700846E4
:10A3A00001780B2002F088FAEE4804F04BFEFFF72C
:10A3B00008FEED48007850B9EC480078012806D135
:10A3C00003F01FFE03F00FFD0020E8490870E84885
:10A3D0000088401CE6490880E6480088401CE549A2
:10A3E000088008460088B0F5FA7F0CDD0846008832
:10A3F000B0F5167F07DA00BF02F0A6F80121DE48AB
:10A4000000F0BDFC34E0DB480088B0F5167F0CDDC1
:10A41000D8480088B0F52F7F07DA00BF02F08DF82A
:10A420000121D54800F0ADFC22E0D2480088B0F50B
:10A430002F7F0CDDCF480088B0F5487F07DA00BFDA
:10A4400002F082F80121CC4800F099FC10E0C948E4
:10A450000088B0F5487F0BDDC6480088B0F5617F05
:10A4600006DA00BF02F069F80121C34800F089FC58
:10A47000C0480088B0F5617F02DD0020BD4908803A
:10A48000BE480078012821D103F0CCFDC0B1BC4802
:10A49000C078BB49897800EB012084B203F0A4FDA9
:10A4A00003F056FC204603F06FFEB048007818B960
:10A4B000B449088803F0E4FB204604F036FA01E0D2
:10A4C00003F091FC0020AD49087000BFAE48007851
:10A4D000002809DDAC480078401EAB4908700846EA
:10A4E000007808B903F07FFC9D48007840B9A04887
:10A4F000008841F65831884202DD9A4804F0A2FDF6
:10A500009648007801280ED143F69820804501D264
:10A5100008F1010843F69820804504D300208F49B4
:10A52000087004F023FD9948007800285CD1984811
:10A530000078002858D1022F56D1002600BF20E015
:10A54000944802F0E1FFB8B19248007880B9914890
:10A55000407868B98F48807850B98E48C07838B94B
:10A5600041F2883003F08CFB00208849087006E037
:10A5700001208649087006E0C82003F081FB701CAA
:10A58000C6B2052EDCDB00BF8048007810B9012080
:10A590007F4908704FF4FA7300227FA17FA002F078
:10A5A0006DFD012002F039FE00F093FC4FF4FA73C8
:10A5B000002279A17DA002F061FD09E000F089FC94
:10A5C0000A2003F05DFB701CC6B2032E00DB0AE01C
:10A5D0000120022342F210725021009077A002F075
:10A5E000D5FE0028EAD000BF012003F049FB5A48FD
:10A5F00090F80104C00900283FF4C8AE022F71D1C1
:10A600007902724804F0E9FF00207149088003F0E4
:10A6100059F804465048B0F80004C0F30E02214631
:10A620006C4804F095FF4C48B0F800046FF30E003E
:10A630004949A1F80004084690F8010420F080017F
:10A64000454880F801146348C079303800F0FF09AC
:10A650005E49604803F04CF85D4908800846008870
:10A6600000283FDDB9F1010F75D102AC3B480078FD
:10A6700020B101285DD002285AD1BDE0544802889B
:10A68000524902A804F064FF02AC514800882D280A
:10A690004ED151A1204604F049FF10B303F04EF90A
:10A6A00001231F2250480168002002F0D0FF607E85
:10A6B00038490978884216D1A07E364949788842BF
:10A6C00011D1E07E3349897888420CD1207F31490D
:10A6D000C978884207D102204449087001204449C2
:10A6E00008701EE0C2E04148007818B901203F49D7
:10A6F000087002E000203D490870607B88B1A07BB3
:10A7000078B1E07B68B1207C58B103F017F90123E0
:10A710001F2235480168002002F099FF142003F041
:10A72000AFFA32480078022802D101200B490870A4
:10A7300063E04FF0000826480288244902A804F08C
:10A7400007FF02A804F0DFFC2A48007810B10220BD
:10A750000249087051E052E0001800204800002033
:10A7600069000020008000086200002061000020D5
:10A770006A0000200A000020000801406C00002050
:10A78000341C0020740000206E0000200C0000200B
:10A790000D000020060000204F4B000041542B43C9
:10A7A00049504D4F44453D300000000041542B437B
:10A7B0004950434C4F53453D350000003235352E4E
:10A7C0003235352E3235352E32353500C002002077
:10A7D00004000020C006002054656D636F636F6E37
:10A7E00074726F6C73000000500000204D00002058
:10A7F0004C000020BC00002000BF00BF36E01D4818
:10A80000C079032803D01B48C07906282ED1002523
:10A8100006E01849A81D085C17494855681CC5B2D0
:10A8200016480088801FA842F3DC0021124A134812
:10A830000088401C1154002505E00E48405D104979
:10A840004855681CC5B2062DF7DB0B48C0780A498D
:10A85000897800EB01201FFA80FA504603F051FE80
:10A86000504604F0DDF9002006490870012003F08D
:10A8700007FA7BE5C0020020321E00200400002001
:10A880003C0000206D000020704700BFFEE700BFC5
:10A89000FEE700BFFEE700BFFEE770477047704766
:10A8A00010B503F043FA10BD0CB5002001900090E4
:10A8B0006C48006840F480306A49086000BF69480D
:10A8C000006800F4003000900198401C019000984E
:10A8D00018B90198B0F5A06FF1D16248006800F492
:10A8E000003010B10120009001E00020009000989D
:10A8F000012843D15C48006840F010005A490860C4
:10A900000846006820F0030008600846006840F030
:10A910000200086053484068524948600846406851
:10A9200048600846406840F48060486008464068D7
:10A9300020F47C1048600846406840F4E810486005
:10A940000846006840F08070086000BF4548006815
:10A9500000F000700028F9D04248406820F0030061
:10A96000404948600846406840F00200486000BF27
:10A970003C48406800F00C000828F9D10CBD10B527
:10A98000FFF792FF10BD10B53648006840F0010097
:10A9900034490860084640683449084031494860F5
:10A9A00008460068324908402E4908600846006899
:10A9B00020F4802008600846406820F4FE004860CB
:10A9C0004FF41F008860FFF7DAFF4FF0006029495D
:10A9D000086010BD10B5002100200022214B5B68EB
:10A9E00003F00C0121B1042906D0082928D107E081
:10A9F000214B224C236027E01F4B204C236023E097
:10AA0000184B5B6803F47010164B5B6803F48032DC
:10AA1000022303EB904022B9194B4343174C2360A8
:10AA20000DE0104B5B6803F4003323B1144B434338
:10AA3000124C236003E0104B4343104C236003E0AF
:10AA40000D4B0E4C236000BF00BF064B5B68C3F389
:10AA500003130C4CE15C094B1B68CB40074C236093
:10AA600010BD000000100240002002400000FFF86E
:10AA7000FFFFF6FE08ED00E000127A001000002053
:10AA800000093D001400002031490143314A1160A2
:10AA9000704770B5002100230F22C47804B32D4CF9
:10AAA000246804F4E064C4F5E064210AC1F10403FD
:10AAB000CA40447804FA03F1847814402143090120
:10AAC000254C0678A155047804F01F050124AC40FC
:10AAD00005786D11AD0005F1E025C5F8004109E0EC
:10AAE000047804F01F050124AC401C4D0678761153
:10AAF00045F8264070BD1A4A0A400243154B1B1FF9
:10AB00001A60704739B1134A121D12680243114B83
:10AB10001B1D1A6006E00F4A121D126882430D4B7E
:10AB20001B1D1A607047042808D14FF0E021096905
:10AB300041F004014FF0E022116107E04FF0E02105
:10AB4000096921F004014FF0E02211617047000013
:10AB50000000FA050CED00E000E400E080E100E018
:10AB600080FFFF1F10B50446CC48844208D1012164
:10AB7000042001F05FFC0021042001F05BFC46E0B2
:10AB8000C748844208D10121082001F053FC00216C
:10AB9000082001F04FFC3AE0C248844208D101216C
:10ABA000102001F047FC0021102001F043FC2EE0B2
:10ABB000BD48844208D10121202001F03BFC002146
:10ABC000202001F037FC22E0B848844208D101215E
:10ABD000402001F02FFC0021402001F02BFC16E06A
:10ABE000B348844208D10121802001F023FC0021D8
:10ABF000802001F01FFC0AE0AE48844207D1012109
:10AC0000801501F017FC0021A01501F013FC10BD08
:10AC100010B50121084601F00DFC0021012001F0D2
:10AC200009FC10BD2DE9F041024600250026002058
:10AC300000230024002791F803C00CF00F0591F8C1
:10AC400003C00CF0100CBCF1000F03D091F802C04F
:10AC50004CEA050591F800C0BCF1000F31D0146832
:10AC600000202BE04FF0010C0CFA00F3B1F800C00B
:10AC70000CEA03069E4220D183004FF00F0C0CFA21
:10AC800003F7BC4305FA03FC4CEA040491F803C043
:10AC9000BCF1280F06D14FF0010C0CFA00FCC2F8F1
:10ACA00014C00AE091F803C0BCF1480F05D14FF081
:10ACB000010C0CFA00FCC2F810C0401C0828D1D3CB
:10ACC0001460B1F800C0BCF1FF0F34DD54680020FF
:10ACD0002EE000F1080C4FF0010808FA0CF3B1F86F
:10ACE00000C00CEA03069E4221D183004FF00F0CF6
:10ACF0000CFA03F7BC4305FA03FC4CEA040491F890
:10AD000003C0BCF1280F05D100F1080C08FA0CF8BB
:10AD1000C2F8148091F803C0BCF1480F07D100F1CC
:10AD2000080C4FF0010808FA0CF8C2F81080401C1B
:10AD30000828CED35460BDE8F0814FF6FF71018042
:10AD4000022181700421C17070470246002093687F
:10AD50000B400BB1012000E00020704701468868DD
:10AD600080B2704702460020D3680B400BB101202F
:10AD700000E0002070470146C86880B2704701615A
:10AD80007047416170470AB1016100E0416170475D
:10AD9000C16070474FF480320A43826181618261F1
:10ADA00082698269704702460020434B18684FF65B
:10ADB0008073184040EA021008433F4B1860704708
:10ADC0003E49C8617047F0B50A46002300240021BF
:10ADD000002500F00046B6F1004F02D1364EF16971
:10ADE00001E0354E7168C0F3034583B200F44016AC
:10ADF000B6F5401F08D121F070612F4E766826F01D
:10AE000070662D4F7E6012E000F48016B6F5801F4C
:10AE100006D1032606FA05F4A14341F0706106E06D
:10AE2000460D360103FA06F6B14341F0706122B1D6
:10AE3000460D360103FA06F6314300F00046B6F13E
:10AE4000004F02D11C4EF16101E01B4E7160F0BD5C
:10AE500030B500228B071C0F0F2303FA04F2164BA8
:10AE600008338C1053F824309343134C08348D105E
:10AE700044F8253023468C1053F824308C07240FD7
:10AE800000FA04F423430C4C08348D1044F82530A8
:10AE900030BD0A49DC3108607047000000080140FD
:10AEA000000C014000100140001401400018014056
:10AEB000001C014000200140000001400000204231
:10AEC0000E49086070470D49486070470B4988601B
:10AED00070474AF6AA200949086070474CF6CC40F2
:10AEE00006490860704701460020044AD2680A40BB
:10AEF0000AB1012000E0002070470000003000404F
:10AF000010B50446FE48844208D10121C01401F066
:10AF100091FA0021E01401F08DFAC4E0B4F1804F01
:10AF200008D10121084601F092FA0021012001F028
:10AF30008EFAB8E0F348844208D10121022001F0E2
:10AF400086FA0021022001F082FAACE0EE48844249
:10AF500008D10121042001F07AFA0021042001F037
:10AF600076FAA0E0E948844208D10121082001F0E6
:10AF70006EFA0021082001F06AFA94E0E448844265
:10AF800008D10121102001F062FA0021102001F007
:10AF90005EFA88E0DF48844208D10121202001F0D8
:10AFA00056FA0021202001F052FA7CE0DA4884426F
:10AFB00008D10121401401F03DFA0021601401F094
:10AFC00039FA70E0D548844209D10121C80401F062
:10AFD00031FA00214FF4002001F02CFA63E0D04850
:10AFE000844209D10121080501F024FA00214FF41F
:10AFF000801001F01FFA56E0CA48844209D10121AD
:10B00000480501F017FA00214FF4001001F012FA80
:10B0100049E0C548844208D10121402001F017FAD7
:10B020000021402001F013FA3DE0C048844208D1DD
:10B030000121802001F00BFA0021802001F007FAA5
:10B0400031E0BB48844208D10121801501F0FFF9AD
:10B050000021A01501F0FBF925E0B648844209D192
:10B060000121080401F0E6F900214FF4803001F0DD
:10B07000E1F918E0B048844209D10121480401F007
:10B08000D9F900214FF4003001F0D4F90BE0AB48BE
:10B09000844208D10121880401F0CCF900214FF449
:10B0A000802001F0C7F910BD00220288944B98421D
:10B0B0000ED0994B98420BD0B0F1804F08D0914BF5
:10B0C000984205D0904B984202D0904B984204D1C0
:10B0D0004FF68F731A404B881A438D4B984207D016
:10B0E0008C4B984204D04FF6FF431A40CB881A434A
:10B0F00002808B8883850B880385814B98420BD017
:10B10000854B984208D08B4B984205D08A4B984289
:10B1100002D08A4B984201D10B7A038601238382A5
:10B12000704770B5002400220023058C4FF6FE7690
:10B1300035400584028C8388048B4FF68F752C4034
:10B14000B51E2C400D882C43751E2A400D892A43BC
:10B150004D882A436A4DA8420BD06F4DA84208D0B3
:10B16000744DA84205D0744DA84202D0734DA84238
:10B1700013D14FF6F7752A404D892A434FF6FB75D8
:10B180002A408D882A434FF6FF652B404FF6FF5526
:10B190002B408D892B43CD892B4383800483CD881D
:10B1A0008586028470BD70B5002400220023058CC2
:10B1B0004FF6EF7635400584028C8388048B48F681
:10B1C000FF752C404FF6FF452C400D884FF6FF765B
:10B1D00006EA05252C434FF6DF752A400D8906EA5D
:10B1E00005152A434D8806EA05152A43444DA84211
:10B1F00002D0494DA8421DD14FF67F752A404D8996
:10B200004FF6FF7606EA05152A434FF6BF752A402A
:10B210008D8806EA05152A434FF6FF352B404FF27D
:10B22000FF752B408D8906EA85052B43CD8906EAFB
:10B2300085052B4383800483CD880587028470BDF8
:10B2400070B5002400220023058C4FF6FF663540C0
:10B250000584028C8388848B4FF68F752C404FF6C3
:10B26000FC752C400D882C434FF6FF552A400D8964
:10B270004FF6FF7606EA05252A434D8806EA05259E
:10B280002A431F4DA84202D0234DA8421DD14FF2A0
:10B29000FF752A404D894FF6FF7606EA05252A43B9
:10B2A0004FF6FF352A408D8806EA05252A434EF6DB
:10B2B000FF752B404DF6FF752B408D8906EA05156D
:10B2C0002B43CD8906EA05152B4383808483CD88E3
:10B2D0008587028470BD70B5002200230024058C90
:10B2E0004EF6FF7635400584038C8488828B48F6C1
:10B2F000FF752A404FF6FF452A400D8820E00000E8
:10B30000002C01400004004000080040000C0040F8
:10B31000001000400014004000340140004C014087
:10B32000005001400054014000180040001C004043
:10B33000002000400040014000440140004801401E
:10B340004FF6FF7606EA05252A434DF6FF752B409A
:10B350000D8906EA05352B434D8806EA05352B4352
:10B36000FA4DA84202D0FA4DA84208D14BF6FF751B
:10B370002C408D894FF6FF7606EA85152C43848094
:10B380008283CD88A0F84050038470BD828B4FF239
:10B39000FF331A408283828B4FF6FF7303EA012347
:10B3A0001A4382837047F0B50C46154600220021EF
:10B3B0000026078C4EF6FF7C07EA0C070784828B79
:10B3C000018C4FF6FF7707EA043640F6FF473A4014
:10B3D0004FF6FF7707EA05273A434FF6FF7707EA6C
:10B3E00003373A43D94FB8420ED0D94FB8420BD0A9
:10B3F000B0F1804F08D0D74FB84205D0D64FB842F1
:10B4000002D0D64FB84206D14DF6FF77394046F408
:10B410008057394305E047F6FF57394044F48057D9
:10B42000394382830184F0BD828B4FF6F3731A4057
:10B430008283828B0A4382837047F0B50C4615469F
:10B44000002200210026078C4FF6FF6C07EA0C074C
:10B450000784828B018C4FF6FF7707EA04264FF6AC
:10B460000C773A404FF6FF7707EA03172F433A432A
:10B47000B64FB8420ED0B64FB8420BD0B0F1804FA5
:10B4800008D0B44FB84205D0B34FB84202D0B34F42
:10B49000B84206D14FF6FF57394046F4807739431A
:10B4A00005E04FF2FF57394044F4807739438283F7
:10B4B0000184F0BD028B4FF2FF331A400283028BEE
:10B4C0004FF6FF7303EA01231A4302837047F0B576
:10B4D0000C461546002200210026078C4FF6EF7C13
:10B4E00007EA0C070784028B018C4FF6FF7707EA07
:10B4F000041640F6FF473A404FF6FF7707EA033756
:10B500003A434FF6FF7707EA05273A438F4FB84291
:10B510000ED08F4FB8420BD0B0F1804F08D08D4F76
:10B52000B84205D08C4FB84202D08C4FB84206D1F9
:10B530004FF6DF77394046F01007394305E04FF604
:10B540005F77394044F01007394302830184F0BD2E
:10B55000028B4FF6F3731A400283028B0A43028375
:10B560007047F0B50C46154600220021068C4FF6B8
:10B57000FE773E400684028B018C4FF60C763240FB
:10B580007E1C06EA03162E433243704EB0420ED0A4
:10B590006F4EB0420BD0B0F1804F08D06D4EB0422C
:10B5A00005D06D4EB04202D06C4EB04206D14FF67F
:10B5B000FD76314044F00106314305E04FF6F57663
:10B5C000314044F00106314302830184F0BD70B57F
:10B5D00005460C465D4885420ED05D4885420BD03D
:10B5E000B5F1804F08D05B48854205D05A48854266
:10B5F00002D05A48854200D100E000BF208850B9EF
:10B600002389A28861882846FFF7ABFFE188284696
:10B61000FFF79EFF25E0208804280AD12389A2880D
:10B6200061882846FFF753FFE1882846FFF742FF6D
:10B6300017E0208808280AD12389A2886188284633
:10B64000FFF7FBFEE1882846FFF7EEFE09E02389BD
:10B65000A28861882846FFF7A6FEE1882846FFF702
:10B6600095FE70BD2DE9F04105460C4600260127E8
:10B67000608808B9022600E00026A088012801D1D0
:10B68000022700E001272088A0B92389A2886188C9
:10B690002846FFF766FFE1882846FFF759FF238910
:10B6A0003A4631462846FFF712FFE1882846FFF761
:10B6B00001FF13E02389A28861882846FFF707FF6E
:10B6C000E1882846FFF7F6FE23893A4631462846A8
:10B6D000FFF747FFE1882846FFF73AFFBDE8F08112
:10B6E0000A884B881A438B881A43CB881A430B89E4
:10B6F0001A434B891A438B891A43A0F84420704798
:10B700004FF6FF71818000210180C180418001726C
:10B7100070470021018041808180C1800181418189
:10B720008181C18170470021018041800121818098
:10B730000021C1800181704700210180418081800A
:10B74000C18001814181818170470000002C01404E
:10B75000003401400004004000080040000C00409C
:10B7600021B1028842F00102028004E002884FF613
:10B77000FE731A400280704731B1B0F8442042F4A1
:10B780000042A0F8442005E0B0F84420C2F30E02C5
:10B79000A0F8442070471AB183890B43838102E0EB
:10B7A00083898B43838170478182704741EA02031A
:10B7B000A0F8483070471AB183890B43838102E0B7
:10B7C00083898B438381704701894FF6F87211405A
:10B7D000018170470A46002101894FF68F73194095
:10B7E00011430181704730B504460D462946204675
:10B7F000FFF7F0FF208940F00700208130BD2DE9E0
:10B80000F04104460D4616461F46602D06D13B46C4
:10B81000012231462046FFF75AFE05E03B46012251
:10B8200031462046FFF79DFE29462046FFF7D2FF0E
:10B83000208940F007002081BDE8F08130B50C463A
:10B8400000210189C9B24FF6FF7505EA03251543AA
:10B8500025432943018130BD2DE9F04105460E46BF
:10B8600017469846002443463A4631462846FFF795
:10B87000E5FF2C894FF6F870044044F007044FF6BA
:10B880008F70044044F070042C81BDE8F081F0B565
:10B8900004460D4616461F463B463246294620467C
:10B8A000FFF7CCFF208940F480402081F0BD018566
:10B8B000828270470A46002101884FF68F73194033
:10B8C000114301807047F0B50C4615461E46002115
:10B8D000002200230189028B038C4FF6F877394050
:10B8E00021434FF6FC473A4040F201173A434FF6E6
:10B8F000DD773B404FF6FF7707EA06172F433B43C0
:10B90000018102830384F0BD0A460021018B4FF6BA
:10B910008F7319401143018370470A460021018B40
:10B9200048F6FF7319404FF6FF7303EA02231943E9
:10B93000018370470A460021818B4FF68F731940AF
:10B940001143818370470A460021818B48F6FF73BB
:10B9500019404FF6FF7303EA0223194381837047AE
:10B9600021B1028842F08002028004E002884FF692
:10B970007F731A400280704721B1828842F004022E
:10B98000828004E082884FF6FB731A408280704701
:10B9900021B1828842F00802828004E082884FF65A
:10B9A000F7731A408280704721B1828842F0010209
:10B9B000828004E082884FF6FE731A4082807047CE
:10B9C0000A460021018B4FF6F7731940114301839A
:10B9D00070470A460021018B4FF2FF7319404FF662
:10B9E000FF7303EA02231943018370470A460021CB
:10B9F000818B4FF6F77319401143818370470A46D4
:10BA00000021818B4FF2FF7319404FF6FF7303EA59
:10BA100002231943818370470A460021018B4FF6A8
:10BA2000FB7319401143018370470A460021018BC3
:10BA30004FF6FF3319404FF6FF7303EA0223194311
:10BA4000018370470A460021818B4FF6FB73194032
:10BA50001143818370470A460021818B4FF6FF33E3
:10BA600019404FF6FF7303EA02231943818370479D
:10BA70000A460021018B4FF67F7319401143018361
:10BA800070470A460021018BC1F30E014FF6FF7388
:10BA900003EA02231943018370470A460021818B80
:10BAA0004FF67F7319401143818370470A46002186
:10BAB000818BC1F30E014FF6FF7303EA0223194392
:10BAC000818370470A460021018C4FF6FD731940AF
:10BAD0001143018470470A460021018C4FF6F77329
:10BAE00019401143018470470A460021018C4FF62A
:10BAF000DF7319404FF6FF7303EA02131943018401
:10BB000070470A460021018C4FF67F7319404FF6AB
:10BB1000FF7303EA02131943018470470A460021A8
:10BB2000018C4FF6FF5319404FF6FF7303EA0223CF
:10BB30001943018470470A460021018C4FF2FF73BC
:10BB400019404FF6FF7303EA02231943018470473B
:10BB50000A460021018C4DF6FF7319404FF6FF7322
:10BB600003EA023319430184704730B500230124EE
:10BB70008C40A3B2048C9C430484048C02FA01F52B
:10BB8000ADB22C43048430BD30B5002304248C4076
:10BB9000A3B2048C9C430484048C02FA01F5ADB278
:10BBA0002C43048430BD70B50346002000241846A1
:10BBB000183001258D40ACB21D8CA5431D8409B100
:10BBC000082909D100EB6100056825F070050560C2
:10BBD0000568154305600EE00D1FC5F34E052844AA
:10BBE000056825F4E045056005684FF6FF7606EA2E
:10BBF00002263543056070BD21B1028842F0020281
:10BC0000028004E002884FF6FD731A4002807047FC
:10BC100021B1028842F00402028004E002884FF65B
:10BC2000FB731A400280704721B1828842F0800283
:10BC3000828004E082884FF67F731A4082807047CA
:10BC400002884FF6F7731A40028002880A43028086
:10BC5000704782884FF68F731A40828082880A4329
:10BC60008280704702894FF6F8731A400281028978
:10BC70000A430281704702894FF67F731A4002819E
:10BC800002890A4302817047818470478185704729
:10BC9000818670470187704781877047A0F8401000
:10BCA000704702884FF6FF431A40028002880A4319
:10BCB000028070470146888E70470146088F7047A2
:10BCC0000146888F70470146B1F840007047014631
:10BCD000888C70470146088D704702460020138A01
:10BCE0000B400BB1012000E000207047CA430282E4
:10BCF000704730B50246002000230024158A05EA6B
:10BD00000103958905EA010413B10CB1012000E09B
:10BD1000002030BDCA4302827047000010B50446BF
:10BD2000FB48844209D10121880300F083FB0021F4
:10BD30004FF4804000F07EFB32E0F648844209D1A7
:10BD40000121480400F083FB00214FF4003000F093
:10BD50007EFB25E0F048844209D10121880400F0EF
:10BD600076FB00214FF4802000F071FB18E0EB48D7
:10BD7000844209D10121C80400F069FB00214FF47D
:10BD8000002000F064FB0BE0E548844208D101216B
:10BD9000080500F05CFB00214FF4801000F057FB19
:10BDA00010BD2DE9F04786B005460E460024A24698
:10BDB00000BFA1460027B08900B100BF2F462C8AE2
:10BDC0004CF6FF700440F08804432C82AC894EF698
:10BDD000F3100440B0883189084371890843044353
:10BDE000AC81AC8A4FF6FF400440B0890443AC827A
:10BDF00001A800F098FAC648874202D1DDF810A0E9
:10BE000001E0DDF80CA0A88900F4004040B10AEB85
:10BE1000CA0000EB0A1031684900B0FBF1F807E0F6
:10BE20000AEBCA0000EB0A1031688900B0FBF1F898
:10BE30006420B8FBF0F004012009642101FB1089A3
:10BE4000A88900F4004040B1322000EBC900B0FBEB
:10BE5000F1F000F00700044308E0322000EB091085
:10BE60006421B0FBF1F000F00F0004432C8106B018
:10BE7000BDE8F0874FF41651016000218180C18038
:10BE800001810C21418100218181704710B502465A
:10BE90000020108A4FF2FF0318400B884C88234380
:10BEA0008C882343CC8823431843108210BD002183
:10BEB000018041808180C180704721B1828942F434
:10BEC0000052828104E082894DF6FF731A4082811C
:10BED0007047F0B50346002400260025002040F6F8
:10BEE0006A17B94200D100BF1846C1F3421401F0ED
:10BEF0001F06012707FA06F5012C01D10C3004E0DA
:10BF0000022C01D1103000E014301AB107682F4321
:10BF1000076002E00768AF430760F0BD1AB1838A8B
:10BF20000B43838202E0838A8B4383827047028AB9
:10BF30004FF6F0731A400282028A0A430282704767
:10BF400082894FF2FF731A40828182890A4382817B
:10BF5000704721B1828942F00202828104E0828925
:10BF60004FF6FD731A4082817047028A4FF6DF73E5
:10BF70001A400282028A0A430282704721B1028A71
:10BF800042F48042028204E0028A4BF6FF731A40B8
:10BF900002827047C1F30802828070470146888898
:10BFA000C0F308007047818941F001018181704729
:10BFB000028BD2B20283028B42EA012202837047D3
:10BFC000028B02F47F420283028B0A430283704792
:10BFD00021B1828A42F02002828204E0828A4FF6F6
:10BFE000DF731A408282704721B1828A42F01002C8
:10BFF000828204E0828A4FF6EF731A408282704791
:10C0000021B1828A42F00802828204E0828A4FF6DD
:10C01000F7731A408282704721B1828942F400424C
:10C02000828103E08289C2F30E028281704721B1CE
:10C03000828A42F40062828204E0828A4FF2FF73B5
:10C040001A4082827047828A4FF6FB731A408282BE
:10C05000828A0A438282704721B1828A42F00202B8
:10C06000828204E0828A4FF6FD731A408282704712
:10C0700002460020B1F5007F00D100BF13880B40BD
:10C080000BB1012000E00020704701F40072B2F50E
:10C09000007F00D100BFCA430280704770B50246DE
:10C0A000002400230025002040F66A16B14200D18A
:10C0B00000BFC1F3421501F01F03012606FA03F386
:10C0C000012D02D19689334006E0022D02D1168A55
:10C0D000334001E0968A33400C12012606FA04F43C
:10C0E0001688344013B10CB1012000E0002070BD6F
:10C0F00010B50022002340F66A14A14200D100BF0F
:10C100000A1201249440A3B2DC43048010BD000055
:10C11000003801400044004000480040004C00400E
:10C1200000500040DF48006840F00100DD49086031
:10C1300008464068DC490840DA494860084600681B
:10C14000DA490840D74908600846006820F4802092
:10C1500008600846406820F4FE0048604FF41F0065
:10C1600088607047CF49096821F48031CD4A116059
:10C170001146096821F480211160B0F5803F03D099
:10C18000B0F5802F0ED106E0C649096841F4803130
:10C19000C44A116007E0C349096841F4A021C14ABB
:10C1A000116000E000BF00BF704710B501460022DB
:10C1B000002300204A11012A02D1BA4C236806E06C
:10C1C000022A02D1B74C236A01E0B64C636A01F03F
:10C1D0001F02012494401C400CB1012000E000200B
:10C1E00010BD38B5002000900024002500BF31208C
:10C1F000FFF7DBFF05460098401C00900098B0F563
:10C20000A06F01D0002DF2D03120FFF7CEFF08B192
:10C21000012400E00024204638BD01460020A14A48
:10C22000106820F0F80040EAC10010607047A04993
:10C2300008607047024600209A4B586820F47C1032
:10C2400042EA01031843974B5860704798490866C3
:10C25000704701460020934A506820F003000843CD
:10C26000506070478F48406800F00C0070470146EE
:10C2700000208C4A506820F0F0000843506070475E
:10C2800001460020874A506820F4E060084350606F
:10C29000704701460020834A506820F4605040EA0D
:10C2A000C1005060704729B17E4A527A02437D4BEB
:10C2B0005A7204E07B4A527A82437A4B5A72704730
:10C2C0007B49D8310860704701460020754A5068A4
:10C2D00020F440400843506070470021714A2032EA
:10C2E0001170704A82F82010012802D004280AD167
:10C2F00004E001216B4A2032117005E00521694AF2
:10C300002032117000E000BF00BF7047694908602B
:10C3100070476449096A0143624A1162704765497E
:10C3200044390860704730B5002100220024002302
:10C330005C4D6D6805F00C0121B1042905D0082978
:10C3400023D105E05C4D056022E05B4D05601FE0F8
:10C35000544D6D6805F47012524D6D6805F48034CB
:10C36000022505EB92421CB9544D554305600BE084
:10C370004C4D6D6805F400351DB1504D55430560B9
:10C3800002E04D4D5543056002E04B4D056000BF96
:10C3900000BF444D6D6805F0F0010909484D6B5C24
:10C3A0000568DD4045603F4D6D6805F4E061090AB0
:10C3B000434D6B5C4568DD4085603A4D6D6805F422
:10C3C0006051C90A3E4D6B5C4568DD40C560354D26
:10C3D0006D6805F44041890B3A4D6B5CC568B5FB4F
:10C3E000F3F5056130BD29B12E4A526902432D4B48
:10C3F0005A6104E02B4A526982432A4B5A617047C2
:10C4000029B1284A92690243264B9A6104E0254AE1
:10C4100092698243234B9A61704729B1214AD269BC
:10C420000243204BDA6104E01E4AD26982431D4B6D
:10C43000DA61704729B11B4AD2680243194BDA60AE
:10C4400004E0184AD2688243164BDA60704729B17B
:10C45000144A12690243134B1A6104E0114A12692B
:10C460008243104B1A617047124940390860704787
:10C470000F49C86470470B49C87170470948406A42
:10C4800040F0807007494862704701460020054A25
:10C4900092680A400AB1012000E00020704701497B
:10C4A00088727047001002400000FFF8FFFFF6FEA0
:10C4B000000042428004424200127A0000093D001E
:10C4C0002400002034000020094880470948004724
:10C4D000FEE7FEE7FEE7FEE7FEE7FEE7FEE7FEE734
:10C4E000FEE7FEE704480549054A064B7047000091
:10C4F000770C00083101000880450020804B0020A7
:10C50000804700208047002008B501210420FFF764
:10C5100077FF40F60100ADF8000010208DF8030011
:10C5200003208DF8020069460B48FEF77BFB4FF4B1
:10C5300000610948FEF723FC08BD10B54FF4006107
:10C540000548FEF71EFC10BD10B54FF4006102480F
:10C55000FEF715FC10BD00000008014008B5A24818
:10C56000008FADF8000048208DF803009E49486B0D
:10C570006946FEF757FB9C4A118F506BFEF7FFFB95
:10C5800008BD08B59848008FADF8000010208DF860
:10C59000030003208DF802009349486B6946FEF7BB
:10C5A00041FB914A118F506BFEF7E9FB08BD10B5B6
:10C5B00004462CB18C4A918D906AFEF7E0FB04E0B2
:10C5C000894A918D906AFEF7DCFB10BD10B50446D8
:10C5D0002CB1854A118F506BFEF7D1FB04E0824AE3
:10C5E000118F506BFEF7CDFB10BD10B57E4A118F39
:10C5F000506BFEF7AAFB0446204610BD08B57A49E9
:10C60000486A0121FFF7FCFE7748808DADF80000F5
:10C6100010208DF8030003208DF802007249886A0B
:10C620006946FEF7FFFA704A918D906AFEF7A7FB04
:10C630006D49086B0121FFF7E3FE6B48008FADF8F1
:10C64000000010208DF8030003208DF802006649D9
:10C65000486B6946FEF7E6FA634A118F506BFEF7A6
:10C660008EFB08BD10B5FFF78CFF0120FFF7AEFF72
:10C670000120FFF79CFF042001F0E6FA0020FFF7FD
:10C68000A5FF042001F0E0FA0020FFF790FF10BDA5
:10C6900010B5FFF776FF0020FFF789FF0020FFF7B6
:10C6A00095FF042001F0D0FA0120FFF780FF012060
:10C6B000FFF78CFF042001F0C7FA10BD10B500246D
:10C6C0000120FFF783FFFFF749FF012001F0BCFACB
:10C6D0000120FFF76CFF012001F0B6FA07E0601CB3
:10C6E000C4B2FA2C03DDFFF7D3FF012010BDFFF722
:10C6F0007CFF0028F3D1FFF75AFF0020F6E710B5C2
:10C700000020FFF754FFFFF73CFF0020FFF75EFF1C
:10C71000022001F099FA0120FFF749FF022001F001
:10C7200093FA0020FFF743FF10BD10B50020FFF77C
:10C730003EFFFFF726FF0120FFF748FF022001F030
:10C7400083FA0120FFF733FF022001F07DFA002079
:10C75000FFF72DFF10BD70B50446FFF712FF002054
:10C76000FFF725FF002515E0E009FFF72FFF600622
:10C77000040E022001F068FA0120FFF718FF0220E2
:10C7800001F062FA0020FFF712FF022001F05CFACC
:10C79000681CC5B2082DE7DB70BD70B505460024E6
:10C7A000FFF7DCFE002614E00020FFF700FF022068
:10C7B00001F04AFA0120FFF7FAFE6006040EFFF7C7
:10C7C00014FF08B1601CC4B2012001F03DFA701CD6
:10C7D000C6B2082EE8DB15B9FFF7A7FF01E0FFF7A7
:10C7E0008EFF204670BD0000405B000808B57C4805
:10C7F000C06BD0B17A49C86B0121FFF701FE7848C0
:10C80000B0F84400ADF8000010208DF803000320BC
:10C810008DF802007249086C6946FEF703FA704A07
:10C82000B2F84410106CFEF7AAFA08BD10B5044621
:10C830006B48C06B68B134B1694AB2F84410106CEF
:10C84000FEF79DFA05E0664AB2F84410106CFEF758
:10C8500098FA10BD10B5FFF7D1FEFFF7C7FF10BD66
:10C8600070B504460026FFF7FDFE2546E11704EBF0
:10C8700011610912A02202EB4101C8B2FFF76BFF60
:10C88000FFF71CFFE11704EB11610912A4EB012172
:10C89000C8B2FFF760FFFFF711FFFFF7E3FEA1202B
:10C8A000FFF759FFFFF70AFF0020FFF776FF064664
:10C8B000FFF7EEFE304670BD70B504460E46002010
:10C8C000FFF7B4FFFFF7CEFE2546E11704EB116139
:10C8D0000912A02202EB4101C8B2FFF73CFFFFF7AB
:10C8E000EDFEE11704EB11610912A4EB0121C8B2BE
:10C8F000FFF731FFFFF7E2FE3046FFF72CFFFFF7AF
:10C90000DDFEFFF7C5FE0120FFF790FF052001F0D7
:10C91000B7F970BD2DE9F04105460E4617460024D3
:10C9200009E0E20026FA02F2D1B22A1990B2FFF72A
:10C93000C3FF601CC4B2BC42F3DBBDE8F0812DE94B
:10C94000F04107460C460026002509E03602391959
:10C95000491B491E88B2FFF783FF0644681CC5B215
:10C96000A542F3DB3046BDE8F08110B5FF20FFF7AC
:10C9700077FF0446552C01D1002010BD5521FF2022
:10C98000FFF79AFFFF20FFF76BFF0446552C01D1FC
:10C990000020F2E70120F0E770B506460C46154688
:10C9A00008E03046721C96B2FFF75AFF04F8010BFC
:10C9B000681E85B2002DF4D170BD70B505460C46D9
:10C9C000164606E021782846FFF776FF681C85B2F8
:10C9D000641C3000A6F101018EB2F3D170BD0000DD
:10C9E000405B00088C488D4948608D48486070471E
:10C9F0008A48006940F0800088490861704787488C
:10CA0000C16801F0010008B10120704701F0040085
:10CA100008B10220F9E701F0100008B10320F4E7A3
:10CA20000020F2E770B5044600BFFFF7E8FF0546B7
:10CA3000012D00D006E0012001F006F9601E84B24D
:10CA4000002CF2D100BF04B9FF25284670BD70B597
:10CA50000446002545F6FF70FFF7E4FF0546DDB903
:10CA60007048844218D26D48006940F002006B495A
:10CA7000086108464461006940F04000086145F6DD
:10CA8000FF70FFF7CFFF0546012D05D06348006911
:10CA900020F0020061490861284670BD70B5054666
:10CAA0000E46FF20FFF7BEFF044694B95B480069BD
:10CAB00040F00100594908612E80FF20FFF7B2FFC6
:10CAC0000446012C05D05548006920F00100534967
:10CAD0000861204670BD0146088870472DE9F04185
:10CAE00005460E461746002407E036F8141028467F
:10CAF000FFF7D4FFAD1C601C84B2BC42F5DBBDE87F
:10CB0000F08130B503460C461546002207E0184672
:10CB1000FFF7E1FF24F812009B1C501C82B2AA42CE
:10CB2000F5DB30BD2DE9F05F80468A461746B8F147
:10CB3000006F03D33B48401C804501D3BDE8F09F04
:10CB4000FFF750FFA8F1006B4FEADB25CBF3490953
:10CB5000C9F58064A74200DC3C464EE04FF000611E
:10CB600001EBC5204A143049FFF7CBFF00260BE04C
:10CB700009EB06002C4931F810004FF6FF7188428E
:10CB800000D003E0701C86B2A642F1DB00BFA642D3
:10CB90001BDA4FF0006101EBC520FFF758FF0026BC
:10CBA00008E03AF8160006EB09011F4A22F81100C6
:10CBB000701C86B2A642F4DB4FF0006101EBC52089
:10CBC0004A141949FFF78AFF04E0224651464046BD
:10CBD000FFF784FFA74200D110E06D1C4FF0000961
:10CBE0000AEB440A08EB4408381B87B2B7F5806F9C
:10CBF00002DD4FF4806400E03C46AFE700BFFFF782
:10CC0000F7FE00BF9AE713B50446012201A92046AA
:10CC1000FFF788FF1CBD000023016745002002408C
:10CC2000AB89EFCDFFFF0708C00A002010B5012136
:10CC30003648FFF75BF810BD7FB505460C4601216D
:10CC40000220FFF7EAFBADF80850ADF804400020E1
:10CC5000ADF80A00ADF8060001A92C48FEF724FA49
:10CC60001D208DF8000000208DF801008DF80200D5
:10CC700001208DF803006846FDF70BFF01221146E5
:10CC80002248FEF788FD00212048FEF769FD7FBDA0
:10CC900010B501211E48FFF720F8012804D11D48D6
:10CCA0000068401C1B49086001211948FFF71EF865
:10CCB00010BD7FB505460C4601211020FFF7ADFBE6
:10CCC000ADF80850ADF804400020ADF80A00ADF80A
:10CCD000060001A90E48FEF7E7F936208DF800009E
:10CCE00001208DF8010003208DF8020001208DF84D
:10CCF00003006846FDF7CDFE012211460448FEF709
:10CD00004AFD01210248FEF72BFD7FBD00040040D3
:10CD10000010004038000020F0B503460D461646CE
:10CD2000002729460A2E03D0002008702846F0BDAF
:10CD300033B9302001F8010B002008702846F6E7CF
:10CD4000002B03DA2D2001F8010B5B4242F2107236
:10CD50000DE093FBF2F404B937B104F1300001F8AF
:10CD6000010B04FB123301270A2092FBF0F2002A88
:10CD7000EFDC002008702846D9E70FB470B586B004
:10CD800006460CA8019073E00B9800785C281CD133
:10CD90000B98401C0B9000786E2809D072280FD198
:10CDA0000D213046FFF7F6F80B98401C0B900BE076
:10CDB0000A213046FFF7EEF80B98401C0B9003E079
:10CDC0000B98401C0B9000BF4BE00B980078252877
:10CDD00040D10B98401C0B900078642818D0732821
:10CDE00033D1019810C801900BE021783046FFF74D
:10CDF000D1F800BF80213046FFF73AF90028F9D07A
:10CE0000641C20780028F0D10B98401C0B9020E087
:10CE1000019820C801900A2202A92846FFF77CFF4A
:10CE200002AC0BE021783046FFF7B4F800BF802158
:10CE30003046FFF71DF90028F9D0641C207800283F
:10CE4000F0D10B98401C0B9003E00B98401C0B900A
:10CE500000BF06E00B9810F8011B0B903046FFF75F
:10CE600099F800BF80213046FFF702F90028F9D079
:10CE70000B980078002887D106B070BC5DF814FBD1
:10CE800008B54FF4A060FDF7FFFD34208DF80000D9
:10CE900000208DF801008DF8020001208DF80300BC
:10CEA0006846FDF7F6FD08BD00B585B00121C80450
:10CEB000FFF7B3FA01211020FFF7A2FA4FF48060C8
:10CEC000ADF8100018208DF8130003208DF8120023
:10CED00004A9F848FDF7A6FE4FF40060ADF8100075
:10CEE00004208DF8130004A9F248FDF79BFE4FF4CF
:10CEF000E13000900020ADF80400ADF80600ADF878
:10CF00000800ADF80C000C20ADF80A006946EA48AC
:10CF1000FEF747FF012240F22551E748FEF7D9FF0F
:10CF2000012240F22441E448FEF7D3FFFFF7A8FFB7
:10CF30000121E148FEF7C1FF05B000BD08B5102092
:10CF40008DF8030003208DF8020001210820FFF76F
:10CF500057FA4FF48050ADF800006946D748FDF706
:10CF600061FE08BD10B5FFF7E9FFFFF79DFF4FF425
:10CF70008051D248FDF703FF10BD10B54FF480512A
:10CF8000CE48FDF7FEFE4FF4FA7000F079FE4FF444
:10CF90008051CA48FDF7F3FE10BD2DE9F047074662
:10CFA0000C4615469846DDF82090C548B0F80004B8
:10CFB0006FF30E00C249A1F8000400260CE0B95D31
:10CFC000BD48FEF7E7FF00BF8021BB48FFF750F8E0
:10CFD0000028F9D0701C86B24645F0DBB848B0F89E
:10CFE00000046FF30E00B649A1F80004084690F85B
:10CFF000010420F08001B24880F8011404E00A2006
:10D0000000F03EFEFDF765FFAD4890F80104C00951
:10D010000028F4D00020AA49B1F80014C1F30E0191
:10D02000A74A5054BCB1B5B12146104602F07EFA71
:10D0300008B1012000E0002040B92946A04802F0D4
:10D0400075FA08B1012000E0002010B10120BDE810
:10D05000F0870020FBE744B12146994802F066FAC8
:10D0600008B10120F3E70020F1E72946944802F0D7
:10D070005DFA08B10120EAE70020E8E72DE9F04178
:10D0800006460C4615469846002732468DA18A482A
:10D09000FFF773FE1CB915B90120BDE8F08188487F
:10D0A000B0F800046FF30E008549A1F800040846AB
:10D0B00090F8010420F08001814880F801140AE012
:10D0C000322000F0DDFD781CC7B2052F01DD002005
:10D0D000E3E7FDF7FEFE7A4890F80104C009002856
:10D0E000EED000207649B1F80014C1F30E01744A65
:10D0F0005054B4B1ADB12146104602F017FA08B150
:10D10000012000E0002040B929466D4802F00EFAE7
:10D1100008B1012000E0002008B10120BDE7002097
:10D12000BBE744B12146664802F000FA08B101208D
:10D13000B3E70020B1E72946614802F0F7F908B1EA
:10D140000120AAE70020A8E710B500244FF4805181
:10D150005A48FDF714FE4FF47A7000F091FD0BE091
:10D160004FF4FA73002259A159A0FFF787FF08B1C5
:10D17000022010BD601CC4B2052CF1DB01D10020DF
:10D18000F7E70120F5E710B5044624B1012C0AD0D9
:10D19000022C18D10FE040F6C4134EA24BA150A0B0
:10D1A000FFF76CFF10BD40F6C4134AA247A14FA081
:10D1B000FFF764FFF6E740F6C41346A243A14EA072
:10D1C000FFF75CFFEEE70020ECE730B59FB00446C8
:10D1D0000D462B4622464BA101A802F0DBF841F296
:10D1E0008833002239A101A8FFF748FF1FB030BDE6
:10D1F00070B5A0B004460D4616462B46224646A101
:10D2000002A8009602F0C6F84FF47A7300222FA10C
:10D2100002A8FFF733FF20B070BD10B586B00446FA
:10D220000CB1012000E00020024641A101A802F05B
:10D23000B1F84FF4FA73002224A101A8FFF71EFFF2
:10D2400006B010BDF0B5B9B006460F4614461D46EF
:10D25000642120A802F0E3F916B1012E10D107E0F5
:10D260003B4637A237A120A8009402F093F808E0CB
:10D270003B4638A233A120A8009402F08BF800E0CE
:10D2800000BF00BF052D06DA20AB2A4632A102A856
:10D2900002F080F804E020AA34A102A802F07AF893
:10D2A0004FF47A6335A209A102A8FFF7E7FE39B06F
:10D2B000F0BD000000100140004C0040000C014097
:10D2C0000018002025730D0A000000004F4B0000DD
:10D2D000415400006E6F206368616E676500000056
:10D2E00041542B43574D4F44453D310041542B434E
:10D2F000574D4F44453D320041542B43574D4F4409
:10D30000453D330041542B43574A41503D2225733C
:10D31000222C22257322000041542B4357534150A5
:10D320003D222573222C222573222C312C256400CA
:10D3300041542B4349504D55583D25640000000091
:10D3400054435000222573222C222573222C25734E
:10D35000000000005544500041542B4349505354A1
:10D360004152543D25642C257300000041542B4349
:10D37000495053544152543D25730000414C52458D
:10D38000415920434F4E4E45435400002DE9F04192
:10D39000BAB004460D4616469846409F642121A81F
:10D3A00002F03DF92346AFF25402F9A121A88DE81D
:10D3B000600101F0EFFF052F07DA21AB3A46AFF22B
:10D3C000680103A801F0E6FF05E021AAAFF26401BD
:10D3D00003A801F0DFFF4FF47A63AFF26002AFF20F
:10D3E000141103A8FFF74AFE3AB0BDE8F08170B50A
:10D3F0009EB004460D4616467CB12B460122E9A19B
:10D40000684601F0C7FF4FF4FA730022AFF24411EF
:10D410006846FFF733FE1EB070BD2B460022E1A127
:10D42000684601F0B7FF4FF4FA730022AFF26411BF
:10D430006846FFF723FEEEE710B54FF4FA730022BB
:10D44000AFF27811DCA0FFF719FED8B1DEA1E148F8
:10D4500002F06CF808B1022010BDDFA1DD4802F037
:10D4600065F808B10320F7E7DEA1DA4802F05EF8BC
:10D4700008B10420F0E7DEA1D64802F057F808B161
:10D480000520E9E70020E7E710B500244FF4FA7320
:10D490000022AFF2C811C8A0FFF7F0FD002831D07C
:10D4A000D6A1CC4802F042F810B144F0010401E0EA
:10D4B00024F00104D5A1C74802F038F810B144F0B7
:10D4C000020401E024F00204D4A1C24802F02EF8C4
:10D4D00010B144F0040401E024F00404D3A1BD48D9
:10D4E00002F024F810B144F0080401E024F008042C
:10D4F000D2A1B84802F01AF810B144F0100401E0CB
:10D5000024F01004204610BD2DE9F84305464FF4E1
:10D51000FA730022AFF24C21CCA0FFF7AFFD00243C
:10D520000026CDA1AB4802F001F88046B8F1000F0B
:10D5300002D008F1070802E00020BDE8F8830027C8
:10D540003BE018F807002E2825D1012E03D19DF8C5
:10D55000000028551BE0022E09D19DF801009DF81E
:10D56000001001EB810100EB410028550FE0032E74
:10D570000DD19DF80000642148439DF8011001EB96
:10D58000810100EB41009DF8021008442855601C01
:10D59000C4B200260FE0032C04D118F8070022289B
:10D5A00000D10CE018F807003038C2B23046711CC8
:10D5B000CEB20DF80020781CC7B2282FC1DB00BF07
:10D5C000012E03D19DF8000028551BE0022E09D141
:10D5D0009DF801009DF8001001EB810100EB410076
:10D5E00028550FE0032E0DD19DF80000642148431B
:10D5F0009DF8011001EB810100EB41009DF8021044
:10D6000008442855012098E710B54FF4FA7300221A
:10D61000AFF2483192A0FFF731FD08B9002010BDEC
:10D620004FF4FA7392A2AFF25C3192A0FFF726FD9D
:10D63000F5E710B54FF47A7000F022FB90A1914805
:10D64000FFF79BFB4FF4FA7000F01AFB10BD2DE9B9
:10D65000F043B3B007460C4615461E464FF000098E
:10D66000C8463FB1224653A18648FFF786FB4FF0DC
:10D67000010825E0052E06DA2B46324682A101A8D4
:10D6800001F088FE04E02A4684A101A801F082FE90
:10D6900001AAAFF2D0317B48FFF76FFB032000F007
:10D6A000EFFA6420ABB2002280A100902046FFF781
:10D6B00074FC18B1012033B0BDE8F0830020FAE714
:10D6C0004046F8E770B50446002500204149B1F80E
:10D6D0000014C1F30E013F4A50540CB1154605E049
:10D6E00074A13C4801F022FF00B13A4D284670BDBC
:10D6F0002DE9F04180460E4600276EA1404601F01C
:10D7000015FF0446A0792C283ED1207A3A2816D15C
:10D71000E079302813DBE079392810DCE079303803
:10D7200087B2002506E004F10900405D06F8010B10
:10D73000681C85B2BD42F6DB3846BDE8F081607AF0
:10D740003A2822D1E079302820DBE07939281DDC25
:10D75000207A30281ADB207A392817DC207A3038F2
:10D76000E179303901EB810100EB410087B20025FE
:10D7700006E004F10A00405D06F8010B681C85B262
:10D78000BD42F6DB3846D8E7CAE097E0C6E00000C5
:10D79000222573222C222573222C25642C25642C0F
:10D7A0002564000041542B4349505345525645527D
:10D7B0003D25642C2573000041542B43495053549C
:10D7C00041545553000000005354415455533A32CC
:10D7D0000D0A0000001800205354415455533A33A9
:10D7E0000D0A00005354415455533A340D0A0000B9
:10D7F0005354415455533A350D0A00002B434950B8
:10D800005354415455533A302C0000002B43495097
:10D810005354415455533A312C0000002B43495086
:10D820005354415455533A322C0000002B43495075
:10D830005354415455533A332C0000002B43495064
:10D840005354415455533A342C00000041542B4357
:10D85000494653520000000053544149502C2200C5
:10D8600041542B4349504D4F44453D310000000089
:10D870003E00000041542B43495053454E440000A4
:10D880002B2B2B00004C004041542B434950534557
:10D890004E443D25642C25640000000041542B4378
:10D8A000495053454E443D256400000053454E44C5
:10D8B000204F4B002B49504400000000A07A3A282A
:10D8C0002CD1E079302829DBE079392826DC207A50
:10D8D000302823DB207A392820DC607A30281DDBD1
:10D8E000607A39281ADCE079303864214843217A9B
:10D8F000303901EB810100EB4101607A3038084496
:10D9000087B2002506E004F10B00405D06F8010B2C
:10D91000681C85B2BD42F6DB38460EE700200CE7F6
:10D9200000200AE770470B120370417000238370D8
:10D93000C3701312037142717047000000203F4909
:10D94000087052203E490968087065203C49096802
:10D95000487063203A490968887065203849096829
:10D96000C870692036490968087176203449096809
:10D970004871652032490968887144203049096836
:10D98000C87148202E490968087243202C4909684B
:10D99000487250202A49096888722A480078284924
:10D9A0000968C872274841782548006801732548EE
:10D9B00081782348006841732248C1782048006874
:10D9C000817350201E490968C87349211C480068AA
:10D9D000017444211A4800684174362118480068CF
:10D9E0008174322116480068C1740021144800680F
:10D9F0000175134800684175114800688175104829
:10DA00000068C1750E48006801760D4800684176CF
:10DA10000B4800688176352009490968C8763621A7
:10DA200007480068017720210548006841770448CD
:10DA30000068817770477047704700004D000020F4
:10DA40005000002006000020014600BF704770B55E
:10DA500004460D4600BF40216948FEF709FB002837
:10DA6000F9D0A1B26648FEF795FA204670BD10B510
:10DA700086B0044601218803FEF7C2FC6048FEF729
:10DA80004DF9604908680121FEF7BAFC5D4800893C
:10DA9000ADF8140003208DF8160018208DF817003B
:10DAA0005849486805A9FDF7BDF85649C8680121DD
:10DAB000FEF7A6FC5348808AADF8140048208DF884
:10DAC00017005049086905A9FDF7ACF825208DF825
:10DAD000000001208DF8010003208DF802000120D4
