:020000040800F2
:1080000040200020998100084B8100084D81000824
:108010004F810008518100085381000800000000D2
:108020000000000000000000000000005581000872
:108030005781000800000000598100085B8100089A
:10804000B3810008B3810008B3810008B381000840
:10805000B3810008B3810008B3810008B381000830
:10806000B3810008B3810008B3810008B381000820
:10807000B3810008B3810008B3810008B381000810
:10808000B3810008B3810008B3810008B381000800
:10809000B3810008B3810008B3810008B3810008F0
:1080A000B3810008B3810008B3810008B3810008E0
:1080B000B38100086D960008B3810008B381000801
:1080C000B3810008B3810008B3810008B3810008C0
:1080D000B3810008B3810008B3810008B3810008B0
:1080E000B3810008B3810008B3810008B3810008A0
:1080F000B3810008B3810008B3810008B381000890
:10810000B3810008B3810008B3810008B38100087F
:10811000B3810008B3810008E7960008B381000826
:10812000B3810008B3810008B3810008B38100085F
:10813000DFF80CD001F0DCFE004800473583000872
:108140004020002080F3088870477047FEE7FEE774
:10815000FEE7FEE770477047704770470D490860BB
:1081600070470C49486070470A4988607047094960
:108170004AF6AA200860704706494CF6CC400860D1
:10818000704701460020034AD2680A4200D001200D
:10819000704700000030004006488047064800470E
:1081A000FEE7FEE7FEE7FEE7FEE7FEE7FEE7FEE7A7
:1081B000FEE7FEE7158500083181000830B50B4663
:1081C000014600202022012409E021FA02F59D4207
:1081D00005D303FA02F5491B04FA02F52844151EDB
:1081E000A2F10102F1DC30BD02E008C8121F08C193
:1081F000002AFAD17047704700000000000000001C
:1082000054656D636F434F32414C4C0000000005D4
:108210000100000010B545F25550FFF79FFF042004
:10822000FFF79FFF4FF47A60FFF79EFFFFF7A4FF71
:10823000BDE81040FFF79BBFFFF799BF2DE9F04164
:10824000614C5F4D5F4E2278AF15002823D0052A80
:1082500003D13946284600F0F7FA2078062803D1E2
:108260003946284600F0F0FA2078072803D139462D
:10827000304600F0E9FA2078082803D13946304624
:1082800000F0E2FA2078092829D139462846BDE8CD
:10829000F04100F0D9BA052A03D13946284600F04A
:1082A000D5FA2078062803D13946284600F0CEFAC0
:1082B0002078072803D13946304600F0C7FA2078E5
:1082C000082803D13946304600F0C0FA2078092842
:1082D00005D139462846BDE8F04100F0B5BABDE801
:1082E000F0812DE9F04100244FF00066374F4FF444
:1082F000006801F0CDF806EBC420054601F0F5F862
:1083000001F0CCF807EBC4212846424601F0A0FD5D
:10831000641CE4B2102CECD3E1E7012080F3138855
:108320002B4801682B4A01F4E06111430160BFF35F
:10833000408FFEE72849080300F087F94FF4E13049
:1083400001F09CFC482001F01BFC01F051FAFFF702
:1083500061FF0E2001F06CFB1B4C20700F2001F020
:1083600067FB60702178052903D101461BA001F04D
:10837000D1FD2078062803D161781DA001F0CAFD47
:108380002078072803D161781EA001F0C3FD207872
:10839000082803D1617820A001F0BCFD20780928CD
:1083A00003D1617821A001F0B5FD25A001F0B2FD57
:1083B000FFF797FF28A001F0ADFDFFF7AEFF00002B
:1083C000000801400014014000000020E0A0000867
:1083D0000CED00E00400FA05008000084242207520
:1083E00070646174653A202564200D0A0000000065
:1083F0004C42207570646174653A202564200D0A32
:10840000000000005442207570646174653A2025B4
:1084100064200D0A000000004E42207570646174F3
:10842000653A202564200D0A0000000054313020F8
:108430007570646174653A202564200D0A0000009F
:108440000D0A20312E20636F707920626F6F7421C6
:1084500021212121200D0A000D0A20322E207265D3
:10846000626F6F742021200D0A0000000CB50022FD
:10847000019200925248016841F4803101604FF44A
:10848000A063016801F4003100910199491C019138
:10849000009911B901999942F3D10168890302D574
:1084A0000121009100E000920099012930D1454955
:1084B0000A6842F010020A600A6822F003020A60A9
:1084C0000A6842F002020A60416841604168416006
:1084D000416841F480614160416821F47C11416050
:1084E000416841F4E8114160016841F08071016028
:1084F00001688901FCD5416821F0030141604168B0
:1085000041F0020141604168C1F381010229FAD1C1
:108510000CBDABE710B52A48016841F001010160CC
:108520004168294A114041600168284A11400160B0
:10853000016821F480210160416821F4FE0141605D
:108540004FF41F018160FFF7E4FF21494FF0006005
:10855000086010BD10B51A4A506800F00C011D4BA0
:108560001D4800290ED004290ED008290ED0036022
:108570005168194AC1F30311121D515C0268CA40C7
:10858000026010BD0360F3E70360F1E7516801F496
:108590007011536803F48033022404EB914133B12A
:1085A00053689B0307D50D4B59430160E0E70B4B24
:1085B00059430160DCE7074B59430160D8E70000ED
:1085C00000100240002002400000FFF8FFFFF6FE0E
:1085D00008ED00E000127A000400002000093D00D0
:1085E0002A4908432A490860704770B50F23C278AA
:1085F00001260178002A1ED0254A126802F4E062A2
:10860000C2F5E062120AC2F10404D3404578A540E5
:1086100082781A402A43120101F1E02181F80024F6
:10862000007800F01F018E404009800000F1E0203A
:10863000C0F8006170BD01F01F008640480980004D
:1086400000F1E020C0F8806170BD124A1140014382
:108650000F48001F016070470D4A121D002903D00A
:1086600011680143116070471168814311607047C0
:108670004FF0E021042804D0086920F004000861CC
:108680007047086940F00400086170470000FA056F
:108690000CED00E080FFFF1F10B59C49884209D116
:1086A0000121042000F0B3FE0021BDE810400420A9
:1086B00000F0ADBE9649884209D10121082000F0A2
:1086C000A6FE0021BDE81040082000F0A0BE9149A0
:1086D000884209D10121102000F099FE0021BDE857
:1086E0001040102000F093BE8B49884209D101212F
:1086F000202000F08CFE0021BDE81040202000F07A
:1087000086BE8649884209D10121402000F07FFEC3
:108710000021BDE81040402000F079BE8049884229
:1087200009D10121802000F072FE0021BDE8104037
:10873000802000F06CBE7B4988420AD1841501215B
:10874000204600F064FE2046BDE81040002100F005
:108750005EBE10BD10B50121084600F058FE002194
:10876000BDE81040012000F052BE2DE9F04100228A
:10877000CC7804F00F03E40601D58C7823430C7801
:108780004FF00F0714F0FF0F4FF0010C1CD00568DD
:108790000CFA02F40E882640A64211D1960007FA80
:1087A00006F825EA080503FA06F848EA0505CE7832
:1087B000282E02D0482E02D002E0446100E004617D
:1087C000521C082AE4D305600A88FF2A1ED945688E
:1087D000002202F108060CFA06F40E882640A64292
:1087E00010D1960007FA06F825EA080503FA06F8FC
:1087F00048EA0505CE78282E00D14461CE78482E6F
:1088000000D10461521C082AE3D34560BDE8F08121
:108810004FF6FF710180022181700421C170704701
:108820000246002092680A4200D00120704780680A
:1088300080B2704702460020D2680A4200D0012070
:108840007047C06880B270470161704741617047EE
:10885000002A01D00161704741617047C1607047D3
:1088600041F48032826181618261816980697047EF
:1088700010B52D4B1A684FF68074224042EA001062
:108880000843186010BD2949C8617047F0B5264CEF
:10889000002801DAE36900E06368C0F30346420D93
:1088A000120185B2C0F301579540032F07D0C202D1
:1088B0000CD50322B240934343F0706209E023F0E9
:1088C0007062636823F07063636002E0AB4343F05F
:1088D000706201B12A43002801DAE261F0BD6260F2
:1088E000F0BD10B58A07120F0F23934021F0030447
:1088F0000D4921448C689C438C608B6890400343F5
:108900008B6010BD0949DC310860704700080140E8
:10891000000C01400010014000140140001801400B
:10892000001C0140002001400000014000002042E6
:1089300030B50288F74CF84DA0420DD0A8420BD0BC
:10894000B0F1804F08D0F54B984205D0F44B9842D7
:1089500002D0F44B984203D122F070034A881A43A4
:10896000F14B984206D0F14B984203D022F4407369
:10897000CA881A4302808A8882850A880285A042B2
:108980000AD0A84208D0EA4A904205D0E94A90426B
:1089900002D0E94A904201D1097A018601218182FF
:1089A00030BD70B5028C22F480720284028C838800
:1089B000848B24F0700424F003040D88254322F4F2
:1089C00000720E894FF6FF7404EA062616434A88A1
:1089D00004EA02223243CF4EB04202D0CE4EB04221
:1089E00017D122F400664A8904EA0222324322F4B3
:1089F00080668A8804EA0222324323F4805323F4F7
:108A000000538E8904EA06161E43CB8904EA031339
:108A1000334383808583C9888187028470BD70B5A4
:108A2000028C22F480520284058C8288838B23F48A
:108A3000E04323F440760C884FF6FF7303EA0424E6
:108A4000344325F400550E8903EA06362E434D883B
:108A500003EA05353543AF4EB04202D0AE4EB042C8
:108A600005D122F480468A8903EA82123243828049
:108A70008483C988A0F84010058470BD4FF6FF714B
:108A8000818000210180C1804180017270470029EE
:108A900004D0018841F0010101807047018821F074
:108AA000010101807047002A03D082890A43828134
:108AB000704782898A43828170470185828270472C
:108AC000028822F070020A4302807047028922F075
:108AD00070020A430281704770B50589048B068CC9
:108AE00025F007050D434FF6FC410C4040F2011103
:108AF0000C4326F022064FF6FF7101EA03111143E1
:108B0000314305810483018470BD028B22F0700221
:108B10000A4302837047028B22F4E0424FF6FF7350
:108B200003EA0121114301837047828B22F0700216
:108B30000A4382837047828B22F4E0424FF6FF7330
:108B400003EA0121114381837047002904D0018881
:108B500041F0800101807047018821F0800101808F
:108B60007047002904D0818841F00401818070475A
:108B7000818821F0040181807047002904D0818818
:108B800041F0080181807047818821F008018180CF
:108B90007047002904D0818841F00101818070472D
:108BA000818821F0010181807047028B22F0080248
:108BB0000A4302837047028B22F400624FF6FF7370
:108BC00003EA0121114301837047828B22F00802DE
:108BD0000A4382837047828B22F400624FF6FF7350
:108BE00003EA0121114381837047028B22F00402C2
:108BF0000A4302837047028B22F480624FF6FF73B0
:108C000003EA0121114301837047828B22F00402A1
:108C10000A4382837047828B22F480624FF6FF738F
:108C200003EA0121114381837047028B22F0800205
:108C30000A4302837047028BC2F30E024FF6FF73A2
:108C400003EA0121114301837047828B22F08002E5
:108C50000A4382837047828BC2F30E024FF6FF7382
:108C600003EA0121114381837047028C22F0020242
:108C70000A4302847047028C22F008020A430284ED
:108C80007047028C22F020024FF6FF7303EA0111B5
:108C9000114301847047028C22F080024FF6FF736B
:108CA00003EA0111114301847047028C22F400721F
:108CB0004FF6FF7303EA0121114301847047028CD0
:108CC00022F400624FF6FF7303EA0121114301848D
:108CD0007047028C22F400524FF6FF7303EA013111
:108CE00011430184704710B501238B40048C9C43D1
:108CF0000484038C8A401343038410BD10B50423FD
:108D00008B40048C9C430484038C8A40134303846B
:108D100010BD0000002C0140003401400004004060
:108D200000080040000C004000100040001400400B
:108D300000400140004401400048014030B500F1CE
:108D4000180301248C40058CA5430584002911D00B
:108D500008290FD0091FC1F34E001844016821F4FF
:108D6000E041016001684FF6FF7303EA02221143FC
:108D7000016030BD03EB5100016821F0700101601A
:108D800001681143016030BD002904D0018841F021
:108D9000020101807047018821F0020101807047C3
:108DA000002904D0018841F0040101807047018846
:108DB00021F0040101807047002904D0818841F02E
:108DC000800181807047818821F080018180704717
:108DD000028822F00802028002880A43028070475B
:108DE000828822F07002828082880A4382807047E3
:108DF000028922F00702028102890A430281704738
:108E0000028922F08002028102890A4302817047AE
:108E100081847047818570478186704701877047DC
:108E200081877047A0F840107047028B22F00C0237
:108E30000283028B0A4302837047028B22F4406252
:108E40000283028B4FF6FF7303EA01210A43028378
:108E50007047828B22F00C028283828B0A438283CA
:108E60007047828B22F440628283828B4FF6FF73BD
:108E700003EA01210A4382837047028822F4407288
:108E8000028002880A4302807047808E7047008FFC
:108E90007047808F7047B0F840007047808C7047F3
:108EA000008D704702460020128A0A4200D001203D
:108EB0007047C9430182704702460020138A0B4065
:108EC00092890A40002B02D0002A00D0012070476E
:108ED000C94301827047000010B5E14988420AD1B8
:108EE00001218C03204600F092FA2046BDE8104094
:108EF000002100F08CBADB4988420AD101214C04E0
:108F0000204600F08FFA2046BDE81040002100F016
:108F100089BAD54988420AD101218C04204600F043
:108F200081FA2046BDE81040002100F07BBACF490D
:108F300088420AD10121CC04204600F073FA204671
:108F4000BDE81040002100F06DBAC94988420AD13D
:108F500001210C05204600F065FA2046BDE81040CE
:108F6000002100F05FBA10BD30B585B004460D4653
:108F7000208A4CF6FF710840E98801432182A089CC
:108F80004EF6F3110840A9882A8911436A890243E1
:108F90001143A181A08A4FF6FF410840A9890143EE
:108FA000A182684600F0C5F9AD48844201D103981A
:108FB00000E00298A189090408D500EBC00101EB8B
:108FC000001029684900B0FBF1F007E000EBC00198
:108FD00001EB001029688900B0FBF1F06422B0FBBE
:108FE000F2F109010B096FF018056B4300EB8300E8
:108FF000A3891D044FF0320307D503EBC000B0FB7B
:10900000F2F000F00700084306E003EB0010B0FBAD
:10901000F2F000F00F000843208105B030BD4FF49E
:109020001651016000218180C18001810C224281A2
:109030008181704710B5038A4FF2FF0213400A88FE
:109040004C8822438C88C9880C4322431A430282ED
:1090500010BD0021018041808180C18070470029BE
:1090600004D0818941F4005181817047818921F4C4
:1090700000518181704710B540F66A13C1F3421365
:1090800001F01F040121A140012B07D0022B07D0C2
:1090900014303AB102680A43026010BD0C30F8E7A0
:1090A0001030F6E702688A43026010BD002A03D040
:1090B000828A0A4382827047828A8A438282704708
:1090C000028A22F00F020282028A0A430282704759
:1090D000828922F40062828182890A4382817047F8
:1090E000002904D0818941F0020181817047818982
:1090F00021F0020181817047028A22F0200202825F
:10910000028A0A4302827047002904D0018A41F48E
:10911000804101827047018A21F4804101827047B9
:10912000C1F30801818070478088C0F30800704750
:10913000818941F0010181817047028BD2B20283A3
:10914000028B42EA012101837047028B02F47F42C5
:109150000283028B0A4302837047002904D0818A6C
:1091600041F0200181827047818A21F020018182B3
:109170007047002904D0818A41F010018182704734
:10918000818A21F0100181827047002904D0818AF0
:1091900041F0080181827047818A21F008018182B3
:1091A0007047002904D0818941F4004181817047D2
:1091B0008189C1F30E0181817047002904D0818A21
:1091C00041F4006181827047818A21F400618182CB
:1091D0007047828A22F004028282828A0A43828253
:1091E0007047002904D0818A41F0020181827047D2
:1091F000818A21F002018182704702460020128894
:109200000A4200D0012070478A05C9430180704797
:1092100070B5002440F66A12C1F3421301F01F0535
:10922000012606FA05F2012B0CD0022B0DD0838A01
:109230001340090A8E40008830400BB100B1012470
:10924000204670BD83891340F3E7038A1340F0E79B
:1092500040F66A120A0A01219140C9430180704711
:10926000003801400044004000480040004C0040ED
:10927000005000407E48016841F0010101604168F2
:109280007C4A1140416001687B4A114001600168DD
:1092900021F480210160416821F4FE0141604FF416
:1092A0001F018160704772490A6822F480320A60A7
:1092B0000A6822F480220A60B0F5803F07D0B0F53A
:1092C000802F03D1086840F4A02008607047086828
:1092D00040F4803008607047034600205909644A12
:1092E00001290AD002290AD0516A03F01F02012382
:1092F00093400B4200D0012070471168F5E7116AD6
:10930000F3E718B5002000904FF4A0643120FFF778
:10931000E3FF0099491C00910099A14201D0002867
:10932000F4D03120FFF7D8FF08B1012018BD00208C
:1093300018BD10B54E4A516801F00C014F4B002981
:1093400027D0042927D0082927D00360516801F0CD
:10935000F00109094A4B5C5C0168E14041605468D6
:1093600004F4E064240A1C5D21FA04F48460546867
:1093700004F46054E40A1B5DD940C160526802F4F1
:109380004042920B3E4B1B1F9A5CB1FBF2F1016114
:1093900010BD0360DAE70360D8E7516801F470118B
:1093A000536803F48033022404EB914133B15368D2
:1093B0009B0307D5334B59430160C7E7314B5943F2
:1093C0000160C3E72D4B59430160BFE7284A0029DC
:1093D00003D0516901435161704751698143516123
:1093E0007047234A002903D0916901439161704776
:1093F00091698143916170471D4A002903D0D16969
:109400000143D1617047D1698143D1617047184AE6
:10941000002903D0D1680143D1607047D1688143EE
:10942000D1607047124A002903D0116901431161CC
:109430007047116981431161704713490860704793
:109440001249C86470470A49C87170470848416AA0
:1094500041F080714162704701460020044A9268E1
:109460000A4200D00120704701498872704700000D
:10947000001002400000FFF8FFFFF6FE00127A0025
:109480001C00002000093D0040044242000042420E
:10949000734872494160734941607047704801697F
:1094A00041F08001016170476D48C068C10701D07B
:1094B00001207047410701D502207047C00601D541
:1094C000032070470020704770B50446FFF7ECFF9B
:1094D0000546012D05D100F066FB641EA4B2002CE8
:1094E000F4D104B9FF25284670BD70B5054645F690
:1094F000FF763046FFF7E8FF002812D1584C20696C
:1095000040F0020020616561206940F04000206168
:109510003046FFF7D9FF012803D0216921F002016D
:10952000216170BD70B506460D46FF20FFF7CCFFE8
:1095300000280ED14A4C206940F00100206135809E
:10954000FF20FFF7C1FF012803D0216921F00101AD
:10955000216170BD008870472DE9F04105460E4637
:109560001746002407E036F814102846FFF7DAFF04
:10957000AD1C641CA4B2BC42F5D3BDE8F08110B5AB
:109580000446002307E02046FFF7E4FF21F813001C
:10959000A41C5B1C9BB29342F5D310BD2DE9F05F78
:1095A00082460F461546AAF10062B2F5002F52D24C
:1095B000FFF76EFF4FEAD228C2F34906C6F5806472
:1095C000A54200D82C46DFF8A0B037E032183BF8AF
:1095D00012208A4203D1401C80B2A042F6D3A0429E
:1095E00014D24846FFF781FF002006E0821937F8C1
:1095F00010102BF81210401C80B2A042F6D348463F
:109600004FF480621849FFF7A7FF04E0224639466D
:109610005046FFF7A1FFA54202D1BDE8F05F3DE74C
:1096200008F10108002607EB44070AEB440A281B4F
:1096300085B24FF48064A54200D82C464FF00060FC
:1096400000EBC829421408494846FFF798FF00205C
:109650004FF6FF71C1E7BDE8F09F000023016745A9
:1096600000200240AB89EFCD4000002010B53D4CFA
:1096700001212046FFF716FC012807D100F0DAFA95
:109680002046BDE810400121FFF713BC10BD7FB597
:1096900004460D4601210220FFF7AEFEADF808405A
:1096A000ADF804500024ADF80A40ADF806402D4D49
:1096B00001A92846FFF73CF91D218DF800108DF80F
:1096C00001408DF8024001218DF803106846FEF735
:1096D0008CFF012211462846FFF7E5F901212846B3
:1096E000FFF7D5F97FBD10B51F4C01212046FFF7CC
:1096F000D9FB012803D11D480168491C016020469F
:10970000BDE810400121FFF7D4BB7FB504460D46EC
:1097100001211020FFF770FEADF80840ADF80450AD
:109720000020ADF80A00ADF806000F4C01A9204654
:10973000FFF7FEF836218DF8001001218DF8011099
:1097400003228DF802208DF803106846FEF74DFFC6
:10975000012211462046FFF7A6F901212046FFF716
:1097600096F97FBD00040040001000402C0000204E
:1097700038B5954C208FADF8000048208DF80300D7
:109780006946606BFEF7F1FF218F606BFFF75CF8B5
:1097900038BD38B58C4C208FADF8000010208DF806
:1097A000030003208DF802006946606BFEF7DDFFC1
:1097B000218F606BFFF748F838BD834A002803D03B
:1097C000918D906AFFF740B8918D906AFFF73EB88F
:1097D0007D4A002803D0118F506BFFF735B8118FE9
:1097E000506BFFF733B87848018F406BFFF718B81C
:1097F000F8B5754C0121606AFFF7F3FDA08DADF857
:10980000000010258DF8035003268DF8026069468C
:10981000A06AFEF7AAFFA18DA06AFFF715F8012143
:10982000206BFFF7DEFD208FADF800008DF80350B0
:109830008DF802606946606BFEF797FF218F606BC1
:10984000FFF702F8F8BD10B5FFF7A3FF0120FFF7FF
:10985000BFFF0120FFF7B1FF042000F0A4F90020B2
:10986000FFF7B6FF042000F09EF9BDE8104000208D
:10987000A3E710B5FFF78DFF0020FFF79EFF002044
:10988000FFF7A6FF042000F08EF90120FFF795FFF7
:109890000120FFF79DFFBDE81040042000F083B9D0
:1098A00010B500240120FFF793FFFFF761FF0120AF
:1098B00000F079F90120FFF780FF012000F073F933
:1098C00007E0641CE4B2FA2C03D9FFF7D2FF0120B1
:1098D00010BDFFF788FF0028F3D1FFF76EFF0020CF
:1098E00010BD10B50020FFF768FFFFF752FF002002
:1098F000FFF76EFF022000F056F90120FFF75DFF31
:10990000022000F050F9BDE81040002055E710B5E6
:109910000020FFF752FFFFF73CFF0120FFF758FF41
:10992000022000F040F90120FFF747FF022000F07D
:109930003AF9BDE8104000203FE770B50546FFF753
:1099400028FF0020FFF739FF0024E809FFF740FF58
:109950006806050E022000F026F90120FFF72DFF12
:10996000022000F020F90020FFF727FF022000F07E
:109970001AF9641CE4B2082CE7D370BD70B5064632
:109980000024FFF7F5FE00250020FFF716FF022058
:1099900000F009F90120FFF710FF6006040EFFF741
:1099A00022FF08B1641CE4B2012000F0FCF86D1C39
:1099B000EDB2082DE8D31EB1FFF793FF204670BD2E
:1099C000FFF7A5FFFAE7000098A0000838B56B4C38
:1099D000E06B002815D054F83C0F0121FFF701FD82
:1099E0002089ADF8000010208DF8030003208DF8C9
:1099F000020069466068FEF7B8FE21896068FEF7DC
:109A000023FF38BD5D4AD16B00290AD020B1B2F8DE
:109A10004410106CFEF718BFB2F84410106CFEF73B
:109A200015BF704710B5FFF7E3FEBDE81040CDE766
:109A300010B50446FFF707FF200AA02101EB400004
:109A4000C0B2FFF77AFFFFF72BFFE0B2FFF775FF19
:109A5000FFF726FFFFF7F7FEA120FFF76EFFFFF7E6
:109A60001FFF0020FFF78AFF0446FFF702FF204692
:109A700010BD70B504460D460020FFF7C3FFFFF789
:109A8000E2FE200AA02101EB4000C0B2FFF755FF23
:109A9000FFF706FFE0B2FFF750FFFFF701FF284690
:109AA000FFF74BFFFFF7FCFEFFF7E3FE0120FFF798
:109AB000A9FFBDE87040052000F087B82DE9F0410E
:109AC00006460D461746002409E0E00025FA00F09E
:109AD000C1B2301980B2FFF7CCFF641CE4B2BC42C3
:109AE000F3D3BDE8F0812DE9F04102460E46002097
:109AF0000024971908E00502381B401E80B2FFF7CA
:109B000097FF2844641CE4B2B442F4D3E9E710B5EB
:109B1000FF20FFF78DFF55280AD05521FF20FFF7C2
:109B2000A8FFFF20FFF784FF552803D0012010BDB8
:109B3000002010BD002010BD70B504460E4615462D
:109B400008E02046641CA4B2FFF772FF06F8010B80
:109B50006D1EADB2002DF4D170BD70B506460D4638
:109B6000144606E029783046FFF783FF761CB6B22C
:109B70006D1C641EA4B2F5D270BD000098A0000850
:109B80004FF0E0210A6922F004020A611849C00876
:109B9000087000EB4002C2EBC0104FF6FF7202EA01
:109BA000C000488070471249097848434FF0E021CF
:109BB000486100238B61012008610869C20701D058
:109BC000C003FAD50B618B61704709494988484346
:109BD0004FF0E021486100238B6101200861086992
:109BE000C20701D0C003FAD50B618B61704700003A
:109BF0003000002013484FF47A710068B0FBF1F098
:109C00004FF0E021B0F1807F01D301200BE020F084
:109C10007F40401E48610C4AF0201070002088618F
:109C200007200861002000B1FEE7086940F001004C
:109C30000861704705480168491D01607047034885
:109C4000006870470400002023ED00E0340000208D
:109C5000704770B504460120FEF7F0FA764D4021BA
:109C60002846FFF7CAFA0028F9D0A1B22846FFF724
:109C700057FA0020FEF7E2FA204670BDF0B587B033
:109C8000074601218803FFF7ACFB6B4E3046FFF718
:109C900023F96A4C01212068FFF7A3FB2089ADF866
:109CA000180003258DF81A5018208DF81B0006A9FE
:109CB0006068FEF75AFD0121E068FFF792FBA08A79
:109CC000ADF8180048208DF81B0006A92069FEF7A2
:109CD0004CFD25208DF8040001208DF805008DF83D
:109CE00006508DF8070001A8FEF77FFC02970020C0
:109CF000ADF80C00ADF80E00ADF81000ADF8140092
:109D00000C20ADF8120002A93046FFF72DF9012210
:109D100040F225513046FFF7AEF901213046FFF7FA
:109D20009EF9474F10263878052803D0062801D021
:109D3000092812D10121A069FFF753FB208CADF84F
:109D400018008DF81B608DF81A5006A9E069FEF71F
:109D50000CFD218CE069FEF777FD3878072801D0EB
:109D6000082814D101212020FFF73BFB4FF4807419
:109D7000ADF818408DF81B608DF81A50314D06A9CA
:109D80002846FEF7F2FC21462846FEF75DFD07B0A7
:109D9000F0BD70B586B0054601211020FFF721FB0C
:109DA0000121C804FFF728FB274E3046FFF794F83F
:109DB0003015ADF8140003208DF8160018208DF82A
:109DC0001700224C05A92046FEF7CFFCE014ADF8A1
:109DD000140048208DF8170005A92046FEF7C5FCA1
:109DE00034208DF8000000248DF801408DF80240E9
:109DF00001208DF803006846FEF7F7FB0195ADF8EA
:109E000008407014ADF80A00ADF80C40ADF81040F1
:109E10000C20ADF80E0001A93046FFF7A5F801228D
:109E200040F225513046FFF726F901213046FFF771
:109E300016F906B070BD00000038014098A0000877
:109E40000000002000140140004C004000100140C0
:109E50002DE9F0470D46904600240746A0F100602A
:109E6000B0F5002F29D2FFF713FB00264FF48069CD
:109E7000DFF870A015E06878000215F8021B0844AE
:109E80002146641CA4B22AF811004A46944206D125
:109E9000002414493846FFF75FFB07F50067B61C3E
:109EA000B6B24645E7D324B122460E493846FFF7FD
:109EB00053FBBDE8F047FFF7F1BABDE8F08710B5F6
:109EC0000168094A1140B1F1005F09D14168074CAE
:109ED00021600068FEF736F92068BDE810400047B1
:109EE00010BD0000400800200000FE2F3C000020B4
:109EF000064C074D06E0E06840F0010394E80700D7
:109F000098471034AC42F6D3FEF716F9E02001086A
:109F1000002101080FB4054B10B503A9044A0298AB
:109F200000F010F810BC5DF814FB0000539C000812
:109F300038000020002001E001C1121F002AFBD1DF
:109F4000704700002DE9FF4F89B09B46044600256D
:109F500006E025280BD05A460B999047641C6D1CCF
:109F600020780028F5D10DB02846BDE8F08F0027F5
:109F7000B8460122474900E0074314F8013F203B5F
:109F800002FA03F00842F7D120782E2819D114F8EC
:109F9000010F47F004072A280ED06FF02F02207817
:109FA000A0F1300109290CD808EB880102EB41012E
:109FB00000EB0108641CF2E70A98641C50F8048B5B
:109FC0000A9020780028CED0642808D0692806D0CE
:109FD00075281ED05A460B9990476D1C58E00A9977
:109FE0004FF00A0901C90A91002802DA40422D21E6
:109FF00002E0390504D52B218DF82010012103E062
:10A00000F90704D02021F7E78A4608AE0DE00021C9
:10A01000FAE70A994FF00A0901C90A91F7E7494698
:10A02000FEF7CCF8303106F8011D0028F7D1ADEB72
:10A03000060000F12009780701D44FF00108C84557
:10A0400002DDA8EB090000E000208046002706E0C2
:10A0500008A85A46C05D0B9990476D1C7F1C574558
:10A06000F6DB04E030205A460B9990476D1CB8F19E
:10A070000001A8F10108F5DC05E016F8010B5A46CD
:10A080000B9990476D1CB9F10001A9F10109F4DCAD
:10A09000641C65E709280100040000000008014075
:10A0A000000200000400000000080140000400005D
:10A0B000040000000008014000010000040000004E
:10A0C00000080140080000000400000000080140F2
:10A0D000040000000000000000000000000000007C
:10A0E000786A002051210008390D00083B0D000856
:10A0F0003D0D00083F0D0008410D00080000000064
:10A10000000000000000000000000000430D0008F7
:10A11000450D000800000000470D0008490D00082B
:10A120006B2100086B2100086B2100086B210008DF
:10A130006B2100086B2100086B2100086B210008CF
:10A140006B2100086B2100086B2100086B210008BF
:10A150006B2100086B2100086B2100086B210008AF
:10A160006B2100086B2100086B2100086B2100089F
:10A170006B2100086B2100086B2100086B2100088F
:10A180006B2100086B2100086B2100086B2100087F
:10A190006B210008252E00086B2100086B210008A8
:10A1A0006B2100086B2100086B2100086B2100085F
:10A1B0006B210008293E00086B210008DB4D0008D8
:10A1C0006B2100086B2100086B2100086B2100083F
:10A1D0006B2100086B2100086B2100086B2100082F
:10A1E0006B2100086B2100086B2100086B2100081F
:10A1F0006B2100086B210008D12E00086B2100089C
:10A200006B2100086B2100086B2100086B210008FE
:10A2100000F002F800F047F80AA090E8000C824431
:10A220008344AAF10107DA4501D100F03CF8AFF20E
:10A23000090EBAE80F0013F0010F18BFFB1A43F024
:10A2400001031847A4710000C4710000103A24BF34
:10A2500078C878C1FAD8520724BF30C830C144BF8B
:10A2600004680C60704700000023002400250026CD
:10A27000103A28BF78C1FBD8520728BF30C148BF69
:10A280000B607047642906F01D86752906F01A8652
:10A29000732906F0F087002070471FB506F063FEB3
:10A2A0001FBD10B510BD07F033F81146FFF7F5FFDD
:10A2B00000F010FA07F051F803B4FFF7F2FF03BC07
:10A2C00003F058FC80F30888704700000B49D1F870
:10A2D00000C04A685CF8043B1068184442F8040B5C
:10A2E0008C4528BFA1F1DC0C8A4228BFA1F1DC0219
:10A2F000C1F800C04A6020F000407047104A0020BA
:10A3000010B545F2555000F0F3FF042000F0F3FFC4
:10A310004FF47A6000F0F2FF00F0F8FFBDE8104063
:10A3200000F0EFBF00F0EDBF70B500244FF40075F2
:10A33000FF21204602F09FF9641CA4B2AC42F7D37F
:10A34000BDE8704003F0C6BE2DE9FE4F0422FE4971
:10A35000002002F0F3F9DFF8F083022208F1040193
:10A36000042002F0EBF9062002F064F9A8F80600D8
:10A37000FF2802D1FE20A8F80600D22088F80800A5
:10A38000082002F057F988F8090044210F2002F054
:10A3900072F998F836100E2002F06DF9102002F0D4
:10A3A00049F9EA4C2070272002F044F9012755288A
:10A3B00003D1207808B9E6480770002401AE04F103
:10A3C000280002F037F93055641CE4B2062CF6D3AD
:10A3D0009DF804000025FF283FD19DF80500FF28C7
:10A3E0003BD19DF80600FF2837D19DF80700FF28D4
:10A3F00033D19DF80800FF282FD19DF80900FF28D0
:10A400002BD129468DF8045002208DF80500352007
:10A410008DF80600AF208DF807008DF808108DF834
:10A420000910282002F027F99DF80510292002F0D4
:10A4300022F99DF806102A2002F01DF99DF8071058
:10A440002B2002F018F99DF808102C2002F013F9C7
:10A450009DF809102D2002F00EF9002008EB0002F3
:10A46000315CD172401CC0B20628F7D3002404F13D
:10A470002F0002F0DFF83055641CE4B2042CF6D350
:10A480009DF8070000909DF806309DF805209DF886
:10A490000410B0A006F098FC9DF804004FF0C0092D
:10A4A0004FF0A80AFF2827D19DF80500FF2823D1E7
:10A4B0009DF80600FF281FD19DF80700FF281BD13B
:10A4C00049468DF804908DF805A08DF806500320BC
:10A4D0008DF807002F2002F0CEF89DF805103020EF
:10A4E00002F0C9F89DF80610312002F0C4F89DF87A
:10A4F0000710322002F0BFF8002008EB0002315CA8
:10A50000517482F82310401CC0B20428F5D32E20C9
:10A5100002F090F88DF8040028B139468DF80470E7
:10A520002E2002F0A8F89DF8040088F8150088F89D
:10A530002700002404F1330002F07CF83055641C3D
:10A54000E4B2042CF6D39DF80400FF2820D19DF836
:10A550000500FF281CD19DF80600FF2818D19DF8A2
:10A560000700FF2814D1FF218DF80750332002F097
:10A5700082F89DF80510342002F07DF89DF8061051
:10A58000352002F078F89DF80710362002F073F8B5
:10A59000002008EB0002315C917582F82810401C05
:10A5A000C0B20428F5D3002404F1370002F042F8C9
:10A5B0003055641CE4B2042CF6D39DF80400FF2847
:10A5C00027D19DF80500FF2823D19DF80600FF281C
:10A5D0001FD19DF80700FF281BD149468DF8049034
:10A5E0008DF805A08DF8065004208DF8070037205F
:10A5F00002F041F89DF80510382002F03CF89DF873
:10A600000610392002F037F89DF807103A2002F0C2
:10A6100032F8002008EB0002315C917682F82C10B1
:10A62000401CC0B20428F5D33B2002F003F88DF89B
:10A630000400FF2805D129468DF804503B2002F084
:10A640001AF89DF8040088F81E0088F830003C20B5
:10A6500001F0F0FF8DF804003D2001F0EBFF8DF8D4
:10A6600005009DF80410FF290AD1FF2808D14FF4F6
:10A67000FB70A8F820008DF80470F6208DF8050016
:10A680009DF805009DF8041040EA0120A8F820007C
:10A69000A8F8320088F8345088F83550BDE8FE8FAD
:10A6A00010B501210D2001F012FC274890F836006A
:10A6B000072809D0082807D00C2805D0BDE810408D
:10A6C00001212C4800F0C2BDBDE8104001212A48FC
:10A6D00000F0BCBDADF5836DDFF86CA000248AF8F6
:10A6E000364003F081FB482003F044FB01F09CFF5F
:10A6F000272001F09FFF552806D10021272001F0D7
:10A70000BAFF1E4804F051FC4FF4A06000F048FC72
:10A71000FFF7C6FFFFF7F4FD01F0AAFD152001F0D9
:10A7200089FF8AF80A00042800D828B904218AF889
:10A730000A10152001F09FFF03F05BFCFFF704FEF9
:10A74000FFF7DEFD024E1BE0EA140020650000204A
:10A7500000000020454550204950204144445245C6
:10A7600053533A25642C25642C25642C25640D0A4A
:10A7700000000000000430000002300000800008EB
:10A780007470B4804421FEA006F01EFB02F0FCFAB7
:10A7900002F088F84FF47A7003F011FB002504E012
:10A7A000FFF7C0FD322003F00AFB05F069FE20B17F
:10A7B00028466D1CEDB20A28F2D341F61F41322023
:10A7C00002F0CAFBF2480460F2480470F24F388885
:10A7D0006FF30E003880787820F080007870EF48B2
:10A7E00084700026EE48FA2101704FF4E13003F046
:10A7F0005FFA02F076FD02F0F2FD0546022D23D04D
:10A80000E8A006F0E1FA002002F01AFE642003F04E
:10A81000D6FAFFF787FD03F00CFBCDF80C04E54FEB
:10A820004FF00109FFF77EFD03F003FBCDF81004A4
:10A83000DDF80C14DDF8100443F6982B401A584547
:10A8400009D9387820B106E0DBA006F0BDFADAE7D6
:10A85000DD4804F0AAFBDFF8748398F801040006D1
:10A860000AD5022D08D098F8010420F0800088F85D
:10A870000104D7A006F0A8FAFCE003F0DAFACDF85C
:10A880001004FFF74FFDDFF814B39BF8010008B187
:10A89000012825D10A2003F092FADFF8408398F8C6
:10A8A0000000012813D103F0B5FB60B103F09FFB5A
:10A8B00003F0C8FACA49002003F019FCC849002077
:10A8C00003F032FF01E003F00FFB88F80040B449C9
:10A8D000087828B1401EC0B2087008B903F004FB24
:10A8E000DDF80C14DDF8100443F69828401A4045B2
:10A8F00004D9387810B9B44804F057FB03F099FA3A
:10A90000CDF81004A349087878B9B64A137863B132
:10A91000B549DDF810040968411A41F288308142D6
:10A9200035D3147005F0C4FE31E001280FD00228A1
:10A930001FD0DDF80C14DDF81004401A404501D397
:10A940003878B0B19BF80000012812D01FE0A7486A
:10A95000DDF810240368D21A424518D3DDF810241C
:10A960000068824201D90C7011E0A1A006F02CFA17
:10A970000DE003F05EFACDF80C0486482146047021
:10A980003970102001F077FE8F4804F00EFB9BF821
:10A99000010008B103286DD19BF80200304369D152
:10A9A000022D67D180469648CDF8140428220DF573
:10A9B0008160DDF8141402F002FF08B39AF83B003E
:10A9C00000909AF83A309AF839209AF838108DA009
:10A9D00006F0FAF99AF8380040B99AF8390028B91F
:10A9E0009AF83A0010B99AF83B0010B18BF802902F
:10A9F00010E041F2883003F0E2F98BF8024002E007
:10AA0000C82003F0DCF908F1010808F0FF08B8F1EC
:10AA1000050FCBD39BF8020000B901264FF4FA7B57
:10AA20005B4600227DA17EA002F087FC012002F09F
:10AA30003FFD00F066FC5B46002278A17CA002F09E
:10AA40007CFC42F2107B0BE000F05BFC0A2003F080
:10AA5000B6F908F1010808F0FF08B8F1030F09D2B0
:10AA600002235A46502176A0CDF8009002F068FDEE
:10AA70000028E9D0554890F8010400067FF5FDAEA6
:10AA8000022D6FD16902724806F020FBDFF80CB18D
:10AA9000ABF80640002002F067FFDFF83081014686
:10AAA000B8F80004C0F30E026A4806F0C2FAB8F81B
:10AAB00000046FF30E00A8F8000498F8010420F0D9
:10AAC000800088F801049BF8010008B1032849D1EF
:10AAD0006048C079303800F0FF085D495D4802F0F9
:10AAE00058FFABF80600E8B3B8F1010F3AD102A95C
:10AAF0000191DFF8A08098F8001011B1012931D13F
:10AB0000E5E00246524902A806F093FABBF80600B7
:10AB10002D2827D150A1019806F02EFA68B33E20C7
:10AB20003870012005F076FDDFF83CB101231F22CB
:10AB30000020DBF8001002F0DBFE9DF821009AF8FF
:10AB4000381088421AD19DF822009AF839108842AC
:10AB500014D19DF823009AF83A1088420ED19DF83E
:10AB6000240000E0C2E09AF83B10884206D11D495B
:10AB7000022008703D4880F8009096E078E00000E0
:10AB8000434F32207265763A2025750D0A00000089
:10AB90005C000020C7000020E80C0020000000201E
:10ABA000670000207769666920696E65786973744B
:10ABB000210D0A00650000207769666920657869C3
:10ABC0007374210D0A00000000800008E8080020CE
:10ABD0006572726F72200D0A00000000660000208E
:10ABE00026150020C6000020D0000020D400002040
:10ABF0002074696D65206572726F72200D0A000005
:10AC000022150020776966692049502025752E2578
:10AC1000752E25752E25750D0A0000004F4B00007E
:10AC200041542B4349504D4F44453D3000000000F6
:10AC300041542B434950434C4F53453D3500000090
:10AC40003235352E3235352E3235352E323535000A
:10AC5000E8040020E800002054656D636F636F6EA8
:10AC600074726F6C73000000CC000020C5000020DF
:10AC70005A480178F1B104709DF81500A8B19DF80B
:10AC8000160090B19DF8170078B19DF8180060B1DA
:10AC9000012005F0BFFC01231F220020DBF800107B
:10ACA00002F026FE142003F08AF84C4800780228AF
:10ACB00003D01BE080F80090DEE703F0BAF84849C3
:10ACC000086088F8009047A006F07EF80EE0024683
:10ACD0004A4902A806F0ADF902A9012005F02DFFAE
:10ACE0004748007810B1022088F80000012003F0E6
:10ACF00066F897E52DE9F0414248C17800290CD16A
:10AD00000121C1704FF4FA71083004F067F93D4831
:10AD100042F21071103004F061F905F006FC3A4D72
:10AD2000288018B34FF4006004F0C3F9374CA189B0
:10AD300088420BD1012004F019FB288800284BD051
:10AD400005F0E9FABDE8F04105F0F7BB40F6060072
:10AD500004F0AFF9A18988423ED105F090FA288825
:10AD6000002839D0BDE8F04105F0E7BB25480830A0
:10AD700004F046F900282FD02248083004F035F9B5
:10AD80000024288818B105F0C6FA05F0D6FB641C2B
:10AD9000E4B2282CF5D300241D4E1E4F06EB841080
:10ADA0003860052004F0E2FA288818B105F0B3FAFB
:10ADB00005F0C3FB641CE4B20A2CEFD31148103039
:10ADC00004F01EF9002807D00E48103004F00DF9E9
:10ADD000BDE8F04105F0D7B9BDE8F081C60000201C
:10ADE000D40000202048414E445348414B455F4425
:10ADF0004F4E452077696669200D0A00E80400205F
:10AE0000DC0000200000002088000020381F002007
:10AE1000CC350020A40000207047FEE7FEE7FEE7E7
:10AE2000FEE7704770477047704700000CB500227E
:10AE3000019200925248016841F4803101604FF460
:10AE4000A063016801F4003100910199491C01914E
:10AE5000009911B901999942F3D10168890302D58A
:10AE60000121009100E000920099012930D145496B
:10AE70000A6842F010020A600A6822F003020A60BF
:10AE80000A6842F002020A6041684160416841601C
:10AE9000416841F480614160416821F47C11416066
:10AEA000416841F4E8114160016841F0807101603E
:10AEB00001688901FCD5416821F0030141604168C6
:10AEC00041F0020141604168C1F381010229FAD1D8
:10AED0000CBDABE710B52A48016841F001010160E3
:10AEE0004168294A114041600168284A11400160C7
:10AEF000016821F480210160416821F4FE01416074
:10AF00004FF41F018160FFF7E4FF21494FF000601B
:10AF1000086010BD10B51A4A506800F00C011D4BB6
:10AF20001D4800290ED004290ED008290ED0036038
:10AF30005168194AC1F30311121D515C0268CA40DD
:10AF4000026010BD0360F3E70360F1E7516801F4AC
:10AF50007011536803F48033022404EB914133B140
:10AF600053689B0307D50D4B59430160E0E70B4B3A
:10AF700059430160DCE7074B59430160D8E7000003
:10AF800000100240002002400000FFF8FFFFF6FE24
:10AF900008ED00E000127A001800002000093D00D2
:10AFA0002A4908432A490860704770B50F23C278C0
:10AFB00001260178002A1ED0254A126802F4E062B8
:10AFC000C2F5E062120AC2F10404D3404578A540FC
:10AFD00082781A402A43120101F1E02181F800240D
:10AFE000007800F01F018E404009800000F1E02051
:10AFF000C0F8006170BD01F01F0086404809800064
:10B0000000F1E020C0F8806170BD124A1140014398
:10B010000F48001F016070470D4A121D002903D020
:10B0200011680143116070471168814311607047D6
:10B030004FF0E021042804D0086920F004000861E2
:10B040007047086940F00400086170470000FA0585
:10B050000CED00E080FFFF1F10B59C49884209D12C
:10B060000121042000F049FF0021BDE81040042028
:10B0700000F043BF9649884209D10121082000F021
:10B080003CFF0021BDE81040082000F036BF914988
:10B09000884209D10121102000F02FFF0021BDE8D6
:10B0A0001040102000F029BF8B49884209D10121AE
:10B0B000202000F022FF0021BDE81040202000F0F9
:10B0C0001CBF8649884209D10121402000F015FFAC
:10B0D0000021BDE81040402000F00FBF80498842A9
:10B0E00009D10121802000F008FF0021BDE81040B7
:10B0F000802000F002BF7B4988420AD184150121DB
:10B10000204600F0FAFE2046BDE81040002100F085
:10B11000F4BE10BD10B50121084600F0EEFE00217E
:10B12000BDE81040012000F0E8BE2DE9F04100220A
:10B13000CC7804F00F03E40601D58C7823430C7817
:10B140004FF00F0714F0FF0F4FF0010C1CD00568F3
:10B150000CFA02F40E882640A64211D1960007FA96
:10B1600006F825EA080503FA06F848EA0505CE7848
:10B17000282E02D0482E02D002E0446100E0046193
:10B18000521C082AE4D305600A88FF2A1ED94568A4
:10B19000002202F108060CFA06F40E882640A642A8
:10B1A00010D1960007FA06F825EA080503FA06F812
:10B1B00048EA0505CE78282E00D14461CE78482E85
:10B1C00000D10461521C082AE3D34560BDE8F08138
:10B1D0004FF6FF710180022181700421C170704718
:10B1E0000246002092680A4200D001207047806821
:10B1F00080B2704702460020D2680A4200D0012087
:10B200007047C06880B27047016170474161704704
:10B21000002A01D00161704741617047C1607047E9
:10B2200041F4803282618161826181698069704705
:10B2300010B52D4B1A684FF68074224042EA001078
:10B240000843186010BD2949C8617047F0B5264C05
:10B25000002801DAE36900E06368C0F30346420DA9
:10B26000120185B2C0F301579540032F07D0C202E7
:10B270000CD50322B240934343F0706209E023F0FF
:10B280007062636823F07063636002E0AB4343F075
:10B29000706201B12A43002801DAE261F0BD626008
:10B2A000F0BD10B58A07120F0F23934021F003045D
:10B2B0000D4921448C689C438C608B68904003430B
:10B2C0008B6010BD0949DC310860704700080140FF
:10B2D000000C014000100140001401400018014022
:10B2E000001C0140002001400000014000002042FD
:10B2F0000D49086070470C49486070470A498860EA
:10B30000704709494AF6AA200860704706494CF67A
:10B31000CC400860704701460020034AD2680A42C8
:10B3200000D00120704700000030004030B5028896
:10B33000F94CFA4DA0420DD0A8420BD0B0F1804F8D
:10B3400008D0F74B984205D0F64B984202D0F64B06
:10B35000984203D122F070034A881A43F34B984273
:10B3600006D0F34B984203D022F44073CA881A43A4
:10B3700002808A8882850A880285A0420AD0A84273
:10B3800008D0EC4A904205D0EB4A904202D0EB4AFA
:10B39000904201D1097A01860121818230BD30B508
:10B3A000028C22F001020284028C8388048B24F038
:10B3B000700424F003050C882C4322F002020D894E
:10B3C00015434A882A43D44DA8420BD0D34DA842F6
:10B3D00008D0D84DA84205D0D74DA84202D0D74DAD
:10B3E000A8420FD122F008054A892A4322F0040519
:10B3F0008A882A4323F4807323F400738D891D43C4
:10B40000CB892B4383800483C9888186028430BD25
:10B4100070B5028C22F010020284028C8388048BA7
:10B4200024F4E04424F440760D884FF6FF7404EAD7
:10B430000525354322F020020E8904EA061616433C
:10B440004A8804EA02123243B34EB04202D0B34EED
:10B45000B04217D122F080024E8904EA0616164344
:10B4600026F040068A8804EA0212324323F48063FD
:10B4700023F400638E8904EA86061E43CB8904EA1E
:10B480008303334383800583C9880187028470BDA9
:10B4900070B5028C22F480720284028C8388848BC3
:10B4A00024F0700424F003040D88254322F4007274
:10B4B0000E894FF6FF7404EA062616434A8804EA0A
:10B4C00002223243944EB04202D0944EB04217D181
:10B4D00022F400664A8904EA0222324322F480669A
:10B4E0008A8804EA0222324323F4805323F400536F
:10B4F0008E8904EA06161E43CB8904EA03133343FC
:10B5000083808583C9888187028470BD70B5028C71
:10B5100022F480520284058C8288838B23F4E043DA
:10B5200023F440760C884FF6FF7303EA0424344377
:10B5300025F400550E8903EA06362E434D8803EAAA
:10B5400005353543744EB04202D0744EB04205D139
:10B5500022F480468A8903EA8212324382808483FD
:10B56000C988A0F84010058470BD4FF6FF71818036
:10B5700000210180C180418001727047002904D000
:10B58000018841F0010101807047018821F001012B
:10B5900001807047002A03D082890A438281704764
:10B5A00082898A438281704701858282704702883E
:10B5B00022F070020A4302807047028922F0700272
:10B5C0000A430281704770B50589048B068C25F00B
:10B5D00007050D434FF6FC410C4040F201110C43AE
:10B5E00026F022064FF6FF7101EA031111433143A1
:10B5F00005810483018470BD028B22F070020A432E
:10B6000002837047028B22F4E0424FF6FF7303EA95
:10B610000121114301837047828B22F070020A439B
:10B6200082837047828B22F4E0424FF6FF7303EA75
:10B630000121114381837047002904D0018841F022
:10B64000800101807047018821F0800101807047EE
:10B65000002904D0818841F00401818070478188ED
:10B6600021F0040181807047002904D0818841F0D5
:10B67000080181807047818821F00801818070472E
:10B68000002904D0818841F00101818070478188C0
:10B6900021F0010181807047028B22F008020A43E9
:10B6A00002837047028B22F400624FF6FF7303EAB5
:10B6B0000121114301837047828B22F008020A4363
:10B6C00082837047828B22F400624FF6FF7303EA95
:10B6D0000121114381837047028B22F004020A4347
:10B6E00002837047028B22F480624FF6FF7303EAF5
:10B6F0000121114301837047828B22F004020A4327
:10B7000082837047828B22F480624FF6FF7303EAD4
:10B710000121114381837047002C01400034014016
:10B720000004004000080040000C004000100040F1
:10B730000014004000400140004401400048014026
:10B74000028B22F080020A430283E4E7028BC2F3F9
:10B750000E024FF6FF7303EA012111430183DAE77A
:10B76000828B22F080020A438283D4E7828BC2F369
:10B770000E024FF6FF7303EA012111438183CAE7EA
:10B78000028C22F002020A430284C4E7028C22F0F7
:10B7900008020A430284BEE7028C22F020024FF620
:10B7A000FF7303EA011111430184B4E7028C22F014
:10B7B00080024FF6FF7303EA011111430184AAE7E7
:10B7C000028C22F400724FF6FF7303EA0121114349
:10B7D0000184A0E7028C22F400624FF6FF7303EAB3
:10B7E00001211143018496E7028C22F400524FF6A6
:10B7F000FF7303EA0131114301848CE710B5012383
:10B800008B40048C9C430484038C8A401343038440
:10B8100010BD10B504238B40048C9C430484038C1E
:10B820008A401343038410BD30B500F1180301248E
:10B830008C40058CA5430584002911D008290FD020
:10B84000091FC1F34E001844016821F4E041016072
:10B8500001684FF6FF7303EA02221143016030BD15
:10B8600003EB5100016821F0700101600168114390
:10B87000016030BD002904D0018841F0020101803F
:10B8800049E7018821F00201018044E7002904D042
:10B89000018841F0040101803DE7018821F00401A5
:10B8A000018038E7002904D0818841F0800181803F
:10B8B00031E7818821F0800181802CE7028822F025
:10B8C0000802028002880A43028024E7828822F06C
:10B8D0007002828082880A4382801CE7028922F0FB
:10B8E0000702028102890A43028114E7028922F0D9
:10B8F0008002028102890A4302810CE781840AE7FF
:10B90000818508E7818606E7018704E7818702E7EA
:10B91000A0F84010FFE6028B22F00C020283028B9B
:10B920000A430283F7E6028B22F440620283028B11
:10B930004FF6FF7303EA01210A430283EBE6828B91
:10B9400022F00C028283828B0A438283E3E6828B9D
:10B9500022F440628283828B4FF6FF7303EA012157
:10B960000A438283D7E6028822F44072028002886A
:10B970000A430280CFE6808ECDE6008FCBE6808F33
:10B98000C9E6B0F84000C6E6808CC4E6008DC2E689
:10B9900002460020128A0A4200D00120BBE6C943B9
:10B9A0000182B8E602460020138A0B4092890A40C1
:10B9B000002B02D0002A00D00120ACE6C94301824E
:10B9C000A9E6000010B5E14988420AD101218C03A3
:10B9D000204600F092FA2046BDE81040002100F019
:10B9E0008CBADB4988420AD101214C04204600F080
:10B9F0008FFA2046BDE81040002100F089BAD549F1
:10BA000088420AD101218C04204600F081FA2046A8
:10BA1000BDE81040002100F07BBACF4988420AD12E
:10BA20000121CC04204600F073FA2046BDE8104006
:10BA3000002100F06DBAC94988420AD101210C05E4
:10BA4000204600F065FA2046BDE81040002100F0D5
:10BA50005FBA10BD30B585B004460D46208A4CF65D
:10BA6000FF710840E98801432182A0894EF6F31155
:10BA70000840A9882A8911436A8902431143A18198
:10BA8000A08A4FF6FF410840A9890143A182684678
:10BA900000F0C5F9AD48844201D1039800E0029856
:10BAA000A189090408D500EBC00101EB0010296849
:10BAB0004900B0FBF1F007E000EBC00101EB001022
:10BAC00029688900B0FBF1F06422B0FBF2F10901B2
:10BAD0000B096FF018056B4300EB8300A3891D046D
:10BAE0004FF0320307D503EBC000B0FBF2F000F0DB
:10BAF0000700084306E003EB0010B0FBF2F000F093
:10BB00000F000843208105B030BD4FF4165101608D
:10BB100000218180C18001810C2242818181704796
:10BB200010B5038A4FF2FF0213400A884C88224363
:10BB30008C88C9880C4322431A43028210BD00211D
:10BB4000018041808180C1807047002904D08189B3
:10BB500041F4005181817047818921F40051818134
:10BB6000704710B540F66A13C1F3421301F01F0489
:10BB70000121A140012B07D0022B07D014303AB18C
:10BB800002680A43026010BD0C30F8E71030F6E797
:10BB900002688A43026010BD002A03D0828A0A43E9
:10BBA00082827047828A8A4382827047028A22F0A8
:10BBB0000F020282028A0A4302827047828922F4BB
:10BBC0000062828182890A4382817047002904D001
:10BBD000818941F0020181817047818921F0020150
:10BBE00081817047028A22F020020282028A0A437F
:10BBF00002827047002904D0018A41F48041018209
:10BC00007047018A21F4804101827047C1F3080125
:10BC1000818070478088C0F308007047818941F0B7
:10BC2000010181817047028BD2B20283028B42EA0A
:10BC3000012101837047028B02F47F420283028B51
:10BC40000A4302837047002904D0818A41F0200111
:10BC500081827047818A21F020018182704700290A
:10BC600004D0818A41F0100181827047818A21F0DD
:10BC7000100181827047002904D0818A41F00801B7
:10BC800081827047818A21F00801818270470029F2
:10BC900004D0818941F40041818170478189C1F3D9
:10BCA0000E0181817047002904D0818A41F400612E
:10BCB00081827047818A21F4006181827047828A83
:10BCC00022F004028282828A0A438282704700291B
:10BCD00004D0818A41F0020181827047818A21F07B
:10BCE0000201818270470246002012880A4200D079
:10BCF000012070478A05C9430180704770B5002450
:10BD000040F66A12C1F3421301F01F05012606FA3C
:10BD100005F2012B0CD0022B0DD0838A1340090AA7
:10BD20008E40008830400BB100B10124204670BD28
:10BD300083891340F3E7038A1340F0E740F66A1261
:10BD40000A0A01219140C94301807047003801402F
:10BD50000044004000480040004C004000500040BB
:10BD60007E48016841F00101016041687C4A114050
:10BD7000416001687B4A11400160016821F4802123
:10BD80000160416821F4FE0141604FF41F018160B0
:10BD9000704772490A6822F480320A600A6822F405
:10BDA00080220A60B0F5803F07D0B0F5802F03D124
:10BDB000086840F4A02008607047086840F48030AC
:10BDC00008607047034600205909644A01290AD0D7
:10BDD00002290AD0516A03F01F02012393400B424B
:10BDE00000D0012070471168F5E7116AF3E718B534
:10BDF000002000904FF4A0643120FFF7E3FF00998A
:10BE0000491C00910099A14201D00028F4D03120B2
:10BE1000FFF7D8FF08B1012018BD002018BD10B5EC
:10BE20004E4A516801F00C014F4B002927D00429DC
:10BE300027D0082927D00360516801F0F0010909D3
:10BE40004A4B5C5C0168E1404160546804F4E06482
:10BE5000240A1C5D21FA04F48460546804F46054DC
:10BE6000E40A1B5DD940C160526802F44042920B63
:10BE70003E4B1B1F9A5CB1FBF2F1016110BD0360E8
:10BE8000DAE70360D8E7516801F47011536803F4EE
:10BE90008033022404EB914133B153689B0307D5EF
:10BEA000334B59430160C7E7314B59430160C3E746
:10BEB0002D4B59430160BFE7284A002903D051693F
:10BEC0000143516170475169814351617047234A71
:10BED000002903D0916901439161704791698143C1
:10BEE000916170471D4A002903D0D1690143D16196
:10BEF0007047D1698143D1617047184A002903D046
:10BF0000D1680143D1607047D1688143D1607047E7
:10BF1000124A002903D01169014311617047116968
:10BF20008143116170471349086070471249C86422
:10BF300070470A49C87170470848416A41F08071EA
:10BF40004162704701460020044A92680A4200D0CC
:10BF500001207047014988727047000000100240BC
:10BF60000000FFF8FFFFF6FE00127A00300000200C
:10BF700000093D00400442420000424210B5A94978
:10BF800088420AD1841401212046FFF7B6FF2046DB
:10BF9000BDE810400021FFF7B0BFA34988420AD195
:10BFA000041401212046FFF7B3FF2046BDE81040EE
:10BFB0000021FFF7ADBF9D4988420AD1C41301217A
:10BFC0002046FFF7A5FF2046BDE810400021FFF7FF
:10BFD0009FBF10BD30B5028802F441530A884C88D7
:10BFE000CD8822438C882C4322430C8922434C89E0
:10BFF00022438C892243CC8922431A430280828BBC
:10C0000022F400628283098A018230BDF0B585B0D6
:10C0100005460C46022000210126AA8B4FF2400360
:10C020001A40AA8302222A84AF8BA268022A21D056
:10C03000A08800B102266846FFF7F1FE0098E1886B
:10C04000B1F5007F2CD07101B0FBF1F000EB800066
:10C05000A1684000B0FBF1F0401D80B20A21B0FBA6
:10C06000F1F000F00101401AC0F34F004FF6FF72EB
:10C0700002EA0121821EFE2A01D302200021E28869
:10C08000084302432A8420886188A2890843A18842
:10C0900011430843384340F40060A88305B0F0BD65
:10C0A000000A00EB8000A1684000B0FBF1F0401DE9
:10C0B00080B2D3E70021018041808180C18001816D
:10C0C00041818181C1810721018270470021018066
:10C0D00041808180C1800222826081817047002975
:10C0E00004D0018841F0400101807047018821F0AF
:10C0F000400101807047002904D0818B41F48061A8
:10C1000081837047818B21F48061818370470909A5
:10C1100001238B4099B2002A03D082880A4382808F
:10C12000704782888A4382807047002A03D08288C1
:10C130000A438280704782888A4382807047818167
:10C14000704780897047A1F57E42FF3A04D001888C
:10C1500041F4807101807047018821F48071018071
:10C160007047002904D0818841F004018180704724
:10C17000818821F0040181807047028822F40062E6
:10C18000028002880A4302807047018841F480518E
:10C1900001807047002904D0018841F400510180DA
:10C1A0007047018821F4005101807047012901D0B6
:10C1B000008B7047808A7047008A7047B1F5804FC6
:10C1C00004D0018821F4804101807047018841F446
:10C1D0008041018070470246002012890A4200D047
:10C1E00001207047C9430181704730B502460020E5
:10C1F00001F00F03012505FA03F4A3B2090905FABA
:10C2000001F4A4B29188214012891A4202D0002977
:10C2100000D0012030BD01F00F0201219140C9433F
:10C22000018170470030014000380040003C004070
:10C230000948804709480047FEE7FEE7FEE7FEE7BA
:10C24000FEE7FEE7FEE7FEE7FEE7FEE704480549F6
:10C25000054A064B70470000F50D00083101000843
:10C26000784A0020786A0020785A0020785A002006
:10C2700038B501214020FFF72AFE4FF47C44ADF889
:10C28000004010208DF8030003208DF802002D4D92
:10C2900069462846FEF749FFBDF800102846FEF71C
:10C2A000B3FF21462846FEF7AFFF38BD26490020E0
:10C2B00008607047244901200860704722480168DF
:10C2C000C9430160704770B50446002C09D01F4D6A
:10C2D0006868201A052819D31D480078012803D062
:10C2E00010E0BDE87040E9E71A490888401C80B2B8
:10C2F00008804CF25031884204D917A004F064FD44
:10C3000001F0E8FE6C602878401C287028783C28F2
:10C3100011D006DC14280BD0282808D1BDE87040C5
:10C32000C8E750280AD0C82801D10020287070BD65
:10C33000BDE87040BAE7BDE87040B7E7BDE87040BF
:10C34000B8E7000000180140A80123424000002087
:10C35000C5000020C80000207265626F6F74206104
:10C3600066746572207368616B6520646F6E65200A
:10C370000D0A000038B5954C208FADF8000048201C
:10C380008DF803006946606BFEF7CFFE218F606B6E
:10C39000FEF73AFF38BD38B58C4C208FADF8000061
:10C3A00010208DF8030003208DF802006946606BB1
:10C3B000FEF7BBFE218F606BFEF726FF38BD834A78
:10C3C000002803D0918D906AFEF71EBF918D906A70
:10C3D000FEF71CBF7D4A002803D0118F506BFEF77B
:10C3E00013BF118F506BFEF711BF7848018F406B60
:10C3F000FEF7F6BEF8B5754C0121606AFFF767FDE0
:10C40000A08DADF8000010258DF8035003268DF89F
:10C4100002606946A06AFEF788FEA18DA06AFEF759
:10C42000F3FE0121206BFFF752FD208FADF80000D5
:10C430008DF803508DF802606946606BFEF775FE5B
:10C44000218F606BFEF7E0FEF8BD10B5FFF7A3FF8C
:10C450000120FFF7BFFF0120FFF7B1FF042001F02B
:10C460009CFC0020FFF7B6FF042001F096FCBDE81D
:10C4700010400020A3E710B5FFF78DFF0020FFF765
:10C480009EFF0020FFF7A6FF042001F086FC01209C
:10C49000FFF795FF0120FFF79DFFBDE81040042046
:10C4A00001F07BBC10B500240120FFF793FFFFF7DC
:10C4B00061FF012001F071FC0120FFF780FF0120E6
:10C4C00001F06BFC07E0641CE4B2FA2C03D9FFF71F
:10C4D000D2FF012010BDFFF788FF0028F3D1FFF73E
:10C4E0006EFF002010BD10B50020FFF768FFFFF7BA
:10C4F00052FF0020FFF76EFF022001F04EFC0120EA
:10C50000FFF75DFF022001F048FCBDE8104000206D
:10C5100055E710B50020FFF752FFFFF73CFF012061
:10C52000FFF758FF022001F038FC0120FFF747FF1A
:10C53000022001F032FCBDE8104000203FE770B55A
:10C540000546FFF728FF0020FFF739FF0024E80920
:10C55000FFF740FF6806050E022001F01EFC0120D7
:10C56000FFF72DFF022001F018FC0020FFF727FF46
:10C57000022001F012FC641CE4B2082CE7D370BD69
:10C5800070B506460024FFF7F5FE00250020FFF7F2
:10C5900016FF022001F001FC0120FFF710FF6006EA
:10C5A000040EFFF722FF08B1641CE4B2012001F081
:10C5B000F4FB6D1CEDB2082DE8D31EB1FFF793FF1D
:10C5C000204670BDFFF7A5FFFAE700009072000853
:10C5D00038B56B4CE06B002815D054F83C0F0121A6
:10C5E000FFF775FC2089ADF8000010208DF80300DE
:10C5F00003208DF8020069466068FEF796FD2189E8
:10C600006068FEF701FE38BD5D4AD16B00290AD093
:10C6100020B1B2F84410106CFEF7F6BDB2F8441029
:10C62000106CFEF7F3BD704710B5FFF7E3FEBDE8F1
:10C630001040CDE710B50446FFF707FF200AA02100
:10C6400001EB4000C0B2FFF77AFFFFF72BFFE0B22B
:10C65000FFF775FFFFF726FFFFF7F7FEA120FFF7B3
:10C660006EFFFFF71FFF0020FFF78AFF0446FFF76A
:10C6700002FF204610BD70B504460D460020FFF7AE
:10C68000C3FFFFF7E2FE200AA02101EB4000C0B289
:10C69000FFF755FFFFF706FFE0B2FFF750FFFFF788
:10C6A00001FF2846FFF74BFFFFF7FCFEFFF7E3FE15
:10C6B0000120FFF7A9FFBDE87040052001F07FBB16
:10C6C0002DE9F04106460D461746002409E0E0003A
:10C6D00025FA00F0C1B2301980B2FFF7CCFF641C1C
:10C6E000E4B2BC42F3D3BDE8F0812DE9F04102464B
:10C6F0000E4600200024971908E00502381B401E52
:10C7000080B2FFF797FF2844641CE4B2B442F4D32C
:10C71000E9E710B5FF20FFF78DFF55280AD0552116
:10C72000FF20FFF7A8FFFF20FFF784FF552803D065
:10C73000012010BD002010BD002010BD70B50446C2
:10C740000E46154608E02046641CA4B2FFF772FFAF
:10C7500006F8010B6D1EADB2002DF4D170BD70B5A1
:10C7600006460D46144606E029783046FFF783FF5B
:10C77000761CB6B26D1C641EA4B2F5D270BD00006A
:10C780009072000843484249416043494160704704
:10C790004048016941F08001016170473D48C0682F
:10C7A000C10701D001207047410701D50220704721
:10C7B000C00601D5032070470020704770B50446BD
:10C7C000FFF7ECFF0546012D05D101F0E6FA641EE6
:10C7D000A4B2002CF4D104B9FF25284670BD70B571
:10C7E000054645F6FF763046FFF7E8FF002812D1F0
:10C7F000284C206940F0020020616561206940F00A
:10C80000400020613046FFF7D9FF012803D021699D
:10C8100021F00201216170BD70B506460D46FF2072
:10C82000FFF7CCFF00280ED11A4C206940F0010020
:10C8300020613580FF20FFF7C1FF012803D0216967
:10C8400021F00101216170BD008870472DE9F041A0
:10C8500005460E461746002407E036F81410284611
:10C86000FFF7DAFFAD1C641CA4B2BC42F5D3BDE8EF
:10C87000F08110B50446002307E02046FFF7E4FFEF
:10C8800021F81300A41C5B1C9BB29342F5D310BD8E
:10C890002301674500200240AB89EFCD00F068BA64
:10C8A00000F04EBAF8B501210820FFF710FBC020B8
:10C8B000ADF8000010208DF8030003248DF802402D
:10C8C000FE4D69462846FEF730FCA915ADF800106C
:10C8D00048218DF803108DF8024069462846FEF77E
:10C8E00024FC40F2CF21642000F074FBF44C0025BE
:10C8F00025600A2001F063FA012626600A2001F073
:10C900005EFA25600A2001F05AFA26600A2001F03A
:10C9100056FA25600A2001F052FA26600A2001F03A
:10C920004EFA25600A2001F04AFA26600A2001F03A
:10C9300046FA25600A2001F042FA26600A2001F03A
:10C940003EFAF8BD70B50C46DE4D0021C5F89811D1
:10C9500004F01F010843FFF7A3FFFF20FFF7A0FF2C
:10C96000210602D5FF20FFF79BFF0121C5F8981192
:10C9700070BD70B503461546D14C0020241F2060C1
:10C9800001F01F001843FFF78BFF2846FFF788FFD1
:10C990000120206070BD2DE9F04105460C46C94FCD
:10C9A0000026C7F898613A20FFF77AFF05E06D1E70
:10C9B0000020FFF775FF04F8010B002DF7D126705A
:10C9C0000120C7F89801BDE8F08170B504460D4616
:10C9D000BC4E0020C6F898017A20FFF761FF04E002
:10C9E000641E2878FFF75CFF6D1C002CF8D1012035
:10C9F000C6F8980170BD70B50546B34E05F06004E9
:10CA0000307884420BD003221F21A020FFF7B1FF12
:10CA1000C5F341121F218020FFF7ABFF347070BDBA
:10CA200010B504462046FFF7E6FF2146BDE810405A
:10CA3000002087E770B505460C462846FFF7DBFF68
:10CA400022462946BDE87040402092E770B50D4669
:10CA500000240146D420FFF7EDFFE9B2D620FFF70E
:10CA6000E9FFC5F30721D720FFF7E4FF40F6FF7584
:10CA700001E0641CA4B2EA20FFF7D2FFC00701D096
:10CA8000AC42F6D370BD70B505460024FFF70AFF2F
:10CA90004FF4FA7609E0FF2200211046FFF769FF04
:10CAA000641CA4B20A2001F08AF91D20FFF7B8FF28
:10CAB000C00701D1B442EED3B44204D383A004F042
:10CAC00083F9012070BD80490020486000210820C2
:10CAD000FFF7B0FF00210920FFF7ACFF00210C2079
:10CAE000FFF7A8FF00210D20FFF7A4FF10210A2067
:10CAF000FFF7A0FF1A210B20FFF79CFF1121042054
:10CB0000FFF798FF1A210520FFF794FFFF21062069
:10CB1000FFF790FF1F210720FFF78CFFA12138208E
:10CB2000FFF788FF3F212820FFF784FF30212920CD
:10CB3000FFF780FFF9213020FFF77CFFF72131203C
:10CB4000FFF778FF0D21C020FFF774FF0021C120FF
:10CB5000FFF770FF3322C2218020FFF70AFF122166
:10CB6000C620FFF767FF0C21C720FFF763FF1521E1
:10CB7000C420FFF75FFFEE21CA20FFF75BFF05210E
:10CB8000CB20FFF757FF2978E420FFF753FF6978A0
:10CB9000E520FFF74FFFA978E220FFF74BFFE97888
:10CBA000E320FFF747FF2979E020FFF743FF69798A
:10CBB000E120FFF73FFF4FF4807421460020FFF78C
:10CBC00045FF21461020FFF741FF1F20FFF713FF0D
:10CBD000C0221B218020FFF7CCFE04221F218020D1
:10CBE000FFF7C7FEE420FFF71BFF2978884201D139
:10CBF000002070BD012070BD722011E770B50546A0
:10CC00000E4611210220FFF715FF1A210320FFF71E
:10CC100011FF41F611202C18E1B20620FFF70AFFA0
:10CC2000C4F307210720FFF705FF002211467A20F1
:10CC3000FFF79FFE31462846FFF7C7FE08221F2157
:10CC40008020FFF796FE1C20FFF7EAFE800705D53F
:10CC5000BDE8704008221F21A0208AE670BD2DE9A2
:10CC6000F04106460F463920FFF7DAFEF0B3164DC5
:10CC700000202979FFF7DEFEA888C0F307210120F4
:10CC8000FFF7D8FE00213A20FFF75CFE6860002124
:10CC90003A20FFF757FE696841EA002068600021EA
:10CCA0003A20FFF74FFE044600213A20FFF74AFEE4
:10CCB00044EA0024241F00213A2018E0000C01401F
:10CCC0009C8121420080214248000020454E433291
:10CCD000384A363020696E6974696C6973652066FC
:10CCE00061696C65642E2E2E0A00000010E0FFF7CB
:10CCF00029FE804600213A20FFF724FE48EA002062
:10CD0000711E8C4200D9741E000603D4002405E075
:10CD1000002058E639462046FFF73DFE29790C20D1
:10CD2000FFF788FEA888C0F307210D20FFF782FED9
:10CD300040221E218020FFF71CFE204643E6000013
:10CD400070B505466C4C02212046FFF744FA0028D6
:10CD5000F9D029462046FFF7F2F901212046FFF7D6
:10CD60003AFA0028F9D02046FFF7EBF9C0B270BDBF
:10CD700001466148028822F03802028002880A4394
:10CD800002800121FFF7ABB930B587B0012141F234
:10CD90000900FFF79CF801210846FEF757FA3824EE
:10CDA000ADF8184018208DF81B0003208DF81A00EC
:10CDB000524D06A92846FEF7B8F9BDF818102846C6
:10CDC000FEF722FA01A8FFF775F90020ADF804007C
:10CDD0004FF48271ADF80610ADF80800ADF80A0006
:10CDE000ADF80C006915ADF80E10ADF81040ADF8B7
:10CDF00012000720ADF814003F4C01A92046FFF7B0
:10CE0000E9F801212046FFF76AF9322000F0D7FF48
:10CE10000820FFF7ADFFFF20FFF792FF07B030BDFE
:10CE200001463748028822F03802028002880A430D
:10CE300002800121FFF753B970B50546304C02213D
:10CE40002046FFF7C8F90028F9D029462046FFF709
:10CE500076F901212046FFF7BEF90028F9D02046D7
:10CE6000FFF76FF9C0B270BD30B587B0012108205F
:10CE7000FFF72DF801218803FFF734F84FF46044E1
:10CE8000ADF8184018208DF81B0003208DF81A000B
:10CE90001A4D06A92846FEF748F921462846FEF70E
:10CEA000B3F901A8FFF706F90020ADF804004FF42C
:10CEB0008271ADF80610ADF80800ADF80A00ADF8C3
:10CEC0000C006915ADF80E103821ADF81010ADF852
:10CED00012000720ADF81400094C01A92046FFF705
:10CEE00079F801212046FFF7FAF8FF20FFF7A4FFA9
:10CEF0001020FFF795FF91E700300140000C014042
:10CF00000038004038B500F094FF00900098FFF71B
:10CF1000DAF9474D01212846FEF73AFD01281AD1DA
:10CF2000444C217809B1022901D1FDF7E3FE2078B4
:10CF300048B1414A1188481C1080B1F57A7F02D966
:10CF400000212170118000F06FFF2846BDE83840B5
:10CF50000121FEF724BD38BD7FB504460D460121F1
:10CF60000220FEF7BFFFADF80840ADF804500024E2
:10CF7000ADF80A40ADF806402D4D01A92846FEF750
:10CF8000D5F91D218DF800108DF801408DF8024073
:10CF900001218DF803106846FEF707F801221146BB
:10CFA0002846FEF7F7FA01212846FEF7E7FA7FBD8B
:10CFB00010B5224C01212046FEF7EAFC012803D1DE
:10CFC0001F480168491C01602046BDE8104001214E
:10CFD000FEF7E5BC7FB504460D4601211020FEF7A3
:10CFE00081FFADF80840ADF804500020ADF80A000C
:10CFF000ADF80600114C01A92046FEF797F936213D
:10D000008DF8001001218DF8011003228DF8022007
:10D010008DF803106846FDF7C8FF0122114620462F
:10D02000FEF7B8FA01212046FEF7A8FA7FBD0000FE
:10D030000004004001000020040000200010004017
:10D0400050000020F0B503460025084600260A2AB5
:10D0500001D00670F0BD002B1DD005DA4FF02D0277
:10D0600000F8012BC3F1000342F210724FF00A07DF
:10D0700093FBF2F454EA050C06D004F1300500F8F5
:10D08000015B04FB1233012592FBF7F2002AEFDC6F
:10D0900006700846F0BD3022027046700846F0BDAA
:10D0A0000FB430B585B005460AA800900EE05C29A3
:10D0B00014D025292CD0521C28460992FEF7A6FD33
:10D0C00080212846FEF70FFE0028F9D0099A117832
:10D0D0000029ECD105B030BC5DF814FB521C09925C
:10D0E00010786E280CD0722802D0521C0992E7E703
:10D0F0000D212846FEF78AFD0998401C0990DFE7BC
:10D100000A212846FEF782FD0998401C0990D7E7BE
:10D11000521C09921078642819D0732802D0521C2E
:10D120000992CDE7009810C8009009E02846FEF764
:10D130006DFD80212846FEF7D6FD0028F9D0641C3D
:10D1400021780029F2D10998401C0990B8E700988D
:10D1500008C800900A2201A91846FFF773FF01AC26
:10D1600009E02846FEF752FD80212846FEF7BBFD68
:10D170000028F9D0641C21780029F2D10998401CBC
:10D1800009909DE708B54FF4A060FDF709FF27203F
:10D190008DF8000000208DF801008DF802000120BC
:10D1A0008DF803006846FDF700FF08BD10B586B096
:10D1B00001218804FEF796FE01212020FEF787FE5C
:10D1C0004FF48070ADF8140018208DF8170003207C
:10D1D0008DF81600FB4C05A92046FDF7A6FF61154A
:10D1E000ADF8141004218DF8171005A92046FDF79D
:10D1F0009CFF4FF4E13001900020ADF80800ADF83D
:10D200000A00ADF80C00ADF810000C20ADF80E00CF
:10D21000ED4C01A92046FEF71DFC012240F22551EC
:10D220002046FEF79EFC012240F224412046FEF7F4
:10D2300098FCFFF7A7FF01212046FEF786FC06B009
:10D2400010BDF8B5E1481024032590F836000528F4
:10D2500006D0062804D0072818D00C2816D02AE0BB
:10D2600001210802FEF733FE4FF48056ADF800604E
:10D270008DF803408DF80250D54F69463846FDF7CA
:10D2800054FF31463846FDF7BFFF14E0012110205E
:10D29000FEF71DFE4FF40076ADF800608DF80340F8
:10D2A0008DF80250CB4F69463846FDF73EFF3146B8
:10D2B0003846FDF7A9FF01212020FEF708FE4FF4B4
:10D2C0008066ADF800608DF803408DF80250BD4CCB
:10D2D00069462046FDF729FF31462046FDF794FFB9
:10D2E000F8BD10B5FFF7ADFFFFF760FFB7480121AC
:10D2F00090F83600052806D0062804D0072805D067
:10D300000C2803D004E0B448016001E0B348016098
:10D31000B348016010BDAD48002190F836000528E3
:10D3200008D0062806D0072801D00C2801D1AB4828
:10D3300001607047A848016070472DE9F0410E4632
:10D3400017460246A7A1A048FFF7AAFE56EA070023
:10D350000ED0A64DB5F800046FF30E00A5F800043A
:10D3600095F8010420F0800085F80104002407E00E
:10D370000120BDE8F081322000F021FDFDF7C1FF62
:10D3800095F80104000604D42046641CA4B20A28BF
:10D39000F1D3B5F800140020C1F30E0168546EB14A
:10D3A00067B13146914803F0E7FD28B939468F4807
:10D3B00003F0E2FD0028DCD00120DAE73EB131467F
:10D3C0008A4803F0D9FD0028D3D00120D1E739469F
:10D3D000864803F0D1FD0028CBD00120C9E770B505
:10D3E00000247A48012190F83600052806D0062846
:10D3F00004D0072805D00C2803D004E0764801604B
:10D4000001E076480160764801604FF47A7000F0E0
:10D41000D6FC4FF4FA750CE02B46002274A175A0DF
:10D42000FFF78BFF08B1022070BDFFF774FF641C8B
:10D43000E4B20A2CF0D301D0012070BD002070BDF1
:10D4400040F6C413002805D0012807D0022809D0CF
:10D450000020704768A266A16AA06EE766A264A178
:10D460006BA06AE764A262A16CA066E700B59FB0FA
:10D470000B4602466CA101A803F0B2FC41F28833CE
:10D4800000225BA101A8FFF758FF1FB000BD00B547
:10D490009FB00B460092024668A101A803F0A0FCD1
:10D4A0004FF47A73002252A101A8FFF746FFECE780
:10D4B00000B585B0002801D0012200E0002265A15E
:10D4C000684603F08DFC4FF4FA73002248A16846C9
:10D4D000FFF733FF05B000BDF0B5B9B004460F4605
:10D4E00015461E46642120A803F012FE14B1012C3B
:10D4F0000FD107E03B465BA25BA120A8009503F09B
:10D500006FFC06E03B465CA257A120A8009503F003
:10D5100067FC052E06D220AB324658A102A803F0C4
:10D520005FFC04E020AA5AA102A803F059FC4FF4C2
:10D530007A635BA22EA102A8FFF7FFFE39B0F0BD0F
:10D540002DE9F041BAB08046409F0E4615461C4674
:10D55000642121A803F0DCFDCDE90065434646A225
:10D5600053A121A8029403F03BFC052F06D221AB66
:10D570003A4642A103A803F033FC04E021AA44A1E7
:10D5800003A803F02DFC4FF47A6345A218A103A869
:10D59000FFF7D3FE3AB0ECE610B59EB04FF4FA7444
:10D5A00000280DD00B46012246A1684603F018FC66
:10D5B000234611A20EA16846FFF7BFFE1EB010BDA4
:10D5C0008AE000000014014000480040EA140020F6
:10D5D0000020014000100140B0012442A401224279
:10D5E000A881224225730D0A00000000E8080020EF
:10D5F0004F4B0000415400006E6F206368616E67FE
:10D600006500000041542B43574D4F44453D3100C8
:10D6100041542B43574D4F44453D320041542B4319
:10D62000574D4F44453D330041542B43574A4150D9
:10D630003D222573222C22257322000041542B43C6
:10D64000575341503D222573222C222573222C3121
:10D650002C25640041542B4349504D55583D2564B9
:10D660000000000054435000222573222C22257311
:10D67000222C2573000000005544500041542B43D8
:10D68000495053544152543D25642C2573000000E9
:10D6900041542B43495053544152543D257300008B
:10D6A000414C5245415920434F4E4E454354000092
:10D6B000222573222C222573222C25642C25642CF0
:10D6C0002564000041542B4349505345525645525E
:10D6D0003D25642C257300000B460022AFF21C018F
:10D6E000684603F07DFB23460022AFF2FC0168464A
:10D6F000FFF723FE62E710B54FF4FA730022AFF292
:10D700001011DDA0FFF719FED8B1DFA1E14803F049
:10D7100033FC08B1022052E7DFA1DE4803F02CFC05
:10D7200008B103204BE7DFA1DA4803F025FC08B17C
:10D73000042044E7DEA1D74803F01EFC08B1052011
:10D740003DE700203BE710B500244FF4FA730022B8
:10D75000AFF26411C8A0FFF7F0FD00282DD0D7A1CB
:10D76000CC4803F009FC00B10124D8A1C94803F05A
:10D7700003FC10B144F0020401E024F00204D7A13C
:10D78000C44803F0F9FB10B144F0040401E024F0B4
:10D790000404D6A1BF4803F0EFFB10B144F0080425
:10D7A00001E024F00804D5A1BA4803F0E5FB10B16C
:10D7B00044F0100401E024F010042046FFE6F8B520
:10D7C0000E4617464FF47A730022AFF2DC11CFA059
:10D7D000FFF7B3FD00250024CFA1AE4803F0CCFB3A
:10D7E00010B1C01D002138E00020F8BD435C2E2B95
:10D7F00002D0032D27D028E0012C04D0022C06D023
:10D80000032C0ED01BE09DF80020725517E09DF808
:10D8100000309DF8012003EB830302EB43027255B5
:10D820000DE09DF80030642253439DF8012002EB87
:10D83000820203EB42029DF802301A4472556D1CBD
:10D84000EDB2002407E0222B09D0303B2246641CB5
:10D85000E4B20DF80230491CC9B2B942C6D3012C5A
:10D8600004D0022C06D0032C0ED01BE09DF8000043
:10D87000705517E09DF800009DF8011000EB800046
:10D8800001EB400070550DE09DF80010642041430D
:10D890009DF8010000EB800001EB40009DF80210B4
:10D8A000084470550120F8BD10B54FF4FA742346B2
:10D8B0000022AFF2C4219AA0FFF73FFD38B1234602
:10D8C0009BA2AFF2D421BDE810409AA035E500201C
:10D8D00075E610B54FF47A7000F071FA98A1994886
:10D8E000FFF7DEFBBDE810404FF4FA7000F067BAB6
:10D8F0002DE9F0411646B2B00D461A460024002725
:10D90000DFF84082002807D02A46AFF27021404657
:10D91000FFF7C6FB012724E0052A05D233468AA17A
:10D92000684603F05DFA04E032468CA1684603F0D5
:10D9300057FA6A46AFF254314046FFF7B1FB022076
:10D9400000F03DFA0BE0295D4046FEF75FF98021CB
:10D950004046FEF7C8F90028F9D0641CA4B2B442CE
:10D96000F1D3384632B004E510B50024494900220D
:10D97000B1F80034C3F30E03CA54002801D00C469A
:10D9800005E07AA1434803F0F7FA00B1414C204684
:10D9900015E670B50C4675A103F0EEFA81792C29D5
:10D9A00001D0002070BD017A3A2910D1C279303AF5
:10D9B000092A0CD892B2002105E043185B7A04F8DA
:10D9C000013B491C89B29142F7D3104670BD427A9F
:10D9D0006FF02F053A2A03D0837A3A2B1AD03EE013
:10D9E000C279303A092A3AD8302938D3392936D879
:10D9F00002EB820205EB420211448AB2002105E0EB
:10DA000043189B7A04F8013B491C89B29142F7D331
:10DA1000104670BDC379303B092B20D830291ED366
:10DA200039291CD8302A1AD3392A18D803EBC3064F
:10DA3000303906EB031301EB810102EB830205EBA6
:10DA4000410111448AB2002105E04318DB7A04F851
:10DA5000013B491C89B29142F7D3104670BD0020AA
:10DA600070BD70470B0A0370417000218170C17056
:10DA7000110A01714271704741542B43495053546C
:10DA800041545553000000005354415455533A3209
:10DA90000D0A0000E80800205354415455533A330E
:10DAA0000D0A00005354415455533A340D0A0000F6
:10DAB0005354415455533A350D0A00002B434950F5
:10DAC0005354415455533A302C0000002B434950D5
:10DAD0005354415455533A312C0000002B434950C4
