:020000040800F2
:1080000040200020998100084B8100084D81000824
:108010004F810008518100085381000800000000D2
:108020000000000000000000000000005581000872
:108030005781000800000000598100085B8100089A
:10804000B3810008B3810008B3810008B381000840
:10805000B3810008B3810008B3810008B381000830
:10806000B3810008B3810008B3810008B381000820
:10807000B3810008B3810008B3810008B381000810
:10808000B3810008B3810008B3810008B381000800
:10809000B3810008B3810008B3810008B3810008F0
:1080A000B3810008B3810008B3810008B3810008E0
:1080B000B381000879960008B3810008B3810008F5
:1080C000B3810008B3810008B3810008B3810008C0
:1080D000B3810008B3810008B3810008B3810008B0
:1080E000B3810008B3810008B3810008B3810008A0
:1080F000B3810008B3810008B3810008B381000890
:10810000B3810008B3810008B3810008B38100087F
:10811000B3810008B3810008F3960008B38100081A
:10812000B3810008B3810008B3810008B38100085F
:10813000DFF80CD001F0E2FE004800474183000860
:108140004020002080F3088870477047FEE7FEE774
:10815000FEE7FEE770477047704770470D490860BB
:1081600070470C49486070470A4988607047094960
:108170004AF6AA200860704706494CF6CC400860D1
:10818000704701460020034AD2680A4200D001200D
:10819000704700000030004006488047064800470E
:1081A000FEE7FEE7FEE7FEE7FEE7FEE7FEE7FEE7A7
:1081B000FEE7FEE7218500083181000830B50B4657
:1081C000014600202022012409E021FA02F59D4207
:1081D00005D303FA02F5491B04FA02F52844151EDB
:1081E000A2F10102F1DC30BD02E008C8121F08C193
:1081F000002AFAD17047704700000000000000001C
:1082000054656D636F5049443130000000000069CF
:108210000000000010B545F25550FFF79FFF042005
:10822000FFF79FFF4FF47A60FFF79EFFFFF7A4FF71
:10823000BDE81040FFF79BBFFFF799BF2DE9F04164
:10824000644C624D624E2278AF15002823D0052A77
:1082500003D13946284600F0FDFA2078062803D1DC
:108260003946284600F0F6FA2078072803D1394627
:10827000304600F0EFFA2078082803D1394630461E
:1082800000F0E8FA2078092829D139462846BDE8C7
:10829000F04100F0DFBA052A03D13946284600F044
:1082A000DBFA2078062803D13946284600F0D4FAB4
:1082B0002078072803D13946304600F0CDFA2078DF
:1082C000082803D13946304600F0C6FA207809283C
:1082D00005D139462846BDE8F04100F0BBBABDE8FB
:1082E000F0812DE9F04700243A4F4FF00066DFF8A7
:1082F000E8804FF4006901F0D1F806EBC420054690
:1083000001F0F9F801F0D0F83878092805D108EB28
:10831000C42128464A4601F0A1FD641CE4B2102C99
:10832000E9D3BDE8F087012080F313882B4801686A
:108330002B4A01F4E06111430160BFF3408FFEE777
:108340002849080300F087F94FF4E13001F09CFC64
:10835000482001F01BFC01F051FAFFF75BFF0E20F3
:1083600001F06CFB1B4C20700F2001F067FB60706C
:108370002178052903D101461BA001F0D1FD207809
:10838000062803D161781DA001F0CAFD20780728D6
:1083900003D161781EA001F0C3FD2078082803D125
:1083A000617820A001F0BCFD2078092803D1617814
:1083B00021A001F0B5FD25A001F0B2FDFFF791FF6E
:1083C00028A001F0ADFDFFF7AEFF0000000801405E
:1083D0000014014000000020ECA000080CED00E0BB
:1083E0000400FA0500800008424220757064617440
:1083F000653A202564200D0A000000004C422075DB
:1084000070646174653A202564200D0A0000000044
:108410005442207570646174653A202564200D0A09
:10842000000000004E42207570646174653A20259A
:1084300064200D0A00000000543130207570646122
:1084400074653A202564200D0A0000000D0A2031D1
:108450002E20636F707920626F6F7421212121219A
:10846000200D0A000D0A20322E207265626F6F7493
:108470002021200D0A0000000CB50022019200927C
:108480005248016841F4803101604FF4A0630168F3
:1084900001F4003100910199491C0191009911B931
:1084A00001999942F3D10168890302D50121009114
:1084B00000E000920099012930D145490A6842F054
:1084C00010020A600A6822F003020A600A6842F099
:1084D00002020A604168416041684160416841F4BC
:1084E00080614160416821F47C114160416841F440
:1084F000E8114160016841F0807101600168890103
:10850000FCD5416821F003014160416841F002015E
:1085100041604168C1F381010229FAD10CBDABE78A
:1085200010B52A48016841F0010101604168294AFB
:10853000114041600168284A11400160016821F43E
:1085400080210160416821F4FE0141604FF41F0168
:108550008160FFF7E4FF21494FF00060086010BD23
:1085600010B51A4A506800F00C011D4B1D48002937
:108570000ED004290ED008290ED003605168194A84
:10858000C1F30311121D515C0268CA40026010BDA4
:108590000360F3E70360F1E7516801F47011536879
:1085A00003F48033022404EB914133B153689B03FD
:1085B00007D50D4B59430160E0E70B4B5943016070
:1085C000DCE7074B59430160D8E700000010024088
:1085D000002002400000FFF8FFFFF6FE08ED00E07B
:1085E00000127A000400002000093D002A490843D7
:1085F0002A490860704770B50F23C27801260178B8
:10860000002A1ED0254A126802F4E062C2F5E06238
:10861000120AC2F10404D3404578A54082781A407A
:108620002A43120101F1E02181F80024007800F0D2
:108630001F018E404009800000F1E020C0F8006179
:1086400070BD01F01F0086404809800000F1E02065
:10865000C0F8806170BD124A114001430F48001FED
:10866000016070470D4A121D002903D011680143B3
:108670001160704711688143116070474FF0E0212D
:10868000042804D0086920F00400086170470869D4
:1086900040F00400086170470000FA050CED00E0AE
:1086A00080FFFF1F10B59C49884209D10121042099
:1086B00000F0B3FE0021BDE81040042000F0ADBE84
:1086C0009649884209D10121082000F0A6FE002128
:1086D000BDE81040082000F0A0BE9149884209D1B1
:1086E0000121102000F099FE0021BDE8104010206B
:1086F00000F093BE8B49884209D10121202000F06F
:108700008CFE0021BDE81040202000F086BE864986
:10871000884209D10121402000F07FFE0021BDE800
:108720001040402000F079BE8049884209D10121E3
:10873000802000F072FE0021BDE81040802000F093
:108740006CBE7B4988420AD184150121204600F085
:1087500064FE2046BDE81040002100F05EBE10BD62
:1087600010B50121084600F058FE0021BDE8104078
:10877000012000F052BE2DE9F0410022CC7804F037
:108780000F03E40601D58C7823430C784FF00F07D4
:1087900014F0FF0F4FF0010C1CD005680CFA02F426
:1087A0000E882640A64211D1960007FA06F825EA5F
:1087B000080503FA06F848EA0505CE78282E02D007
:1087C000482E02D002E0446100E00461521C082AF5
:1087D000E4D305600A88FF2A1ED94568002202F109
:1087E00008060CFA06F40E882640A64210D1960020
:1087F00007FA06F825EA080503FA06F848EA050527
:10880000CE78282E00D14461CE78482E00D1046164
:10881000521C082AE3D34560BDE8F0814FF6FF7192
:108820000180022181700421C1707047024600203E
:1088300092680A4200D001207047806880B2704779
:1088400002460020D2680A4200D001207047C0686A
:1088500080B270470161704741617047002A01D0C2
:108860000161704741617047C160704741F48032D7
:1088700082618161826181698069704710B52D4B89
:108880001A684FF68074224042EA001008431860CC
:1088900010BD2949C8617047F0B5264C002801DA9F
:1088A000E36900E06368C0F30346420D120185B23C
:1088B000C0F301579540032F07D0C2020CD5032205
:1088C000B240934343F0706209E023F07062636842
:1088D00023F07063636002E0AB4343F0706201B168
:1088E0002A43002801DAE261F0BD6260F0BD10B5F4
:1088F0008A07120F0F23934021F003040D492144EE
:108900008C689C438C608B68904003438B6010BDE7
:108910000949DC310860704700080140000C014043
:10892000001001400014014000180140001C0140EB
:1089300000200140000001400000204230B50288C4
:10894000F74CF84DA0420DD0A8420BD0B0F1804FAB
:1089500008D0F54B984205D0F44B984202D0F44B26
:10896000984203D122F070034A881A43F14B98428F
:1089700006D0F14B984203D022F44073CA881A43C0
:1089800002808A8882850A880285A0420AD0A8428D
:1089900008D0EA4A904205D0E94A904202D0E94A1A
:1089A000904201D1097A01860121818230BD70B5E2
:1089B000028C22F480720284028C8388848B24F0DF
:1089C000700424F003040D88254322F400720E89FC
:1089D0004FF6FF7404EA062616434A8804EA022288
:1089E0003243CF4EB04202D0CE4EB04217D122F425
:1089F00000664A8904EA0222324322F480668A88A9
:108A000004EA0222324323F4805323F400538E8974
:108A100004EA06161E43CB8904EA0313334383801A
:108A20008583C9888187028470BD70B5028C22F469
:108A300080520284058C8288838B23F4E04323F4E4
:108A400040760C884FF6FF7303EA0424344325F480
:108A500000550E8903EA06362E434D8803EA053594
:108A60003543AF4EB04202D0AE4EB04205D122F4F3
:108A700080468A8903EA8212324382808483C988CD
:108A8000A0F84010058470BD4FF6FF718180002171
:108A90000180C180418001727047002904D00188A3
:108AA00041F0010101807047018821F0010101803E
:108AB0007047002A03D082890A43828170478289E5
:108AC0008A4382817047018582827047028822F042
:108AD00070020A4302807047028922F070020A4342
:108AE0000281704770B50589048B068C25F0070557
:108AF0000D434FF6FC410C4040F201110C4326F0AF
:108B000022064FF6FF7101EA03111143314305813B
:108B10000483018470BD028B22F070020A43028339
:108B20007047028B22F4E0424FF6FF7303EA012103
:108B3000114301837047828B22F070020A438283C3
:108B40007047828B22F4E0424FF6FF7303EA012163
:108B5000114381837047002904D0018841F08001CE
:108B600001807047018821F0800101807047002951
:108B700004D0818841F0040181807047818821F010
:108B8000040181807047002904D0818841F00801E8
:108B900081807047818821F0080181807047002919
:108BA00004D0818841F0010181807047818821F0E3
:108BB000010181807047028B22F008020A43028380
:108BC0007047028B22F400624FF6FF7303EA012123
:108BD000114301837047828B22F008020A4382838B
:108BE0007047828B22F400624FF6FF7303EA012183
:108BF000114381837047028B22F004020A430283EF
:108C00007047028B22F480624FF6FF7303EA012162
:108C1000114301837047828B22F004020A4382834E
:108C20007047828B22F480624FF6FF7303EA0121C2
:108C3000114381837047028B22F080020A43028332
:108C40007047028BC2F30E024FF6FF7303EA012155
:108C5000114301837047828B22F080020A43828392
:108C60007047828BC2F30E024FF6FF7303EA0121B5
:108C7000114381837047028C22F002020A4302846E
:108C80007047028C22F008020A4302847047028C6B
:108C900022F020024FF6FF7303EA01111143018411
:108CA0007047028C22F080024FF6FF7303EA011135
:108CB000114301847047028C22F400724FF6FF7357
:108CC00003EA0121114301847047028C22F40062FF
:108CD0004FF6FF7303EA0121114301847047028CB0
:108CE00022F400524FF6FF7303EA0131114301846D
:108CF000704710B501238B40048C9C430484038C83
:108D00008A401343038410BD10B504238B40048CA8
:108D10009C430484038C8A401343038410BD0000E9
:108D2000002C0140003401400004004000080040D5
:108D3000000C0040001000400014004000400140C2
:108D4000004401400048014030B500F118030124FF
:108D50008C40058CA5430584002911D008290FD02B
:108D6000091FC1F34E001844016821F4E04101607D
:108D700001684FF6FF7303EA02221143016030BD20
:108D800003EB5100016821F070010160016811439B
:108D9000016030BD002904D0018841F0020101804A
:108DA0007047018821F0020101807047002904D03A
:108DB000018841F0040101807047018821F004011D
:108DC00001807047002904D0818841F080018180B2
:108DD0007047818821F0800181807047028822F0ED
:108DE0000802028002880A4302807047828822F0CB
:108DF0007002828082880A4382807047028922F052
:108E00000702028102890A4302817047028922F027
:108E10008002028102890A4302817047818470477F
:108E200081857047818670470187704781877047C9
:108E3000A0F840107047028B22F00C020283028BD4
:108E40000A4302837047028B22F440620283028B42
:108E50004FF6FF7303EA01210A4302837047828BB6
:108E600022F00C028283828B0A4382837047828BBA
:108E700022F440628283828B4FF6FF7303EA012162
:108E80000A4382837047028822F44072028002887B
:108E90000A4302807047808E7047008F7047808F32
:108EA0007047B0F840007047808C7047008D704765
:108EB00002460020128A0A4200D001207047C943AE
:108EC0000182704702460020138A0B4092890A40B3
:108ED000002B02D0002A00D001207047C943018234
:108EE0007047000010B5E14988420AD101218C0386
:108EF000204600F092FA2046BDE81040002100F024
:108F00008CBADB4988420AD101214C04204600F08A
:108F10008FFA2046BDE81040002100F089BAD549FB
:108F200088420AD101218C04204600F081FA2046B3
:108F3000BDE81040002100F07BBACF4988420AD139
:108F40000121CC04204600F073FA2046BDE8104011
:108F5000002100F06DBAC94988420AD101210C05EF
:108F6000204600F065FA2046BDE81040002100F0E0
:108F70005FBA10BD30B585B004460D46208A4CF668
:108F8000FF710840E98801432182A0894EF6F31160
:108F90000840A9882A8911436A8902431143A181A3
:108FA000A08A4FF6FF410840A9890143A182684683
:108FB00000F0C5F9AD48844201D1039800E0029861
:108FC000A189090408D500EBC00101EB0010296854
:108FD0004900B0FBF1F007E000EBC00101EB00102D
:108FE00029688900B0FBF1F06422B0FBF2F10901BD
:108FF0000B096FF018056B4300EB8300A3891D0478
:109000004FF0320307D503EBC000B0FBF2F000F0E5
:109010000700084306E003EB0010B0FBF2F000F09D
:109020000F000843208105B030BD4FF41651016098
:1090300000218180C18001810C22428181817047A1
:1090400010B5038A4FF2FF0213400A884C8822436E
:109050008C88C9880C4322431A43028210BD002128
:10906000018041808180C1807047002904D08189BE
:1090700041F4005181817047818921F4005181813F
:10908000704710B540F66A13C1F3421301F01F0494
:109090000121A140012B07D0022B07D014303AB197
:1090A00002680A43026010BD0C30F8E71030F6E7A2
:1090B00002688A43026010BD002A03D0828A0A43F4
:1090C00082827047828A8A4382827047028A22F0B3
:1090D0000F020282028A0A4302827047828922F4C6
:1090E0000062828182890A4382817047002904D00C
:1090F000818941F0020181817047818921F002015B
:1091000081817047028A22F020020282028A0A4389
:1091100002827047002904D0018A41F48041018213
:109120007047018A21F4804101827047C1F3080130
:10913000818070478088C0F308007047818941F0C2
:10914000010181817047028BD2B20283028B42EA15
:10915000012101837047028B02F47F420283028B5C
:109160000A4302837047002904D0818A41F020011C
:1091700081827047818A21F0200181827047002915
:1091800004D0818A41F0100181827047818A21F0E8
:10919000100181827047002904D0818A41F00801C2
:1091A00081827047818A21F00801818270470029FD
:1091B00004D0818941F40041818170478189C1F3E4
:1091C0000E0181817047002904D0818A41F4006139
:1091D00081827047818A21F4006181827047828A8E
:1091E00022F004028282828A0A4382827047002926
:1091F00004D0818A41F0020181827047818A21F086
:109200000201818270470246002012880A4200D083
:10921000012070478A05C9430180704770B500245A
:1092200040F66A12C1F3421301F01F05012606FA47
:1092300005F2012B0CD0022B0DD0838A1340090AB2
:109240008E40008830400BB100B10124204670BD33
:1092500083891340F3E7038A1340F0E740F66A126C
:109260000A0A01219140C94301807047003801403A
:109270000044004000480040004C004000500040C6
:109280007E48016841F00101016041687C4A11405B
:10929000416001687B4A11400160016821F480212E
:1092A0000160416821F4FE0141604FF41F018160BB
:1092B000704772490A6822F480320A600A6822F410
:1092C00080220A60B0F5803F07D0B0F5802F03D12F
:1092D000086840F4A02008607047086840F48030B7
:1092E00008607047034600205909644A01290AD0E2
:1092F00002290AD0516A03F01F02012393400B4256
:1093000000D0012070471168F5E7116AF3E718B53E
:10931000002000904FF4A0643120FFF7E3FF009994
:10932000491C00910099A14201D00028F4D03120BD
:10933000FFF7D8FF08B1012018BD002018BD10B5F7
:109340004E4A516801F00C014F4B002927D00429E7
:1093500027D0082927D00360516801F0F0010909DE
:109360004A4B5C5C0168E1404160546804F4E0648D
:10937000240A1C5D21FA04F48460546804F46054E7
:10938000E40A1B5DD940C160526802F44042920B6E
:109390003E4B1B1F9A5CB1FBF2F1016110BD0360F3
:1093A000DAE70360D8E7516801F47011536803F4F9
:1093B0008033022404EB914133B153689B0307D5FA
:1093C000334B59430160C7E7314B59430160C3E751
:1093D0002D4B59430160BFE7284A002903D051694A
:1093E0000143516170475169814351617047234A7C
:1093F000002903D0916901439161704791698143CC
:10940000916170471D4A002903D0D1690143D161A0
:109410007047D1698143D1617047184A002903D050
:10942000D1680143D1607047D1688143D1607047F2
:10943000124A002903D01169014311617047116973
:109440008143116170471349086070471249C8642D
:1094500070470A49C87170470848416A41F08071F5
:109460004162704701460020044A92680A4200D0D7
:1094700001207047014988727047000000100240C7
:109480000000FFF8FFFFF6FE00127A001C0000202B
:1094900000093D00400442420000424273487249C4
:1094A00041607349416070477048016941F0800133
:1094B000016170476D48C068C10701D00120704745
:1094C000410701D502207047C00601D5032070472F
:1094D0000020704770B50446FFF7ECFF0546012DEC
:1094E00005D100F066FB641EA4B2002CF4D104B9CF
:1094F000FF25284670BD70B5054645F6FF76304617
:10950000FFF7E8FF002812D1584C206940F0020014
:1095100020616561206940F0400020613046FFF71E
:10952000D9FF012803D0216921F00201216170BD1A
:1095300070B506460D46FF20FFF7CCFF00280ED180
:109540004A4C206940F0010020613580FF20FFF780
:10955000C1FF012803D0216921F00101216170BD03
:10956000008870472DE9F04105460E461746002455
:1095700007E036F814102846FFF7DAFFAD1C641C2C
:10958000A4B2BC42F5D3BDE8F08110B50446002377
:1095900007E02046FFF7E4FF21F81300A41C5B1C42
:1095A0009BB29342F5D310BD2DE9F05F82460F4682
:1095B0001546AAF10062B2F5002F52D2FFF76EFFF6
:1095C0004FEAD228C2F34906C6F58064A54200D806
:1095D0002C46DFF8A0B037E032183BF812208A4260
:1095E00003D1401C80B2A042F6D3A04214D2484618
:1095F000FFF781FF002006E0821937F810102BF8E2
:109600001210401C80B2A042F6D348464FF480624C
:109610001849FFF7A7FF04E0224639465046FFF7F6
:10962000A1FFA54202D1BDE8F05F3DE708F10108C6
:10963000002607EB44070AEB440A281B85B24FF4C7
:109640008064A54200D82C464FF0006000EBC8298A
:10965000421408494846FFF798FF00204FF6FF7173
:10966000C1E7BDE8F09F00002301674500200240EC
:10967000AB89EFCD4000002010B53D4C01212046C4
:10968000FFF716FC012807D100F0DAFA2046BDE802
:1096900010400121FFF713BC10BD7FB504460D46F5
:1096A00001210220FFF7AEFEADF80840ADF80450EE
:1096B0000024ADF80A40ADF806402D4D01A928461A
:1096C000FFF73CF91D218DF800108DF801408DF851
:1096D000024001218DF803106846FEF78CFF01223D
:1096E00011462846FFF7E5F901212846FFF7D5F98D
:1096F0007FBD10B51F4C01212046FFF7D9FB012883
:1097000003D11D480168491C01602046BDE8104096
:109710000121FFF7D4BB7FB504460D46012110207F
:10972000FFF770FEADF80840ADF804500020ADF82A
:109730000A00ADF806000F4C01A92046FFF7FEF81D
:1097400036218DF8001001218DF8011003228DF8CB
:1097500002208DF803106846FEF74DFF01221146E6
:109760002046FFF7A6F901212046FFF796F97FBDB5
:1097700000040040001000402C00002038B5954C3B
:10978000208FADF8000048208DF803006946606B1B
:10979000FEF7F1FF218F606BFFF75CF838BD38B53D
:1097A0008C4C208FADF8000010208DF803000320B2
:1097B0008DF802006946606BFEF7DDFF218F606B5C
:1097C000FFF748F838BD834A002803D0918D906A8E
:1097D000FFF740B8918D906AFFF73EB87D4A0028A8
:1097E00003D0118F506BFFF735B8118F506BFFF717
:1097F00033B87848018F406BFFF718B8F8B5754C4F
:109800000121606AFFF7F3FDA08DADF8000010257F
:109810008DF8035003268DF802606946A06AFEF7B2
:10982000AAFFA18DA06AFFF715F80121206BFFF7B1
:10983000DEFD208FADF800008DF803508DF802603A
:109840006946606BFEF797FF218F606BFFF702F8A8
:10985000F8BD10B5FFF7A3FF0120FFF7BFFF012000
:10986000FFF7B1FF042000F0A4F90020FFF7B6FFD6
:10987000042000F09EF9BDE810400020A3E710B5D9
:10988000FFF78DFF0020FFF79EFF0020FFF7A6FFE8
:10989000042000F08EF90120FFF795FF0120FFF76B
:1098A0009DFFBDE81040042000F083B910B50024EE
:1098B0000120FFF793FFFFF761FF012000F079F926
:1098C0000120FFF780FF012000F073F907E0641C1E
:1098D000E4B2FA2C03D9FFF7D2FF012010BDFFF745
:1098E00088FF0028F3D1FFF76EFF002010BD10B5F0
:1098F0000020FFF768FFFFF752FF0020FFF76EFF21
:10990000022000F056F90120FFF75DFF022000F071
:1099100050F9BDE81040002055E710B50020FFF7D2
:1099200052FFFFF73CFF0120FFF758FF022000F035
:1099300040F90120FFF747FF022000F03AF9BDE8A7
:10994000104000203FE770B50546FFF728FF0020D4
:10995000FFF739FF0024E809FFF740FF6806050E0E
:10996000022000F026F90120FFF72DFF022000F071
:1099700020F90020FFF727FF022000F01AF9641CED
:10998000E4B2082CE7D370BD70B506460024FFF79B
:10999000F5FE00250020FFF716FF022000F009F970
:1099A0000120FFF710FF6006040EFFF722FF08B149
:1099B000641CE4B2012000F0FCF86D1CEDB2082D2F
:1099C000E8D31EB1FFF793FF204670BDFFF7A5FF58
:1099D000FAE70000A4A0000838B56B4CE06B002843
:1099E00015D054F83C0F0121FFF701FD2089ADF897
:1099F000000010208DF8030003208DF80200694656
:109A00006068FEF7B8FE21896068FEF723FF38BD65
:109A10005D4AD16B00290AD020B1B2F84410106C15
:109A2000FEF718BFB2F84410106CFEF715BF704770
:109A300010B5FFF7E3FEBDE81040CDE710B50446D2
:109A4000FFF707FF200AA02101EB4000C0B2FFF79B
:109A50007AFFFFF72BFFE0B2FFF775FFFFF726FF56
:109A6000FFF7F7FEA120FFF76EFFFFF71FFF0020B3
:109A7000FFF78AFF0446FFF702FF204610BD70B5CE
:109A800004460D460020FFF7C3FFFFF7E2FE200A61
:109A9000A02101EB4000C0B2FFF755FFFFF706FF22
:109AA000E0B2FFF750FFFFF701FF2846FFF74BFF3B
:109AB000FFF7FCFEFFF7E3FE0120FFF7A9FFBDE87B
:109AC0007040052000F087B82DE9F04106460D46AC
:109AD0001746002409E0E00025FA00F0C1B2301971
:109AE00080B2FFF7CCFF641CE4B2BC42F3D3BDE804
:109AF000F0812DE9F04102460E460020002497191E
:109B000008E00502381B401E80B2FFF797FF28448B
:109B1000641CE4B2B442F4D3E9E710B5FF20FFF7C8
:109B20008DFF55280AD05521FF20FFF7A8FFFF2001
:109B3000FFF784FF552803D0012010BD002010BD81
:109B4000002010BD70B504460E46154608E02046BC
:109B5000641CA4B2FFF772FF06F8010B6D1EADB2D4
:109B6000002DF4D170BD70B506460D46144606E0D2
:109B700029783046FFF783FF761CB6B26D1C641E51
:109B8000A4B2F5D270BD0000A4A000084FF0E021FF
:109B90000A6922F004020A611849C008087000EB43
:109BA0004002C2EBC0104FF6FF7202EAC0004880CC
:109BB00070471249097848434FF0E021486100237B
:109BC0008B61012008610869C20701D0C003FAD582
:109BD0000B618B6170470949498848434FF0E02188
:109BE000486100238B61012008610869C20701D028
:109BF000C003FAD50B618B61704700003000002074
:109C000013484FF47A710068B0FBF1F04FF0E02197
:109C1000B0F1807F01D301200BE020F07F40401E97
:109C200048610C4AF020107000208861072008610C
:109C3000002000B1FEE7086940F0010008617047AC
:109C400005480168491D0160704703480068704776
:109C50000400002023ED00E034000020704770B5C0
:109C600004460120FEF7EAFA764D40212846FFF728
:109C7000CAFA0028F9D0A1B22846FFF757FA002007
:109C8000FEF7DCFA204670BDF0B587B0074601212B
:109C90008803FFF7ACFB6B4E3046FFF723F96A4CA5
:109CA00001212068FFF7A3FB2089ADF818000325E8
:109CB0008DF81A5018208DF81B0006A96068FEF771
:109CC0005AFD0121E068FFF792FBA08AADF8180069
:109CD00048208DF81B0006A92069FEF74CFD2520C1
:109CE0008DF8040001208DF805008DF806508DF8E0
:109CF000070001A8FEF77FFC02970020ADF80C00DA
:109D0000ADF80E00ADF81000ADF814000C20ADF861
:109D1000120002A93046FFF72DF9012240F2255129
:109D20003046FFF7AEF901213046FFF79EF9474F65
:109D300010263878052803D0062801D0092812D12A
:109D40000121A069FFF753FB208CADF818008DF8B6
:109D50001B608DF81A5006A9E069FEF70CFD218CF6
:109D6000E069FEF777FD3878072801D0082814D17C
:109D700001212020FFF73BFB4FF48074ADF8184021
:109D80008DF81B608DF81A50314D06A92846FEF754
:109D9000F2FC21462846FEF75DFD07B0F0BD70B528
:109DA00086B0054601211020FFF721FB0121C804E0
:109DB000FFF728FB274E3046FFF794F83015ADF833
:109DC000140003208DF8160018208DF81700224C7F
:109DD00005A92046FEF7CFFCE014ADF8140048209A
:109DE0008DF8170005A92046FEF7C5FC34208DF834
:109DF000000000248DF801408DF8024001208DF80C
:109E000003006846FEF7F7FB0195ADF808407014B3
:109E1000ADF80A00ADF80C40ADF810400C20ADF8DC
:109E20000E0001A93046FFF7A5F8012240F22551A6
:109E30003046FFF726F901213046FFF716F906B044
:109E400070BD000000380140A4A000080000002000
:109E500000140140004C0040001001402DE9F04783
:109E60000D46904600240746A0F10060B0F5002F93
:109E700029D2FFF713FB00264FF48069DFF870A0AA
:109E800015E06878000215F8021B08442146641C9E
:109E9000A4B22AF811004A46944206D1002414497B
:109EA0003846FFF75FFB07F50067B61CB6B24645BC
:109EB000E7D324B122460E493846FFF753FBBDE8ED
:109EC000F047FFF7F1BABDE8F08710B50168094A1D
:109ED0001140B1F1005F09D14168074C2160006871
:109EE000FEF730F92068BDE81040004710BD0000C3
:109EF000400800200000FE2F3C000020064C074DCB
:109F000006E0E06840F0010394E807009847103449
:109F1000AC42F6D3FEF710F9EC2001080C21010841
:109F20000FB4054B10B503A9044A029800F010F8CD
:109F300010BC5DF814FB00005F9C00083800002096
:109F4000002001E001C1121F002AFBD17047000070
:109F50002DE9FF4F89B09B460446002506E02528E1
:109F60000BD05A460B999047641C6D1C2078002832
:109F7000F5D10DB02846BDE8F08F0027B846012284
:109F8000474900E0074314F8013F203B02FA03F081
:109F90000842F7D120782E2819D114F8010F47F084
:109FA00004072A280ED06FF02F022078A0F130018C
:109FB00009290CD808EB880102EB410100EB0108EC
:109FC000641CF2E70A98641C50F8048B0A9020780D
:109FD0000028CED0642808D0692806D075281ED065
:109FE0005A460B9990476D1C58E00A994FF00A09A0
:109FF00001C90A91002802DA40422D2102E0390508
:10A0000004D52B218DF82010012103E0F90704D09D
:10A010002021F7E78A4608AE0DE00021FAE70A9909
:10A020004FF00A0901C90A91F7E74946FEF7C6F859
:10A03000303106F8011D0028F7D1ADEB060000F124
:10A040002009780701D44FF00108C84502DDA8EBCC
:10A05000090000E000208046002706E008A85A46D4
:10A06000C05D0B9990476D1C7F1C5745F6DB04E0E3
:10A0700030205A460B9990476D1CB8F10001A8F1A9
:10A080000108F5DC05E016F8010B5A460B999047DC
:10A090006D1CB9F10001A9F10109F4DC641C65E74C
:10A0A000092801000400000000080140000200002F
:10A0B000040000000008014000040000040000004B
:10A0C00000080140000100000400000000080140F9
:10A0D0000800000004000000000801400400000027
:10A0E000000000000000000000000000F0690020F7
:10A0F0008D1C0008290B00082B0B00082D0B0008F5
:10A100002F0B0008310B00080000000000000000C9
:10A110000000000000000000330B0008350B0008B1
:10A1200000000000370B0008390B0008A71C0008CE
:10A13000A71C0008A71C0008A71C0008A71C0008F3
:10A14000A71C0008A71C0008A71C0008A71C0008E3
:10A15000A71C0008A71C0008A71C0008A71C0008D3
:10A16000A71C0008A71C0008A71C0008A71C0008C3
:10A17000A71C0008A71C0008A71C0008A71C0008B3
:10A18000A71C0008A71C0008A71C0008A71C0008A3
:10A19000A71C0008A71C0008A71C0008A71C000893
:10A1A000ED220008A71C0008A71C0008A71C000837
:10A1B000A71C0008A71C0008A71C0008A71C000873
:10A1C000C9320008A71C0008A71C0008A71C00082B
:10A1D000A71C0008A71C0008A71C0008A71C000853
:10A1E000A71C0008A71C0008A71C0008A71C000843
:10A1F000A71C0008A71C0008A71C0008DF410008D6
:10A20000A71C000881230008A71C0008A71C000841
:10A21000A71C0008A71C0008A71C000800F002F8F3
:10A2200000F047F80AA090E8000C82448344AAF1A9
:10A230000107DA4501D100F03CF8AFF2090EBAE8A7
:10A240000F0013F0010F18BFFB1A43F0010318476A
:10A250004461000064610000103A24BF78C878C1EE
:10A26000FAD8520724BF30C830C144BF04680C601C
:10A27000704700000023002400250026103A28BF64
:10A2800078C1FBD8520728BF30C148BF0B60704768
:10A29000642905F0F585752905F0F285732905F027
:10A2A000C087002070471FB505F03BFE1FBD10B5ED
:10A2B00010BD06F003F81146FFF7F5FF00F03BF97B
:10A2C00006F021F803B4FFF7F2FF03BC02F0B2FE80
:10A2D00080F30888704700000B49D1F800C04A6835
:10A2E0005CF8043B1068184442F8040B8C4528BF06
:10A2F000A1F1DC0C8A4228BFA1F1DC02C1F800C048
:10A300004A6020F0004070478849002010B545F2AF
:10A31000555000F0EBFE042000F0EBFE4FF47A60A5
:10A3200000F0EAFE00F0F0FEBDE8104000F0E7BEED
:10A3300000F0E5BE70B500244FF40075FF21204603
:10A3400001F037FF641CA4B2AC42F7D3BDE8704003
:10A3500003F016B910B50422F749002001F08CFF74
:10A36000F54C0222211D042001F086FF062001F099
:10A37000FFFEE080FF2801D1FE20E0800A2020724D
:10A38000082001F0F5FE607243210F2001F011FF5B
:10A3900094F836100E2001F00CFF102001F0E8FEBA
:10A3A000E64C2070272001F0E3FE552805D12078E7
:10A3B000002802D1E2490120087010BD10B501212A
:10A3C0000D2001F082FCDC4890F83600072807D009
:10A3D000082805D0BDE810400121DA4800F034BE5D
:10A3E000BDE810400121D84800F02EBE70B588B0FD
:10A3F00001214C2001F069FC4FF4F040ADF81C0045
:10A4000014208DF81F00D14E07A9304600F08BFDB7
:10A410004321ADF81C1010258DF81F5003248DF832
:10A420001E4007A9304600F07EFD4321304600F073
:10A43000EBFD3020ADF81C008DF81F508DF81E404C
:10A44000C34D07A9284600F06EFD3021284600F0D4
:10A45000DBFD0121052001F043FC0121092001F071
:10A4600034FC0121BB4800F0EFFD4FF47061ADF802
:10A470001C1018218DF81F108DF81E4007A92846C2
:10A4800000F051FD4FF47A70ADF814000020ADF8E3
:10A490001000ADF81600ADF812004FF0804404A98A
:10A4A000204600F041FEAC4D04A9284600F03CFED9
:10A4B0007021ADF800100121ADF802100221ADF8B5
:10A4C00008106946204600F0E1FE6946204600F08B
:10A4D0001BFF6946284600F0D9FE6946284600F071
:10A4E00013FF0821204600F0E5FF0821204600F078
:10A4F000E7FF0821284600F0DDFF0821284600F08C
:10A50000DFFF0121204600F037FF0121284600F03F
:10A5100033FF0021204601F0F7F80021204601F02A
:10A52000F5F80021284601F0EFF80021284601F057
:10A53000EDF808B070BDADF5836D4FF000097E4DAC
:10A54000092485F8364002F0A9FE482002F06CFE8E
:10A5500001F008FE272001F00BFE552809D100214B
:10A56000272001F026FE7DA005F00CFC7E4803F0BC
:10A5700024FF4FF4A06000F011FCFFF71FFFFFF76E
:10A58000C5FEFFF733FF01F017FC092001F0F0FDD5
:10A59000A872092800D820B92146AC72092001F020
:10A5A00008FE02F07CFFFFF7D5FEFFF7AFFEDFF8F5
:10A5B0009081002788F80170A8F80470D12001F07C
:10A5C000D7FD08F108042070C4F80170A0F155010E
:10A5D0004FF6FF76102926D8D22001F0C9FD8DF85C
:10A5E0000800D32001F0C4FD8DF80900D42001F04B
:10A5F000BFFD8DF80A00D52001F0BAFD8DF80B00E3
:10A600009DF808109DF8092001EB02219DF80A2011
:10A61000120402EB00600844C4F80100B04206D105
:10A62000C4F8017003E0FF2801D1C4F8016042487A
:10A6300090F83600092859D00B285CD043214BA054
:10A6400005F0A0FBFFF774FE05F01AF841F61F4174
:10A65000322001F0DFFE4E4807604E4807704E4D35
:10A6600028886FF30E002880687820F080006870DA
:10A6700088F8027000264948FA2101706078C00706
:10A6800015D04FF4E13002F071FD02F087F802F0CE
:10A6900006F90646022E33D041A005F073FB0020D8
:10A6A00002F02FF9642002F0E4FDFFF741FE02F012
:10A6B0001AFECDF80C04DFF884A04FF0010BFFF771
:10A6C00037FE02F010FECDF81004DDF8100401F0A2
:10A6D00098FBDDF80C14DDF8100443F69825401AB9
:10A6E000A84217D99AF8000070B113E0432130A0B6
:10A6F00005F048FBA6E7432134A005F043FBA1E7A2
:10A7000039A005F03FFBCAE73BA005F03BFB16482C
:10A7100003F053FE3B4C94F8010400060AD5022EC8
:10A7200008D094F8010420F0800084F8010436A0D9
:10A7300005F028FB5EE10000C21400205500002057
:10A74000000000200004300000023000001801402A
:10A75000000C0140000318000008004032204A5558
:10A760004D500D0A0000000000800008706C65610B
:10A770007365207365742070616E656C20747970E8
:10A7800065207265763A202025750D0A00000000CC
:10A790004C0000209F000020C00C0020570000202B
:10A7A0007769666920696E6578697374210D0A009E
:10A7B00054313020626F6F746C6F61646572207207
:10A7C00065763A2025750D0A00000000543130509E
:10A7D00020626F6F746C6F61646572207265763A87
:10A7E0002025750D0A000000776966692065786983
:10A7F0007374210D0A00000031204A554D500D0A96
:10A8000000000000C00800206572726F72200D0AFF
:10A810000000000002F067FDCDF81004DDF8100420
:10A8200001F0EFFAFFF784FD98F8010008B1012864
:10A8300022D10A2002F01DFDC94C2078012812D136
:10A8400002F03EFE60B102F028FE02F055FDC5495F
:10A85000002002F0A2FEC349002003F06DF901E0E0
:10A8600002F098FD2770C049087828B1401EC0B298
:10A87000087008B902F08EFDDDF80C14DDF8100444
:10A8800043F69824401AA04208D99AF8000028B943
:10A89000B6A005F077FAB84803F08FFDB74D2878D9
:10A8A00068B9B7490A7852B1B64ADDF8100412689F
:10A8B000821A41F28830824230D30F702EE0012894
:10A8C00010D0022819D0DDF80C14DDF81004401A5D
:10A8D000A04202D39AF8000078B198F8000001284D
:10A8E0000BD01BE0A848DDF810140068091A42F2EA
:10A8F0001070814212D32F7010E002F0F4FCCDF8FA
:10A900000C0439462F708AF80010102001F051FC19
:10A910009EA005F037FA984803F04FFD98F8010023
:10A9200008B1032866D198F8020050EA090061D105
:10A93000022E5FD100249848CDF8140428220DF58A
:10A940008160DDF8141402F09AF9F0B1924DE878C4
:10A950000090AB786A78297890A005F013FA15F882
:10A96000380940B995F8390028B995F83A0010B976
:10A9700095F83B0010B188F802B00DE041F2883044
:10A9800002F077FC88F8027002E0C82002F071FC47
:10A99000641CE4B2052CD1D398F8020008B94FF03A
:10A9A00001094FF4FA752B46002282A182A001F022
:10A9B00024FF012001F0DDFF00F0A1FB2B46002267
:10A9C0007CA181A001F019FF42F2107508E000F0AF
:10A9D00096FB0A2002F04DFC641CE4B2032C09D261
:10A9E00002232A4650217CA0CDF800B002F009F8DD
:10A9F0000028ECD07C4890F8010400067FF50AAFEF
:10AA0000022E67D17102794805F036FBA8F806706E
:10AA1000002002F009FA764C01462088C0F30E02AD
:10AA2000744805F0E4FA20886FF30E002080607807
:10AA300020F08000607098F8010008B1032849D127
:10AA40006C48C0793038C4B268496A4802F001FAEB
:10AA5000A8F80600F0B3012C7ED102AD474C217856
:10AA600011B1012978D169E00246604902A805F0D8
:10AA7000BEFAB8F806002D286ED15FA1284605F071
:10AA800059FA40B33E208AF80000012004F0ACFDE2
:10AA90005D4D01231F220020296802F089F93E48FC
:10AAA0009DF82110383890F8382091421BD19DF83C
:10AAB000221090F83920914215D19DF8231090F87A
:10AAC0003A2091420FD19DF8241090F83B0081422A
:10AAD00009D101E040E022E02949022008704B48FA
:10AAE00080F800B01BE026480178E9B107709DF8B6
:10AAF0001500A0B19DF8160088B19DF8170070B13F
:10AB00009DF8180058B1012004F06EFD01231F22AA
:10AB10000020296802F04CF9142002F0AAFB184822
:10AB20000078022803D017E080F800B0DFE702F0D9
:10AB3000DAFB1549086084F800B00DE002462B49A5
:10AB400002A805F054FA02A9012004F0D4FF30480D
:10AB5000007808B102202070012002F08AFBAEE5E7
:10AB600056000020FE1400205700002033204A55D4
:10AB70004D500D0A00000000008000089F000020DA
:10AB80009E000020A8000020AC00002034204A5580
:10AB90004D500D0A00000000FA1400207769666924
:10ABA0002049502025752E25752E25752E25750DCD
:10ABB0000A0000004F4B000041542B4349504D4FB9
:10ABC00044453D300000000041542B434950434C64
:10ABD0004F53453D350000003235352E3235352E88
:10ABE0003235352E32353500C0080020C004002033
:10ABF000C00C0020C000002054656D636F636F6E51
:10AC000074726F6C73000000A40000209D0000208F
:10AC1000B40000207047FEE7FEE7FEE7FEE770475E
:10AC200070477047704700000CB5002201920092F7
:10AC30005248016841F4803101604FF4A06301681B
:10AC400001F4003100910199491C0191009911B959
:10AC500001999942F3D10168890302D5012100913C
:10AC600000E000920099012930D145490A6842F07C
:10AC700010020A600A6822F003020A600A6842F0C1
:10AC800002020A604168416041684160416841F4E4
:10AC900080614160416821F47C114160416841F468
:10ACA000E8114160016841F080710160016889012B
:10ACB000FCD5416821F003014160416841F0020187
:10ACC00041604168C1F381010229FAD10CBDABE7B3
:10ACD00010B52A48016841F0010101604168294A24
:10ACE000114041600168284A11400160016821F467
:10ACF00080210160416821F4FE0141604FF41F0191
:10AD00008160FFF7E4FF21494FF00060086010BD4B
:10AD100010B51A4A506800F00C011D4B1D4800295F
:10AD20000ED004290ED008290ED003605168194AAC
:10AD3000C1F30311121D515C0268CA40026010BDCC
:10AD40000360F3E70360F1E7516801F470115368A1
:10AD500003F48033022404EB914133B153689B0325
:10AD600007D50D4B59430160E0E70B4B5943016098
:10AD7000DCE7074B59430160D8E7000000100240B0
:10AD8000002002400000FFF8FFFFF6FE08ED00E0A3
:10AD900000127A001000002000093D002A490843F3
:10ADA0002A490860704770B50F23C27801260178E0
:10ADB000002A1ED0254A126802F4E062C2F5E06261
:10ADC000120AC2F10404D3404578A54082781A40A3
:10ADD0002A43120101F1E02181F80024007800F0FB
:10ADE0001F018E404009800000F1E020C0F80061A2
:10ADF00070BD01F01F0086404809800000F1E0208E
:10AE0000C0F8806170BD124A114001430F48001F15
:10AE1000016070470D4A121D002903D011680143DB
:10AE20001160704711688143116070474FF0E02155
:10AE3000042804D0086920F00400086170470869FC
:10AE400040F00400086170470000FA050CED00E0D6
:10AE500080FFFF1F10B59C49884209D101210420C1
:10AE600000F049FF0021BDE81040042000F043BF7E
:10AE70009649884209D10121082000F03CFF0021B9
:10AE8000BDE81040082000F036BF9149884209D142
:10AE90000121102000F02FFF0021BDE810401020FC
:10AEA00000F029BF8B49884209D10121202000F000
:10AEB00022FF0021BDE81040202000F01CBF864981
:10AEC000884209D10121402000F015FF0021BDE892
:10AED0001040402000F00FBF8049884209D1012175
:10AEE000802000F008FF0021BDE81040802000F025
:10AEF00002BF7B4988420AD184150121204600F017
:10AF0000FAFE2046BDE81040002100F0F4BE10BD5E
:10AF100010B50121084600F0EEFE0021BDE810400A
:10AF2000012000F0E8BE2DE9F0410022CC7804F0C9
:10AF30000F03E40601D58C7823430C784FF00F07FC
:10AF400014F0FF0F4FF0010C1CD005680CFA02F44E
:10AF50000E882640A64211D1960007FA06F825EA87
:10AF6000080503FA06F848EA0505CE78282E02D02F
:10AF7000482E02D002E0446100E00461521C082A1D
:10AF8000E4D305600A88FF2A1ED94568002202F131
:10AF900008060CFA06F40E882640A64210D1960048
:10AFA00007FA06F825EA080503FA06F848EA05054F
:10AFB000CE78282E00D14461CE78482E00D104618D
:10AFC000521C082AE3D34560BDE8F0814FF6FF71BB
:10AFD0000180022181700421C17070470246002067
:10AFE00092680A4200D001207047806880B27047A2
:10AFF00002460020D2680A4200D001207047C06893
:10B0000080B270470161704741617047002A01D0EA
:10B010000161704741617047C160704741F48032FF
:10B0200082618161826181698069704710B52D4BB1
:10B030001A684FF68074224042EA001008431860F4
:10B0400010BD2949C8617047F0B5264C002801DAC7
:10B05000E36900E06368C0F30346420D120185B264
:10B06000C0F301579540032F07D0C2020CD503222D
:10B07000B240934343F0706209E023F0706263686A
:10B0800023F07063636002E0AB4343F0706201B190
:10B090002A43002801DAE261F0BD6260F0BD10B51C
:10B0A0008A07120F0F23934021F003040D49214416
:10B0B0008C689C438C608B68904003438B6010BD10
:10B0C0000949DC310860704700080140000C01406C
:10B0D000001001400014014000180140001C014014
:10B0E0000020014000000140000020420D4908609E
:10B0F00070470C49486070470A49886070470949A1
:10B100004AF6AA200860704706494CF6CC40086011
:10B11000704701460020034AD2680A4200D001204D
:10B12000704700000030004030B50288F94CFA4DFD
:10B13000A0420DD0A8420BD0B0F1804F08D0F74B01
:10B14000984205D0F64B984202D0F64B984203D174
:10B1500022F070034A881A43F34B984206D0F34B0F
:10B16000984203D022F44073CA881A4302808A8826
:10B1700082850A880285A0420AD0A84208D0EC4AFB
:10B18000904205D0EB4A904202D0EB4A904201D166
:10B19000097A01860121818230BD30B5028C22F00E
:10B1A00001020284028C8388048B24F0700424F052
:10B1B00003050C882C4322F002020D8915434A88AE
:10B1C0002A43D44DA8420BD0D34DA84208D0D84D25
:10B1D000A84205D0D74DA84202D0D74DA8420FD1E2
:10B1E00022F008054A892A4322F004058A882A4366
:10B1F00023F4807323F400738D891D43CB892B4383
:10B2000083800483C9888186028430BD70B5028C36
:10B2100022F010020284028C8388048B24F4E04420
:10B2200024F440760D884FF6FF7404EA0525354373
:10B2300022F020020E8904EA061616434A8804EA20
:10B2400002123243B34EB04202D0B34EB04217D1D5
:10B2500022F080024E8904EA0616164326F04006C4
:10B260008A8804EA0212324323F4806323F40063E1
:10B270008E8904EA86061E43CB8904EA830333439E
:10B2800083800583C9880187028470BD70B5028CF4
:10B2900022F480720284028C8388848B24F07004F0
:10B2A00024F003040D88254322F400720E894FF622
:10B2B000FF7404EA062616434A8804EA022232434F
:10B2C000944EB04202D0944EB04217D122F40066A0
:10B2D0004A8904EA0222324322F480668A8804EA18
:10B2E0000222324323F4805323F400538E8904EA6C
:10B2F00006161E43CB8904EA0313334383808583F8
:10B30000C9888187028470BD70B5028C22F4805296
:10B310000284058C8288838B23F4E04323F44076F7
:10B320000C884FF6FF7303EA0424344325F40055D8
:10B330000E8903EA06362E434D8803EA0535354368
:10B34000744EB04202D0744EB04205D122F4804611
:10B350008A8903EA8212324382808483C988A0F8F2
:10B360004010058470BD4FF6FF718180002101807F
:10B37000C180418001727047002904D0018841F0EA
:10B38000010101807047018821F0010101807047AF
:10B39000002A03D082890A438281704782898A43C6
:10B3A00082817047018582827047028822F0700294
:10B3B0000A4302807047028922F070020A43028128
:10B3C000704770B50589048B068C25F007050D4381
:10B3D0004FF6FC410C4040F201110C4326F02206CE
:10B3E0004FF6FF7101EA03111143314305810483D4
:10B3F000018470BD028B22F070020A430283704701
:10B40000028B22F4E0424FF6FF7303EA012111435D
:10B4100001837047828B22F070020A438283704757
:10B42000828B22F4E0424FF6FF7303EA01211143BD
:10B4300081837047002904D0018841F08001018098
:10B440007047018821F0800101807047002904D0F5
:10B45000818841F0040181807047818821F00401D6
:10B4600081807047002904D0818841F008018180E3
:10B470007047818821F0080181807047002904D03D
:10B48000818841F0010181807047818821F00101AC
:10B4900081807047028B22F008020A4302837047C2
:10B4A000028B22F400624FF6FF7303EA012111437D
:10B4B00001837047828B22F008020A43828370471F
:10B4C000828B22F400624FF6FF7303EA01211143DD
:10B4D00081837047028B22F004020A430283704783
:10B4E000028B22F480624FF6FF7303EA01211143BD
:10B4F00001837047828B22F004020A4382837047E3
:10B50000828B22F480624FF6FF7303EA012111431C
:10B5100081837047002C014000340140000400404A
:10B5200000080040000C00400010004000140040E3
:10B53000004001400044014000480140028B22F0DD
:10B5400080020A430283E4E7028BC2F30E024FF645
:10B55000FF7303EA012111430183DAE7828B22F0B2
:10B5600080020A438283D4E7828BC2F30E024FF635
:10B57000FF7303EA012111438183CAE7028C22F0A1
:10B5800002020A430284C4E7028C22F008020A4342
:10B590000284BEE7028C22F020024FF6FF7303EA1A
:10B5A000011111430184B4E7028C22F080024FF6AE
:10B5B000FF7303EA011111430184AAE7028C22F40C
:10B5C00000724FF6FF7303EA012111430184A0E7E3
:10B5D000028C22F400624FF6FF7303EA012111434B
:10B5E000018496E7028C22F400524FF6FF7303EABF
:10B5F0000131114301848CE710B501238B40048C89
:10B600009C430484038C8A401343038410BD10B50B
:10B6100004238B40048C9C430484038C8A40134392
:10B62000038410BD30B500F1180301248C40058C53
:10B63000A5430584002911D008290FD0091FC1F3A3
:10B640004E001844016821F4E041016001684FF6A2
:10B65000FF7303EA02221143016030BD03EB510086
:10B66000016821F07001016001681143016030BD83
:10B67000002904D0018841F00201018049E70188D6
:10B6800021F00201018044E7002904D0018841F043
:10B69000040101803DE7018821F00401018038E7C1
:10B6A000002904D0818841F08001818031E78188C0
:10B6B00021F0800181802CE7028822F008020280BC
:10B6C00002880A43028024E7828822F07002828086
:10B6D00082880A4382801CE7028922F007020281E5
:10B6E00002890A43028114E7028922F08002028162
:10B6F00002890A4302810CE781840AE7818508E711
:10B70000818606E7018704E7818702E7A0F84010F9
:10B71000FFE6028B22F00C020283028B0A430283B3
:10B72000F7E6028B22F440620283028B4FF6FF732E
:10B7300003EA01210A430283EBE6828B22F00C022A
:10B740008283828B0A438283E3E6828B22F4406207
:10B750008283828B4FF6FF7303EA01210A438283BF
:10B76000D7E6028822F44072028002880A430280EF
:10B77000CFE6808ECDE6008FCBE6808FC9E6B0F8AD
:10B780004000C6E6808CC4E6008DC2E6024600207A
:10B79000128A0A4200D00120BBE6C9430182B8E602
:10B7A00002460020138A0B4092890A40002B02D0E7
:10B7B000002A00D00120ACE6C9430182A9E60000BE
:10B7C00010B5E14988420AD101218C03204600F0DE
:10B7D00092FA2046BDE81040002100F08CBADB4907
:10B7E00088420AD101214C04204600F08FFA2046FD
:10B7F000BDE81040002100F089BAD54988420AD13D
:10B8000001218C04204600F081FA2046BDE810405A
:10B81000002100F07BBACF4988420AD10121CC0433
:10B82000204600F073FA2046BDE81040002100F0E9
:10B830006DBAC94988420AD101210C05204600F0A1
:10B8400065FA2046BDE81040002100F05FBA10BD47
:10B8500030B585B004460D46208A4CF6FF7108408D
:10B86000E98801432182A0894EF6F3110840A98896
:10B870002A8911436A8902431143A181A08A4FF6A4
:10B88000FF410840A9890143A182684600F0C5F93B
:10B89000AD48844201D1039800E00298A1890904CF
:10B8A00008D500EBC00101EB001029684900B0FB8E
:10B8B000F1F007E000EBC00101EB001029688900FE
:10B8C000B0FBF1F06422B0FBF2F109010B096FF05B
:10B8D00018056B4300EB8300A3891D044FF032036E
:10B8E00007D503EBC000B0FBF2F000F007000843FF
:10B8F00006E003EB0010B0FBF2F000F00F0008438D
:10B90000208105B030BD4FF41651016000218180C7
:10B91000C18001810C2242818181704710B5038A68
:10B920004FF2FF0213400A884C8822438C88C98852
:10B930000C4322431A43028210BD00210180418042
:10B940008180C1807047002904D0818941F4005171
:10B9500081817047818921F400518181704710B540
:10B9600040F66A13C1F3421301F01F040121A14004
:10B97000012B07D0022B07D014303AB102680A43DA
:10B98000026010BD0C30F8E71030F6E702688A4319
:10B99000026010BD002A03D0828A0A438282704767
:10B9A000828A8A4382827047028A22F00F020282D0
:10B9B000028A0A4302827047828922F400628281ED
:10B9C00082890A4382817047002904D0818941F02D
:10B9D000020181817047818921F0020181817047D4
:10B9E000028A22F020020282028A0A4302827047FF
:10B9F000002904D0018A41F4804101827047018A04
:10BA000021F4804101827047C1F3080181807047B1
:10BA10008088C0F308007047818941F0010181816D
:10BA20007047028BD2B20283028B42EA012101836A
:10BA30007047028B02F47F420283028B0A43028327
:10BA40007047002904D0818A41F02001818270472B
:10BA5000818A21F0200181827047002904D0818AE7
:10BA600041F0100181827047818A21F010018182AA
:10BA70007047002904D0818A41F008018182704713
:10BA8000818A21F0080181827047002904D08189D0
:10BA900041F40041818170478189C1F30E018181A8
:10BAA0007047002904D0818A41F400618182704787
:10BAB000818A21F4006181827047828A22F0040227
:10BAC0008282828A0A4382827047002904D0818A56
:10BAD00041F0020181827047818A21F00201818256
:10BAE00070470246002012880A4200D001207047A9
:10BAF0008A05C9430180704770B5002440F66A1278
:10BB0000C1F3421301F01F05012606FA05F2012BCD
:10BB10000CD0022B0DD0838A1340090A8E40008876
:10BB200030400BB100B10124204670BD8389134021
:10BB3000F3E7038A1340F0E740F66A120A0A01218C
:10BB40009140C943018070470038014000440040E3
:10BB500000480040004C0040005000407E48016812
:10BB600041F00101016041687C4A11404160016877
:10BB70007B4A11400160016821F480210160416825
:10BB800021F4FE0141604FF41F018160704772494A
:10BB90000A6822F480320A600A6822F480220A606D
:10BBA000B0F5803F07D0B0F5802F03D1086840F48E
:10BBB000A02008607047086840F480300860704733
:10BBC000034600205909644A01290AD002290AD0F3
:10BBD000516A03F01F02012393400B4200D0012061
:10BBE00070471168F5E7116AF3E718B50020009077
:10BBF0004FF4A0643120FFF7E3FF0099491C009146
:10BC00000099A14201D00028F4D03120FFF7D8FFDD
:10BC100008B1012018BD002018BD10B54E4A51686A
:10BC200001F00C014F4B002927D0042927D0082907
:10BC300027D00360516801F0F00109094A4B5C5CB0
:10BC40000168E1404160546804F4E064240A1C5D2A
:10BC500021FA04F48460546804F46054E40A1B5D1F
:10BC6000D940C160526802F44042920B3E4B1B1F08
:10BC70009A5CB1FBF2F1016110BD0360DAE7036089
:10BC8000D8E7516801F47011536803F4803302243B
:10BC900004EB914133B153689B0307D5334B5943B0
:10BCA0000160C7E7314B59430160C3E72D4B59434E
:10BCB0000160BFE7284A002903D05169014351615F
:10BCC00070475169814351617047234A002903D06D
:10BCD0009169014391617047916981439161704716
:10BCE0001D4A002903D0D1690143D1617047D16950
:10BCF0008143D1617047184A002903D0D1680143BC
:10BD0000D1607047D1688143D1607047124A0029E1
:10BD100003D01169014311617047116981431161B9
:10BD200070471349086070471249C86470470A4950
:10BD3000C87170470848416A41F08071416270479C
:10BD400001460020044A92680A4200D00120704750
:10BD50000149887270470000001002400000FFF89F
:10BD6000FFFFF6FE00127A002800002000093D00C7
:10BD700040044242000042420948804709480047C7
:10BD8000FEE7FEE7FEE7FEE7FEE7FEE7FEE7FEE78B
:10BD9000FEE7FEE704480549054A064B70470000E8
:10BDA000E50B000831010008F0490020F06900208F
:10BDB000F0590020F059002038B501210420FFF788
:10BDC00084FF0120ADF8000010208DF8030003204F
:10BDD0008DF802002A4C69462046FFF7A4F801219D
:10BDE0002046FFF70FF938BD01212548FFF70CB9B0
:10BDF00001212348FFF706B922480168C9430160C1
:10BE0000704770B50446002C09D01F4D6868201A91
:10BE1000052819D31D480078012803D010E0BDE89B
:10BE20007040E9E71A490888401C80B2088042F255
:10BE30001071884204D917A003F0A4FF01F0A0FB01
:10BE40006C602878401C287028783C2811D006DCCB
:10BE500014280BD0282808D1BDE87040C8E7502826
:10BE60000AD0C82801D10020287070BDBDE87040FC
:10BE7000BAE7BDE87040B7E7BDE87040B8E700003A
:10BE80000008014080012142380000209D00002070
:10BE9000A00000207265626F6F7420616674657225
:10BEA000207368616B6520646F6E65200D0A000069
:10BEB00038B5954C208FADF8000048208DF8030070
:10BEC0006946606BFFF72FF8218F606BFFF79AF8D8
:10BED00038BD38B58C4C208FADF8000010208DF89F
:10BEE000030003208DF802006946606BFFF71BF822
:10BEF000218F606BFFF786F838BD834A002803D096
:10BF0000918D906AFFF77EB8918D906AFFF77CB8AB
:10BF10007D4A002803D0118F506BFFF773B8118F43
:10BF2000506BFFF771B87848018F406BFFF756B838
:10BF3000F8B5754C0121606AFFF7C7FEA08DADF81A
:10BF4000000010258DF8035003268DF80260694625
:10BF5000A06AFEF7E8FFA18DA06AFFF753F8012160
:10BF6000206BFFF7B2FE208FADF800008DF8035074
:10BF70008DF802606946606BFEF7D5FF218F606B1C
:10BF8000FFF740F8F8BD10B5FFF7A3FF0120FFF75A
:10BF9000BFFF0120FFF7B1FF042001F058F9002096
:10BFA000FFF7B6FF042001F052F9BDE81040002071
:10BFB000A3E710B5FFF78DFF0020FFF79EFF0020DD
:10BFC000FFF7A6FF042001F042F90120FFF795FFDB
:10BFD0000120FFF79DFFBDE81040042001F037B9B4
:10BFE00010B500240120FFF793FFFFF761FF012048
:10BFF00001F02DF90120FFF780FF012001F027F962
:10C0000007E0641CE4B2FA2C03D9FFF7D2FF012049
:10C0100010BDFFF788FF0028F3D1FFF76EFF002067
:10C0200010BD10B50020FFF768FFFFF752FF00209A
:10C03000FFF76EFF022001F00AF90120FFF75DFF14
:10C04000022001F004F9BDE81040002055E710B5CA
:10C050000020FFF752FFFFF73CFF0120FFF758FFDA
:10C06000022001F0F4F80120FFF747FF022001F061
:10C07000EEF8BDE8104000203FE770B50546FFF739
:10C0800028FF0020FFF739FF0024E809FFF740FFF1
:10C090006806050E022001F0DAF80120FFF72DFFF7
:10C0A000022001F0D4F80020FFF727FF022001F062
:10C0B000CEF8641CE4B2082CE7D370BD70B5064618
:10C0C0000024FFF7F5FE00250020FFF716FF0220F1
:10C0D00001F0BDF80120FFF710FF6006040EFFF726
:10C0E00022FF08B1641CE4B2012001F0B0F86D1C1D
:10C0F000EDB2082DE8D31EB1FFF793FF204670BDC7
:10C10000FFF7A5FFFAE700003062000838B56B4C76
:10C11000E06B002815D054F83C0F0121FFF7D5FD46
:10C120002089ADF8000010208DF8030003208DF861
:10C13000020069466068FEF7F6FE21896068FEF736
:10C1400061FF38BD5D4AD16B00290AD020B1B2F839
:10C150004410106CFEF756BFB2F84410106CFEF796
:10C1600053BF704710B5FFF7E3FEBDE81040CDE7C1
:10C1700010B50446FFF707FF200AA02101EB40009D
:10C18000C0B2FFF77AFFFFF72BFFE0B2FFF775FFB2
:10C19000FFF726FFFFF7F7FEA120FFF76EFFFFF77F
:10C1A0001FFF0020FFF78AFF0446FFF702FF20462B
:10C1B00010BD70B504460D460020FFF7C3FFFFF722
:10C1C000E2FE200AA02101EB4000C0B2FFF755FFBC
:10C1D000FFF706FFE0B2FFF750FFFFF701FF284629
:10C1E000FFF74BFFFFF7FCFEFFF7E3FE0120FFF731
:10C1F000A9FFBDE87040052001F03BB82DE9F041F2
:10C2000006460D461746002409E0E00025FA00F036
:10C21000C1B2301980B2FFF7CCFF641CE4B2BC425B
:10C22000F3D3BDE8F0812DE9F04102460E4600202F
:10C230000024971908E00502381B401E80B2FFF762
:10C2400097FF2844641CE4B2B442F4D3E9E710B584
:10C25000FF20FFF78DFF55280AD05521FF20FFF75B
:10C26000A8FFFF20FFF784FF552803D0012010BD51
:10C27000002010BD002010BD70B504460E461546C6
:10C2800008E02046641CA4B2FFF772FF06F8010B19
:10C290006D1EADB2002DF4D170BD70B506460D46D1
:10C2A000144606E029783046FFF783FF761CB6B2C5
:10C2B0006D1C641EA4B2F5D270BD0000306200088F
:10C2C00043484249416043494160704740480169E1
:10C2D00041F08001016170473D48C068C10701D04D
:10C2E00001207047410701D502207047C00601D5E3
:10C2F000032070470020704770B50446FFF7ECFF3D
:10C300000546012D05D100F0A2FF641EA4B2002C49
:10C31000F4D104B9FF25284670BD70B5054645F631
:10C32000FF763046FFF7E8FF002812D1284C20693D
:10C3300040F0020020616561206940F0400020610A
:10C340003046FFF7D9FF012803D0216921F002010F
:10C35000216170BD70B506460D46FF20FFF7CCFF8A
:10C3600000280ED11A4C206940F001002061358070
:10C37000FF20FFF7C1FF012803D0216921F001014F
:10C38000216170BD008870472DE9F04105460E46D9
:10C390001746002407E036F814102846FFF7DAFFA6
:10C3A000AD1C641CA4B2BC42F5D3BDE8F08110B54D
:10C3B0000446002307E02046FFF7E4FF21F81300BE
:10C3C000A41C5B1C9BB29342F5D310BD23016745AF
:10C3D00000200240AB89EFCD70B5444D01212846C5
:10C3E000FFF7D4F9012814D1414C207848B1414BD2
:10C3F00019884A1C1A80B1F57A7F02D90021217070
:10C40000198000F06BFF2846BDE870400121FFF75E
:10C41000C4B970BD7FB504460D4601210220FFF767
:10C420005FFCADF80840ADF804500024ADF80A40B8
:10C43000ADF806402D4D01A92846FEF775FE1D21D9
:10C440008DF800108DF801408DF8024001218DF823
:10C4500003106846FEF7A7FC012211462846FEF7A6
:10C4600097FF01212846FEF787FF7FBD10B5224CBC
:10C4700001212046FFF78AF9012803D11F480168EE
:10C48000491C01602046BDE810400121FFF785B935
:10C490007FB504460D4601211020FFF721FCADF8C1
:10C4A0000840ADF804500020ADF80A00ADF80600D1
:10C4B000114C01A92046FEF737FE36218DF80010F9
:10C4C00001218DF8011003228DF802208DF8031050
:10C4D0006846FEF768FC012211462046FEF758FF29
:10C4E00001212046FEF748FF7FBD00000004004008
:10C4F0000100002004000020001000404000002047
:10C50000F0B503460025084600260A2A01D0067029
:10C51000F0BD002B1DD005DA4FF02D0200F8012BE5
:10C52000C3F1000342F210724FF00A0793FBF2F4DA
:10C5300054EA050C06D004F1300500F8015B04FB59
:10C540001233012592FBF7F2002AEFDC0670084651
:10C55000F0BD3022027046700846F0BD0FB430B511
:10C5600085B005460AA800900EE05C2914D0252964
:10C570002CD0521C28460992FFF746FA8021284603
:10C58000FFF7AFFA0028F9D0099A11780029ECD109
:10C5900005B030BC5DF814FB521C099210786E286F
:10C5A0000CD0722802D0521C0992E7E70D212846D0
:10C5B000FFF72AFA0998401C0990DFE70A2128466C
:10C5C000FFF722FA0998401C0990D7E7521C0992FC
:10C5D0001078642819D0732802D0521C0992CDE734
:10C5E000009810C8009009E02846FFF70DFA802156
:10C5F0002846FFF776FA0028F9D0641C2178002934
:10C60000F2D10998401C0990B8E7009808C800903A
:10C610000A2201A91846FFF773FF01AC09E028467A
:10C62000FFF7F2F980212846FFF75BFA0028F9D0DE
:10C63000641C21780029F2D10998401C09909DE7DB
:10C6400008B54FF4A060FEF7A9FB34208DF8000078
:10C6500000208DF801008DF8020001208DF8030004
:10C660006846FEF7A0FB08BD10B586B00121C804DE
:10C67000FFF736FB01211020FFF727FB4FF4806006
:10C68000ADF8140018208DF8170003208DF816005F
:10C69000FC4C05A92046FEF746FCE114ADF8141049
:10C6A00004218DF8171005A92046FEF73CFC4FF435
:10C6B000E13001900020ADF80800ADF80A00ADF8B7
:10C6C0000C00ADF810000C20ADF80E00EE4C01A9E6
:10C6D0002046FFF7BDF8012240F225512046FFF722
:10C6E0003EF9012240F224412046FFF738F9FFF7D6
:10C6F000A7FF01212046FFF726F906B010BDF8B5C7
:10C70000E2481024032590F8360005281AD00628A0
:10C7100018D007282CD0092813D101212020FFF799
:10C72000D4FA0420ADF800008DF803408DF80250D3
:10C73000D74C69462046FEF7F6FB04212046FEF75B
:10C7400061FCF8BD01210802FFF7BFFA4FF48056E3
:10C75000ADF800608DF803408DF80250CD4C69466D
:10C760002046FEF7E0FB31462046FEF74BFCF8BDC5
:10C7700001211020FFF7A9FA4FF40076ADF8006010
:10C780008DF803408DF80250BE4C69462046FEF7F6
:10C79000CAFB31462046FEF735FCF8BD10B5FFF761
:10C7A000AEFFFFF761FFB948012190F83600052878
:10C7B00008D0062806D0072807D0092801D1B64896
:10C7C000016010BDB548016010BDB548016010BDE5
:10C7D000AE48002190F83600052808D0062806D07B
:10C7E000072807D0092801D1AB4801607047AB4842
:10C7F00001607047AA48016070472DE9F0410E467C
:10C8000017460246A7A1A048FFF7A8FE56EA070070
:10C810000ED0A64DB5F800046FF30E00A5F8000485
:10C8200095F8010420F0800085F80104002407E059
:10C830000120BDE8F081322000F01BFDFEF75FFC17
:10C8400095F80104000604D42046641CA4B20A280A
:10C85000F1D3B5F800140020C1F30E0168546EB195
:10C8600067B13146914803F065FB28B939468F48D6
:10C8700003F060FB0028DCD00120DAE73EB131464E
:10C880008A4803F057FB0028D3D00120D1E739466E
:10C89000864803F04FFB0028CBD00120C9E770B5D4
:10C8A00000247A48012190F83600052806D0062891
:10C8B00004D0072805D0092806D007E07748016092
:10C8C00004E07748016001E0734801604FF47A703A
:10C8D00000F0CFFC4FF4FA750CE02B46002274A157
:10C8E00074A0FFF78AFF08B1022070BDFFF770FF48
:10C8F000641CE4B20A2CF0D301D0012070BD0020EA
:10C9000070BD40F6C413002805D0012807D00228C6
:10C9100009D00020704768A265A16AA06DE766A2F1
:10C9200063A16BA069E764A261A16CA065E700B593
:10C930009FB00B4602466CA101A803F02FFA41F20A
:10C94000883300225AA101A8FFF757FF1FB000BD8E
:10C9500000B59FB00B460092024668A101A803F003
:10C960001DFA4FF47A73002251A101A8FFF745FF89
:10C97000ECE700B585B0002801D0012200E00022DC
:10C9800064A1684603F00AFA4FF4FA73002248A142
:10C990006846FFF732FF05B000BDF0B5B9B00446F8
:10C9A0000F4615461E46642120A803F087FB14B1EC
:10C9B000012C0FD107E03B465AA25BA120A80095AD
:10C9C00003F0ECF906E03B465BA257A120A80095D6
:10C9D00003F0E4F9052E06D220AB324657A102A897
:10C9E00003F0DCF904E020AA59A102A803F0D6F96B
:10C9F0004FF47A635AA22EA102A8FFF7FEFE39B0C7
:10CA0000F0BD2DE9F041BAB08046409F0E46154674
:10CA10001C46642121A803F051FBCDE90065434683
:10CA200045A253A121A8029403F0B8F9052F06D21C
:10CA300021AB3A4641A103A803F0B0F904E021AAD2
:10CA400043A103A803F0AAF94FF47A6344A218A102
:10CA500003A8FFF7D2FE3AB0EBE610B59EB04FF454
:10CA6000FA7400280DD00B46012246A1684603F057
:10CA700095F9234610A20EA16846FFF7BEFE1EB030
:10CA800010BD89E000100140004C0040C21400209D
:10CA9000001401400020014088812242B00124425C
:10CAA000A401224225730D0A00000000C0080020E6
:10CAB0004F4B0000415400006E6F206368616E6749
:10CAC0006500000041542B43574D4F44453D310014
:10CAD00041542B43574D4F44453D320041542B4365
:10CAE000574D4F44453D330041542B43574A415025
:10CAF0003D222573222C22257322000041542B4312
:10CB0000575341503D222573222C222573222C316C
:10CB10002C25640041542B4349504D55583D256404
:10CB20000000000054435000222573222C2225735C
:10CB3000222C2573000000005544500041542B4323
:10CB4000495053544152543D25642C257300000034
:10CB500041542B43495053544152543D25730000D6
:10CB6000414C5245415920434F4E4E4543540000DD
:10CB7000222573222C222573222C25642C25642C3B
:10CB80002564000041542B434950534552564552A9
:10CB90003D25642C257300000B460022AFF21C01DA
:10CBA000684603F0FBF823460022AFF2FC0168461A
:10CBB000FFF723FE63E710B54FF4FA730022AFF2DC
:10CBC0001011DDA0FFF719FED8B1DFA1E14803F095
:10CBD000B1F908B1022053E7DFA1DE4803F0AAF95A
:10CBE00008B103204CE7DFA1DA4803F0A3F908B14C
:10CBF000042045E7DEA1D74803F09CF908B10520E1
:10CC00003EE700203CE710B500244FF4FA73002201
:10CC1000AFF26411C8A0FFF7F0FD00282DD0D7A116
:10CC2000CC4803F087F900B10124D8A1C94803F02A
:10CC300081F910B144F0020401E024F00204D7A10C
:10CC4000C44803F077F910B144F0040401E024F083
:10CC50000404D6A1BF4803F06DF910B144F00804F4
:10CC600001E024F00804D5A1BA4803F063F910B13B
:10CC700044F0100401E024F01004204600E7F8B569
:10CC80000E4617464FF47A730022AFF2DC11CFA0A4
:10CC9000FFF7B3FD00250024CFA1AE4803F04AF909
:10CCA00010B1C01D002138E00020F8BD435C2E2BE0
:10CCB00002D0032D27D028E0012C04D0022C06D06E
:10CCC000032C0ED01BE09DF80020725517E09DF854
:10CCD00000309DF8012003EB830302EB4302725501
:10CCE0000DE09DF80030642253439DF8012002EBD3
:10CCF000820203EB42029DF802301A4472556D1C09
:10CD0000EDB2002407E0222B09D0303B2246641C00
:10CD1000E4B20DF80230491CC9B2B942C6D3012CA5
:10CD200004D0022C06D0032C0ED01BE09DF800008E
:10CD3000705517E09DF800009DF8011000EB800091
:10CD400001EB400070550DE09DF800106420414358
:10CD50009DF8010000EB800001EB40009DF80210FF
:10CD6000084470550120F8BD10B54FF4FA742346FD
:10CD70000022AFF2C4219AA0FFF73FFD38B123464D
:10CD80009BA2AFF2D421BDE810409AA035E5002067
:10CD900076E610B54FF47A7000F06BFA98A19948D6
:10CDA000FFF7DCFBBDE810404FF4FA7000F061BA09
:10CDB0002DE9F0411646B2B00D461A460024002770
:10CDC000DFF84082002807D02A46AFF270214046A3
:10CDD000FFF7C4FB012724E0052A05D233468AA1C8
:10CDE000684602F0DBFF04E032468CA1684602F0A0
:10CDF000D5FF6A46AFF254314046FFF7AFFB0A2039
:10CE000000F037FA0BE0295D4046FEF7FDFD80217A
:10CE10004046FEF766FE0028F9D0641CA4B2B44276
:10CE2000F1D3384632B004E510B500244949002258
:10CE3000B1F80034C3F30E03CA54002801D00C46E5
:10CE400005E07AA1434803F075F800B1414C204653
:10CE500016E670B50C4675A103F06CF881792C29A3
:10CE600001D0002070BD017A3A2910D1C279303A40
:10CE7000092A0CD892B2002105E043185B7A04F825
:10CE8000013B491C89B29142F7D3104670BD427AEA
:10CE90006FF02F053A2A03D0837A3A2B1AD03EE05E
:10CEA000C279303A092A3AD8302938D3392936D8C4
:10CEB00002EB820205EB420211448AB2002105E036
:10CEC00043189B7A04F8013B491C89B29142F7D37D
:10CED000104670BDC379303B092B20D830291ED3B2
:10CEE00039291CD8302A1AD3392A18D803EBC3069B
:10CEF000303906EB031301EB810102EB830205EBF2
:10CF0000410111448AB2002105E04318DB7A04F89C
:10CF1000013B491C89B29142F7D3104670BD0020F5
:10CF200070BD70470B0A0370417000218170C170A1
:10CF3000110A01714271704741542B4349505354B7
:10CF400041545553000000005354415455533A3254
:10CF50000D0A0000C00800205354415455533A3381
:10CF60000D0A00005354415455533A340D0A000041
:10CF70005354415455533A350D0A00002B43495040
:10CF80005354415455533A302C0000002B43495020
:10CF90005354415455533A312C0000002B4349500F
:10CFA0005354415455533A322C0000002B434950FE
:10CFB0005354415455533A332C0000002B434950ED
:10CFC0005354415455533A342C00000041542B43E0
:10CFD000494653520000000053544149502C22004E
:10CFE00041542B4349504D4F44453D310000000012
:10CFF0003E00000041542B43495053454E4400002D
:10D000002B2B2B00004C004041542B4349505345DF
:10D010004E443D25642C25640000000041542B4300
:10D02000495053454E443D25640000002B4950446F
:10D0300000000000704770B50446012000F085F93B
:10D04000734D40212846FEF74CFD0028F9D0A1B2CF
:10D050002846FEF7D9FC002000F077F9204670BD85
:10D06000F0B587B0074601218803FEF72EFE684E13
:10D070003046FEF7A5FB674C01212068FEF725FE30
:10D080002089ADF8180003258DF81A5018208DF866
:10D090001B0006A96068FDF746FF0121E068FEF766
:10D0A00014FEA08AADF8180048208DF81B0006A9D0
:10D0B0002069FDF738FF25208DF8040001208DF848
:10D0C00005008DF806508DF8070001A8FDF76BFEEE
:10D0D00002970020ADF80C00ADF80E00ADF810007E
:10D0E000ADF814000C20ADF8120002A93046FEF78E
:10D0F000AFFB012240F225513046FEF730FC012102
:10D100003046FEF720FC4448102690F836000728E9
:10D1100016D0082814D00121A069FEF7D6FD208C76
:10D12000ADF818008DF81B608DF81A5006A9E0695B
:10D13000FDF7F9FE218CE069FDF764FF07B0F0BD53
:10D1400001212020FEF7C1FD4FF48074ADF8184096
:10D150008DF81B608DF81A50304D06A92846FDF752
:10D16000E2FE21462846FDF74DFFE7E770B586B0A1
:10D17000054601211020FEF7A8FD0121C804FEF795
:10D18000AFFD274E3046FEF71BFB3015ADF81400FF
:10D1900003208DF8160018208DF81700214C05A9E2
:10D1A0002046FDF7C0FEE014ADF8140048208DF8CD
:10D1B000170005A92046FDF7B6FE34208DF80000C3
:10D1C00000248DF801408DF8024001208DF8030005
:10D1D0006846FDF7E8FD0195ADF808407014ADF81C
:10D1E0000A00ADF80C40ADF810400C20ADF80E0070
:10D1F00001A93046FEF72CFB012240F225513046B2
:10D20000FEF7ADFB01213046FEF79DFB06B070BD79
:10D210000038014030620008C214002000140140B0
:10D22000004C0040001001404FF0E0210A6922F05C
:10D2300004020A611849C008087000EB4002C2EB02
:10D24000C0104FF6FF7202EAC000488070471249D2
:10D25000097848434FF0E021486100238B610120A9
:10D2600008610869C20701D0C003FAD50B618B6160
:10D2700070470949498848434FF0E021486100233D
:10D280008B61012008610869C20701D0C003FAD58B
:10D290000B618B61704700004800002013484FF479
:10D2A0007A710068B0FBF1F04FF0E021B0F1807FBF
:10D2B00001D301200BE020F07F40401E48610C4A62
:10D2C000F02010700020886107200861002000B164
:10D2D000FEE7086940F001000861704705480168F1
:10D2E000491D016070470348006870471000002026
:10D2F00023ED00E04C000020F948FF2141708170CF
:10D300007047F74A91784140F6485378405C58405E
:10D310009070F548405C50707047F0B5FF22FF23D5
:10D320000021F24DEF4EF04F08E00C46491C2C5DF9
:10D33000C9B25440E4B2325D5A403B5D401EC0B2B7
:10D34000F3D243EA022080B2F0BD30B4E74AE84CA1
:10D350003C3AE84B92F836204FF4807100280CD00C
:10D36000072A06D0082A04D0198CD86930BCFDF7EA
:10D3700049BE204630BCFDF745BE072A06D0082A24
:10D3800004D0198CD86930BCFDF73EBE204630BCB5
:10D39000FDF73ABE10B5D2480021417281710020DC
:10D3A000FFF7D3FFBDE81040012240F22551D248DB
:10D3B000FEF7D5BA2DE9F041CF4E40F22557394658
:10D3C0003046FEF799FBC64C0025B0B3FCF7B0FF22
:10D3D0003046FEF71DFBC0B2627AC449FF2A03D271
:10D3E000531C6372885400E06572627A072A18D071
:10D3F000207A824206D14B78102B08D0032B06D01E
:10D40000062B04D0062A0AD14878192807D1002211
:10D4100039463046FEF7A3FAE5710120A071BDE858
:10D42000F08148786422032808D0062806D0102806
:10D4300008D096202072E271F1E709E008202072FE
:10D44000E271ECE7887909302072FA20E071E6E7B2
:10D4500040F2277739463046FEF74EFB0128DED1F1
:10D46000E278A089824209D2501CE0709F48FF30C8
:10D47000815C3046BDE8F041FEF7C6BA4021304637
:10D48000FEF72FFB0128F9D1002239463046FEF77E
:10D4900066FAE570BDE8F0417CE7012055E710B57C
:10D4A000924896493C38807A51F82000FFF7D8FD21
:10D4B0008B4CFF202070FFF76DFFFA20E07110BD4C
:10D4C00070B58A4DA5F13C042878FF2805D0E18885
:10D4D000884202D008B1002070BD6878192807D0B2
:10D4E00003283AD0062838D0102836D0002070BD46
:10D4F0000420FFF712FF69792A7901EB02218142AA
:10D5000001D0002070BDA878E978884201D30A468E
:10D5100000E0024600D20846E188914201D38142F0
:10D5200001D9002070BDFFF7DEFE02F0E5FCFCF73C
:10D53000D3FE282190FBF1F201FB1200001DC5B2C1
:10D5400000244FF4FA7604E03046FFF780FE641CB6
:10D55000E4B2AC42F8D3012070BD614C207A801E49
:10D56000C0B2FFF7DAFE217A2944891E4A78097889
:10D5700042EA0121814201D1012070BD002070BD2D
:10D58000012080F313885E4801685E4A01F4E0617F
:10D5900011430160BFF3408FFEE72DE9F05F0028E3
:10D5A00012D00627CC19E078A27800EB022085B2D1
:10D5B0004E4E60783C3EDFF828814FF00009062887
:10D5C00004D0102874D0DAE10027EBE7062D1FD035
:10D5D000102D24D04248007885B3022D42D0042D6E
:10D5E00053D0072DEFD0082D63D00F2D6ED0222DF4
:10D5F00072D00C2D71D0A5F1280005286ED8C0B2CC
:10D6000032186179D17261792830FEF7D2FDB6E126
:10D610006079F08061790620FEF7CBFDAFE160799B
:10D6200088F805008E2806D08F2804D06179102054
:10D63000FEF7BFFDA3E188F80090A0E1FFE78107B6
:10D64000C1D440F0020088F8000020797070607941
:10D65000307061790020FEF7ACFD21790120FEF7E2
:10D66000A8FD8CE14107AED440F0040088F800002A
:10D670002079F0706079B07061790220FEF799FD31
:10D6800021790320FEF795FD79E101079BD440F055
:10D69000080088F800002079707160793071617934
:10D6A0000420FEF786FD21790520FEF782FD66E164
:10D6B0001CE1810687D440F0200088F800006079E2
:10D6C000707261790820FEF774FD58E160790928CD
:10D6D0001AD90920B07218E022E029E02EE00000FB
:10D6E000500000200078000800790008FE14002097
:10D6F00000140140306200080038014078620008E0
:10D700000CED00E00400FA05B072B17A0920FEF7D2
:10D7100050FDB07AF84951F82000FFF7A1FC2EE146
:10D72000607986F8360061790E20FEF742FD26E129
:10D730006079102895D288F8040020E1A5F12F0027
:10D74000032808D8C0B232186179517461792F303A
:10D75000FEF72FFD13E1A5F13300032808D8C0B26E
:10D7600032186179917561793330FEF722FD06E157
:10D77000A5F13700032808D8C0B232186179917634
:10D7800061793730FEF715FDF9E03B2D0DD03C2DCA
:10D7900012D03D2D1ED0A5F13E00032821D8C0B2E5
:10D7A0003044617980F82310E9E06079B0776179DD
:10D7B0003B20FEF7FEFCE2E06079217900EB0120DE
:10D7C000308421793C20FEF7F4FC61793D20FEF79E
:10D7D000F0FCD4E0617986F827102E20FEF7E9FCF2
:10D7E000CDE0A5F14200032805D8C0B230446179EC
:10D7F00080F82810C3E0A5F14600032805D8C0B280
:10D800003044617980F82C10B9E04A2D0BD04B2DB3
:10D810000DD04C2D11D0B5F5487F4ED05D2D5ED08A
:10D820005C2D60D0ABE0607986F83000A7E06079CD
:10D83000217900EB01207086A1E0607986F8340040
:10D8400001284FD196F82710717596F83000B077FF
:10D85000708E30842E20FEF7ACFCB17F3B20FEF7AB
:10D86000A8FC308C010A3C20FEF7A3FC96F820109F
:10D870003D20FEF79EFC002574191134A17C217017
:10D88000E07D6071E07E607205F12F0080B2FEF7EE
:10D8900090FC05F13300617980B2FEF78AFC05F156
:10D8A0003700617A80B2FEF784FC6D1CADB2042DA6
:10D8B000E2D386F83490FFF763FE607986F835008E
:10D8C00001280AD1002440F6FF75FF212046FEF70B
:10D8D00070FC641CA4B2AC42F7D3FFF751FE607930
:10D8E00086F822004BE0FCF725FD48E094F805C0DF
:10D8F000A07984453ED1814A012010708048A0F86B
:10D900000090C5F30A00A8F80A0058B998F8040076
:10D9100010B9B5F5004F4BD305EB004000F10060A6
:10D92000C8F81000D8E90402824241D10022DFF891
:10D93000D4A10CE0BB180B4493F807B0B8F80A3038
:10D940000AF803B05B1CA8F80A30521C92B2624578
:10D95000F0D3B8F80A20B2F5006F0BD1694900F096
:10D96000F5FCB8F80A10D8F814000844C8F81400F8
:10D97000A8F80A903D2D02D1A0791E281AD098F857
:10D9800005007F2873D03F2878D0332874D01F2813
:10D9900073D001280CD1B8F80A2032B15949D8F80F
:10D9A000100000F0D3FCA8F80A9057490120087035
:10D9B000BDE8F09F1636217A7174A07A7073207BCF
:10D9C000B073A07BF073207C3074A07CB074207D99
:10D9D000F074A07D3075207E7075A07EB075207FBC
:10D9E000F075A07F307694F820007076213460784E
:10D9F000227800EB0220B076E278A37802EB0322D3
:10DA0000B28306F8011C307272812E20FEF7D1FB22
:10DA1000317A3B20FEF7CDFB7089010A3C20FEF7EE
:10DA2000C8FBB07A163EC1B23D20FEF7C2FB00250E
:10DA300074191134A17C2170E07D6071E07E607208
:10DA400005F12F0080B2FEF7B4FB05F133006179D8
:10DA500080B2FEF7AEFB05F13700617A80B2FEF7C7
:10DA6000A8FB6D1CADB2042DE2D3FFF789FD7E202B
:10DA700088F805009CE701E019E01CE0FEF720FCB7
:10DA80001024E50505EBC420FEF747FC641CA4B296
:10DA9000C02CF7D3FEF71AFCA8F80A9088F8049077
:10DAA0001A48C8F814003E2088F8050080E73420A2
:10DAB00088F805007CE71E2088F8050078E710B498
:10DAC000144B134C9A89A054FF2A01D2521C9A81FC
:10DAD000012901D110BC14E410BC7047002807D004
