:020000040800F2
:1080000040A00020998100084B8100084D810008A4
:108010004F810008518100085381000800000000D2
:108020000000000000000000000000005581000872
:108030005781000800000000598100085B8100089A
:10804000B3810008B3810008B3810008B381000840
:10805000B3810008B3810008B3810008B381000830
:10806000B3810008B3810008B3810008B381000820
:10807000B3810008B3810008B3810008B381000810
:10808000B3810008B3810008B3810008B381000800
:10809000B3810008B3810008B3810008B3810008F0
:1080A000B3810008B3810008B3810008B3810008E0
:1080B000B381000855960008B3810008B381000819
:1080C000B3810008B3810008B3810008B3810008C0
:1080D000B3810008B3810008B3810008B3810008B0
:1080E000B3810008B3810008B3810008B3810008A0
:1080F000B3810008B3810008B3810008B381000890
:10810000B3810008B3810008B3810008B38100087F
:10811000B3810008B3810008CF960008B38100083E
:10812000B3810008B3810008B3810008B38100085F
:10813000DFF80CD001F0C8FE004800478983000832
:1081400040A0002080F3088870477047FEE7FEE7F4
:10815000FEE7FEE770477047704770470D490860BB
:1081600070470C49486070470A4988607047094960
:108170004AF6AA200860704706494CF6CC400860D1
:10818000704701460020034AD2680A4200D001200D
:10819000704700000030004006488047064800470E
:1081A000FEE7FEE7FEE7FEE7FEE7FEE7FEE7FEE7A7
:1081B000FEE7FEE79D8400083181000840EA0103E4
:1081C0009B0703D009E008C9121F08C0042AFAD28D
:1081D00003E011F8013B00F8013B521EF9D2704751
:1081E000014A024901F089BE3B9C0008380000208A
:1081F00002E008C8121F08C1002AFAD17047704770
:1082000054656D636F4D696E695F61726D00006BDF
:108210000000000010B545F25550FFF79FFF042005
:10822000FFF79FFF4FF47A60FFF79EFFFFF7A4FF71
:10823000BDE81040FFF79BBFFFF799BF2DE9F04164
:10824000654C624D624E634F22784FF4807800286F
:1082500023D0052A03D10421304600F0B9FA207852
:10826000062803D10421304600F0B2FA207807280E
:1082700003D14146384600F0ABFA2078082803D1F4
:108280004146384600F0A4FA2078092829D1414611
:108290002846BDE8F04100F09BBA052A03D104212D
:1082A000304600F097FA2078062803D104213046A2
:1082B00000F090FA2078072803D14146384600F0B4
:1082C00089FA2078082803D14146384600F082FA1E
:1082D0002078092805D141462846BDE8F04100F044
:1082E00077BABDE8F0812DE9F04747F6FE723B49C9
:1082F0003B48FFF763FF3849394E0878052802D11B
:10830000052286F85C2A062802D1062286F85C2A15
:10831000072802D1072286F85C2A082801D186F8AE
:108320005C0A30486B2280F8FE2F002280F8FF2F75
:108330008A7000244FF000674FF4006801F06CF879
:1083400007EBC420054601F098F8814601F06AF871
:10835000B9F1000F05D106EBC4212846424601F0D1
:1083600063FD641CE4B2102CE8D3BDE8F087012063
:1083700080F313881C4801681C4A01F4E061114332
:108380000160BFF3408FFEE71949080300F021F9AF
:108390004FF4E13001F066FC482001F0E5FB01F00C
:1083A0001BFAFFF737FF0E2001F036FB0A4C207056
:1083B0000F2001F031FB60700D48801E01F0A5F820
:1083C0006B2801D0FFF78FFFFFF7D1FF00080140B6
:1083D000001001400014014000000020649F0008CC
:1083E00040000020407000200CED00E00400FA0581
:1083F000008000080CB500220192009252480168EA
:1084000041F4803101604FF4A063016801F4003150
:1084100000910199491C0191009911B90199994262
:10842000F3D10168890302D50121009100E0009297
:108430000099012930D145490A6842F010020A60CA
:108440000A6822F003020A600A6842F002020A6027
:108450004168416041684160416841F48061416028
:10846000416821F47C114160416841F4E8114160A8
:10847000016841F08071016001688901FCD54168A3
:1084800021F003014160416841F00201416041680F
:10849000C1F381010229FAD10CBDABE710B52A481E
:1084A000016841F0010101604168294A11404160C1
:1084B0000168284A11400160016821F480210160AF
:1084C000416821F4FE0141604FF41F018160FFF714
:1084D000E4FF21494FF00060086010BD10B51A4A52
:1084E000506800F00C011D4B1D4800290ED00429D6
:1084F0000ED008290ED003605168194AC1F3031148
:10850000121D515C0268CA40026010BD0360F3E7AF
:108510000360F1E7516801F47011536803F480338C
:10852000022404EB914133B153689B0307D50D4BF3
:1085300059430160E0E70B4B59430160DCE7074B0F
:1085400059430160D8E700000010024000200240BB
:108550000000FFF8FFFFF6FE08ED00E000127A00D1
:108560000400002000093D002A4908432A49086008
:10857000704770B50F23C27801260178002A1ED0FB
:10858000254A126802F4E062C2F5E062120AC2F102
:108590000404D3404578A54082781A402A4312014A
:1085A00001F1E02181F80024007800F01F018E40E5
:1085B0004009800000F1E020C0F8006170BD01F0CA
:1085C0001F0086404809800000F1E020C0F880616B
:1085D00070BD124A114001430F48001F01607047EF
:1085E0000D4A121D002903D0116801431160704724
:1085F00011688143116070474FF0E021042804D0D6
:10860000086920F0040008617047086940F0040020
:10861000086170470000FA050CED00E080FFFF1FC5
:1086200010B59C49884209D10121042000F0B3FE15
:108630000021BDE81040042000F0ADBE96498842FC
:1086400009D10121082000F0A6FE0021BDE810405C
:10865000082000F0A0BE9149884209D101211020D4
:1086600000F099FE0021BDE81040102000F093BEFC
:108670008B49884209D10121202000F08CFE002185
:10868000BDE81040202000F086BE8649884209D10E
:108690000121402000F07FFE0021BDE81040402075
:1086A00000F079BE8049884209D10121802000F084
:1086B00072FE0021BDE81040802000F06CBE7B49B6
:1086C00088420AD184150121204600F064FE20462C
:1086D000BDE81040002100F05EBE10BD10B50121C4
:1086E000084600F058FE0021BDE81040012000F0CF
:1086F00052BE2DE9F0410022CC7804F00F03E406CD
:1087000001D58C7823430C784FF00F0714F0FF0F3E
:108710004FF0010C1CD005680CFA02F40E882640BC
:10872000A64211D1960007FA06F825EA080503FAD1
:1087300006F848EA0505CE78282E02D0482E02D049
:1087400002E0446100E00461521C082AE4D30560A1
:108750000A88FF2A1ED94568002202F108060CFA91
:1087600006F40E882640A64210D1960007FA06F8B5
:1087700025EA080503FA06F848EA0505CE78282E0A
:1087800000D14461CE78482E00D10461521C082AE1
:10879000E3D34560BDE8F0814FF6FF71018002210F
:1087A00081700421C17070470246002092680A421D
:1087B00000D001207047806880B2704702460020D8
:1087C000D2680A4200D001207047C06880B270476A
:1087D0000161704741617047002A01D00161704713
:1087E00041617047C160704741F4803282618161AC
:1087F000826181698069704710B52D4B1A684FF608
:108800008074224042EA00100843186010BD2949D4
:10881000C8617047F0B5264C002801DAE36900E032
:108820006368C0F30346420D120185B2C0F30157DD
:108830009540032F07D0C2020CD50322B2409343C8
:1088400043F0706209E023F07062636823F07063A4
:10885000636002E0AB4343F0706201B12A43002839
:1088600001DAE261F0BD6260F0BD10B58A07120F57
:108870000F23934021F003040D4921448C689C434D
:108880008C608B68904003438B6010BD0949DC31DC
:108890000860704700080140000C014000100140D2
:1088A0000014014000180140001C0140002001405C
:1088B000000001400000204230B50288F74CF84D1E
:1088C000A0420DD0A8420BD0B0F1804F08D0F54B9C
:1088D000984205D0F44B984202D0F44B984203D111
:1088E00022F070034A881A43F14B984206D0F14BAC
:1088F000984203D022F44073CA881A4302808A88BF
:1089000082850A880285A0420AD0A84208D0EA4A95
:10891000904205D0E94A904202D0E94A904201D102
:10892000097A01860121818230BD70B5028C22F462
:1089300080720284028C8388848B24F0700424F07B
:1089400003040D88254322F400720E894FF6FF744C
:1089500004EA062616434A8804EA02223243CF4E2E
:10896000B04202D0CE4EB04217D122F400664A89FE
:1089700004EA0222324322F480668A8804EA022250
:10898000324323F4805323F400538E8904EA0616FD
:108990001E43CB8904EA0313334383808583C9884C
:1089A0008187028470BD70B5028C22F480520284EB
:1089B000058C8288838B23F4E04323F440760C8873
:1089C0004FF6FF7303EA0424344325F400550E895F
:1089D00003EA06362E434D8803EA05353543AF4E8C
:1089E000B04202D0AE4EB04205D122F480468A8910
:1089F00003EA8212324382808483C988A0F840103F
:108A0000058470BD4FF6FF71818000210180C18017
:108A1000418001727047002904D0018841F00101B2
:108A200001807047018821F0010101807047002A10
:108A300003D082890A438281704782898A43828176
:108A40007047018582827047028822F070020A43D3
:108A500002807047028922F070020A430281704747
:108A600070B50589048B068C25F007050D434FF67C
:108A7000FC410C4040F201110C4326F022064FF657
:108A8000FF7101EA0311114331430581048301841D
:108A900070BD028B22F070020A4302837047028B82
:108AA00022F4E0424FF6FF7303EA012111430183F0
:108AB0007047828B22F070020A4382837047828B58
:108AC00022F4E0424FF6FF7303EA01211143818350
:108AD0007047002904D0018841F08001018070476F
:108AE000018821F0800101807047002904D081882D
:108AF00041F0040181807047818821F00401818068
:108B00007047002904D0818841F0080181807047B6
:108B1000818821F0080181807047002904D0818874
:108B200041F0010181807047818821F0010181803D
:108B30007047028B22F008020A4302837047028BBF
:108B400022F400624FF6FF7303EA0121114301830F
:108B50007047828B22F008020A4382837047828B1F
:108B600022F400624FF6FF7303EA0121114381836F
:108B70007047028B22F004020A4302837047028B83
:108B800022F480624FF6FF7303EA0121114301834F
:108B90007047828B22F004020A4382837047828BE3
:108BA00022F480624FF6FF7303EA012111438183AF
:108BB0007047028B22F080020A4302837047028BC7
:108BC000C2F30E024FF6FF7303EA01211143018342
:108BD0007047828B22F080020A4382837047828B27
:108BE000C2F30E024FF6FF7303EA012111438183A2
:108BF0007047028C22F002020A4302847047028C02
:108C000022F008020A4302847047028C22F02002FC
:108C10004FF6FF7303EA0111114301847047028C80
:108C200022F080024FF6FF7303EA01111143018421
:108C30007047028C22F400724FF6FF7303EA0121A1
:108C4000114301847047028C22F400624FF6FF73D7
:108C500003EA0121114301847047028C22F400527F
:108C60004FF6FF7303EA013111430184704710B5D9
:108C700001238B40048C9C430484038C8A4013435F
:108C8000038410BD10B504238B40048C9C430484E2
:108C9000038C8A401343038410BD0000002C014064
:108CA000003401400004004000080040000C004077
:108CB000001000400014004000400140004401400A
:108CC0000048014030B500F1180301248C40058CA8
:108CD000A5430584002911D008290FD0091FC1F32D
:108CE0004E001844016821F4E041016001684FF62C
:108CF000FF7303EA02221143016030BD03EB510010
:108D0000016821F07001016001681143016030BD0C
:108D1000002904D0018841F00201018070470188D8
:108D200021F0020101807047002904D0018841F040
:108D3000040101807047018821F00401018070471F
:108D4000002904D0818841F08001818070478188AA
:108D500021F0800181807047028822F008020280A1
:108D600002880A4302807047828822F07002828063
:108D700082880A4382807047028922F007020281BA
:108D800002890A4302817047028922F0800202812F
:108D900002890A4302817047818470478185704748
:108DA000818670470187704781877047A0F840101F
:108DB0007047028B22F00C020283028B0A4302836B
:108DC0007047028B22F440620283028B4FF6FF73DE
:108DD00003EA01210A4302837047828B22F00C02CE
:108DE0008283828B0A4382837047828B22F44062A3
:108DF0008283828B4FF6FF7303EA01210A43828349
:108E00007047028822F44072028002880A4302807E
:108E10007047808E7047008F7047808F7047B0F822
:108E200040007047808C7047008D704702460020DC
:108E3000128A0A4200D001207047C943018270475C
:108E400002460020138A0B4092890A40002B02D070
:108E5000002A00D001207047C943018270470000FA
:108E600010B5E14988420AD101218C03204600F067
:108E700092FA2046BDE81040002100F08CBADB4990
:108E800088420AD101214C04204600F08FFA204686
:108E9000BDE81040002100F089BAD54988420AD1C6
:108EA00001218C04204600F081FA2046BDE81040E4
:108EB000002100F07BBACF4988420AD10121CC04BD
:108EC000204600F073FA2046BDE81040002100F073
:108ED0006DBAC94988420AD101210C05204600F02B
:108EE00065FA2046BDE81040002100F05FBA10BDD1
:108EF00030B585B004460D46208A4CF6FF71084017
:108F0000E98801432182A0894EF6F3110840A9881F
:108F10002A8911436A8902431143A181A08A4FF62D
:108F2000FF410840A9890143A182684600F0C5F9C4
:108F3000AD48844201D1039800E00298A189090458
:108F400008D500EBC00101EB001029684900B0FB17
:108F5000F1F007E000EBC00101EB00102968890087
:108F6000B0FBF1F06422B0FBF2F109010B096FF0E4
:108F700018056B4300EB8300A3891D044FF03203F7
:108F800007D503EBC000B0FBF2F000F00700084388
:108F900006E003EB0010B0FBF2F000F00F00084316
:108FA000208105B030BD4FF4165101600021818051
:108FB000C18001810C2242818181704710B5038AF2
:108FC0004FF2FF0213400A884C8822438C88C988DC
:108FD0000C4322431A43028210BD002101804180CC
:108FE0008180C1807047002904D0818941F40051FB
:108FF00081817047818921F400518181704710B5CA
:1090000040F66A13C1F3421301F01F040121A1408D
:10901000012B07D0022B07D014303AB102680A4363
:10902000026010BD0C30F8E71030F6E702688A43A2
:10903000026010BD002A03D0828A0A4382827047F0
:10904000828A8A4382827047028A22F00F02028259
:10905000028A0A4302827047828922F40062828176
:1090600082890A4382817047002904D0818941F0B6
:10907000020181817047818921F00201818170475D
:10908000028A22F020020282028A0A430282704788
:10909000002904D0018A41F4804101827047018A8D
:1090A00021F4804101827047C1F30801818070473B
:1090B0008088C0F308007047818941F001018181F7
:1090C0007047028BD2B20283028B42EA01210183F4
:1090D0007047028B02F47F420283028B0A430283B1
:1090E0007047002904D0818A41F0200181827047B5
:1090F000818A21F0200181827047002904D0818A71
:1091000041F0100181827047818A21F01001818233
:109110007047002904D0818A41F00801818270479C
:10912000818A21F0080181827047002904D0818959
:1091300041F40041818170478189C1F30E01818131
:109140007047002904D0818A41F400618182704710
:10915000818A21F4006181827047828A22F00402B0
:109160008282828A0A4382827047002904D0818ADF
:1091700041F0020181827047818A21F002018182DF
:1091800070470246002012880A4200D00120704732
:109190008A05C9430180704770B5002440F66A1201
:1091A000C1F3421301F01F05012606FA05F2012B57
:1091B0000CD0022B0DD0838A1340090A8E40008800
:1091C00030400BB100B10124204670BD83891340AB
:1091D000F3E7038A1340F0E740F66A120A0A012116
:1091E0009140C9430180704700380140004400406D
:1091F00000480040004C0040005000407E4801689C
:1092000041F00101016041687C4A11404160016800
:109210007B4A11400160016821F4802101604168AE
:1092200021F4FE0141604FF41F01816070477249D3
:109230000A6822F480320A600A6822F480220A60F6
:10924000B0F5803F07D0B0F5802F03D1086840F417
:10925000A02008607047086840F4803008607047BC
:10926000034600205909644A01290AD002290AD07C
:10927000516A03F01F02012393400B4200D00120EA
:1092800070471168F5E7116AF3E718B50020009000
:109290004FF4A0643120FFF7E3FF0099491C0091CF
:1092A0000099A14201D00028F4D03120FFF7D8FF67
:1092B00008B1012018BD002018BD10B54E4A5168F4
:1092C00001F00C014F4B002927D0042927D0082991
:1092D00027D00360516801F0F00109094A4B5C5C3A
:1092E0000168E1404160546804F4E064240A1C5DB4
:1092F00021FA04F48460546804F46054E40A1B5DA9
:10930000D940C160526802F44042920B3E4B1B1F91
:109310009A5CB1FBF2F1016110BD0360DAE7036012
:10932000D8E7516801F47011536803F480330224C4
:1093300004EB914133B153689B0307D5334B594339
:109340000160C7E7314B59430160C3E72D4B5943D7
:109350000160BFE7284A002903D0516901435161E8
:1093600070475169814351617047234A002903D0F6
:10937000916901439161704791698143916170479F
:109380001D4A002903D0D1690143D1617047D169D9
:109390008143D1617047184A002903D0D168014345
:1093A000D1607047D1688143D1607047124A00296B
:1093B00003D0116901431161704711698143116143
:1093C00070471349086070471249C86470470A49DA
:1093D000C87170470848416A41F080714162704726
:1093E00001460020044A92680A4200D001207047DA
:1093F0000149887270470000001002400000FFF829
:10940000FFFFF6FE00127A001C00002000093D005C
:1094100040044242000042427E487D4941607E490C
:10942000416070477B48016941F0800101617047EC
:109430007848C068C10701D001207047410701D5B5
:1094400002207047C00601D50320704700207047F6
:1094500070B50446FFF7ECFF0546012D05D100F07D
:1094600096FB641EA4B2002CF4D104B9FF2515B1FB
:109470006A4901200870284670BD2DE9F041074671
:1094800045F6FF763046FFF7E3FF04462CB164A0B3
:10949000FEF7A6FE2046BDE8F0815E4D286940F04B
:1094A000020028616F61286940F040002861304661
:1094B000FFF7CEFF0446012CECD0286920F0020013
:1094C0002861E7E72DE9F04107460E46FF20FFF748
:1094D000BFFF044644B158A0FEF782FE14B14F49C5
:1094E000012008702046D6E74A4D286940F0010067
:1094F00028613E80FF20FFF7ABFF0446012CEDD032
:10950000286920F001002861E8E7008870472DE90C
:10951000F04105460E461746002407E036F81410C1
:109520002846FFF7CFFFAD1C641CA4B2BC42F5D3A4
:10953000B1E710B50446002307E02046FFF7E5FF3A
:1095400021F81300A41C5B1C9BB29342F5D310BD01
:109550002DE9F05F82460F461546AAF10062B2F58A
:10956000002F52D2FFF758FF4FEAD228C2F3490624
:10957000C6F58064A54200D82C46DFF8D4B037E0A9
:1095800032183BF812208A4203D1401C80B2A0421C
:10959000F6D3A04214D24846FFF76FFF002006E042
:1095A000821937F810102BF81210401C80B2A0421C
:1095B000F6D348464FF480622549FFF7A8FF04E040
:1095C000224639465046FFF7A2FFA54202D1BDE828
:1095D000F05F27E708F10108002607EB44070AEBD4
:1095E000440A281B85B24FF48064A54200D82C465B
:1095F0004FF0006000EBC829421415494846FFF7B8
:1096000098FF00204FF6FF71C1E7BDE8F09F000012
:109610002301674500200240AB89EFCD0200002006
:10962000657261736520666C617368206572726F24
:1096300072200D0A00000000777269746520666C64
:10964000617368206572726F72200D0A000000005D
:109650004080002010B53D4C01212046FFF7E6FB7D
:10966000012807D100F0DAFA2046BDE810400121B8
:10967000FFF7E3BB10BD7FB504460D460121022074
:10968000FFF77EFEADF80840ADF804500024ADF8B9
:109690000A40ADF806402D4D01A92846FFF70CF908
:1096A0001D218DF800108DF801408DF80240012138
:1096B0008DF803106846FEF75CFF0122114628462C
:1096C000FFF7B5F901212846FFF7A5F97FBD10B5D1
:1096D0001F4C01212046FFF7A9FB012803D11D489B
:1096E0000168491C01602046BDE810400121FFF7D8
:1096F000A4BB7FB504460D4601211020FFF740FEB4
:10970000ADF80840ADF804500020ADF80A00ADF8FF
:1097100006000F4C01A92046FFF7CEF836218DF840
:10972000001001218DF8011003228DF802208DF820
:1097300003106846FEF71DFF012211462046FFF781
:1097400076F901212046FFF766F97FBD000400404D
:10975000001000402C00002038B5954C208FADF84B
:10976000000048208DF803006946606BFEF7C1FFDA
:10977000218F606BFFF72CF838BD38B58C4C208FEB
:10978000ADF8000010208DF8030003208DF80200D2
:109790006946606BFEF7ADFF218F606BFFF718F82D
:1097A00038BD834A002803D0918D906AFFF710B826
:1097B000918D906AFFF70EB87D4A002803D0118F73
:1097C000506BFFF705B8118F506BFFF703B878485F
:1097D000018F406BFEF7E8BFF8B5754C0121606A58
:1097E000FFF7C3FDA08DADF8000010258DF80350E4
:1097F00003268DF802606946A06AFEF77AFFA18D04
:10980000A06AFEF7E5FF0121206BFFF7AEFD208F78
:10981000ADF800008DF803508DF802606946606B6A
:10982000FEF767FF218F606BFEF7D2FFF8BD10B522
:10983000FFF7A3FF0120FFF7BFFF0120FFF7B1FFF4
:10984000042000F0A4F90020FFF7B6FF042000F088
:109850009EF9BDE810400020A3E710B5FFF78DFF8B
:109860000020FFF79EFF0020FFF7A6FF042000F076
:109870008EF90120FFF795FF0120FFF79DFFBDE85E
:109880001040042000F083B910B500240120FFF738
:1098900093FFFFF761FF012000F079F90120FFF746
:1098A00080FF012000F073F907E0641CE4B2FA2C99
:1098B00003D9FFF7D2FF012010BDFFF788FF002872
:1098C000F3D1FFF76EFF002010BD10B50020FFF7A9
:1098D00068FFFFF752FF0020FFF76EFF022000F045
:1098E00056F90120FFF75DFF022000F050F9BDE8B6
:1098F0001040002055E710B50020FFF752FFFFF79A
:109900003CFF0120FFF758FF022000F040F9012042
:10991000FFF747FF022000F03AF9BDE810400020B1
:109920003FE770B50546FFF728FF0020FFF739FF36
:109930000024E809FFF740FF6806050E022000F04A
:1099400026F90120FFF72DFF022000F020F900206A
:10995000FFF727FF022000F01AF9641CE4B2082C7C
:10996000E7D370BD70B506460024FFF7F5FE00256D
:109970000020FFF716FF022000F009F90120FFF791
:1099800010FF6006040EFFF722FF08B1641CE4B26A
:10999000012000F0FCF86D1CEDB2082DE8D31EB1DB
:1099A000FFF793FF204670BDFFF7A5FFFAE7000021
:1099B0001C9F000838B56B4CE06B002815D054F89C
:1099C0003C0F0121FFF7D1FC2089ADF800001020E9
:1099D0008DF8030003208DF8020069466068FEF7E9
:1099E00088FE21896068FEF7F3FE38BD5D4AD16BC1
:1099F00000290AD020B1B2F84410106CFEF7E8BE7E
:109A0000B2F84410106CFEF7E5BE704710B5FFF7D2
:109A1000E3FEBDE81040CDE710B50446FFF707FFB1
:109A2000200AA02101EB4000C0B2FFF77AFFFFF748
:109A30002BFFE0B2FFF775FFFFF726FFFFF7F7FEFA
:109A4000A120FFF76EFFFFF71FFF0020FFF78AFF3F
:109A50000446FFF702FF204610BD70B504460D46D0
:109A60000020FFF7C3FFFFF7E2FE200AA02101EB71
:109A70004000C0B2FFF755FFFFF706FFE0B2FFF767
:109A800050FFFFF701FF2846FFF74BFFFFF7FCFEF3
:109A9000FFF7E3FE0120FFF7A9FFBDE870400520B6
:109AA00000F087B82DE9F04106460D461746002420
:109AB00009E0E00025FA00F0C1B2301980B2FFF7EA
:109AC000CCFF641CE4B2BC42F3D3BDE8F0812DE9C5
:109AD000F04102460E4600200024971908E00502D6
:109AE000381B401E80B2FFF797FF2844641CE4B285
:109AF000B442F4D3E9E710B5FF20FFF78DFF5528F6
:109B00000AD05521FF20FFF7A8FFFF20FFF784FFB1
:109B1000552803D0012010BD002010BD002010BD2D
:109B200070B504460E46154608E02046641CA4B2F3
:109B3000FFF772FF06F8010B6D1EADB2002DF4D1D8
:109B400070BD70B506460D46144606E029783046CD
:109B5000FFF783FF761CB6B26D1C641EA4B2F5D26B
:109B600070BD00001C9F00084FF0E0210A6922F040
:109B700004020A611849C008087000EB4002C2EBF9
:109B8000C0104FF6FF7202EAC000488070471249C9
:109B9000097848434FF0E021486100238B610120A0
:109BA00008610869C20701D0C003FAD50B618B6157
:109BB00070470949498848434FF0E0214861002334
:109BC0008B61012008610869C20701D0C003FAD582
:109BD0000B618B61704700003000002013484FF488
:109BE0007A710068B0FBF1F04FF0E021B0F1807FB6
:109BF00001D301200BE020F07F40401E48610C4A59
:109C0000F02010700020886107200861002000B15A
:109C1000FEE7086940F001000861704705480168E7
:109C2000491D016070470348006870470400002028
:109C300023ED00E034000020704770B50446012099
:109C4000FEF7FCFA724D40212846FFF79AFA0028E9
:109C5000F9D0A1B22846FFF727FA0020FEF7EEFA66
:109C6000204670BDF0B587B0074601218803FFF795
:109C70007CFB674E3046FFF7F3F8664C0121206805
:109C8000FFF773FB2089ADF8180003258DF81A50F3
:109C900018208DF81B0006A96068FEF72AFD012137
:109CA000E068FFF762FBA08AADF8180048208DF845
:109CB0001B0006A92069FEF71CFD25208DF8040075
:109CC00001208DF805008DF806508DF8070001A8D9
:109CD000FEF74FFC02970020ADF80C00ADF80E0027
:109CE000ADF81000ADF814000C20ADF8120002A978
:109CF0003046FFF7FDF8012240F225513046FFF7CC
:109D00007EF901213046FFF76EF90121A069FFF7C6
:109D10002CFB208CADF8180010268DF81B608DF8F8
:109D20001A5006A9E069FEF7E4FC218CE069FEF711
:109D30004FFD39480078072801D0082814D10121A7
:109D40002020FFF712FB4FF48074ADF818408DF817
:109D50001B608DF81A50314D06A92846FEF7C9FC44
:109D600021462846FEF734FD07B0F0BD70B586B039
:109D7000054601211020FFF7F8FA0121C804FFF77A
:109D8000FFFA274E3046FFF76BF83015ADF8140098
:109D900003208DF8160018208DF81700214C05A916
:109DA0002046FEF7A6FCE014ADF8140048208DF81C
:109DB000170005A92046FEF79CFC34208DF8000012
:109DC00000248DF801408DF8024001208DF8030039
:109DD0006846FEF7CEFB0195ADF808407014ADF86B
:109DE0000A00ADF80C40ADF810400C20ADF80E00A4
:109DF00001A93046FFF77CF8012240F22551304698
:109E0000FFF7FDF801213046FFF7EDF806B070BD11
:109E1000003801401C9F0008000000200014014091
:109E2000004C0040001001402DE9F0470D469046DF
:109E300000240746A0F10060B0F5002F29D2FFF7FB
:109E4000EBFA00264FF48069DFF870A015E068781F
:109E5000000215F8021B08442146641CA4B22AF82B
:109E600011004A46944206D1002414493846FFF7AF
:109E70004EFB07F50067B61CB6B24645E7D324B1E2
:109E800022460E493846FFF742FBBDE8F047FFF790
:109E9000C9BABDE8F08710B50168094A1140B1F1AF
:109EA000005F09D14168074C21600068FEF74AF95C
:109EB0002068BDE81040004710BD00004088002029
:109EC0000000FE2F3C000020064C074D06E0E06835
:109ED00040F0010394E8070098471034AC42F6D3F1
:109EE000FEF72AF9641F0108841F0108002001E021
:109EF00001C1121F002AFBD170472DE9F04116461F
:109F00000F460446002503E03946B047641C6D1C2B
:109F100020780028F8D12846BDE8F0810400000030
:109F20000008014000020000040000000008014099
:109F300000040000100000000010014004000000B8
:109F40000400000000080140008000000400000040
:109F50000008014000010000200000000014014042
:109F600000040000806A0020C9260008B112000821
:109F7000B3120008B5120008B7120008B9120008A1
:109F800000000000000000000000000000000000D1
:109F9000BB120008BD12000800000000BF1200083C
:109FA000C1120008E3260008E3260008E3260008A3
:109FB000E3260008E3260008E3260008E32600085D
:109FC000E3260008E3260008E3260008E32600084D
:109FD000E3260008E3260008E3260008E32600083D
:109FE000E3260008E3260008E3260008E32600082D
:109FF000E3260008E3260008E3260008E32600081D
:10A00000E3260008E3260008E3260008E32600080C
:10A01000E3260008E32600084D360008E326000882
:10A02000E3260008E3260008E3260008E3260008EC
:10A03000E3260008E326000809460008E326000896
:10A04000E3260008E3260008E3260008E3260008CC
:10A05000E3260008E3260008E3260008E3260008BC
:10A06000E3260008E3260008E3260008E3260008AC
:10A07000E32600083B550008E3260008F9360008EF
:10A08000E3260008E3260008E3260008E32600088C
:10A09000E326000800F002F800F047F80AA090E874
:10A0A000000C82448344AAF10107DA4501D100F093
:10A0B0003CF8AFF2090EBAE80F0013F0010F18BF19
:10A0C000FB1A43F0010318470C7B00002C7B0000B7
:10A0D000103A24BF78C878C1FAD8520724BF30C8D4
:10A0E00030C144BF04680C607047000000230024A6
:10A0F00000250026103A28BF78C1FBD8520728BF98
:10A1000030C148BF0B607047642907F0CD817529C5
:10A1100007F0CA81732907F0A984002070471FB592
:10A1200007F013FA1FBD10B510BD07F0E7FC11468C
:10A13000FFF7F5FF00F041FC07F005FD03B4FFF762
:10A14000F2FF03BC04F04CF880F30888704700006D
:10A150000B49D1F800C04A685CF8043B1068184409
:10A1600042F8040B8C4528BFA1F1DC0C8A4228BFC1
:10A17000A1F1DC02C1F800C04A6020F00040704745
:10A18000184A002010B545F2555001F0AFFA0420EE
:10A1900001F0AFFA4FF47A6001F0AEFA01F0B4FAD0
:10A1A000BDE8104001F0ABBA01F0A9BA70B50024C7
:10A1B0004FF40075FF21204602F059FD641CA4B243
:10A1C000AC42F7D3BDE8704004F0C1BA2DE9FE4FB0
:10A1D0000422FA49002002F0ADFDDFF8E0830222FC
:10A1E00008F10401042002F0A5FD062002F01EFD86
:10A1F000A8F80600FF2802D1FE20A8F806004A2091
:10A2000088F80800082002F011FD88F809004421B0
:10A210000F2002F02CFD98F836100E2002F027FDDA
:10A22000102002F003FDE64C2070272002F0FEFC17
:10A230000127552803D1207808B9E2480770002487
:10A2400001AE04F1280002F0F1FC3055641CE4B2C8
:10A25000062CF6D39DF804000025FF283FD19DF879
:10A260000500FF283BD19DF80600FF2837D19DF857
:10A270000700FF2833D19DF80800FF282FD19DF853
:10A280000900FF282BD129468DF8045002208DF8B3
:10A29000050035208DF80600AF208DF807008DF8F9
:10A2A00008108DF80910282002F0E1FC9DF8051037
:10A2B000292002F0DCFC9DF806102A2002F0D7FCD1
:10A2C0009DF807102B2002F0D2FC9DF808102C20DE
:10A2D00002F0CDFC9DF809102D2002F0C8FC0020F2
:10A2E00008EB0002315CD172401CC0B20628F7D3E3
:10A2F000002404F12F0002F099FC3055641CE4B2F4
:10A30000042CF6D39DF8070000909DF806309DF8C8
:10A3100005209DF80410ACA007F048F89DF8040053
:10A320004FF0C0094FF0A80AFF2827D19DF805007B
:10A33000FF2823D19DF80600FF281FD19DF80700B4
:10A34000FF281BD149468DF804908DF805A08DF8A3
:10A35000065003208DF807002F2002F088FC9DF89E
:10A360000510302002F083FC9DF80610312002F029
:10A370007EFC9DF80710322002F079FC002008EBEB
:10A380000002315C517482F82310401CC0B20428D2
:10A39000F5D32E2002F04AFC8DF8040028B139468E
:10A3A0008DF804702E2002F062FC9DF8040088F8FD
:10A3B000150088F82700002404F1330002F036FC71
:10A3C0003055641CE4B2042CF6D39DF80400FF2839
:10A3D00020D19DF80500FF281CD19DF80600FF281C
:10A3E00018D19DF80700FF2814D1FF218DF80750E0
:10A3F000332002F03CFC9DF80510342002F037FCBD
:10A400009DF80610352002F032FC9DF8071036202A
:10A4100002F02DFC002008EB0002315C917582F8FF
:10A420002810401CC0B20428F5D3002404F13700E2
:10A4300002F0FCFB3055641CE4B2042CF6D39DF80A
:10A440000400FF2827D19DF80500FF2823D19DF89F
:10A450000600FF281FD19DF80700FF281BD14946A1
:10A460008DF804908DF805A08DF8065004208DF825
:10A470000700372002F0FBFB9DF80510382002F0A2
:10A48000F6FB9DF80610392002F0F1FB9DF807104D
:10A490003A2002F0ECFB002008EB0002315C9176E0
:10A4A00082F82C10401CC0B20428F5D33B2002F0E7
:10A4B000BDFB8DF80400FF2805D129468DF8045016
:10A4C0003B2002F0D4FB9DF8040088F81E0088F8B9
:10A4D00030003C2002F0AAFB8DF804003D2002F081
:10A4E000A5FB8DF805009DF80410FF290AD1FF286F
:10A4F00008D14FF4FB70A8F820008DF80470F62006
:10A500008DF805009DF805009DF8041040EA012033
:10A51000A8F82000A8F8320088F8345088F83550A0
:10A52000BDE8FE8F10B501210D2001F0CEFE2348BD
:10A5300090F83600072809D0082807D00C2805D045
:10A54000BDE810400121284801F07EB8BDE8104068
:10A550000121264801F078B870B500240121244A71
:10A56000244D254B0C2811D2DFE800F006111C48C1
:10A57000535E69747F8A95A0C2F89C11C5F880115A
:10A58000C3F8B441C3F8B841C2F8984198E0C2F8A2
:10A590009C11C5F88011C3F8B411C3F8B841C2F8D2
:10A5A00098418DE0C2F89C11C5F88011C3F8B44100
:10A5B000C3F8B811C2F8984182E00000F2140020FC
:10A5C0006D000020000000204545502049502041EA
:10A5D0004444524553533A25642C25642C25642C5D
:10A5E00025640D0A00000000000430000002300065
:10A5F000008021420000224200002142C2F89C114A
:10A60000C5F88011C3F8B411C3F8B811C2F8984165
:10A6100056E0C2F89C11C5F88011C3F8B441C3F8E4
:10A62000B841C2F898114BE0C2F89C11C5F88011EE
:10A63000C3F8B411C3F8B841C2F8981140E0C2F8A9
:10A640009C11C5F88011C3F8B441C3F8B841C2F8F1
:10A65000984135E0C2F89C11C5F88011C3F8B411D7
:10A66000C3F8B841C2F898412AE0C2F89C11C5F875
:10A670008011C3F8B441C3F8B811C2F898411FE083
:10A68000C2F89C11C5F88011C3F8B411C3F8B81111
:10A69000C2F8984114E0C2F89C11C5F88011C3F8C3
:10A6A000B441C3F8B841C2F8981109E0C2F89C114E
:10A6B000C5F88011C3F8B411C3F8B841C2F89811B5
:10A6C000F74C0021204601F01FFB2046BDE87040FA
:10A6D000002101F01BBB2DE9F04188B001210220CF
:10A6E00001F0FEFD0121082001F0EFFD0324ADF88B
:10A6F0001C404FF018088DF81F808DF81E40E94E61
:10A7000007A9304600F00FFF0121082001F0DDFD10
:10A71000C021ADF81C1010258DF81F508DF81E407B
:10A7200007A9304600F0FFFEC021304600F06CFF64
:10A730000121102001F0C9FD0126ADF81C608DF843
:10A740001F508DF81E40D84F07A9384600F0EBFE89
:10A750000121384600F058FF0121102001F0B5FD1D
:10A760006703ADF81C708DF81F508DF81E40CF4D5B
:10A7700007A9284600F0D7FE3946284600F044FFD6
:10A780004FF47A70ADF814000020ADF81000ADF869
:10A790001600ADF81200C24D04A9284600F0C4FF0F
:10A7A0007021ADF80010ADF802600221ADF808107C
:10A7B0006946284601F06AF86946284601F0A4F87F
:10A7C0000821284601F076F90821284601F078F999
:10A7D0000121284601F0D0F88020ADF81C008DF84A
:10A7E0001F808DF81E4007A9B14800F09CFE08B0FC
:10A7F000BDE8F08138B50121082001F066FD332065
:10A80000ADF8000003248DF8024010208DF80300FD
:10A81000A44D6946284600F086FE3321284600F004
:10A82000F3FE8020ADF8000018208DF803008DF8AD
:10A83000024069469E4800F076FE38BD2DE9F84F8B
:10A840009C480324102590F83600984FDFF8548276
:10A85000DFF854924FF0C80A4FF4A07607284FD083
:10A860000C284BD101211C2001F02FFDADF800A0D8
:10A870008DF803508DF802406946484600F053FEBB
:10A88000C821484600F0C0FEADF800608DF80350C6
:10A890008DF802406946404600F045FE314640468C
:10A8A00000F0B2FE0220ADF800008DF803508DF8E4
:10A8B00002406946384600F036FE0221384600F074
:10A8C000A3FE4C20ADF800008DF803508DF8024037
:10A8D0006946384600F027FE4C21384600F094FEC9
:10A8E000ADF800408DF803508DF8024069464046AF
:10A8F00000F019FE0321404600F086FEBDE8F88F07
:10A9000001219C2001F0E1FCCC20ADF800008DF885
:10A9100002408DF803506946384600F004FECC2111
:10A92000384600F071FEADF800408DF802408DF819
:10A9300003506946404600F0F6FD0321404600F012
:10A9400063FEADF800A08DF803508DF80240694613
:10A95000484600F0E8FDC821484600F055FEADF835
:10A9600000608DF803508DF802406946404600F0C3
:10A97000DAFD3146404600F047FE0F20ADF80000FA
:10A980008DF803508DF802406946384600F0CBFD43
:10A990000F21384600F038FE8020ADF800008DF819
:10A9A00003508DF80240424C6946204600F0BBFD42
:10A9B0008021204600F028FEA0E7ADF5836D3D4CD8
:10A9C000052084F8360003F041FD482003F004FD23
:10A9D00002F026F9272002F029F9552806D1002196
:10A9E000272002F044F9344804F0D1FD4FF4A06070
:10A9F00000F0D4FCFFF796FDFFF7C4FB94F8360097
:10AA0000052806D0062807D0072808D00C2806D02D
:10AA100007E0FFF760FE04E0FFF7ECFE01E0FFF760
:10AA20000DFF94F8360000274FF0010A052801D0E9
:10AA3000062808D102F0D8FC204D2F60642003F0D6
:10AA4000F0FCC5F800A001F085FE092002F0EEF848
:10AA5000A072092800D820B90921A172092002F0AA
:10AA600006F903F003FEFFF7B1FBFFF78BFBDFF8FE
:10AA7000508088F80170A8F8047008F10805C5F83E
:10AA800001A00C4890F83600052828D006282BD0C5
:10AA900007282ED00C2831D0082834D0442111E0CA
:10AAA00000040040000C014000100140000801407B
:10AAB000001C0140F2140020008000089C81234209
:10AAC00000000020E6A006F071FC02F01AFD02F082
:10AAD000E1F94FF47A7003F0A4FC00241DE0442156
:10AAE000E8A006F063FCF0E74421ECA006F05EFC71
:10AAF000EBE74421EFA006F059FCE6E74421F3A080
:10AB000006F054FCE1E74421F7A006F04FFCDCE737
:10AB1000FFF74AFB322003F084FC05F0A3FF20B1CD
:10AB20002046641CE4B20A28F2D341F61F413220C9
:10AB300002F068FDF4480760F4480770F44C208880
:10AB40006FF30E002080607820F08000607088F83D
:10AB500002704FF000090026EE48FA210170687873
:10AB6000C00715D04FF4E13003F0D8FB02F0F9FE36
:10AB700002F072FF0646022E23D0E7A006F016FC74
:10AB8000002002F098FF642003F04BFCFFF70CFB61
:10AB900003F081FCCDF80C04DFF88CB3FFF704FB65
:10ABA00003F079FCCDF81004DDF80C14DDF8100486
:10ABB00043F69825401AA8420AD99BF8000020B114
:10ABC00006E0DAA006F0F2FBDAE7DC4804F0DFFC8E
:10ABD000DB4C94F8010400060AD5022E08D094F844
:10ABE000010420F0800084F80104D6A006F0DEFB0A
:10ABF000F9E0D7488188491C818003F04CFCCDF8EE
:10AC00001004FFF7D1FA98F8010008B1012822D109
:10AC10000A2003F006FCCF4C2078012812D103F063
:10AC200036FD60B103F020FD03F03EFCCA49002070
:10AC300003F09AFDC849002004F068F801E003F031
:10AC400085FC2770B349087828B1401EC0B208704F
:10AC500008B903F07BFCDDF80C14DDF8100443F6B2
:10AC60009824401AA04205D99BF8000010B9B348B7
:10AC700004F08DFC03F00FFCCDF81004A34D2878F0
:10AC800078B9B6490A7862B1B54ADDF8100412689D
:10AC9000821A41F28830824239D30F7005F0FAFFF0
:10ACA00035E0012810D0022820D0DDF80C14DDF8A2
:10ACB0001004401AA04202D39BF80000B0B198F8EB
:10ACC0000000012812D022E0A648DDF81014026826
:10ACD000891AA1421BD3DDF810140068814201D902
:10ACE0002F7014E0A0A006F061FB10E003F0D3FB8E
:10ACF000CDF80C0439462F708BF80010102001F0AD
:10AD0000B6FF9DA006F052FB8C4804F040FC98F87A
:10AD1000010008B1032866D198F8020050EA090042
:10AD200061D1022E5FD100249648CDF81404282268
:10AD30000DF58160DDF8141403F084F8F0B1914D45
:10AD4000E8780090AB786A7829788FA006F02EFB1F
:10AD500015F8380940B995F8390028B995F83A003E
:10AD600010B995F83B0010B188F802A00DE041F24F
:10AD7000883003F056FB88F8027002E0C82003F028
:10AD800050FB641CE4B2052CD1D398F8020008B93A
:10AD90004FF001094FF4FA752B46002280A181A0E3
:10ADA00002F008FE012002F0BEFE00F0A8FC2B46D7
:10ADB00000227BA17FA002F0FDFD42F2107508E0A9
:10ADC00000F09DFC0A2003F02CFB641CE4B2032C71
:10ADD00009D202232A4650217AA0CDF800A002F021
:10ADE000EAFE0028ECD0564890F8010400067FF5F2
:10ADF00000AF022E31D17102764806F059FCA8F856
:10AE00000670002003F0F3F8414C01462088C0F39F
:10AE10000E02714806F0FFFB20886FF30E002080C1
:10AE2000607820F08000607098F8010008B1032875
:10AE300013D16948C0793038C4B26649664803F016
:10AE4000EBF8A8F8060040B1012C06D102AD2F4C5A
:10AE5000217819B1012900D129E11AE1BEE00000F1
:10AE6000706C65617365207365742070616E656CCC
:10AE70002074797065207265763A202025750D0A58
:10AE800000000000424220626F6F746C6F61646565
:10AE900072207265763A2025750D0A004C422062B8
:10AEA0006F6F746C6F61646572207265763A2025ED
:10AEB000750D0A00544220626F6F746C6F61646597
:10AEC00072207265763A2025750D0A0054422D31A4
:10AED000314920626F6F746C6F61646572207265B6
:10AEE000763A2025750D0A00543320526F7574652B
:10AEF0007220626F6F746C6F616465722072657628
:10AF00003A2025750D0A000064000020CF000020C3
:10AF1000F00C00206F0000207769666920696E657B
:10AF200078697374210D0A006D00002077696669E5
:10AF3000206578697374210D0A0000000080000804
:10AF4000F00800206572726F72200D0A0000000088
:10AF50002C1700206E0000202E150020CE000020AF
:10AF6000D8000020DC0000202074696D6520657227
:10AF7000726F72200D0A0000206A756D70200D0A34
:10AF8000000000002A1500207769666920495020DA
:10AF900025752E25752E25752E25750D0A000000A8
:10AFA0004F4B000041542B4349504D4F44453D30D9
:10AFB0000000000041542B434950434C4F53453D42
:10AFC000350000003235352E3235352E3235352EEE
:10AFD00032353500F0040020F000002002467749A9
:10AFE00002A806F018FBB8F806002D286DD174A150
:10AFF000284606F0B3FA58B33E208BF80000012033
:10B0000005F0FAFD724D01231F220020296802F08D
:10B01000B2FF70489DF8211090F83820914218D165
:10B020009DF8221090F83920914212D19DF82310FA
:10B0300090F83A2091420CD19DF8241090F83B00F2
:10B04000814206D1644902200870644880F800A05B
:10B050001BE061480178E9B107709DF81500A0B1C7
:10B060009DF8160088B19DF8170070B19DF8180082
:10B0700058B1012005F0C0FD01231F2200202968DE
:10B0800002F079FF142003F0CCF95348007802282D
:10B0900003D01AE080F800A0DFE703F0FCF9504984
:10B0A000086084F800A04FA006F080F90DE0024689
:10B0B000424902A806F0AFFA02A9012006F02FF8D3
:10B0C0004E48007808B102202070012003F0A9F951
:10B0D00064E52DE9F0414A48C17800290CD10121ED
:10B0E000C1704FF4FA71103004F06AFA444842F229
:10B0F0001071183004F064FA05F009FD414D288004
:10B1000018B34FF4006004F0C6FA3F4CA18988429E
:10B110000BD1012004F01CFC288800284BD005F03E
:10B12000ECFBBDE8F04105F0FABC40F6060004F087
:10B13000B2FAA18988423ED105F093FB2888002805
:10B1400039D0BDE8F04105F0EABC2D48103004F0DC
:10B1500049FA00282FD02A48103004F038FA002489
:10B16000288818B105F0C9FB05F0D9FC641CE4B2CD
:10B17000282CF5D30024254E254F06EB841038608B
:10B18000052004F0E5FB288818B105F0B6FB05F0B2
:10B19000C6FC641CE4B20A2CEFD31948183004F042
:10B1A00021FA002807D01648183004F010FABDE83C
:10B1B000F04105F0DABABDE8F0810000F0040020AB
:10B1C00054656D636F636F6E74726F6C7300000013
:10B1D000D4000020F2140020CE000020CD0000207A
:10B1E000DC0000202048414E445348414B455F4419
:10B1F0004F4E452077696669200D0A00E400002063
:10B200000000002090000020401F0020D4350020C6
:10B21000AC0000207047FEE7FEE7FEE7FEE7704760
:10B2200070477047704700000CB5002201920092F1
:10B230005248016841F4803101604FF4A063016815
:10B2400001F4003100910199491C0191009911B953
:10B2500001999942F3D10168890302D50121009136
:10B2600000E000920099012930D145490A6842F076
:10B2700010020A600A6822F003020A600A6842F0BB
:10B2800002020A604168416041684160416841F4DE
:10B2900080614160416821F47C114160416841F462
:10B2A000E8114160016841F0807101600168890125
:10B2B000FCD5416821F003014160416841F0020181
:10B2C00041604168C1F381010229FAD10CBDABE7AD
:10B2D00010B52A48016841F0010101604168294A1E
:10B2E000114041600168284A11400160016821F461
:10B2F00080210160416821F4FE0141604FF41F018B
:10B300008160FFF7E4FF21494FF00060086010BD45
:10B3100010B51A4A506800F00C011D4B1D48002959
:10B320000ED004290ED008290ED003605168194AA6
:10B33000C1F30311121D515C0268CA40026010BDC6
:10B340000360F3E70360F1E7516801F4701153689B
:10B3500003F48033022404EB914133B153689B031F
:10B3600007D50D4B59430160E0E70B4B5943016092
:10B37000DCE7074B59430160D8E7000000100240AA
:10B38000002002400000FFF8FFFFF6FE08ED00E09D
:10B3900000127A002000002000093D002A490843DD
:10B3A0002A490860704770B50F23C27801260178DA
:10B3B000002A1ED0254A126802F4E062C2F5E0625B
:10B3C000120AC2F10404D3404578A54082781A409D
:10B3D0002A43120101F1E02181F80024007800F0F5
:10B3E0001F018E404009800000F1E020C0F800619C
:10B3F00070BD01F01F0086404809800000F1E02088
:10B40000C0F8806170BD124A114001430F48001F0F
:10B41000016070470D4A121D002903D011680143D5
:10B420001160704711688143116070474FF0E0214F
:10B43000042804D0086920F00400086170470869F6
:10B4400040F00400086170470000FA050CED00E0D0
:10B4500080FFFF1F10B59C49884209D101210420BB
:10B4600000F049FF0021BDE81040042000F043BF78
:10B470009649884209D10121082000F03CFF0021B3
:10B48000BDE81040082000F036BF9149884209D13C
:10B490000121102000F02FFF0021BDE810401020F6
:10B4A00000F029BF8B49884209D10121202000F0FA
:10B4B00022FF0021BDE81040202000F01CBF86497B
:10B4C000884209D10121402000F015FF0021BDE88C
:10B4D0001040402000F00FBF8049884209D101216F
:10B4E000802000F008FF0021BDE81040802000F01F
:10B4F00002BF7B4988420AD184150121204600F011
:10B50000FAFE2046BDE81040002100F0F4BE10BD58
:10B5100010B50121084600F0EEFE0021BDE8104004
:10B52000012000F0E8BE2DE9F0410022CC7804F0C3
:10B530000F03E40601D58C7823430C784FF00F07F6
:10B5400014F0FF0F4FF0010C1CD005680CFA02F448
:10B550000E882640A64211D1960007FA06F825EA81
:10B56000080503FA06F848EA0505CE78282E02D029
:10B57000482E02D002E0446100E00461521C082A17
:10B58000E4D305600A88FF2A1ED94568002202F12B
:10B5900008060CFA06F40E882640A64210D1960042
:10B5A00007FA06F825EA080503FA06F848EA050549
:10B5B000CE78282E00D14461CE78482E00D1046187
:10B5C000521C082AE3D34560BDE8F0814FF6FF71B5
:10B5D0000180022181700421C17070470246002061
:10B5E00092680A4200D001207047806880B270479C
:10B5F00002460020D2680A4200D001207047C0688D
:10B6000080B270470161704741617047002A01D0E4
:10B610000161704741617047C160704741F48032F9
:10B6200082618161826181698069704710B52D4BAB
:10B630001A684FF68074224042EA001008431860EE
:10B6400010BD2949C8617047F0B5264C002801DAC1
:10B65000E36900E06368C0F30346420D120185B25E
:10B66000C0F301579540032F07D0C2020CD5032227
:10B67000B240934343F0706209E023F07062636864
:10B6800023F07063636002E0AB4343F0706201B18A
:10B690002A43002801DAE261F0BD6260F0BD10B516
:10B6A0008A07120F0F23934021F003040D49214410
:10B6B0008C689C438C608B68904003438B6010BD0A
:10B6C0000949DC310860704700080140000C014066
:10B6D000001001400014014000180140001C01400E
:10B6E0000020014000000140000020420D49086098
:10B6F00070470C49486070470A498860704709499B
:10B700004AF6AA200860704706494CF6CC4008600B
:10B71000704701460020034AD2680A4200D0012047
:10B72000704700000030004030B50288F94CFA4DF7
:10B73000A0420DD0A8420BD0B0F1804F08D0F74BFB
:10B74000984205D0F64B984202D0F64B984203D16E
:10B7500022F070034A881A43F34B984206D0F34B09
:10B76000984203D022F44073CA881A4302808A8820
:10B7700082850A880285A0420AD0A84208D0EC4AF5
:10B78000904205D0EB4A904202D0EB4A904201D160
:10B79000097A01860121818230BD30B5028C22F008
:10B7A00001020284028C8388048B24F0700424F04C
:10B7B00003050C882C4322F002020D8915434A88A8
:10B7C0002A43D44DA8420BD0D34DA84208D0D84D1F
:10B7D000A84205D0D74DA84202D0D74DA8420FD1DC
:10B7E00022F008054A892A4322F004058A882A4360
:10B7F00023F4807323F400738D891D43CB892B437D
:10B8000083800483C9888186028430BD70B5028C30
:10B8100022F010020284028C8388048B24F4E0441A
:10B8200024F440760D884FF6FF7404EA052535436D
:10B8300022F020020E8904EA061616434A8804EA1A
:10B8400002123243B34EB04202D0B34EB04217D1CF
:10B8500022F080024E8904EA0616164326F04006BE
:10B860008A8804EA0212324323F4806323F40063DB
:10B870008E8904EA86061E43CB8904EA8303334398
:10B8800083800583C9880187028470BD70B5028CEE
:10B8900022F480720284028C8388848B24F07004EA
:10B8A00024F003040D88254322F400720E894FF61C
:10B8B000FF7404EA062616434A8804EA0222324349
:10B8C000944EB04202D0944EB04217D122F400669A
:10B8D0004A8904EA0222324322F480668A8804EA12
:10B8E0000222324323F4805323F400538E8904EA66
:10B8F00006161E43CB8904EA0313334383808583F2
:10B90000C9888187028470BD70B5028C22F4805290
:10B910000284058C8288838B23F4E04323F44076F1
:10B920000C884FF6FF7303EA0424344325F40055D2
:10B930000E8903EA06362E434D8803EA0535354362
:10B94000744EB04202D0744EB04205D122F480460B
:10B950008A8903EA8212324382808483C988A0F8EC
:10B960004010058470BD4FF6FF7181800021018079
:10B97000C180418001727047002904D0018841F0E4
:10B98000010101807047018821F0010101807047A9
:10B99000002A03D082890A438281704782898A43C0
:10B9A00082817047018582827047028822F070028E
:10B9B0000A4302807047028922F070020A43028122
:10B9C000704770B50589048B068C25F007050D437B
:10B9D0004FF6FC410C4040F201110C4326F02206C8
:10B9E0004FF6FF7101EA03111143314305810483CE
:10B9F000018470BD028B22F070020A4302837047FB
:10BA0000028B22F4E0424FF6FF7303EA0121114357
:10BA100001837047828B22F070020A438283704751
:10BA2000828B22F4E0424FF6FF7303EA01211143B7
:10BA300081837047002904D0018841F08001018092
:10BA40007047018821F0800101807047002904D0EF
:10BA5000818841F0040181807047818821F00401D0
:10BA600081807047002904D0818841F008018180DD
:10BA70007047818821F0080181807047002904D037
:10BA8000818841F0010181807047818821F00101A6
:10BA900081807047028B22F008020A4302837047BC
:10BAA000028B22F400624FF6FF7303EA0121114377
:10BAB00001837047828B22F008020A438283704719
:10BAC000828B22F400624FF6FF7303EA01211143D7
:10BAD00081837047028B22F004020A43028370477D
:10BAE000028B22F480624FF6FF7303EA01211143B7
:10BAF00001837047828B22F004020A4382837047DD
:10BB0000828B22F480624FF6FF7303EA0121114316
:10BB100081837047002C0140003401400004004044
:10BB200000080040000C00400010004000140040DD
:10BB3000004001400044014000480140028B22F0D7
:10BB400080020A430283E4E7028BC2F30E024FF63F
:10BB5000FF7303EA012111430183DAE7828B22F0AC
:10BB600080020A438283D4E7828BC2F30E024FF62F
:10BB7000FF7303EA012111438183CAE7028C22F09B
:10BB800002020A430284C4E7028C22F008020A433C
:10BB90000284BEE7028C22F020024FF6FF7303EA14
:10BBA000011111430184B4E7028C22F080024FF6A8
:10BBB000FF7303EA011111430184AAE7028C22F406
:10BBC00000724FF6FF7303EA012111430184A0E7DD
:10BBD000028C22F400624FF6FF7303EA0121114345
:10BBE000018496E7028C22F400524FF6FF7303EAB9
:10BBF0000131114301848CE710B501238B40048C83
:10BC00009C430484038C8A401343038410BD10B505
:10BC100004238B40048C9C430484038C8A4013438C
:10BC2000038410BD30B500F1180301248C40058C4D
:10BC3000A5430584002911D008290FD0091FC1F39D
:10BC40004E001844016821F4E041016001684FF69C
:10BC5000FF7303EA02221143016030BD03EB510080
:10BC6000016821F07001016001681143016030BD7D
:10BC7000002904D0018841F00201018049E70188D0
:10BC800021F00201018044E7002904D0018841F03D
:10BC9000040101803DE7018821F00401018038E7BB
:10BCA000002904D0818841F08001818031E78188BA
:10BCB00021F0800181802CE7028822F008020280B6
:10BCC00002880A43028024E7828822F07002828080
:10BCD00082880A4382801CE7028922F007020281DF
:10BCE00002890A43028114E7028922F0800202815C
:10BCF00002890A4302810CE781840AE7818508E70B
:10BD0000818606E7018704E7818702E7A0F84010F3
:10BD1000FFE6028B22F00C020283028B0A430283AD
:10BD2000F7E6028B22F440620283028B4FF6FF7328
:10BD300003EA01210A430283EBE6828B22F00C0224
:10BD40008283828B0A438283E3E6828B22F4406201
:10BD50008283828B4FF6FF7303EA01210A438283B9
:10BD6000D7E6028822F44072028002880A430280E9
:10BD7000CFE6808ECDE6008FCBE6808FC9E6B0F8A7
:10BD80004000C6E6808CC4E6008DC2E60246002074
:10BD9000128A0A4200D00120BBE6C9430182B8E6FC
:10BDA00002460020138A0B4092890A40002B02D0E1
:10BDB000002A00D00120ACE6C9430182A9E60000B8
:10BDC00010B5E14988420AD101218C03204600F0D8
:10BDD00092FA2046BDE81040002100F08CBADB4901
:10BDE00088420AD101214C04204600F08FFA2046F7
:10BDF000BDE81040002100F089BAD54988420AD137
:10BE000001218C04204600F081FA2046BDE8104054
:10BE1000002100F07BBACF4988420AD10121CC042D
:10BE2000204600F073FA2046BDE81040002100F0E3
:10BE30006DBAC94988420AD101210C05204600F09B
:10BE400065FA2046BDE81040002100F05FBA10BD41
:10BE500030B585B004460D46208A4CF6FF71084087
:10BE6000E98801432182A0894EF6F3110840A98890
:10BE70002A8911436A8902431143A181A08A4FF69E
:10BE8000FF410840A9890143A182684600F0C5F935
:10BE9000AD48844201D1039800E00298A1890904C9
:10BEA00008D500EBC00101EB001029684900B0FB88
:10BEB000F1F007E000EBC00101EB001029688900F8
:10BEC000B0FBF1F06422B0FBF2F109010B096FF055
:10BED00018056B4300EB8300A3891D044FF0320368
:10BEE00007D503EBC000B0FBF2F000F007000843F9
:10BEF00006E003EB0010B0FBF2F000F00F00084387
:10BF0000208105B030BD4FF41651016000218180C1
:10BF1000C18001810C2242818181704710B5038A62
:10BF20004FF2FF0213400A884C8822438C88C9884C
:10BF30000C4322431A43028210BD0021018041803C
:10BF40008180C1807047002904D0818941F400516B
:10BF500081817047818921F400518181704710B53A
:10BF600040F66A13C1F3421301F01F040121A140FE
:10BF7000012B07D0022B07D014303AB102680A43D4
:10BF8000026010BD0C30F8E71030F6E702688A4313
:10BF9000026010BD002A03D0828A0A438282704761
:10BFA000828A8A4382827047028A22F00F020282CA
:10BFB000028A0A4302827047828922F400628281E7
:10BFC00082890A4382817047002904D0818941F027
:10BFD000020181817047818921F0020181817047CE
:10BFE000028A22F020020282028A0A4302827047F9
:10BFF000002904D0018A41F4804101827047018AFE
:10C0000021F4804101827047C1F3080181807047AB
:10C010008088C0F308007047818941F00101818167
:10C020007047028BD2B20283028B42EA0121018364
:10C030007047028B02F47F420283028B0A43028321
:10C040007047002904D0818A41F020018182704725
:10C05000818A21F0200181827047002904D0818AE1
:10C0600041F0100181827047818A21F010018182A4
:10C070007047002904D0818A41F00801818270470D
:10C08000818A21F0080181827047002904D08189CA
:10C0900041F40041818170478189C1F30E018181A2
:10C0A0007047002904D0818A41F400618182704781
:10C0B000818A21F4006181827047828A22F0040221
:10C0C0008282828A0A4382827047002904D0818A50
:10C0D00041F0020181827047818A21F00201818250
:10C0E00070470246002012880A4200D001207047A3
:10C0F0008A05C9430180704770B5002440F66A1272
:10C10000C1F3421301F01F05012606FA05F2012BC7
:10C110000CD0022B0DD0838A1340090A8E40008870
:10C1200030400BB100B10124204670BD838913401B
:10C13000F3E7038A1340F0E740F66A120A0A012186
:10C140009140C943018070470038014000440040DD
:10C1500000480040004C0040005000407E4801680C
:10C1600041F00101016041687C4A11404160016871
:10C170007B4A11400160016821F48021016041681F
:10C1800021F4FE0141604FF41F0181607047724944
:10C190000A6822F480320A600A6822F480220A6067
:10C1A000B0F5803F07D0B0F5802F03D1086840F488
:10C1B000A02008607047086840F48030086070472D
:10C1C000034600205909644A01290AD002290AD0ED
:10C1D000516A03F01F02012393400B4200D001205B
:10C1E00070471168F5E7116AF3E718B50020009071
:10C1F0004FF4A0643120FFF7E3FF0099491C009140
:10C200000099A14201D00028F4D03120FFF7D8FFD7
:10C2100008B1012018BD002018BD10B54E4A516864
:10C2200001F00C014F4B002927D0042927D0082901
:10C2300027D00360516801F0F00109094A4B5C5CAA
:10C240000168E1404160546804F4E064240A1C5D24
:10C2500021FA04F48460546804F46054E40A1B5D19
:10C26000D940C160526802F44042920B3E4B1B1F02
:10C270009A5CB1FBF2F1016110BD0360DAE7036083
:10C28000D8E7516801F47011536803F48033022435
:10C2900004EB914133B153689B0307D5334B5943AA
:10C2A0000160C7E7314B59430160C3E72D4B594348
:10C2B0000160BFE7284A002903D051690143516159
:10C2C00070475169814351617047234A002903D067
:10C2D0009169014391617047916981439161704710
:10C2E0001D4A002903D0D1690143D1617047D1694A
:10C2F0008143D1617047184A002903D0D1680143B6
:10C30000D1607047D1688143D1607047124A0029DB
:10C3100003D01169014311617047116981431161B3
:10C3200070471349086070471249C86470470A494A
:10C33000C87170470848416A41F080714162704796
:10C3400001460020044A92680A4200D0012070474A
:10C350000149887270470000001002400000FFF899
:10C36000FFFFF6FE00127A003800002000093D00B1
:10C37000400442420000424210B5A94988420AD115
:10C38000841401212046FFF7B6FF2046BDE8104087
:10C390000021FFF7B0BFA34988420AD1041401214C
:10C3A0002046FFF7B3FF2046BDE810400021FFF70D
:10C3B000ADBF9D4988420AD1C41301212046FFF731
:10C3C000A5FF2046BDE810400021FFF79FBF10BD2C
:10C3D00030B5028802F441530A884C88CD88224344
:10C3E0008C882C4322430C8922434C8922438C891C
:10C3F0002243CC8922431A430280828B22F40062BA
:10C400008283098A018230BDF0B585B005460C46AD
:10C41000022000210126AA8B4FF240031A40AA8372
:10C4200002222A84AF8BA268022A21D0A08800B100
:10C4300002266846FFF7F1FE0098E188B1F5007F1B
:10C440002CD07101B0FBF1F000EB8000A16840003E
:10C45000B0FBF1F0401D80B20A21B0FBF1F000F01A
:10C460000101401AC0F34F004FF6FF7202EA0121AA
:10C47000821EFE2A01D302200021E28808430243E3
:10C480002A8420886188A2890843A188114308432F
:10C49000384340F40060A88305B0F0BD000A00EB0B
:10C4A0008000A1684000B0FBF1F0401D80B2D3E7EE
:10C4B0000021018041808180C18001814181818191
:10C4C000C181072101827047002101804180818064
:10C4D000C1800222826081817047002904D00188D6
:10C4E00041F0400101807047018821F04001018046
:10C4F0007047002904D0818B41F4806181837047AB
:10C50000818B21F4806181837047090901238B406D
:10C5100099B2002A03D082880A43828070478288B9
:10C520008A4382807047002A03D082880A4382802F
:10C53000704782888A4382807047818170478089F2
:10C540007047A1F57E42FF3A04D0018841F4807122
:10C5500001807047018821F48071018070470029B3
:10C5600004D0818841F0040181807047818821F0E6
:10C57000040181807047028822F4006202800288F0
:10C580000A4302807047018841F48051018070475E
:10C59000002904D0018841F40051018070470188CE
:10C5A00021F4005101807047012901D0008B7047B0
:10C5B000808A7047008A7047B1F5804F04D00188A7
:10C5C00021F4804101807047018841F4804101805D
:10C5D00070470246002012890A4200D001207047AD
:10C5E000C9430181704730B50246002001F00F03B6
:10C5F000012505FA03F4A3B2090905FA01F4A4B26E
:10C600009188214012891A4202D0002900D00120CD
:10C6100030BD01F00F0201219140C94301817047F3
:10C620000030014000380040003C0040094880478D
:10C6300009480047FEE7FEE7FEE7FEE7FEE7FEE704
:10C64000FEE7FEE7FEE7FEE704480549054A064B1C
:10C65000704700006D13000831010008804A002077
:10C66000806A0020805A0020805A0020F8B50121FD
:10C670004FF4F670FFF729FE4FF40166ADF8006045
:10C6800010248DF8034003258DF80250A24F69460F
:10C690003846FEF748FF31463846FEF7B3FF6601DD
:10C6A000ADF800608DF803408DF802509B4F69464D
:10C6B0003846FEF738FF31463846FEF7A3FF4FF401
:10C6C0008966ADF800608DF803408DF80250944FF4
:10C6D00069463846FEF727FF31463846FEF792FF97
:10C6E00042F21F06ADF800608DF803408DF802504D
:10C6F0008C4F69463846FEF716FF31463846FEF73E
:10C7000081FFE601ADF800608DF803408DF802501E
:10C71000854F69463846FEF706FF31463846FEF734
:10C7200071FF4FF4E046ADF800608DF803408DF8DE
:10C7300002507E4C69462046FEF7F5FE3146204603
:10C74000FEF760FF7A49012008607A490020C1F8AD
:10C750008C01F8BDF8B578484024102590F83610C3
:10C760000326724F4FF48070052917D0072927D070
:10C770000C2925D0082910D10121FFF7A6FDADF81D
:10C7800000408DF803508DF8026069463846FEF788
:10C79000CAFE40213846FEF735FFF8BD0121FFF7FC
:10C7A00094FDADF800408DF803508DF802606946A5
:10C7B0003846FEF7B8FE04215A48FEF725FFF8BDBB
:10C7C000BDE8F84052E770B55B4C584D94F8360020
:10C7D000052803D140212846FEF716FF94F83610AD
:10C7E000072901D00C2902D15448002202600829EF
:10C7F00005D12846BDE870404021FEF705BF70BD59
:10C8000070B54D4C494D94F83610052904D00729D0
:10C8100007D00C2905D007E040212846FEF7F2FE9C
:10C8200002E046480121016094F83600082805D14D
:10C830002846BDE870404021FEF7E4BE70BD3E488A
:10C8400090F83600052801D0082803D13C490A6831
:10C85000D2430A60072801D00C2803D13748016869
:10C86000C9430160704770B50446002C0AD0354DAD
:10C87000314E6868201A052828D3334800780128EB
:10C8800003D010E0BDE87040D9E730490888401C6B
:10C8900080B208804CF25031884204D92CA004F0B8
:10C8A00085FD01F054FF6C602878401C287096F8D4
:10C8B000360005280AD168780621B0FBF1F201FBA9
:10C8C0001200FDF749FE6878401C687028783C2803
:10C8D00015D006DC14280FD028281BD1BDE87040E5
:10C8E0008EE750280ED0C82814D196F836000528B7
:10C8F0000BD0062809D00BE0BDE8704063E7BDE827
:10C90000704060E7BDE870407AE7552000F048FDD0
:10C910000020287070BD000000080140000C01409C
:10C920000014014000180140001C0140002001409B
:10C930008401234200802242F2140020AC012142F3
:10C940009801244248000020CD000020D0000020A3
:10C950007265626F6F7420616674657220736861BE
:10C960006B6520646F6E65200D0A000038B5954C2C
:10C97000208FADF8000048208DF803006946606BF9
:10C98000FEF7D1FD218F606BFEF73CFE38BD38B558
:10C990008C4C208FADF8000010208DF80300032090
:10C9A0008DF802006946606BFEF7BDFD218F606B5C
:10C9B000FEF728FE38BD834A002803D0918D906A87
:10C9C000FEF720BE918D906AFEF71EBE7D4A0028BC
:10C9D00003D0118F506BFEF715BE118F506BFEF711
:10C9E00013BE7848018F406BFEF7F8BDF8B5754C63
:10C9F0000121606AFFF769FCA08DADF800001025E9
:10CA00008DF8035003268DF802606946A06AFEF790
:10CA10008AFDA18DA06AFEF7F5FD0121206BFFF7CD
:10CA200054FC208FADF800008DF803508DF80260A3
:10CA30006946606BFEF777FD218F606BFEF7E2FDC4
:10CA4000F8BD10B5FFF7A3FF0120FFF7BFFF0120DE
:10CA5000FFF7B1FF042001F0D2FC0020FFF7B6FF82
:10CA6000042001F0CCFCBDE810400020A3E710B585
:10CA7000FFF78DFF0020FFF79EFF0020FFF7A6FFC6
:10CA8000042001F0BCFC0120FFF795FF0120FFF717
:10CA90009DFFBDE81040042001F0B1BC10B500249A
:10CAA0000120FFF793FFFFF761FF012001F0A7FCD2
:10CAB0000120FFF780FF012001F0A1FC07E0641CCA
:10CAC000E4B2FA2C03D9FFF7D2FF012010BDFFF723
:10CAD00088FF0028F3D1FFF76EFF002010BD10B5CE
:10CAE0000020FFF768FFFFF752FF0020FFF76EFFFF
:10CAF000022001F084FC0120FFF75DFF022001F01D
:10CB00007EFCBDE81040002055E710B50020FFF77F
:10CB100052FFFFF73CFF0120FFF758FF022001F012
:10CB20006EFC0120FFF747FF022001F068FCBDE822
:10CB3000104000203FE770B50546FFF728FF0020B2
:10CB4000FFF739FF0024E809FFF740FF6806050EEC
:10CB5000022001F054FC0120FFF72DFF022001F01C
:10CB60004EFC0020FFF727FF022001F048FC641C68
:10CB7000E4B2082CE7D370BD70B506460024FFF779
:10CB8000F5FE00250020FFF716FF022001F037FC1C
:10CB90000120FFF710FF6006040EFFF722FF08B127
:10CBA000641CE4B2012001F02AFC6D1CEDB2082DDA
:10CBB000E8D31EB1FFF793FF204670BDFFF7A5FF36
:10CBC000FAE70000F07B000838B56B4CE06B0028FA
:10CBD00015D054F83C0F0121FFF777FB2089ADF801
:10CBE000000010208DF8030003208DF80200694634
:10CBF0006068FEF798FC21896068FEF703FD38BD88
:10CC00005D4AD16B00290AD020B1B2F84410106CF3
:10CC1000FEF7F8BCB2F84410106CFEF7F5BC704794
:10CC200010B5FFF7E3FEBDE81040CDE710B50446B0
:10CC3000FFF707FF200AA02101EB4000C0B2FFF779
:10CC40007AFFFFF72BFFE0B2FFF775FFFFF726FF34
:10CC5000FFF7F7FEA120FFF76EFFFFF71FFF002091
:10CC6000FFF78AFF0446FFF702FF204610BD70B5AC
:10CC700004460D460020FFF7C3FFFFF7E2FE200A3F
:10CC8000A02101EB4000C0B2FFF755FFFFF706FF00
:10CC9000E0B2FFF750FFFFF701FF2846FFF74BFF19
:10CCA000FFF7FCFEFFF7E3FE0120FFF7A9FFBDE859
:10CCB0007040052001F0B5BB2DE9F04106460D4658
:10CCC0001746002409E0E00025FA00F0C1B230194F
:10CCD00080B2FFF7CCFF641CE4B2BC42F3D3BDE8E2
:10CCE000F0812DE9F04102460E46002000249719FC
:10CCF00008E00502381B401E80B2FFF797FF28446A
:10CD0000641CE4B2B442F4D3E9E710B5FF20FFF7A6
:10CD10008DFF55280AD05521FF20FFF7A8FFFF20DF
:10CD2000FFF784FF552803D0012010BD002010BD5F
:10CD3000002010BD70B504460E46154608E020469A
:10CD4000641CA4B2FFF772FF06F8010B6D1EADB2B2
:10CD5000002DF4D170BD70B506460D46144606E0B0
:10CD600029783046FFF783FF761CB6B26D1C641E2F
:10CD7000A4B2F5D270BD0000F07B000843484249E0
:10CD800041604349416070474048016941F080017A
:10CD9000016170473D48C068C10701D0012070475C
:10CDA000410701D502207047C00601D50320704716
:10CDB0000020704770B50446FFF7ECFF0546012DD3
:10CDC00005D101F01CFB641EA4B2002CF4D104B9FF
:10CDD000FF25284670BD70B5054645F6FF763046FE
:10CDE000FFF7E8FF002812D1284C206940F002002C
:10CDF00020616561206940F0400020613046FFF706
:10CE0000D9FF012803D0216921F00201216170BD01
:10CE100070B506460D46FF20FFF7CCFF00280ED167
:10CE20001A4C206940F0010020613580FF20FFF797
:10CE3000C1FF012803D0216921F00101216170BDEA
:10CE4000008870472DE9F04105460E46174600243C
:10CE500007E036F814102846FFF7DAFFAD1C641C13
:10CE6000A4B2BC42F5D3BDE8F08110B5044600235E
:10CE700007E02046FFF7E4FF21F81300A41C5B1C29
:10CE80009BB29342F5D310BD2301674500200240B9
:10CE9000AB89EFCDF8B501215820FFF716FA4020F5
:10CEA000ADF8000010258DF8035003248DF80240E2
:10CEB000FE4E69463046FEF736FB2902ADF80010FB
:10CEC0008DF803508DF802406946F948FEF72BFBB8
:10CED000ADF8005048208DF803008DF802406946F7
:10CEE000F448FEF720FB40F2CF21642000F0C8FB9D
:10CEF00040213046FEF788FB0A2001F092FA4021DB
:10CF00003046FEF77FFB0A2001F08BFA40213046C5
:10CF1000FEF77AFB0A2001F084FA40213046FEF742
:10CF200071FB0A2001F07DFA40213046FEF76CFBD0
:10CF30000A2001F076FA40213046FEF763FB0A2012
:10CF400001F06FFA40213046FEF75EFB0A2001F047
:10CF500068FA40213046FEF755FB0A2001F061FADD
:10CF6000F8BD2DE9F04104460D46D14F4FF48056EF
:10CF700031463846FEF748FB05F01F00204300F01D
:10CF8000A8FAFF2000F0A5FA0446280603D5FF20E2
:10CF900000F09FFA044631463846FEF733FB204640
:10CFA000BDE8F0812DE9F04104460D469046C04FA2
:10CFB0004FF4805631463846FEF726FB05F01F0039
:10CFC000204300F086FA404600F083FA31463846A6
:10CFD000BDE8F041FEF716BB2DE9F04105460C46D1
:10CFE000B34F4FF4805631463846FEF70DFB3A20DA
:10CFF00000F06FFA05E06D1E002000F06AFA04F8F8
:10D00000010B002DF7D10020207031463846BDE8D5
:10D01000F041FEF7F7BA2DE9F04104460D46A44F62
:10D020004FF4805631463846FEF7EEFA7A2000F08B
:10D0300050FA04E0641E287800F04BFA6D1C002CB6
:10D04000F8D131463846BDE8F041FEF7DBBA70B59D
:10D050000546994E05F06004307884420BD00322D7
:10D060001F21A020FFF79EFFC5F341121F21802042
:10D07000FFF798FF347070BD10B504462046FFF7E7
:10D08000E6FF2146BDE8104000206AE770B505467E
:10D090000C462846FFF7DBFF22462946BDE87040D4
:10D0A00040207FE770B50D4600240146D420FFF7ED
:10D0B000EDFFE9B2D620FFF7E9FFC5F30721D7203E
:10D0C000FFF7E4FF40F6FF7501E0641CA4B2EA201C
:10D0D000FFF7D2FFC00701D0AC42F6D370BD70B5E8
:10D0E00005460024FFF7D6FE4FF4FA760BE0FDF775
:10D0F0005BF8FF2200211046FFF754FF641CA4B226
:10D100000A2001F08EF91D20FFF7B6FFC00701D1FC
:10D11000B442ECD3214669A004F048F9B44201D3EB
:10D12000012070BD64490020486000210820FFF7FD
:10D13000ADFF00210920FFF7A9FF00210C20FFF718
:10D14000A5FF00210D20FFF7A1FF10210A20FFF706
:10D150009DFF1A210B20FFF799FF11210420FFF7F3
:10D1600095FF1A210520FFF791FFFF210620FFF709
:10D170008DFF1F210720FFF789FFA1213820FFF72E
:10D1800085FF3F212820FFF781FF30212920FFF76D
:10D190007DFFF9213020FFF779FFF7213120FFF7DC
:10D1A00075FF0D21C020FFF771FF0021C120FFF79F
:10D1B0006DFF3322C2218020FFF7F4FE1221C6202A
:10D1C000FFF764FF0C21C720FFF760FF1521C42083
:10D1D000FFF75CFFEE21CA20FFF758FF0521CB20A7
:10D1E000FFF754FF2978E420FFF750FF6978E52026
:10D1F000FFF74CFFA978E220FFF748FFE978E3202A
:10D20000FFF744FF2979E020FFF740FF6979E1202B
:10D21000FFF73CFF4FF4807421460020FFF742FFE8
:10D2200021461020FFF73EFF1F20FFF710FFC0220E
:10D230001B218020FFF7B6FE04221F218020FFF76C
:10D24000B1FEE420FFF718FF2978884201D10020C1
:10D2500070BD012070BD72200EE770B505460E4608
:10D2600011210220FFF712FF1A210320FFF70EFF02
:10D2700041F611202C18E1B20620FFF707FFC4F396
:10D2800007210720FFF702FF002211467A20FFF74F
:10D2900089FE31462846FFF7BEFE08221F21802066
:10D2A000FFF780FE1C20FFF7E7FE0FE000180140AB
:10D2B000000C014000100140500000200D0A2072B7
:10D2C00065747279203D2025750A0D00800708D508
:10D2D00008221F21A020FFF765FEBDE8704003F083
:10D2E000C1BB70BD2DE9F04106460F463920FFF75E
:10D2F000C3FEA8B3294C00202179FFF7C7FEA08800
:10D30000C0F307210120FFF7C1FE00213A20FFF7FB
:10D3100028FE606000213A20FFF723FE616841EAA1
:10D320000020606000213A20FFF71BFE0546002127
:10D330003A20FFF716FE45EA00252D1F00213A206E
:10D34000FFF70FFE804600213A20FFF70AFE48EA69
:10D350000020761EB54206D903F084FB00201FE6AC
:10D36000FFE700201CE6000603D403F07BFB00204F
:10D3700016E639462846FFF72FFE21790C20FFF7E5
:10D3800085FEA088C0F307210D20FFF77FFE402215
:10D390001E218020FFF706FE284601E650000020EF
:10D3A00070B505467B4C02212046FFF712F9002894
:10D3B000F9D029462046FFF7C0F801212046FFF7A3
:10D3C00008F90028F9D02046FFF7B9F8C0B270BDBF
:10D3D00001467048028822F03802028002880A431F
:10D3E00002800121FFF779B870B586B0012141F2C2
:10D3F0001400FEF76AFFE020ADF8140018208DF845
:10D40000170003248DF81640634D05A92846FEF742
:10D410008AF8E0212846FEF7F5F80220ADF814005E
:10D420008DF8164010258DF817505C4E05A9304632
:10D43000FEF779F802213046FEF7E6F8584890F8F2
:10D44000360006280FD10820ADF814008DF81640DC
:10D450008DF81750534C05A92046FEF764F80821B3
:10D460002046FEF7D1F80020ADF800004FF482719D
:10D47000ADF80210ADF80400ADF80600ADF80800F4
:10D480004FF40071ADF80A103821ADF80C10ADF86A
:10D490000E000720ADF810003E4C69462046FEF70E
:10D4A00097FF01212046FFF718F81820FFF790FF9B
:10D4B000FF20FFF775FF06B070BD01463A480288AD
:10D4C00022F03802028002880A4302800121FFF71D
:10D4D00004B870B50546344C02212046FFF779F8B0
:10D4E0000028F9D029462046FFF727F801212046D9
:10D4F000FFF76FF80028F9D02046FFF720F8C0B2F8
:10D5000070BD30B587B001210820FEF7DEFE012195
:10D510008803FEF7E5FE4FF46044ADF8184018208C
:10D520008DF81B0003208DF81A00204D06A928460F
:10D53000FDF7F9FF21462846FEF764F801A8FEF73B
:10D54000B7FF0020ADF804004FF48271ADF806106B
:10D55000ADF80800ADF80A00ADF80C006915ADF89B
:10D560000E103821ADF81010ADF812000720ADF8FC
:10D5700014000D4C01A92046FEF72AFF0121204688
:10D58000FEF7ABFFFF20FFF7A4FF1020FFF795FF8A
:10D5900007B030BD003001400008014000100140DC
:10D5A000F21400200014014000380040000C01403B
:10D5B00038B500F070FF00900098FFF754F9474D20
:10D5C00001212846FEF7E2FB01281AD1444C2178BC
:10D5D00009B1022901D1FDF77CFD207848B1414A0B
:10D5E0001188481C1080B1F57A7F02D90021217082
:10D5F000118000F04BFF2846BDE838400121FEF7BE
:10D60000CCBB38BD7FB504460D4601210220FEF794
:10D6100067FEADF80840ADF804500024ADF80A40AC
:10D62000ADF806402D4D01A92846FEF77DF81D21D5
:10D630008DF800108DF801408DF8024001218DF821
:10D6400003106846FDF7AFFE012211462846FEF79B
:10D650009FF901212846FEF78FF97FBD10B5224CB6
:10D6600001212046FEF792FB012803D11F480168E3
:10D67000491C01602046BDE810400121FEF78DBB2A
:10D680007FB504460D4601211020FEF729FEADF8B6
:10D690000840ADF804500020ADF80A00ADF80600CF
:10D6A000114C01A92046FEF73FF836218DF80010F5
:10D6B00001218DF8011003228DF802208DF803104E
:10D6C0006846FDF770FE012211462046FEF760F91C
:10D6D00001212046FEF750F97FBD00000004004004
:10D6E000010000200400002000100040580000202D
:10D6F000F0B503460025084600260A2A01D0067028
:10D70000F0BD002B1DD005DA4FF02D0200F8012BE3
:10D71000C3F1000342F210724FF00A0793FBF2F4D8
:10D7200054EA050C06D004F1300500F8015B04FB57
:10D730001233012592FBF7F2002AEFDC067008464F
:10D74000F0BD3022027046700846F0BD0FB430B50F
:10D7500085B005460AA800900EE05C2914D0252962
:10D760002CD0521C28460992FEF74EFC80212846F8
:10D77000FEF7B7FC0028F9D0099A11780029ECD1FE
:10D7800005B030BC5DF814FB521C099210786E286D
:10D790000CD0722802D0521C0992E7E70D212846CE
:10D7A000FEF732FC0998401C0990DFE70A21284661
:10D7B000FEF72AFC0998401C0990D7E7521C0992F1
:10D7C0001078642819D0732802D0521C0992CDE732
:10D7D000009810C8009009E02846FEF715FC80214B
:10D7E0002846FEF77EFC0028F9D0641C2178002929
:10D7F000F2D10998401C0990B8E7009808C8009039
:10D800000A2201A91846FFF773FF01AC09E0284678
:10D81000FEF7FAFB80212846FEF763FC0028F9D0CA
:10D82000641C21780029F2D10998401C09909DE7D9
:10D8300008B54FF4A060FDF7B1FD34208DF800006D
:10D8400000208DF801008DF8020001208DF8030002
:10D850006846FDF7A8FD08BD10B586B00121C804D3
:10D86000FEF73EFD01211020FEF72FFD4FF48060F2
:10D87000ADF8140018208DF8170003208DF816005D
:10D88000FC4C05A92046FDF74EFEE114ADF814103E
:10D8900004218DF8171005A92046FDF744FE4FF42A
:10D8A000E13001900020ADF80800ADF80A00ADF8B5
:10D8B0000C00ADF810000C20ADF80E00EE4C01A9E4
:10D8C0002046FEF7C5FA012240F225512046FEF718
:10D8D00046FB012240F224412046FEF740FBFFF7C1
:10D8E000A7FF01212046FEF72EFB06B010BDF8B5BC
:10D8F000E2481024032690F8360005281BD006289D
:10D9000019D0072801D00C2814D101211020FEF7CE
:10D91000DCFC4FF40075ADF800508DF803408DF835
:10D920000260D44C69462046FDF7FDFD294620469D
:10D93000FDF768FEF8BD01210802FEF7C6FC4FF4B2
:10D940008055ADF800508DF803408DF80260CC4C46
:10D9500069462046FDF7E7FD29462046FDF752FEC1
:10D96000F8BD10B5FFF7C3FFFFF776FFC3480121ED
:10D9700090F83600052808D0062806D0072801D0E0
:10D980000C2801D1BF48016010BDBF48016010BD27
:10D99000BA48002190F83600052808D0062806D09D
:10D9A000072801D00C2801D1B64801607047B6485D
:10D9B000016070472DE9F0410E4617460246B3A1BB
:10D9C000AD48FFF7C3FE56EA07000ED0B14DB5F8DB
:10D9D00000046FF30E00A5F8000495F8010420F090
:10D9E000800085F80104002407E00120BDE8F081F3
:10D9F000322000F016FDFDF782FE95F801040006C6
:10DA000004D42046641CA4B20A28F1D3B5F800144B
:10DA10000020C1F30E0168546EB167B131469D48D4
:10DA200003F09CFD28B939469A4803F097FD002879
:10DA3000DCD00120DAE73EB13146964803F08EFD96
:10DA40000028D3D00120D1E73946924803F086FD63
:10DA50000028CBD00120C9E770B5002487480121F8
:10DA600090F83600052806D0062804D0072805D0EF
:10DA70000C2803D004E08448016001E08148016083
:10DA80004FF47A7000F0CDFC4FF4FA750CE02B46A1
:10DA9000002281A181A0FFF78DFF08B1022070BD97
:10DAA000FFF776FF641CE4B20A2CF0D301D001200A
:10DAB00070BD002070BD40F6C413002805D00128B9
:10DAC00007D0022809D00020704775A272A177A064
:10DAD00070E773A270A178A06CE771A26EA179A023
