:020000040800F2
:1080000040A00020998100084B8100084D810008A4
:108010004F810008518100085381000800000000D2
:108020000000000000000000000000005581000872
:108030005781000800000000598100085B8100089A
:10804000B3810008B3810008B3810008B381000840
:10805000B3810008B3810008B3810008B381000830
:10806000B3810008B3810008B3810008B381000820
:10807000B3810008B3810008B3810008B381000810
:10808000B3810008B3810008B3810008B381000800
:10809000B3810008B3810008B3810008B3810008F0
:1080A000B3810008B3810008B3810008B3810008E0
:1080B000B38100082D960008B3810008B381000841
:1080C000B3810008B3810008B3810008B3810008C0
:1080D000B3810008B3810008B3810008B3810008B0
:1080E000B3810008B3810008B3810008B3810008A0
:1080F000B3810008B3810008B3810008B381000890
:10810000B3810008B3810008B3810008B38100087F
:10811000B3810008B3810008A7960008B381000866
:10812000B3810008B3810008B3810008B38100085F
:10813000DFF80CD001F0B4FE00480047638300086C
:1081400040A0002080F3088870477047FEE7FEE7F4
:10815000FEE7FEE770477047704770470D490860BB
:1081600070470C49486070470A4988607047094960
:108170004AF6AA200860704706494CF6CC400860D1
:10818000704701460020034AD2680A4200D001200D
:10819000704700000030004006488047064800470E
:1081A000FEE7FEE7FEE7FEE7FEE7FEE7FEE7FEE7A7
:1081B000FEE7FEE7758400083181000840EA01030C
:1081C0009B0703D009E008C9121F08C0042AFAD28D
:1081D00003E011F8013B00F8013B521EF9D2704751
:1081E000014A024901F075BE139C000838000020C6
:1081F00002E008C8121F08C1002AFAD17047704770
:1082000054656D636F504944313000000000006BCD
:108210000000000010B545F25550FFF79FFF042005
:10822000FFF79FFF4FF47A60FFF79EFFFFF7A4FF71
:10823000BDE81040FFF79BBFFFF799BF2DE9F04164
:108240005B4C594D594E2278AF15002823D0052A92
:1082500003D13946284600F0A7FA2078062803D132
:108260003946284600F0A0FA2078072803D139467D
:10827000304600F099FA2078082803D13946304674
:1082800000F092FA2078092829D139462846BDE81D
:10829000F04100F089BA052A03D13946284600F09A
:1082A00085FA2078062803D13946284600F07EFA60
:1082B0002078072803D13946304600F077FA207835
:1082C000082803D13946304600F070FA2078092892
:1082D00005D139462846BDE8F04100F065BABDE851
:1082E000F0812DE9F047324C2078092805D147F676
:1082F000FE7230493048FFF761FF30486B2180F84B
:10830000FE1F002180F8FF1FA17000242A4F4FF0AC
:1083100000664FF4006801F06BF806EBC4200546D8
:1083200001F097F8814601F069F8B9F1000F05D125
:1083300007EBC4212846424601F062FD641CE4B20A
:10834000102CE8D3BDE8F087012080F313881C4887
:1083500001681C4A01F4E06111430160BFF3408FE2
:10836000FEE71949080300F020F94FF4E13001F06D
:1083700065FC482001F0E4FB01F01AFAFFF74AFF20
:108380000E2001F035FB0A4C20700F2001F030FB6D
:1083900060700D48801E01F0A4F86B2801D0FFF733
:1083A000A0FFFFF7D1FF00000008014000140140CA
:1083B000000000203C9F000840000020407000208A
:1083C0000CED00E00400FA05008000080CB5002266
:1083D000019200925248016841F4803101604FF4EB
:1083E000A063016801F4003100910199491C0191D9
:1083F000009911B901999942F3D10168890302D515
:108400000121009100E000920099012930D14549F5
:108410000A6842F010020A600A6822F003020A6049
:108420000A6842F002020A604168416041684160A6
:10843000416841F480614160416821F47C114160F0
:10844000416841F4E8114160016841F080710160C8
:1084500001688901FCD5416821F003014160416850
:1084600041F0020141604168C1F381010229FAD162
:108470000CBDABE710B52A48016841F0010101606D
:108480004168294A114041600168284A1140016051
:10849000016821F480210160416821F4FE014160FE
:1084A0004FF41F018160FFF7E4FF21494FF00060A6
:1084B000086010BD10B51A4A506800F00C011D4B41
:1084C0001D4800290ED004290ED008290ED00360C3
:1084D0005168194AC1F30311121D515C0268CA4068
:1084E000026010BD0360F3E70360F1E7516801F437
:1084F0007011536803F48033022404EB914133B1CB
:1085000053689B0307D50D4B59430160E0E70B4BC4
:1085100059430160DCE7074B59430160D8E700008D
:1085200000100240002002400000FFF8FFFFF6FEAE
:1085300008ED00E000127A000400002000093D0070
:108540002A4908432A490860704770B50F23C2784A
:1085500001260178002A1ED0254A126802F4E06242
:10856000C2F5E062120AC2F10404D3404578A54086
:1085700082781A402A43120101F1E02181F8002497
:10858000007800F01F018E404009800000F1E020DB
:10859000C0F8006170BD01F01F00864048098000EE
:1085A00000F1E020C0F8806170BD124A1140014323
:1085B0000F48001F016070470D4A121D002903D0AB
:1085C0001168014311607047116881431160704761
:1085D0004FF0E021042804D0086920F0040008616D
:1085E0007047086940F00400086170470000FA0510
:1085F0000CED00E080FFFF1F10B59C49884209D1B7
:108600000121042000F0B3FE0021BDE81040042049
:1086100000F0ADBE9649884209D10121082000F042
:10862000A6FE0021BDE81040082000F0A0BE914940
:10863000884209D10121102000F099FE0021BDE8F7
:108640001040102000F093BE8B49884209D10121CF
:10865000202000F08CFE0021BDE81040202000F01A
:1086600086BE8649884209D10121402000F07FFE64
:108670000021BDE81040402000F079BE80498842CA
:1086800009D10121802000F072FE0021BDE81040D8
:10869000802000F06CBE7B4988420AD184150121FC
:1086A000204600F064FE2046BDE81040002100F0A6
:1086B0005EBE10BD10B50121084600F058FE002135
:1086C000BDE81040012000F052BE2DE9F04100222B
:1086D000CC7804F00F03E40601D58C7823430C78A2
:1086E0004FF00F0714F0FF0F4FF0010C1CD005687E
:1086F0000CFA02F40E882640A64211D1960007FA21
:1087000006F825EA080503FA06F848EA0505CE78D2
:10871000282E02D0482E02D002E0446100E004611D
:10872000521C082AE4D305600A88FF2A1ED945682E
:10873000002202F108060CFA06F40E882640A64232
:1087400010D1960007FA06F825EA080503FA06F89C
:1087500048EA0505CE78282E00D14461CE78482E0F
:1087600000D10461521C082AE3D34560BDE8F081C2
:108770004FF6FF710180022181700421C1707047A2
:108780000246002092680A4200D0012070478068AB
:1087900080B2704702460020D2680A4200D0012011
:1087A0007047C06880B2704701617047416170478F
:1087B000002A01D00161704741617047C160704774
:1087C00041F4803282618161826181698069704790
:1087D00010B52D4B1A684FF68074224042EA001003
:1087E0000843186010BD2949C8617047F0B5264C90
:1087F000002801DAE36900E06368C0F30346420D34
:10880000120185B2C0F301579540032F07D0C20271
:108810000CD50322B240934343F0706209E023F089
:108820007062636823F07063636002E0AB4343F0FF
:10883000706201B12A43002801DAE261F0BD626092
:10884000F0BD10B58A07120F0F23934021F00304E7
:108850000D4921448C689C438C608B689040034395
:108860008B6010BD0949DC31086070470008014089
:10887000000C0140001001400014014000180140AC
:10888000001C014000200140000001400000204287
:1088900030B50288F74CF84DA0420DD0A8420BD05D
:1088A000B0F1804F08D0F54B984205D0F44B984278
:1088B00002D0F44B984203D122F070034A881A4345
:1088C000F14B984206D0F14B984203D022F440730A
:1088D000CA881A4302808A8882850A880285A04253
:1088E0000AD0A84208D0EA4A904205D0E94A90420C
:1088F00002D0E94A904201D1097A018601218182A0
:1089000030BD70B5028C22F480720284028C8388A0
:10891000848B24F0700424F003040D88254322F492
:1089200000720E894FF6FF7404EA062616434A8841
:1089300004EA02223243CF4EB04202D0CE4EB042C1
:1089400017D122F400664A8904EA0222324322F453
:1089500080668A8804EA0222324323F4805323F497
:1089600000538E8904EA06161E43CB8904EA0313DA
:10897000334383808583C9888187028470BD70B545
:10898000028C22F480520284058C8288838B23F42B
:10899000E04323F440760C884FF6FF7303EA042487
:1089A000344325F400550E8903EA06362E434D88DC
:1089B00003EA05353543AF4EB04202D0AE4EB04269
:1089C00005D122F480468A8903EA821232438280EA
:1089D0008483C988A0F84010058470BD4FF6FF71EC
:1089E000818000210180C18041800172704700298F
:1089F00004D0018841F0010101807047018821F015
:108A0000010101807047002A03D082890A438281D4
:108A1000704782898A4382817047018582827047CC
:108A2000028822F070020A4302807047028922F015
:108A300070020A430281704770B50589048B068C69
:108A400025F007050D434FF6FC410C4040F20111A3
:108A50000C4326F022064FF6FF7101EA0311114381
:108A6000314305810483018470BD028B22F07002C2
:108A70000A4302837047028B22F4E0424FF6FF73F1
:108A800003EA0121114301837047828B22F07002B7
:108A90000A4382837047828B22F4E0424FF6FF73D1
:108AA00003EA0121114381837047002904D0018822
:108AB00041F0800101807047018821F08001018030
:108AC0007047002904D0818841F0040181807047FB
:108AD000818821F0040181807047002904D08188B9
:108AE00041F0080181807047818821F00801818070
:108AF0007047002904D0818841F0010181807047CE
:108B0000818821F0010181807047028B22F00802E8
:108B10000A4302837047028B22F400624FF6FF7310
:108B200003EA0121114301837047828B22F008027E
:108B30000A4382837047828B22F400624FF6FF73F0
:108B400003EA0121114381837047028B22F0040262
:108B50000A4302837047028B22F480624FF6FF7350
:108B600003EA0121114301837047828B22F0040242
:108B70000A4382837047828B22F480624FF6FF7330
:108B800003EA0121114381837047028B22F08002A6
:108B90000A4302837047028BC2F30E024FF6FF7343
:108BA00003EA0121114301837047828B22F0800286
:108BB0000A4382837047828BC2F30E024FF6FF7323
:108BC00003EA0121114381837047028C22F00202E3
:108BD0000A4302847047028C22F008020A4302848E
:108BE0007047028C22F020024FF6FF7303EA011156
:108BF000114301847047028C22F080024FF6FF730C
:108C000003EA0111114301847047028C22F40072BF
:108C10004FF6FF7303EA0121114301847047028C70
:108C200022F400624FF6FF7303EA0121114301842D
:108C30007047028C22F400524FF6FF7303EA0131B1
:108C400011430184704710B501238B40048C9C4371
:108C50000484038C8A401343038410BD10B504239D
:108C60008B40048C9C430484038C8A40134303840C
:108C700010BD0000002C0140003401400004004001
:108C800000080040000C00400010004000140040AC
:108C900000400140004401400048014030B500F16F
:108CA000180301248C40058CA5430584002911D0AC
:108CB00008290FD0091FC1F34E001844016821F4A0
:108CC000E041016001684FF6FF7303EA022211439D
:108CD000016030BD03EB5100016821F070010160BB
:108CE00001681143016030BD002904D0018841F0C2
:108CF000020101807047018821F002010180704764
:108D0000002904D0018841F00401018070470188E6
:108D100021F0040101807047002904D0818841F0CE
:108D2000800181807047818821F0800181807047B7
:108D3000028822F00802028002880A4302807047FB
:108D4000828822F07002828082880A438280704783
:108D5000028922F00702028102890A4302817047D8
:108D6000028922F08002028102890A43028170474F
:108D7000818470478185704781867047018770477D
:108D800081877047A0F840107047028B22F00C02D8
:108D90000283028B0A4302837047028B22F44062F3
:108DA0000283028B4FF6FF7303EA01210A43028319
:108DB0007047828B22F00C028283828B0A4382836B
:108DC0007047828B22F440628283828B4FF6FF735E
:108DD00003EA01210A4382837047028822F4407229
:108DE000028002880A4302807047808E7047008F9D
:108DF0007047808F7047B0F840007047808C704794
:108E0000008D704702460020128A0A4200D00120DD
:108E10007047C9430182704702460020138A0B4005
:108E200092890A40002B02D0002A00D0012070470E
:108E3000C94301827047000010B5E14988420AD158
:108E400001218C03204600F092FA2046BDE8104034
:108E5000002100F08CBADB4988420AD101214C0480
:108E6000204600F08FFA2046BDE81040002100F0B7
:108E700089BAD54988420AD101218C04204600F0E4
:108E800081FA2046BDE81040002100F07BBACF49AE
:108E900088420AD10121CC04204600F073FA204612
:108EA000BDE81040002100F06DBAC94988420AD1DE
:108EB00001210C05204600F065FA2046BDE810406F
:108EC000002100F05FBA10BD30B585B004460D46F4
:108ED000208A4CF6FF710840E98801432182A0896D
:108EE0004EF6F3110840A9882A8911436A89024382
:108EF0001143A181A08A4FF6FF410840A98901438F
:108F0000A182684600F0C5F9AD48844201D10398BA
:108F100000E00298A189090408D500EBC00101EB2B
:108F2000001029684900B0FBF1F007E000EBC00138
:108F300001EB001029688900B0FBF1F06422B0FB5E
:108F4000F2F109010B096FF018056B4300EB830088
:108F5000A3891D044FF0320307D503EBC000B0FB1B
:108F6000F2F000F00700084306E003EB0010B0FB4E
:108F7000F2F000F00F000843208105B030BD4FF43F
:108F80001651016000218180C18001810C22428143
:108F90008181704710B5038A4FF2FF0213400A889F
:108FA0004C8822438C88C9880C4322431A4302828E
:108FB00010BD0021018041808180C180704700295F
:108FC00004D0818941F4005181817047818921F465
:108FD00000518181704710B540F66A13C1F3421306
:108FE00001F01F040121A140012B07D0022B07D063
:108FF00014303AB102680A43026010BD0C30F8E741
:109000001030F6E702688A43026010BD002A03D0E0
:10901000828A0A4382827047828A8A4382827047A8
:10902000028A22F00F020282028A0A4302827047F9
:10903000828922F40062828182890A438281704798
:10904000002904D0818941F0020181817047818922
:1090500021F0020181817047028A22F020020282FF
:10906000028A0A4302827047002904D0018A41F42F
:10907000804101827047018A21F48041018270475A
:10908000C1F30801818070478088C0F308007047F1
:10909000818941F0010181817047028BD2B2028344
:1090A000028B42EA012101837047028B02F47F4266
:1090B0000283028B0A4302837047002904D0818A0D
:1090C00041F0200181827047818A21F02001818254
:1090D0007047002904D0818A41F0100181827047D5
:1090E000818A21F0100181827047002904D0818A91
:1090F00041F0080181827047818A21F00801818254
:109100007047002904D0818941F400418181704772
:109110008189C1F30E0181817047002904D0818AC1
:1091200041F4006181827047818A21F4006181826B
:109130007047828A22F004028282828A0A438282F3
:109140007047002904D0818A41F002018182704772
:10915000818A21F002018182704702460020128834
:109160000A4200D0012070478A05C9430180704738
:1091700070B5002440F66A12C1F3421301F01F05D6
:10918000012606FA05F2012B0CD0022B0DD0838AA2
:109190001340090A8E40008830400BB100B1012411
:1091A000204670BD83891340F3E7038A1340F0E73C
:1091B00040F66A120A0A01219140C94301807047B2
:1091C000003801400044004000480040004C00408E
:1091D000005000407E48016841F001010160416893
:1091E0007C4A1140416001687B4A1140016001687E
:1091F00021F480210160416821F4FE0141604FF4B7
:109200001F018160704772490A6822F480320A6047
:109210000A6822F480220A60B0F5803F07D0B0F5DA
:10922000802F03D1086840F4A020086070470868C8
:1092300040F4803008607047034600205909644AB2
:1092400001290AD002290AD0516A03F01F02012322
:1092500093400B4200D0012070471168F5E7116A76
:10926000F3E718B5002000904FF4A0643120FFF719
:10927000E3FF0099491C00910099A14201D0002808
:10928000F4D03120FFF7D8FF08B1012018BD00202D
:1092900018BD10B54E4A516801F00C014F4B002922
:1092A00027D0042927D0082927D00360516801F06E
:1092B000F00109094A4B5C5C0168E1404160546877
:1092C00004F4E064240A1C5D21FA04F48460546808
:1092D00004F46054E40A1B5DD940C160526802F492
:1092E0004042920B3E4B1B1F9A5CB1FBF2F10161B5
:1092F00010BD0360DAE70360D8E7516801F470112C
:10930000536803F48033022404EB914133B1536872
:109310009B0307D5334B59430160C7E7314B594392
:109320000160C3E72D4B59430160BFE7284A00297C
:1093300003D05169014351617047516981435161C3
:109340007047234A002903D0916901439161704716
:1093500091698143916170471D4A002903D0D16909
:109360000143D1617047D1698143D1617047184A87
:10937000002903D0D1680143D1607047D16881438F
:10938000D1607047124A002903D01169014311616D
:109390007047116981431161704713490860704734
:1093A0001249C86470470A49C87170470848416A41
:1093B00041F080714162704701460020044A926882
:1093C0000A4200D0012070470149887270470000AE
:1093D000001002400000FFF8FFFFF6FE00127A00C6
:1093E0001C00002000093D004004424200004242AF
:1093F0007E487D4941607E49416070477B480169F4
:1094000041F08001016170477848C068C10701D010
:1094100001207047410701D502207047C00601D5E1
:10942000032070470020704770B50446FFF7ECFF3B
:109430000546012D05D100F096FB641EA4B2002C58
:10944000F4D104B9FF2515B16A49012008702846F6
:1094500070BD2DE9F041074645F6FF763046FFF72F
:10946000E3FF04462CB164A0FEF7BAFE2046BDE837
:10947000F0815E4D286940F0020028616F61286923
:1094800040F0400028613046FFF7CEFF0446012C33
:10949000ECD0286920F002002861E7E72DE9F041CF
:1094A00007460E46FF20FFF7BFFF044644B158A011
:1094B000FEF796FE14B14F49012008702046D6E70A
:1094C0004A4D286940F0010028613E80FF20FFF7E7
:1094D000ABFF0446012CEDD0286920F00100286183
:1094E000E8E7008870472DE9F04105460E4617462B
:1094F000002407E036F814102846FFF7CFFFAD1C14
:10950000641CA4B2BC42F5D3B1E710B504460023F5
:1095100007E02046FFF7E5FF21F81300A41C5B1CC1
:109520009BB29342F5D310BD2DE9F05F82460F4602
:109530001546AAF10062B2F5002F52D2FFF758FF8C
:109540004FEAD228C2F34906C6F58064A54200D886
:109550002C46DFF8D4B037E032183BF812208A42AC
:1095600003D1401C80B2A042F6D3A04214D2484698
:10957000FFF76FFF002006E0821937F810102BF874
:109580001210401C80B2A042F6D348464FF48062CD
:109590002549FFF7A8FF04E0224639465046FFF769
:1095A000A2FFA54202D1BDE8F05F27E708F101085C
:1095B000002607EB44070AEB440A281B85B24FF448
:1095C0008064A54200D82C464FF0006000EBC8290B
:1095D000421415494846FFF798FF00204FF6FF71E7
:1095E000C1E7BDE8F09F000023016745002002406D
:1095F000AB89EFCD02000020657261736520666C57
:10960000617368206572726F72200D0A000000009D
:10961000777269746520666C617368206572726F19
:1096200072200D0A000000004080002010B53D4C63
:1096300001212046FFF7E6FB012807D100F0DAFA06
:109640002046BDE810400121FFF7E3BB10BD7FB508
:1096500004460D4601210220FFF77EFEADF80840CA
:10966000ADF804500024ADF80A40ADF806402D4D89
:1096700001A92846FFF70CF91D218DF800108DF87F
:1096800001408DF8024001218DF803106846FEF775
:109690005CFF012211462846FFF7B5F90121284653
:1096A000FFF7A5F97FBD10B51F4C01212046FFF73C
:1096B000A9FB012803D11D480168491C016020460F
:1096C000BDE810400121FFF7A4BB7FB504460D465D
:1096D00001211020FFF740FEADF80840ADF804501E
:1096E0000020ADF80A00ADF806000F4C01A9204695
:1096F000FFF7CEF836218DF8001001218DF801100A
:1097000003228DF802208DF803106846FEF71DFF36
:10971000012211462046FFF776F901212046FFF786
:1097200066F97FBD00040040001000402C000020BE
:1097300038B5954C208FADF8000048208DF8030017
:109740006946606BFEF7C1FF218F606BFFF72CF855
:1097500038BD38B58C4C208FADF8000010208DF846
:10976000030003208DF802006946606BFEF7ADFF31
:10977000218F606BFFF718F838BD834A002803D0AB
:10978000918D906AFFF710B8918D906AFFF70EB82F
:109790007D4A002803D0118F506BFFF705B8118F59
:1097A000506BFFF703B87848018F406BFEF7E8BFB6
:1097B000F8B5754C0121606AFFF7C3FDA08DADF8C7
:1097C000000010258DF8035003268DF802606946CD
:1097D000A06AFEF77AFFA18DA06AFEF7E5FF0121DE
:1097E000206BFFF7AEFD208FADF800008DF8035021
:1097F0008DF802606946606BFEF767FF218F606B32
:10980000FEF7D2FFF8BD10B5FFF7A3FF0120FFF769
:10981000BFFF0120FFF7B1FF042000F0A4F90020F2
:10982000FFF7B6FF042000F09EF9BDE810400020CD
:10983000A3E710B5FFF78DFF0020FFF79EFF002084
:10984000FFF7A6FF042000F08EF90120FFF795FF37
:109850000120FFF79DFFBDE81040042000F083B910
:1098600010B500240120FFF793FFFFF761FF0120EF
:1098700000F079F90120FFF780FF012000F073F973
:1098800007E0641CE4B2FA2C03D9FFF7D2FF0120F1
:1098900010BDFFF788FF0028F3D1FFF76EFF00200F
:1098A00010BD10B50020FFF768FFFFF752FF002042
:1098B000FFF76EFF022000F056F90120FFF75DFF71
:1098C000022000F050F9BDE81040002055E710B527
:1098D0000020FFF752FFFFF73CFF0120FFF758FF82
:1098E000022000F040F90120FFF747FF022000F0BE
:1098F0003AF9BDE8104000203FE770B50546FFF794
:1099000028FF0020FFF739FF0024E809FFF740FF98
:109910006806050E022000F026F90120FFF72DFF52
:10992000022000F020F90020FFF727FF022000F0BE
:109930001AF9641CE4B2082CE7D370BD70B5064672
:109940000024FFF7F5FE00250020FFF716FF022098
:1099500000F009F90120FFF710FF6006040EFFF781
:1099600022FF08B1641CE4B2012000F0FCF86D1C79
:10997000EDB2082DE8D31EB1FFF793FF204670BD6E
:10998000FFF7A5FFFAE70000F49E000838B56B4C1E
:10999000E06B002815D054F83C0F0121FFF7D1FCF3
:1099A0002089ADF8000010208DF8030003208DF809
:1099B000020069466068FEF788FE21896068FEF74C
:1099C000F3FE38BD5D4AD16B00290AD020B1B2F850
:1099D0004410106CFEF7E8BEB2F84410106CFEF7AD
:1099E000E5BE704710B5FFF7E3FEBDE81040CDE7D8
:1099F00010B50446FFF707FF200AA02101EB400045
:109A0000C0B2FFF77AFFFFF72BFFE0B2FFF775FF59
:109A1000FFF726FFFFF7F7FEA120FFF76EFFFFF726
:109A20001FFF0020FFF78AFF0446FFF702FF2046D2
:109A300010BD70B504460D460020FFF7C3FFFFF7C9
:109A4000E2FE200AA02101EB4000C0B2FFF755FF63
:109A5000FFF706FFE0B2FFF750FFFFF701FF2846D0
:109A6000FFF74BFFFFF7FCFEFFF7E3FE0120FFF7D8
:109A7000A9FFBDE87040052000F087B82DE9F0414E
:109A800006460D461746002409E0E00025FA00F0DE
:109A9000C1B2301980B2FFF7CCFF641CE4B2BC4203
:109AA000F3D3BDE8F0812DE9F04102460E460020D7
:109AB0000024971908E00502381B401E80B2FFF70A
:109AC00097FF2844641CE4B2B442F4D3E9E710B52C
:109AD000FF20FFF78DFF55280AD05521FF20FFF703
:109AE000A8FFFF20FFF784FF552803D0012010BDF9
:109AF000002010BD002010BD70B504460E4615466E
:109B000008E02046641CA4B2FFF772FF06F8010BC0
:109B10006D1EADB2002DF4D170BD70B506460D4678
:109B2000144606E029783046FFF783FF761CB6B26C
:109B30006D1C641EA4B2F5D270BD0000F49E000836
:109B40004FF0E0210A6922F004020A611849C008B6
:109B5000087000EB4002C2EBC0104FF6FF7202EA41
:109B6000C000488070471249097848434FF0E0210F
:109B7000486100238B61012008610869C20701D098
:109B8000C003FAD50B618B61704709494988484386
:109B90004FF0E021486100238B61012008610869D2
:109BA000C20701D0C003FAD50B618B61704700007A
:109BB0003000002013484FF47A710068B0FBF1F0D8
:109BC0004FF0E021B0F1807F01D301200BE020F0C5
:109BD0007F40401E48610C4AF020107000208861D0
:109BE00007200861002000B1FEE7086940F001008D
:109BF0000861704705480168491D016070470348C6
:109C0000006870470400002023ED00E034000020CD
:109C1000704770B504460120FEF710FB724D4021DD
:109C20002846FFF79AFA0028F9D0A1B22846FFF794
:109C300027FA0020FEF702FB204670BDF0B587B082
:109C4000074601218803FFF77CFB674E3046FFF78C
:109C5000F3F8664C01212068FFF773FB2089ADF80B
:109C6000180003258DF81A5018208DF81B0006A93E
:109C70006068FEF72AFD0121E068FFF762FBA08A19
:109C8000ADF8180048208DF81B0006A92069FEF7E2
:109C90001CFD25208DF8040001208DF805008DF8AD
:109CA00006508DF8070001A8FEF74FFC0297002030
:109CB000ADF80C00ADF80E00ADF81000ADF81400D2
:109CC0000C20ADF8120002A93046FFF7FDF8012282
:109CD00040F225513046FFF77EF901213046FFF76B
:109CE0006EF90121A069FFF72CFB208CADF818005C
:109CF00010268DF81B608DF81A5006A9E069FEF752
:109D0000E4FC218CE069FEF74FFD39480078072814
:109D100001D0082814D101212020FFF712FB4FF4B5
:109D20008074ADF818408DF81B608DF81A50314DD5
:109D300006A92846FEF7C9FC21462846FEF734FD51
:109D400007B0F0BD70B586B0054601211020FFF7C1
:109D5000F8FA0121C804FFF7FFFA274E3046FFF753
:109D60006BF83015ADF8140003208DF8160018209C
:109D70008DF81700214C05A92046FEF7A6FCE0143B
:109D8000ADF8140048208DF8170005A92046FEF70D
:109D90009CFC34208DF8000000248DF801408DF8E3
:109DA000024001208DF803006846FEF7CEFB0195C6
:109DB000ADF808407014ADF80A00ADF80C40ADF8ED
:109DC00010400C20ADF80E0001A93046FFF77CF8DA
:109DD000012240F225513046FFF7FDF801213046BF
:109DE000FFF7EDF806B070BD00380140F49E0008A2
:109DF0000000002000140140004C00400010014011
:109E00002DE9F0470D46904600240746A0F100607A
:109E1000B0F5002F29D2FFF7EBFA00264FF4806946
:109E2000DFF870A015E06878000215F8021B0844FE
:109E30002146641CA4B22AF811004A46944206D175
:109E4000002414493846FFF74EFB07F50067B61C9F
:109E5000B6B24645E7D324B122460E493846FFF74D
:109E600042FBBDE8F047FFF7C9BABDE8F08710B57F
:109E70000168094A1140B1F1005F09D14168074CFE
:109E800021600068FEF75EF92068BDE810400047D9
:109E900010BD0000408800200000FE2F3C00002084
:109EA000064C074D06E0E06840F0010394E8070027
:109EB00098471034AC42F6D3FEF73EF93C1F010838
:109EC0005C1F0108002001E001C1121F002AFBD124
:109ED00070472DE9F04116460F460446002503E081
:109EE0003946B047641C6D1C20780028F8D12846FC
:109EF000BDE8F081040000000008014000020000FD
:109F000004000000000801400004000004000000FC
:109F100000080140000100000400000000080140AA
:109F200008000000040000000008014004000000D8
:109F3000000000000000000000000000F0690020A8
:109F4000851C0008210B0008230B0008250B0008C6
:109F5000270B0008290B000800000000000000008B
:109F600000000000000000002B0B00082D0B000873
:109F7000000000002F0B0008310B00089F1C000898
:109F80009F1C00089F1C00089F1C00089F1C0008C5
:109F90009F1C00089F1C00089F1C00089F1C0008B5
:109FA0009F1C00089F1C00089F1C00089F1C0008A5
:109FB0009F1C00089F1C00089F1C00089F1C000895
:109FC0009F1C00089F1C00089F1C00089F1C000885
:109FD0009F1C00089F1C00089F1C00089F1C000875
:109FE0009F1C00089F1C00089F1C00089F1C000865
:109FF000E52200089F1C00089F1C00089F1C000809
:10A000009F1C00089F1C00089F1C00089F1C000844
:10A01000F13200089F1C00089F1C00089F1C0008CC
:10A020009F1C00089F1C00089F1C00089F1C000824
:10A030009F1C00089F1C00089F1C00089F1C000814
:10A040009F1C00089F1C00089F1C00080742000876
:10A050009F1C0008852300089F1C00089F1C000807
:10A060009F1C00089F1C00089F1C000800F002F8BD
:10A0700000F047F80AA090E8000C82448344AAF15B
:10A080000107DA4501D100F03CF8AFF2090EBAE859
:10A090000F0013F0010F18BFFB1A43F0010318471C
:10A0A00080610000A0610000103A24BF78C878C128
:10A0B000FAD8520724BF30C830C144BF04680C60CE
:10A0C000704700000023002400250026103A28BF16
:10A0D00078C1FBD8520728BF30C148BF0B6070471A
:10A0E000642905F01386752905F01086732905F09B
:10A0F000DE87002070471FB505F059FE1FBD10B563
:10A1000010BD06F021F81146FFF7F5FF00F03DF90C
:10A1100006F03FF803B4FFF7F2FF03BC02F0C0FE05
:10A1200080F30888704700000B49D1F800C04A68E6
:10A130005CF8043B1068184442F8040B8C4528BFB7
:10A14000A1F1DC0C8A4228BFA1F1DC02C1F800C0F9
:10A150004A6020F0004070478849002010B545F261
:10A16000555000F0E7FE042000F0E7FE4FF47A605F
:10A1700000F0E6FE00F0ECFEBDE8104000F0E3BEAB
:10A1800000F0E1BE70B500244FF40075FF212046B9
:10A1900001F033FF641CA4B2AC42F7D3BDE87040B9
:10A1A00003F02AB910B50422FD49002001F088FF10
:10A1B000FB4C0222211D042001F082FF062001F049
:10A1C000FBFEE080FF2801D1FE20E0800A20207203
:10A1D000082001F0F1FE607244210F2001F00DFF14
:10A1E00094F836100E2001F008FF102001F0E4FE74
:10A1F000EC4C2070272001F0DFFE552805D1207897
:10A20000002802D1E8490120087010BD10B50121D5
:10A210000D2001F07EFCE24890F83600072809D0B6
:10A22000082807D00C2805D0BDE810400121DF48E0
:10A2300000F02EBEBDE810400121DD4800F028BE30
:10A2400070B588B001214C2001F063FC4FF4F04060
:10A25000ADF81C0014208DF81F00D64E07A930461B
:10A2600000F085FD4321ADF81C1010258DF81F501E
:10A2700003248DF81E4007A9304600F078FD4321E5
:10A28000304600F0E5FD3020ADF81C008DF81F5081
:10A290008DF81E40C84D07A9284600F068FD302102
:10A2A000284600F0D5FD0121052001F03DFC0121EB
:10A2B000092001F02EFC0121C04800F0E9FD4FF417
:10A2C0007061ADF81C1018218DF81F108DF81E401C
:10A2D00007A9284600F04BFD4FF47A70ADF8140042
:10A2E0000020ADF81000ADF81600ADF812004FF0E8
:10A2F000804404A9204600F03BFEB14D04A9284645
:10A3000000F036FE7021ADF800100121ADF802100A
:10A310000221ADF808106946204600F0DBFE6946D0
:10A32000204600F015FF6946284600F0D3FE694636
:10A33000284600F00DFF0821204600F0DFFF08212D
:10A34000204600F0E1FF0821284600F0D7FF082151
:10A35000284600F0D9FF0121204600F031FF0121FD
:10A36000284600F02DFF0021204601F0F1F80021E1
:10A37000204601F0EFF80021284601F0E9F800211D
:10A38000284601F0E7F808B070BDADF5836D4FF0D9
:10A390000009834D092485F8364002F0B7FE4820B5
:10A3A00002F07AFE01F002FE272001F005FE55289A
:10A3B00006D10021272001F020FE824803F039FF5A
:10A3C0004FF4A06000F00EFCFFF720FFFFF7C6FE81
:10A3D000FFF736FF01F014FC092001F0EDFDA87233
:10A3E000092800D820B92146AC72092001F005FEE9
:10A3F00002F091FFFFF7D6FEFFF7B0FEDFF8A8816D
:10A40000002788F80170A8F80470D12001F0D4FD6D
:10A4100008F108042070C4F80170A0F155014FF64E
:10A42000FF76102926D8D22001F0C6FD8DF808004D
:10A43000D32001F0C1FD8DF80900D42001F0BCFD4E
:10A440008DF80A00D52001F0B7FD8DF80B009DF8BE
:10A4500008109DF8092001EB02219DF80A20120442
:10A4600002EB00600844C4F80100B04206D1C4F811
:10A47000017003E0FF2801D1C4F80160484890F85A
:10A480003600092855D00B2858D044214EA005F09D
:10A49000BFFBFFF775FE05F02FF841F61F41322094
:10A4A00001F0E2FE5148076051480770514D28887D
:10A4B0006FF30E002880687820F08000687088F8BC
:10A4C000027000264C48FA2101706078C00715D050
:10A4D0004FF4E13002F082FD02F08CF802F00FF947
:10A4E0000646022E2FD045A005F092FB002002F078
:10A4F0003AF9642002F0F5FDFFF742FE02F02BFE70
:10A50000CDF80C04DFF89CA04FF0010BFFF738FEEC
:10A5100002F021FECDF81004DDF80C14DDF8100473
:10A5200043F69825401AA84214D99AF8000070B151
:10A5300010E0442135A005F06BFBAAE744213AA0C6
:10A5400005F066FBA5E73FA005F062FBCEE71D48DE
:10A5500003F06FFE3F4C94F8010400060AD5022E6A
:10A5600008D094F8010420F0800084F801043AA097
:10A5700005F04EFB59E102F0EEFDCDF81004FFF7B7
:10A58000FFFD98F8010008B101286DD10A2002F002
:10A59000A8FD344C2078012879D102F0CDFE65E089
:10A5A000C2140020550000200000002000043000EC
:10A5B0000002300000180140000C014000031800A8
:10A5C0000008004000800008706C656173652073AE
:10A5D00065742070616E656C207479706520726599
:10A5E000763A202025750D0A000000004C0000205E
:10A5F0009F000020C00C002057000020776966698A
:10A6000020696E6578697374210D0A005431302019
:10A61000626F6F746C6F61646572207265763A2048
:10A6200025750D0A000000005431305020626F6F14
:10A63000746C6F61646572207265763A2025750DC1
:10A640000A00000077696669206578697374210DD6
:10A650000A000000C00800206572726F72200D0AA7
:10A6600000000000560000201AE010E060B102F087
:10A6700050FE02F079FDC949002002F0CAFEC74928
:10A68000002003F095F901E002F0C0FD2770C449F5
:10A69000087828B1401EC0B2087008B902F0B6FDB3
:10A6A000DDF80C14DDF8100443F69824401AA0429B
:10A6B00005D99AF8000010B9BA4803F0BAFD02F0C3
:10A6C0004AFDCDF81004B84D287878B9B7490A7812
:10A6D00062B1B74ADDF810041268821A41F288307C
:10A6E000824236D30F7004F007FF32E0012810D009
:10A6F000022820D0DDF80C14DDF81004401AA04226
:10A7000002D39AF80000B0B198F80000012812D0E6
:10A710001FE0A848DDF810140268891AA14218D376
:10A72000DDF810140068814201D92F7011E0A2A059
:10A7300005F06EFA0DE002F00EFDCDF80C0439467E
:10A740002F708AF80010102001F057FC954803F094
:10A7500070FD98F8010008B1032866D198F802004E
:10A7600050EA090061D1022E5FD100249648CDF84D
:10A77000140428220DF58160DDF8141402F0B4F9F8
:10A78000F0B1914DE8780090AB786A7829788FA085
:10A7900005F03EFA15F8380940B995F8390028B99E
:10A7A00095F83A0010B995F83B0010B188F802B05E
:10A7B0000DE041F2883002F094FC88F8027002E06B
:10A7C000C82002F08EFC641CE4B2052CD1D398F8AA
:10A7D000020008B94FF001094FF4FA752B46002228
:10A7E00080A181A001F039FF012001F0F4FF00F009
:10A7F000AAFB2B4600227BA17FA001F02EFF42F294
:10A80000107508E000F09FFB0A2002F06AFC641C4F
:10A81000E4B2032C09D202232A4650217AA0CDF8B3
:10A8200000B002F020F80028ECD07B4890F801043A
:10A8300000067FF5A0AE022E66D17102774805F0C2
:10A8400061FBA8F80670002002F023FA744C014660
:10A850002088C0F30E02734805F00FFB20886FF3C9
:10A860000E002080607820F08000607098F8010071
:10A8700008B1032848D16B48C0793038C4B2674961
:10A88000684802F01BFAA8F80600E8B3012C3BD197
:10A8900002AD454C217811B101297BD16CE0024613
:10A8A0005E4902A805F0E9FAB8F806002D2871D132
:10A8B0005DA1284605F084FA38B33E208AF80000EE
:10A8C000012004F0CDFD5C4D01231F2200202968EA
:10A8D00002F0A3F93C489DF82110383890F8382050
:10A8E00091421BD19DF8221090F83920914215D148
:10A8F0009DF8231090F83A2091420FD19DF8241032
:10A9000090F83B00814201E044E023E006D1274972
:10A9100002200870494880F800B01BE02348017805
:10A92000E9B107709DF81500A0B19DF8160088B137
:10A930009DF8170070B19DF8180058B1012004F07F
:10A940008FFD01231F220020296802F066F91420E0
:10A9500002F0C7FB15480078022803D01AE080F8FF
:10A9600000B0DFE702F0F7FB1249086084F800B09E
:10A9700033A005F04DF90DE00246284902A805F084
:10A980007CFA02A9012004F0FCFF3348007808B1EA
:10A9900002202070012002F0A4FBB7E5FE14002085
:10A9A00057000020008000089F0000209E0000202B
:10A9B000A8000020AC0000202074696D652065723D
:10A9C000726F72200D0A0000FA1400207769666920
:10A9D0002049502025752E25752E25752E25750D9F
:10A9E0000A0000004F4B000041542B4349504D4F8B
:10A9F00044453D300000000041542B434950434C36
:10AA00004F53453D350000003235352E3235352E59
:10AA10003235352E32353500C0080020C004002004
:10AA2000C00C0020C000002054656D636F636F6E22
:10AA300074726F6C73000000A40000209D00002061
:10AA40002048414E445348414B455F444F4E4520BA
:10AA500077696669200D0A00B40000207047FEE7A0
:10AA6000FEE7FEE7FEE7704770477047704700005B
:10AA70000CB50022019200925248016841F48031E5
:10AA800001604FF4A063016801F400310091019965
:10AA9000491C0191009911B901999942F3D10168BA
:10AAA000890302D50121009100E00092009901295B
:10AAB00030D145490A6842F010020A600A6822F063
:10AAC00003020A600A6842F002020A6041684160BB
:10AAD00041684160416841F480614160416821F40E
:10AAE0007C114160416841F4E8114160016841F026
:10AAF0008071016001688901FCD5416821F0030182
:10AB00004160416841F0020141604168C1F3810147
:10AB10000229FAD10CBDABE710B52A48016841F013
:10AB2000010101604168294A114041600168284AD9
:10AB300011400160016821F480210160416821F425
:10AB4000FE0141604FF41F018160FFF7E4FF2149DE
:10AB50004FF00060086010BD10B51A4A506800F050
:10AB60000C011D4B1D4800290ED004290ED00829C8
:10AB70000ED003605168194AC1F30311121D515CD4
:10AB80000268CA40026010BD0360F3E70360F1E7AA
:10AB9000516801F47011536803F48033022404EB0C
:10ABA000914133B153689B0307D50D4B5943016065
:10ABB000E0E70B4B59430160DCE7074B5943016069
:10ABC000D8E7000000100240002002400000FFF81B
:10ABD000FFFFF6FE08ED00E000127A0010000020F2
:10ABE00000093D002A4908432A490860704770B5AA
:10ABF0000F23C27801260178002A1ED0254A126848
:10AC000002F4E062C2F5E062120AC2F10404D34029
:10AC10004578A54082781A402A43120101F1E021CB
:10AC200081F80024007800F01F018E404009800068
:10AC300000F1E020C0F8006170BD01F01F00864007
:10AC40004809800000F1E020C0F8806170BD124A20
:10AC5000114001430F48001F016070470D4A121D4B
:10AC6000002903D0116801431160704711688143C6
:10AC7000116070474FF0E021042804D0086920F0EB
:10AC8000040008617047086940F0040008617047DB
:10AC90000000FA050CED00E080FFFF1F10B59C4995
:10ACA000884209D10121042000F049FF0021BDE8BC
:10ACB0001040042000F043BF9649884209D1012189
:10ACC000082000F03CFF0021BDE81040082000F003
:10ACD00036BF9149884209D10121102000F02FFF91
:10ACE0000021BDE81040102000F029BF8B498842A8
:10ACF00009D10121202000F022FF0021BDE81040F1
:10AD0000202000F01CBF8649884209D10121402043
:10AD100000F015FF0021BDE81040402000F00FBFFB
:10AD20008049884209D10121802000F008FF0021DC
:10AD3000BDE81040802000F002BF7B4988420AD164
:10AD400084150121204600F0FAFE2046BDE810409F
:10AD5000002100F0F4BE10BD10B50121084600F03E
:10AD6000EEFE0021BDE81040012000F0E8BE2DE914
:10AD7000F0410022CC7804F00F03E40601D58C7872
:10AD800023430C784FF00F0714F0FF0F4FF0010C26
:10AD90001CD005680CFA02F40E882640A64211D198
:10ADA000960007FA06F825EA080503FA06F848EAC5
:10ADB0000505CE78282E02D0482E02D002E044614C
:10ADC00000E00461521C082AE4D305600A88FF2AC7
:10ADD0001ED94568002202F108060CFA06F40E8816
:10ADE0002640A64210D1960007FA06F825EA080583
:10ADF00003FA06F848EA0505CE78282E00D144610A
:10AE0000CE78482E00D10461521C082AE3D3456055
:10AE1000BDE8F0814FF6FF710180022181700421AD
:10AE2000C17070470246002092680A4200D001209B
:10AE30007047806880B2704702460020D2680A429C
:10AE400000D001207047C06880B270470161704730
:10AE500041617047002A01D001617047416170472C
:10AE6000C160704741F48032826181618261816991
:10AE70008069704710B52D4B1A684FF680742240D8
:10AE800042EA00100843186010BD2949C8617047A4
:10AE9000F0B5264C002801DAE36900E06368C0F3EE
:10AEA0000346420D120185B2C0F301579540032FAE
:10AEB00007D0C2020CD50322B240934343F0706224
:10AEC00009E023F07062636823F07063636002E05E
:10AED000AB4343F0706201B12A43002801DAE2611A
:10AEE000F0BD6260F0BD10B58A07120F0F239340CA
:10AEF00021F003040D4921448C689C438C608B68CD
:10AF0000904003438B6010BD0949DC3108607047F5
:10AF100000080140000C01400010014000140140F5
:10AF200000180140001C01400020014000000140C9
:10AF3000000020420D49086070470C494860704786
:10AF40000A498860704709494AF6AA200860704794
:10AF500006494CF6CC400860704701460020034A81
:10AF6000D2680A4200D00120704700000030004043
:10AF700030B50288F94CFA4DA0420DD0A8420BD052
:10AF8000B0F1804F08D0F74B984205D0F64B98426D
:10AF900002D0F64B984203D122F070034A881A433C
:10AFA000F34B984206D0F34B984203D022F44073FF
:10AFB000CA881A4302808A8882850A880285A0424C
:10AFC0000AD0A84208D0EC4A904205D0EB4A904201
:10AFD00002D0EB4A904201D1097A01860121818297
:10AFE00030BD30B5028C22F001020284028C8388CD
:10AFF000048B24F0700424F003050C882C4322F009
:10B0000002020D8915434A882A43D44DA8420BD029
:10B01000D34DA84208D0D84DA84205D0D74DA8425C
:10B0200002D0D74DA8420FD122F008054A892A4301
:10B0300022F004058A882A4323F4807323F40073E2
:10B040008D891D43CB892B4383800483C9888186E6
:10B05000028430BD70B5028C22F010020284028C92
:10B060008388048B24F4E04424F440760D884FF662
:10B07000FF7404EA0525354322F020020E8904EA14
:10B08000061616434A8804EA02123243B34EB0420F
:10B0900002D0B34EB04217D122F080024E8904EAAA
:10B0A0000616164326F040068A8804EA0212324346
:10B0B00023F4806323F400638E8904EA86061E432A
:10B0C000CB8904EA8303334383800583C9880187DE
:10B0D000028470BD70B5028C22F480720284028CEE
:10B0E0008388848B24F0700424F003040D882543A6
:10B0F00022F400720E894FF6FF7404EA0626164306
:10B100004A8804EA02223243944EB04202D0944E5E
:10B11000B04217D122F400664A8904EA022232437F
:10B1200022F480668A8804EA0222324323F48053A0
:10B1300023F400538E8904EA06161E43CB8904EAE1
:10B140000313334383808583C9888187028470BD5C
:10B1500070B5028C22F480520284058C8288838B25
:10B1600023F4E04323F440760C884FF6FF7303EAA0
:10B170000424344325F400550E8903EA06362E4391
:10B180004D8803EA05353543744EB04202D0744E03
:10B19000B04205D122F480468A8903EA8212324302
:10B1A00082808483C988A0F84010058470BD4FF662
:10B1B000FF71818000210180C18041800172704750
:10B1C000002904D0018841F0010101807047018805
:10B1D00021F0010101807047002A03D082890A43CF
:10B1E0008281704782898A43828170470185828289
:10B1F0007047028822F070020A4302807047028979
:10B2000022F070020A430281704770B50589048BF1
:10B21000068C25F007050D434FF6FC410C4040F22B
:10B2200001110C4326F022064FF6FF7101EA0311CB
:10B230001143314305810483018470BD028B22F0E8
:10B2400070020A4302837047028B22F4E0424FF6F9
:10B25000FF7303EA0121114301837047828B22F0BF
:10B2600070020A4382837047828B22F4E0424FF6D9
:10B27000FF7303EA0121114381837047002904D041
:10B28000018841F0800101807047018821F0800130
:10B2900001807047002904D0818841F00401818039
:10B2A0007047818821F0040181807047002904D013
:10B2B000818841F0080181807047818821F0080170
:10B2C00081807047002904D0818841F0010181808C
:10B2D0007047818821F0010181807047028B22F044
:10B2E00008020A4302837047028B22F400624FF681
:10B2F000FF7303EA0121114301837047828B22F01F
:10B3000008020A4382837047828B22F400624FF660
:10B31000FF7303EA0121114381837047028B22F0FE
:10B3200004020A4302837047028B22F480624FF6C4
:10B33000FF7303EA0121114301837047828B22F0DE
:10B3400004020A4382837047828B22F480624FF6A4
:10B35000FF7303EA0121114381837047002C0140F0
:10B36000003401400004004000080040000C004090
:10B370000010004000140040004001400044014023
:10B3800000480140028B22F080020A430283E4E776
:10B39000028BC2F30E024FF6FF7303EA0121114341
:10B3A0000183DAE7828B22F080020A438283D4E7AA
:10B3B000828BC2F30E024FF6FF7303EA01211143A1
:10B3C0008183CAE7028C22F002020A430284C4E7A6
:10B3D000028C22F008020A430284BEE7028C22F0AB
:10B3E00020024FF6FF7303EA011111430184B4E711
:10B3F000028C22F080024FF6FF7303EA0111114321
:10B400000184AAE7028C22F400724FF6FF7303EA6C
:10B41000012111430184A0E7028C22F400624FF65F
:10B42000FF7303EA01211143018496E7028C22F4A1
:10B4300000524FF6FF7303EA0131114301848CE798
:10B4400010B501238B40048C9C430484038C8A40F8
:10B450001343038410BD10B504238B40048C9C431C
:10B460000484038C8A401343038410BD30B500F17B
:10B47000180301248C40058CA5430584002911D0B4
:10B4800008290FD0091FC1F34E001844016821F4A8
:10B49000E041016001684FF6FF7303EA02221143A5
:10B4A000016030BD03EB5100016821F070010160C3
:10B4B00001681143016030BD002904D0018841F0CA
:10B4C0000201018049E7018821F00201018044E77F
:10B4D000002904D0018841F0040101803DE7018882
:10B4E00021F00401018038E7002904D0818841F06F
:10B4F0008001818031E7818821F0800181802CE703
:10B50000028822F00802028002880A43028024E7AF
:10B51000828822F07002828082880A4382801CE73F
:10B52000028922F00702028102890A43028114E79C
:10B53000028922F08002028102890A4302810CE71B
:10B5400081840AE7818508E7818606E7018704E7A9
:10B55000818702E7A0F84010FFE6028B22F00C0280
:10B560000283028B0A430283F7E6028B22F44062D5
:10B570000283028B4FF6FF7303EA01210A43028321
:10B58000EBE6828B22F00C028283828B0A43828359
:10B59000E3E6828B22F440628283828B4FF6FF7354
:10B5A00003EA01210A438283D7E6028822F440722B
:10B5B000028002880A430280CFE6808ECDE6008FAB
:10B5C000CBE6808FC9E6B0F84000C6E6808CC4E6C2
:10B5D000008DC2E602460020128A0A4200D00120F5
:10B5E000BBE6C9430182B8E602460020138A0B403D
:10B5F00092890A40002B02D0002A00D00120ACE63C
:10B60000C9430182A9E6000010B5E14988420AD188
:10B6100001218C03204600F092FA2046BDE810403C
:10B62000002100F08CBADB4988420AD101214C0488
:10B63000204600F08FFA2046BDE81040002100F0BF
:10B6400089BAD54988420AD101218C04204600F0EC
:10B6500081FA2046BDE81040002100F07BBACF49B6
:10B6600088420AD10121CC04204600F073FA20461A
:10B67000BDE81040002100F06DBAC94988420AD1E6
:10B6800001210C05204600F065FA2046BDE8104077
:10B69000002100F05FBA10BD30B585B004460D46FC
:10B6A000208A4CF6FF710840E98801432182A08975
:10B6B0004EF6F3110840A9882A8911436A8902438A
:10B6C0001143A181A08A4FF6FF410840A989014397
:10B6D000A182684600F0C5F9AD48844201D10398C3
:10B6E00000E00298A189090408D500EBC00101EB34
:10B6F000001029684900B0FBF1F007E000EBC00141
:10B7000001EB001029688900B0FBF1F06422B0FB66
:10B71000F2F109010B096FF018056B4300EB830090
:10B72000A3891D044FF0320307D503EBC000B0FB23
:10B73000F2F000F00700084306E003EB0010B0FB56
:10B74000F2F000F00F000843208105B030BD4FF447
:10B750001651016000218180C18001810C2242814B
:10B760008181704710B5038A4FF2FF0213400A88A7
:10B770004C8822438C88C9880C4322431A43028296
:10B7800010BD0021018041808180C1807047002967
:10B7900004D0818941F4005181817047818921F46D
:10B7A00000518181704710B540F66A13C1F342130E
:10B7B00001F01F040121A140012B07D0022B07D06B
:10B7C00014303AB102680A43026010BD0C30F8E749
:10B7D0001030F6E702688A43026010BD002A03D0E9
:10B7E000828A0A4382827047828A8A4382827047B1
:10B7F000028A22F00F020282028A0A430282704702
:10B80000828922F40062828182890A4382817047A0
:10B81000002904D0818941F002018181704781892A
:10B8200021F0020181817047028A22F02002028207
:10B83000028A0A4302827047002904D0018A41F437
:10B84000804101827047018A21F480410182704762
:10B85000C1F30801818070478088C0F308007047F9
:10B86000818941F0010181817047028BD2B202834C
:10B87000028B42EA012101837047028B02F47F426E
:10B880000283028B0A4302837047002904D0818A15
:10B8900041F0200181827047818A21F0200181825C
:10B8A0007047002904D0818A41F0100181827047DD
:10B8B000818A21F0100181827047002904D0818A99
:10B8C00041F0080181827047818A21F0080181825C
:10B8D0007047002904D0818941F40041818170477B
:10B8E0008189C1F30E0181817047002904D0818ACA
:10B8F00041F4006181827047818A21F40061818274
:10B900007047828A22F004028282828A0A438282FB
:10B910007047002904D0818A41F00201818270477A
:10B92000818A21F00201818270470246002012883C
:10B930000A4200D0012070478A05C9430180704740
:10B9400070B5002440F66A12C1F3421301F01F05DE
:10B95000012606FA05F2012B0CD0022B0DD0838AAA
:10B960001340090A8E40008830400BB100B1012419
:10B97000204670BD83891340F3E7038A1340F0E744
:10B9800040F66A120A0A01219140C94301807047BA
:10B99000003801400044004000480040004C004096
:10B9A000005000407E48016841F00101016041689B
:10B9B0007C4A1140416001687B4A11400160016886
:10B9C00021F480210160416821F4FE0141604FF4BF
:10B9D0001F018160704772490A6822F480320A6050
:10B9E0000A6822F480220A60B0F5803F07D0B0F5E3
:10B9F000802F03D1086840F4A020086070470868D1
:10BA000040F4803008607047034600205909644ABA
:10BA100001290AD002290AD0516A03F01F0201232A
:10BA200093400B4200D0012070471168F5E7116A7E
:10BA3000F3E718B5002000904FF4A0643120FFF721
:10BA4000E3FF0099491C00910099A14201D0002810
:10BA5000F4D03120FFF7D8FF08B1012018BD002035
:10BA600018BD10B54E4A516801F00C014F4B00292A
:10BA700027D0042927D0082927D00360516801F076
:10BA8000F00109094A4B5C5C0168E140416054687F
:10BA900004F4E064240A1C5D21FA04F48460546810
:10BAA00004F46054E40A1B5DD940C160526802F49A
:10BAB0004042920B3E4B1B1F9A5CB1FBF2F10161BD
:10BAC00010BD0360DAE70360D8E7516801F4701134
:10BAD000536803F48033022404EB914133B153687B
:10BAE0009B0307D5334B59430160C7E7314B59439B
:10BAF0000160C3E72D4B59430160BFE7284A002985
:10BB000003D05169014351617047516981435161CB
:10BB10007047234A002903D091690143916170471E
:10BB200091698143916170471D4A002903D0D16911
:10BB30000143D1617047D1698143D1617047184A8F
:10BB4000002903D0D1680143D1607047D168814397
:10BB5000D1607047124A002903D011690143116175
:10BB6000704711698143116170471349086070473C
:10BB70001249C86470470A49C87170470848416A49
:10BB800041F080714162704701460020044A92688A
:10BB90000A4200D0012070470149887270470000B6
:10BBA000001002400000FFF8FFFFF6FE00127A00CE
:10BBB0002800002000093D004004424200004242AB
:10BBC0000948804709480047FEE7FEE7FEE7FEE731
:10BBD000FEE7FEE7FEE7FEE7FEE7FEE7044805496D
:10BBE000054A064B70470000DD0B000831010008D4
:10BBF000F0490020F0690020F0590020F0590020A1
:10BC000038B501210420FFF784FF0120ADF80000C2
:10BC100010208DF8030003208DF802002A4C69469D
:10BC20002046FFF7A4F801212046FFF70FF938BDA1
:10BC300001212548FFF70CB901212348FFF706B978
:10BC400022480168C9430160704770B50446002C62
:10BC500009D01F4D6868201A052819D31D4800789F
:10BC6000012803D010E0BDE87040E9E71A490888D0
:10BC7000401C80B208804CF25031884204D917A091
:10BC800003F0C6FF01F0B8FB6C602878401C2870F8
:10BC900028783C2811D006DC14280BD0282808D19D
:10BCA000BDE87040C8E750280AD0C82801D100205C
:10BCB000287070BDBDE87040BAE7BDE87040B7E7D6
:10BCC000BDE87040B8E70000000801408001214253
:10BCD000380000209D000020A00000207265626FE7
:10BCE0006F74206166746572207368616B6520648F
:10BCF0006F6E65200D0A000038B5954C208FADF8A9
:10BD0000000048208DF803006946606BFFF72FF8AC
:10BD1000218F606BFFF79AF838BD38B58C4C208FB7
:10BD2000ADF8000010208DF8030003208DF802000C
:10BD30006946606BFFF71BF8218F606BFFF786F891
:10BD400038BD834A002803D0918D906AFFF77EB8F2
:10BD5000918D906AFFF77CB87D4A002803D0118F3F
:10BD6000506BFFF773B8118F506BFFF771B87848BD
:10BD7000018F406BFFF756B8F8B5754C0121606A2A
:10BD8000FFF7C7FEA08DADF8000010258DF8035019
:10BD900003268DF802606946A06AFEF7E8FFA18DD0
:10BDA000A06AFFF753F80121206BFFF7B2FE208F46
:10BDB000ADF800008DF803508DF802606946606BA5
:10BDC000FEF7D5FF218F606BFFF740F8F8BD10B587
:10BDD000FFF7A3FF0120FFF7BFFF0120FFF7B1FF2F
:10BDE000042001F06CF90020FFF7B6FF042001F0F9
:10BDF00066F9BDE810400020A3E710B5FFF78DFFFE
:10BE00000020FFF79EFF0020FFF7A6FF042001F0AF
:10BE100056F90120FFF795FF0120FFF79DFFBDE8D0
:10BE20001040042001F04BB910B500240120FFF7A9
:10BE300093FFFFF761FF012001F041F90120FFF7B7
:10BE400080FF012001F03BF907E0641CE4B2FA2C0A
:10BE500003D9FFF7D2FF012010BDFFF788FF0028AC
:10BE6000F3D1FFF76EFF002010BD10B50020FFF7E3
:10BE700068FFFFF752FF0020FFF76EFF022001F07E
:10BE80001EF90120FFF75DFF022001F018F9BDE85F
:10BE90001040002055E710B50020FFF752FFFFF7D4
:10BEA0003CFF0120FFF758FF022001F008F90120B4
:10BEB000FFF747FF022001F002F9BDE81040002023
:10BEC0003FE770B50546FFF728FF0020FFF739FF71
:10BED0000024E809FFF740FF6806050E022001F084
:10BEE000EEF80120FFF72DFF022001F0E8F8002016
:10BEF000FFF727FF022001F0E2F8641CE4B2082CEF
:10BF0000E7D370BD70B506460024FFF7F5FE0025A7
:10BF10000020FFF716FF022001F0D1F80120FFF703
:10BF200010FF6006040EFFF722FF08B1641CE4B2A4
:10BF3000012001F0C4F86D1CEDB2082DE8D31EB14C
:10BF4000FFF793FF204670BDFFF7A5FFFAE700005B
:10BF50006C62000838B56B4CE06B002815D054F8C3
:10BF60003C0F0121FFF7D5FD2089ADF8000010201E
:10BF70008DF8030003208DF8020069466068FEF723
:10BF8000F6FE21896068FEF761FF38BD5D4AD16B1E
:10BF900000290AD020B1B2F84410106CFEF756BF49
:10BFA000B2F84410106CFEF753BF704710B5FFF79E
:10BFB000E3FEBDE81040CDE710B50446FFF707FFEC
:10BFC000200AA02101EB4000C0B2FFF77AFFFFF783
:10BFD0002BFFE0B2FFF775FFFFF726FFFFF7F7FE35
:10BFE000A120FFF76EFFFFF71FFF0020FFF78AFF7A
:10BFF0000446FFF702FF204610BD70B504460D460B
:10C000000020FFF7C3FFFFF7E2FE200AA02101EBAB
:10C010004000C0B2FFF755FFFFF706FFE0B2FFF7A1
:10C0200050FFFFF701FF2846FFF74BFFFFF7FCFE2D
:10C03000FFF7E3FE0120FFF7A9FFBDE870400520F0
:10C0400001F04FB82DE9F04106460D461746002491
:10C0500009E0E00025FA00F0C1B2301980B2FFF724
:10C06000CCFF641CE4B2BC42F3D3BDE8F0812DE9FF
:10C07000F04102460E4600200024971908E0050210
:10C08000381B401E80B2FFF797FF2844641CE4B2BF
:10C09000B442F4D3E9E710B5FF20FFF78DFF552830
:10C0A0000AD05521FF20FFF7A8FFFF20FFF784FFEC
:10C0B000552803D0012010BD002010BD002010BD68
:10C0C00070B504460E46154608E02046641CA4B22E
:10C0D000FFF772FF06F8010B6D1EADB2002DF4D113
:10C0E00070BD70B506460D46144606E02978304608
:10C0F000FFF783FF761CB6B26D1C641EA4B2F5D2A6
:10C1000070BD00006C6200084348424941604349E9
:10C11000416070474048016941F08001016170470A
:10C120003D48C068C10701D001207047410701D5D3
:10C1300002207047C00601D50320704700207047D9
:10C1400070B50446FFF7ECFF0546012D05D100F060
:10C15000B6FF641EA4B2002CF4D104B9FF25284612
:10C1600070BD70B5054645F6FF763046FFF7E8FF2F
:10C17000002812D1284C206940F00200206165613E
:10C18000206940F0400020613046FFF7D9FF0128C8
:10C1900003D0216921F00201216170BD70B506460E
:10C1A0000D46FF20FFF7CCFF00280ED11A4C206966
:10C1B00040F0010020613580FF20FFF7C1FF01281A
:10C1C00003D0216921F00101216170BD0088704711
:10C1D0002DE9F04105460E461746002407E036F8E3
:10C1E00014102846FFF7DAFFAD1C641CA4B2BC4251
:10C1F000F5D3BDE8F08110B50446002307E02046E2
:10C20000FFF7E4FF21F81300A41C5B1C9BB29342D0
:10C21000F5D310BD2301674500200240AB89EFCD67
:10C2200038B500F098FF00900098FFF70EFD444CE1
:10C2300001212046FFF7CEF9012814D1414B18788F
:10C2400048B1414A1188481C1080B1F57A7F02D963
:10C2500000201870108000F079FF2046BDE83840BB
:10C260000121FFF7BEB938BD7FB504460D46012157
:10C270000220FFF759FCADF80840ADF80450002447
:10C28000ADF80A40ADF806402D4D01A92846FEF74D
:10C290006FFE1D218DF800108DF801408DF80240D1
:10C2A00001218DF803106846FEF7A1FC012211461A
:10C2B0002846FEF791FF01212846FEF781FF7FBD4A
:10C2C00010B5224C01212046FFF784F9012803D143
:10C2D0001F480168491C01602046BDE8104001214B
:10C2E000FFF77FB97FB504460D4601211020FFF707
:10C2F0001BFCADF80840ADF804500020ADF80A0072
:10C30000ADF80600114C01A92046FEF731FE36219A
:10C310008DF8001001218DF8011003228DF8022004
:10C320008DF803106846FEF762FC01221146204694
:10C33000FEF752FF01212046FEF742FF7FBD0000BD
:10C340000004004001000020040000200010004014
:10C3500040000020F0B503460025084600260A2AC2
:10C3600001D00670F0BD002B1DD005DA4FF02D0274
:10C3700000F8012BC3F1000342F210724FF00A07DC
:10C3800093FBF2F454EA050C06D004F1300500F8F2
:10C39000015B04FB1233012592FBF7F2002AEFDC6C
:10C3A00006700846F0BD3022027046700846F0BDA7
:10C3B0000FB430B585B005460AA800900EE05C29A0
:10C3C00014D025292CD0521C28460992FFF740FA98
:10C3D00080212846FFF7A9FA0028F9D0099A117898
:10C3E0000029ECD105B030BC5DF814FB521C099259
:10C3F00010786E280CD0722802D0521C0992E7E700
:10C400000D212846FFF724FA0998401C0990DFE720
:10C410000A212846FFF71CFA0998401C0990D7E723
:10C42000521C09921078642819D0732802D0521C2B
:10C430000992CDE7009810C8009009E02846FFF760
:10C4400007FA80212846FFF770FA0028F9D0641C0B
:10C4500021780029F2D10998401C0990B8E700988A
:10C4600008C800900A2201A91846FFF773FF01AC23
:10C4700009E02846FFF7ECF980212846FFF755FA36
:10C480000028F9D0641C21780029F2D10998401CB9
:10C4900009909DE708B54FF4A060FEF7A3FB342098
:10C4A0008DF8000000208DF801008DF802000120B9
:10C4B0008DF803006846FEF79AFB08BD10B586B0FC
:10C4C0000121C804FFF730FB01211020FFF721FBF9
:10C4D0004FF48060ADF8140018208DF81700032089
:10C4E0008DF81600FE4C05A92046FEF740FCE1142D
:10C4F000ADF8141004218DF8171005A92046FEF799
:10C5000036FC4FF4E13001900020ADF80800ADF8A2
:10C510000A00ADF80C00ADF810000C20ADF80E00CC
:10C52000F04C01A92046FFF7B7F8012240F225514F
:10C530002046FFF738F9012240F224412046FFF758
:10C5400032F9FFF7A7FF01212046FFF720F906B0D7
:10C5500010BDF8B5E4481024032590F836000528EE
:10C560001CD006281AD007282ED00C282CD0092839
:10C5700013D101212020FFF7CCFA0420ADF80000F0
:10C580008DF803408DF80250D84C69462046FEF7DE
:10C59000EEFB04212046FEF759FCF8BD01210802FC
:10C5A000FFF7B7FA4FF48056ADF800608DF80340FE
:10C5B0008DF80250CE4C69462046FEF7D8FB314636
:10C5C0002046FEF743FCF8BD01211020FFF7A1FA39
:10C5D0004FF40076ADF800608DF803408DF80250FE
:10C5E000BF4C69462046FEF7C2FB31462046FEF7A7
:10C5F0002DFCF8BD10B5FFF7ACFFFFF75FFFBA48A1
:10C60000012190F8360005280AD0062808D007280E
:10C6100009D00C2807D0092801D1B648016010BD07
:10C62000B548016010BDB548016010BDAE4800219D
:10C6300090F8360005280AD0062808D0072809D027
:10C640000C2807D0092801D1AA4801607047AA48E0
:10C6500001607047A948016070472DE9F0410E461E
:10C6600017460246A6A19F48FFF7A2FE56EA07001A
:10C670000ED0A54DB5F800046FF30E00A5F8000428
:10C6800095F8010420F0800085F80104002407E0FB
:10C690000120BDE8F081322000F023FDFEF753FCBD
:10C6A00095F80104000604D42046641CA4B20A28AC
:10C6B000F1D3B5F800140020C1F30E0168546EB137
:10C6C00067B13146904803F07BFB28B939468E4864
:10C6D00003F076FB0028DCD00120DAE73EB13146DA
:10C6E000894803F06DFB0028D3D00120D1E73946FB
:10C6F000854803F065FB0028CBD00120C9E770B561
:10C7000000247948012190F83600052808D0062831
:10C7100006D0072807D00C2805D0092806D007E046
:10C720007548016004E07548016001E071480160EE
:10C730004FF47A7000F0D5FC4FF4FA750CE02B46FC
:10C74000002272A172A0FFF788FF08B1022070BD1D
:10C75000FFF76CFF641CE4B20A2CF0D301D0012077
:10C7600070BD002070BD40F6C413002805D001281C
:10C7700007D0022809D00020704766A263A168A0F4
:10C780006BE764A261A169A067E762A25FA16AA0EA
:10C7900063E700B59FB00B4602466AA101A803F00B
:10C7A00043FA41F28833002258A101A8FFF755FF50
:10C7B0001FB000BD00B59FB00B460092024666A1B7
:10C7C00001A803F031FA4FF47A7300224FA101A8B7
:10C7D000FFF743FFECE700B585B0002801D0012248
:10C7E00000E0002262A1684603F01EFA4FF4FA73DB
:10C7F000002246A16846FFF730FF05B000BDF0B546
:10C80000B9B004460F4615461E46642120A803F021
:10C810009BFB14B1012C0FD107E03B4658A259A154
:10C8200020A8009503F000FA06E03B4659A255A166
:10C8300020A8009503F0F8F9052E06D220AB324669
:10C8400055A102A803F0F0F904E020AA57A102A81C
:10C8500003F0EAF94FF47A6358A22CA102A8FFF77B
:10C86000FCFE39B0F0BD2DE9F041BAB08046409FE2
:10C870000E4615461C46642121A803F065FBCDE950
:10C880000065434643A251A121A8029403F0CCF9CC
:10C89000052F06D221AB3A463FA103A803F0C4F905
:10C8A00004E021AA41A103A803F0BEF94FF47A6382
:10C8B00042A216A103A8FFF7D0FE3AB0E9E610B5F0
:10C8C0009EB04FF4FA74002808D00B46012244A110
:10C8D000684603F0A9F923460EA28BE091E0000020
:10C8E00000100140004C0040C21400200014014020
:10C8F0000020014088812242B0012442A40122424A
:10C9000025730D0A00000000C00800204F4B0000F6
:10C91000415400006E6F206368616E67650000001F
:10C9200041542B43574D4F44453D310041542B4317
:10C93000574D4F44453D320041542B43574D4F44D2
:10C94000453D330041542B43574A41503D22257306
:10C95000222C22257322000041542B43575341506F
:10C960003D222573222C222573222C312C25640094
:10C9700041542B4349504D55583D2564000000005B
:10C9800054435000222573222C222573222C257318
:10C99000000000005544500041542B43495053546B
:10C9A0004152543D25642C257300000041542B4313
:10C9B000495053544152543D25730000414C524557
:10C9C000415920434F4E4E454354000022257322C7
:10C9D0002C222573222C25642C25642C2564000030
:10C9E00041542B4349505345525645523D25642CE2
:10C9F00025730000AFF2EC016846FFF72EFE1EB073
:10CA000010BD0B460022AFF22801684603F00CF976
:10CA100023460022AFF20C116846FFF71EFEEEE738
:10CA200010B54FF4FA730022AFF22011DDA0FFF72A
:10CA300014FED8B1DFA1E24803F0C2F908B1022028
:10CA400010BDE0A1DE4803F0BBF908B1032010BD22
:10CA5000DFA1DB4803F0B4F908B1042010BDDFA169
:10CA6000D74803F0ADF908B1052010BD002010BD76
:10CA700010B500244FF4FA730022AFF27011C9A070
:10CA8000FFF7EBFD00282DD0D7A1CD4803F098F992
:10CA900000B10124D8A1CA4803F092F910B144F0C2
:10CAA000020401E024F00204D7A1C54803F088F98C
:10CAB00010B144F0040401E024F00404D6A1C048FD
:10CAC00003F07EF910B144F0080401E024F00804FA
:10CAD000D5A1BB4803F074F910B144F0100401E093
:10CAE00024F01004204610BDF8B50E4617464FF44A
:10CAF0007A730022AFF2EC11CFA0FFF7AEFD002554
:10CB00000024D0A1AE4803F05BF910B1C01D002194
:10CB100038E00020F8BD435C2E2B02D0032D27D037
:10CB200028E0012C04D0022C06D0032C0ED01BE0F0
:10CB30009DF80020725517E09DF800309DF8012007
:10CB400003EB830302EB430272550DE09DF80030C6
:10CB5000642253439DF8012002EB820203EB420260
:10CB60009DF802301A4472556D1CEDB2002407E0A6
:10CB7000222B09D0303B2246641CE4B20DF802306F
:10CB8000491CC9B2B942C6D3012C04D0022C06D02C
:10CB9000032C0ED01BE09DF80000705517E09DF8A7
:10CBA00000009DF8011000EB800001EB4000705583
:10CBB0000DE09DF80010642041439DF8010000EB5A
:10CBC000800001EB40009DF80210084470550120E0
:10CBD000F8BD10B54FF4FA7423460022AFF2D42109
:10CBE0009AA0FFF73AFD38B123469CA2AFF2E421A8
:10CBF000BDE810409AA030E5002010BD10B54FF4FC
:10CC00007A7000F06EFA99A19948FFF7D1FBBDE860
:10CC100010404FF4FA7000F064BA2DE9F041164666
:10CC2000B2B00D461A4600240027DFF844820028DF
:10CC300007D02A46AFF280214046FFF7B9FB012713
:10CC400024E0052A05D233468AA1684602F0ECFFAB
:10CC500004E032468CA1684602F0E6FF6A46AFF275
:10CC600060314046FFF7A4FB022000F03AFA0BE0E7
:10CC7000295D4046FEF7ECFD80214046FEF755FE5B
:10CC80000028F9D0641CA4B2B442F1D3384632B0C3
:10CC9000FFE410B500244A490022B1F80034C3F380
:10CCA0000E03CA54002801D00C4605E07AA144487E
:10CCB00003F086F800B1424C204610BD70B50C461A
:10CCC00075A103F07DF881792C2901D0002070BD79
:10CCD000017A3A2910D1C279303A092A0CD892B295
:10CCE000002105E043185B7A04F8013B491C89B236
:10CCF0009142F7D3104670BD427A6FF02F053A2A61
:10CD000003D0837A3A2B1AD03EE0C279303A092A0E
:10CD10003AD8302938D3392936D802EB820205EBCC
:10CD2000420211448AB2002105E043189B7A04F8BC
:10CD3000013B491C89B29142F7D3104670BDC379BB
:10CD4000303B092B20D830291ED339291CD8302A52
:10CD50001AD3392A18D803EBC306303906EB03136C
:10CD600001EB810102EB830205EB410111448AB220
:10CD7000002105E04318DB7A04F8013B491C89B225
:10CD80009142F7D3104670BD002070BD70470B0A6A
:10CD90000370417000218170C170110A01714271EC
:10CDA0007047000041542B4349505354415455534C
:10CDB000000000005354415455533A320D0A00000C
:10CDC000C00800205354415455533A330D0A000013
:10CDD0005354415455533A340D0A000053544154AE
:10CDE00055533A350D0A00002B43495053544154D2
:10CDF00055533A302C0000002B43495053544154B2
:10CE000055533A312C0000002B43495053544154A0
:10CE100055533A322C0000002B434950535441548F
:10CE200055533A332C0000002B434950535441547E
:10CE300055533A342C00000041542B434946535279
:10CE40000000000053544149502C220041542B4310
:10CE500049504D4F44453D31000000003E00000068
:10CE600041542B43495053454E4400002B2B2B007B
:10CE7000004C004041542B43495053454E443D25FE
:10CE8000642C25640000000041542B434950534555
:10CE90004E443D25640000002B4950440000000032
:10CEA000704770B50446012000F087F9744D4021A9
:10CEB0002846FEF73AFD0028F9D0A1B22846FEF731
:10CEC000C7FC002000F079F9204670BDF0B587B0AE
:10CED000074601218803FEF71CFE694E3046FEF727
:10CEE00093FB684C01212068FEF713FE2089ADF802
:10CEF000180003258DF81A5018208DF81B0006A97C
:10CF00006068FDF734FF0121E068FEF702FEA08AA9
:10CF1000ADF8180048208DF81B0006A92069FDF720
:10CF200026FF25208DF8040001208DF805008DF8DE
:10CF300006508DF8070001A8FDF759FE0297002062
:10CF4000ADF80C00ADF80E00ADF81000ADF814000F
:10CF50000C20ADF8120002A93046FEF79DFB01221D
:10CF600040F225513046FEF71EFC01213046FEF707
:10CF70000EFC4548102690F83600072818D00828DF
:10CF800016D00C2814D00121A069FEF7C2FD208C18
:10CF9000ADF818008DF81B608DF81A5006A9E069ED
:10CFA000FDF7E5FE218CE069FDF750FF07B0F0BD0D
:10CFB00001212020FEF7ADFD4FF48074ADF818403C
:10CFC0008DF81B608DF81A50304D06A92846FDF7E4
:10CFD000CEFE21462846FDF739FFE7E770B586B05B
:10CFE000054601211020FEF794FD0121C804FEF73B
:10CFF0009BFD274E3046FEF707FB3015ADF81400B9
:10D0000003208DF8160018208DF81700214C05A973
:10D010002046FDF7ACFEE014ADF8140048208DF872
:10D02000170005A92046FDF7A2FE34208DF8000068
:10D0300000248DF801408DF8024001208DF8030096
:10D040006846FDF7D4FD0195ADF808407014ADF8C1
:10D050000A00ADF80C40ADF810400C20ADF80E0001
:10D0600001A93046FEF718FB012240F22551304657
:10D07000FEF799FB01213046FEF789FB06B070BD33
:10D08000003801406C620008C21400200014014006
:10D09000004C0040001001404FF0E0210A6922F0EE
:10D0A00004020A611849C008087000EB4002C2EB94
:10D0B000C0104FF6FF7202EAC00048807047124964
:10D0C000097848434FF0E021486100238B6101203B
:10D0D00008610869C20701D0C003FAD50B618B61F2
:10D0E00070470949498848434FF0E02148610023CF
:10D0F0008B61012008610869C20701D0C003FAD51D
:10D100000B618B61704700004800002013484FF40A
:10D110007A710068B0FBF1F04FF0E021B0F1807F50
:10D1200001D301200BE020F07F40401E48610C4AF3
:10D13000F02010700020886107200861002000B1F5
:10D14000FEE7086940F00100086170470548016882
:10D15000491D0160704703480068704710000020B7
:10D1600023ED00E04C000020F848FF214170817061
:10D170007047F64A91784140F5485378405C5840F2
:10D180009070F448405C50707047F0B5FF22FF2368
:10D190000021F14DEE4EEF4F08E00C46491C2C5D8E
:10D1A000C9B25440E4B2325D5A403B5D401EC0B249
:10D1B000F3D243EA022080B2F0BD30B4E64AE74C35
:10D1C0003C3AE74B92F836204FF4807100280ED09D
:10D1D000072A08D0082A06D00C2A04D0198CD8694E
:10D1E00030BCFDF733BE204630BCFDF72FBE072A0A
:10D1F00008D0082A06D00C2A04D0198CD86930BC73
:10D20000FDF726BE204630BCFDF722BE10B5CF4844
:10D210000021417281710020FFF7CFFFBDE810406F
:10D22000012240F22551CF48FEF7BDBA2DE9F04169
:10D23000CC4E40F2255739463046FEF781FBC34CB1
:10D240000025B0B3FCF79CFF3046FEF705FBC0B2EB
:10D25000627AC149FF2A03D2531C6372885400E0EA
:10D260006572627A072A18D0207A824206D14B78FA
:10D27000102B08D0032B06D0062B04D0062A0AD187
:10D280004878192807D1002239463046FEF78BFA34
:10D29000E5710120A071BDE8F0814878642203287F
:10D2A00008D0062806D0102808D096202072E271F7
:10D2B000F1E709E008202072E271ECE78879093093
:10D2C0002072FA20E071E6E740F2277739463046CF
:10D2D000FEF736FB0128DED1E278A089824209D22E
:10D2E000501CE0709C48FF30815C3046BDE8F04146
:10D2F000FEF7AEBA40213046FEF717FB0128F9D100
:10D30000002239463046FEF74EFAE570BDE8F0419E
:10D310007CE7012051E710B58F4893493C38807A6B
:10D3200051F82000FFF7D2FD884CFF202070FFF756
:10D330006DFFFA20E07110BD70B5874DA5F13C047A
:10D340002878FF2805D0E188884202D008B1002063
:10D3500070BD6878192807D003283AD0062838D03D
:10D36000102836D0002070BD0420FFF70EFF697929
:10D370002A7901EB0221814201D0002070BDA878FA
:10D38000E978884201D30A4600E0024600D2084606
:10D39000E188914201D3814201D9002070BDFFF79D
:10D3A000DAFE02F0EFFCFCF7BFFE282190FBF1F261
:10D3B00001FB1200001DC5B200244FF4FA7604E010
:10D3C0003046FFF77CFE641CE4B2AC42F8D3012087
:10D3D00070BD5E4C207A801EC0B2FFF7D6FE217A67
:10D3E0002944891E4A78097842EA0121814201D103
:10D3F000012070BD002070BD012080F313885B48C0
:10D4000001685B4A01F4E06111430160BFF3408FA2
:10D41000FEE72DE9F05F002812D00627CC19E0784E
:10D42000A27800EB022085B24B4E60783C3EDFF8DC
:10D430001C814FF00009062804D0102874D0DAE1CE
:10D440000027EBE7062D1FD0102D24D03F48007891
:10D4500085B3022D42D0042D53D0072DEFD0082DD7
:10D4600063D00F2D6ED0222D6DD00C2D6CD0A5F178
:10D470002800052869D8C0B232186179D172617963
:10D480002830FEF7BAFDB6E16079F08061790620B8
:10D49000FEF7B3FDAFE1607988F805008E2806D06D
:10D4A0008F2804D061791020FEF7A7FDA3E188F84A
:10D4B0000090A0E1FFE78107C1D440F0020088F8A6
:10D4C0000000207970706079307061790020FEF77B
:10D4D00094FD21790120FEF790FD8CE14107AED447
:10D4E00040F0040088F800002079F0706079B07096
:10D4F00061790220FEF781FD21790320FEF77DFD91
:10D5000079E101079BD440F0080088F800002079F9
:10D5100070716079307161790420FEF76EFD2179B8
:10D520000520FEF76AFD66E11CE1810687D440F024
:10D53000200088F800006079707261790820FEF799
:10D540005CFD58E116E027E02EE033E050000020BB
:10D550000078000800790008FE1400200014014043
:10D560006C62000800380140B46200080CED00E075
:10D570000400FA056079092802D90920B07200E098
:10D58000B072B17A0920FEF738FDB07AF84951F847
:10D590002000FFF79BFC2EE1607986F83600617968
:10D5A0000E20FEF72AFD26E16079102895D288F832
:10D5B000040020E1A5F12F00032808D8C0B23218DA
:10D5C0006179517461792F30FEF717FD13E1A5F1F0
:10D5D0003300032808D8C0B2321861799175617997
:10D5E0003330FEF70AFD06E1A5F13700032808D81D
:10D5F000C0B232186179917661793730FEF7FDFC5F
:10D60000F9E03B2D0DD03C2D12D03D2D1ED0A5F1C3
:10D610003E00032821D8C0B23044617980F823103D
:10D62000E9E06079B07761793B20FEF7E6FCE2E063
:10D630006079217900EB0120308421793C20FEF7CC
:10D64000DCFC61793D20FEF7D8FCD4E0617986F8F6
:10D6500027102E20FEF7D1FCCDE0A5F142000328D3
:10D6600005D8C0B23044617980F82810C3E0A5F134
:10D670004600032805D8C0B23044617980F82C10E8
:10D68000B9E04A2D0BD04B2D0DD04C2D11D0B5F556
:10D69000487F4ED05D2D5ED05C2D60D0ABE06079D0
:10D6A00086F83000A7E06079217900EB01207086D0
:10D6B000A1E0607986F8340001284FD196F8271050
:10D6C000717596F83000B077708E30842E20FEF79A
:10D6D00094FCB17F3B20FEF790FC308C010A3C208B
:10D6E000FEF78BFC96F820103D20FEF786FC002507
:10D6F00074191134A17C2170E07D6071E07E60724C
:10D7000005F12F0080B2FEF778FC05F13300617956
:10D7100080B2FEF772FC05F13700617A80B2FEF745
:10D720006CFC6D1CADB2042DE2D386F83490FFF78B
:10D7300063FE607986F8350001280AD1002440F69E
:10D74000FF75FF212046FEF758FC641CA4B2AC42D2
:10D75000F7D3FFF751FE607986F822004BE0FCF723
:10D7600011FD48E094F805C0A07984453ED1814A76
:10D77000012010708048A0F80090C5F30A00A8F8B6
:10D780000A0058B998F8040010B9B5F5004F4BD30A
:10D7900005EB004000F10060C8F81000D8E9040271
:10D7A000824241D10022DFF8D4A10CE0BB180B4427
:10D7B00093F807B0B8F80A300AF803B05B1CA8F871
:10D7C0000A30521C92B26245F0D3B8F80A20B2F582
:10D7D000006F0BD1694900F0F5FCB8F80A10D8F8D1
:10D7E00014000844C8F81400A8F80A903D2D02D18E
:10D7F000A0791E281AD098F805007F2873D03F28FA
:10D8000078D0332874D01F2873D001280CD1B8F8F1
:10D810000A2032B15949D8F8100000F0D3FCA8F81A
:10D820000A90574901200870BDE8F09F1636217A0A
:10D830007174A07A7073207BB073A07BF073207C2E
:10D840003074A07CB074207DF074A07D3075207E93
:10D850007075A07EB075207FF075A07F307694F84B
:10D860002000707621346078227800EB0220B076B8
:10D87000E278A37802EB0322B28306F8011C30722F
:10D8800072812E20FEF7B9FB317A3B20FEF7B5FB03
:10D890007089010A3C20FEF7B0FBB07A163EC1B297
:10D8A0003D20FEF7AAFB002574191134A17C2170DC
:10D8B000E07D6071E07E607205F12F0080B2FEF7BE
:10D8C0009CFB05F13300617980B2FEF796FB05F110
:10D8D0003700617A80B2FEF790FB6D1CADB2042D6B
:10D8E000E2D3FFF789FD7E2088F805009CE701E080
:10D8F00019E01CE0FEF708FC1024E50505EBC42048
:10D90000FEF72FFC641CA4B2C02CF7D3FEF702FC78
:10D91000A8F80A9088F804901A48C8F814003E2025
:10D9200088F8050080E7342088F805007CE71E2091
:10D9300088F8050078E710B4144B134C9A89A0546A
:10D94000FF2A01D2521C9A81012901D110BC10E496
:10D9500010BC7047002807D0012808D1012240F2EE
:10D9600027710B48FDF71FBF0849002088817047C9
:10D97000B46200080100002004000020C20C002056
:10D980000000002000800008FD150020500000204D
:10D990000038014010B5012905D0FD490844FEF7C3
:10D9A00015FCC0B210BDFB490844FEF70FFCF8E7B8
:10D9B0002DE9F34FCDB08846002600244D9801ADE7
:10D9C000002867D00626002000212954401CC0B240
:10D9D0000628FAD308EB060999F8011099F8030014
:10D9E00099F8022000EB022080B24C9099F805A033
:10D9F000062953D0E84F032979D098F80100102860
:10DA000076D0192870D118F80600611C8EB22855FE
:10DA1000FFF7AFFB99F80100711C8CB2A855FFF716
:10DA2000A8FBB879611C8EB22855FFF7A2FB3878A5
:10DA3000711C8CB2A855FFF79CFB7878611C1FFA0B
:10DA400081F82855FFF795FBB87808F101018EB2EF
:10DA500005F80800FFF78DFBF878711C8CB2A8550B
:10DA6000FFF787FBCD4EB178601C80B229557178E5
:10DA7000421C94B229544D98002835D1224601A960
:10DA800007F23B1002F0F9F9B4814FB00120BDE874
:10DA9000F04F5FE70020FFF75DFF9BE74D9840B335
:10DAA00098F800008DF8040098F801008DF8050042
:10DAB00000208DF806008DF80700F01C010A8DF893
:10DAC00008108DF809000020311818F801206A5458
:10DAD000401CC0B20628F7D3B21D01A9B04802F01D
